{"abi":[{"type":"constructor","inputs":[{"name":"admin","type":"address","internalType":"address"},{"name":"_votingPeriod","type":"uint64","internalType":"uint64"},{"name":"_quorumRequired","type":"uint256","internalType":"uint256"}],"stateMutability":"nonpayable"},{"type":"function","name":"ADMIN_ROLE","inputs":[],"outputs":[{"name":"","type":"bytes32","internalType":"bytes32"}],"stateMutability":"view"},{"type":"function","name":"DEFAULT_ADMIN_ROLE","inputs":[],"outputs":[{"name":"","type":"bytes32","internalType":"bytes32"}],"stateMutability":"view"},{"type":"function","name":"EXECUTION_TIMELOCK","inputs":[],"outputs":[{"name":"","type":"uint64","internalType":"uint64"}],"stateMutability":"view"},{"type":"function","name":"EXECUTION_WINDOW","inputs":[],"outputs":[{"name":"","type":"uint64","internalType":"uint64"}],"stateMutability":"view"},{"type":"function","name":"GOVERNANCE_ROLE","inputs":[],"outputs":[{"name":"","type":"bytes32","internalType":"bytes32"}],"stateMutability":"view"},{"type":"function","name":"MAX_VOTING_PERIOD","inputs":[],"outputs":[{"name":"","type":"uint64","internalType":"uint64"}],"stateMutability":"view"},{"type":"function","name":"MIN_PROPOSAL_THRESHOLD","inputs":[],"outputs":[{"name":"","type":"uint256","internalType":"uint256"}],"stateMutability":"view"},{"type":"function","name":"MIN_VOTING_PERIOD","inputs":[],"outputs":[{"name":"","type":"uint64","internalType":"uint64"}],"stateMutability":"view"},{"type":"function","name":"VOTER_ROLE","inputs":[],"outputs":[{"name":"","type":"bytes32","internalType":"bytes32"}],"stateMutability":"view"},{"type":"function","name":"cancelProposal","inputs":[{"name":"proposalId","type":"uint256","internalType":"uint256"}],"outputs":[],"stateMutability":"nonpayable"},{"type":"function","name":"castVote","inputs":[{"name":"proposalId","type":"uint256","internalType":"uint256"},{"name":"support","type":"bool","internalType":"bool"}],"outputs":[],"stateMutability":"nonpayable"},{"type":"function","name":"executeProposal","inputs":[{"name":"proposalId","type":"uint256","internalType":"uint256"}],"outputs":[],"stateMutability":"nonpayable"},{"type":"function","name":"getProposal","inputs":[{"name":"proposalId","type":"uint256","internalType":"uint256"}],"outputs":[{"name":"proposer","type":"address","internalType":"address"},{"name":"proposalType","type":"uint8","internalType":"enum GovernanceModule.ProposalType"},{"name":"targetHash","type":"bytes32","internalType":"bytes32"},{"name":"createdAt","type":"uint64","internalType":"uint64"},{"name":"votingEndsAt","type":"uint64","internalType":"uint64"},{"name":"forVotes","type":"uint256","internalType":"uint256"},{"name":"againstVotes","type":"uint256","internalType":"uint256"},{"name":"executed","type":"bool","internalType":"bool"},{"name":"cancelled","type":"bool","internalType":"bool"}],"stateMutability":"view"},{"type":"function","name":"getProposalState","inputs":[{"name":"proposalId","type":"uint256","internalType":"uint256"}],"outputs":[{"name":"","type":"uint8","internalType":"enum ProposalState"}],"stateMutability":"view"},{"type":"function","name":"getRoleAdmin","inputs":[{"name":"role","type":"bytes32","internalType":"bytes32"}],"outputs":[{"name":"","type":"bytes32","internalType":"bytes32"}],"stateMutability":"view"},{"type":"function","name":"getSchema","inputs":[{"name":"schemaHash","type":"bytes32","internalType":"bytes32"}],"outputs":[{"name":"","type":"tuple","internalType":"struct CredentialSchema","components":[{"name":"schemaHash","type":"bytes32","internalType":"bytes32"},{"name":"name","type":"string","internalType":"string"},{"name":"proposer","type":"address","internalType":"address"},{"name":"createdAt","type":"uint64","internalType":"uint64"},{"name":"isActive","type":"bool","internalType":"bool"},{"name":"attributeHashes","type":"bytes32[]","internalType":"bytes32[]"}]}],"stateMutability":"view"},{"type":"function","name":"getVoterWeight","inputs":[{"name":"voter","type":"address","internalType":"address"}],"outputs":[{"name":"","type":"uint256","internalType":"uint256"}],"stateMutability":"view"},{"type":"function","name":"grantRole","inputs":[{"name":"role","type":"bytes32","internalType":"bytes32"},{"name":"account","type":"address","internalType":"address"}],"outputs":[],"stateMutability":"nonpayable"},{"type":"function","name":"hasRole","inputs":[{"name":"role","type":"bytes32","internalType":"bytes32"},{"name":"account","type":"address","internalType":"address"}],"outputs":[{"name":"","type":"bool","internalType":"bool"}],"stateMutability":"view"},{"type":"function","name":"hasVoted","inputs":[{"name":"proposalId","type":"uint256","internalType":"uint256"},{"name":"voter","type":"address","internalType":"address"}],"outputs":[{"name":"","type":"bool","internalType":"bool"}],"stateMutability":"view"},{"type":"function","name":"isApprovedIssuer","inputs":[{"name":"issuerDid","type":"bytes32","internalType":"bytes32"}],"outputs":[{"name":"","type":"bool","internalType":"bool"}],"stateMutability":"view"},{"type":"function","name":"isApprovedSchema","inputs":[{"name":"schemaHash","type":"bytes32","internalType":"bytes32"}],"outputs":[{"name":"","type":"bool","internalType":"bool"}],"stateMutability":"view"},{"type":"function","name":"nextProposalId","inputs":[],"outputs":[{"name":"","type":"uint256","internalType":"uint256"}],"stateMutability":"view"},{"type":"function","name":"pause","inputs":[],"outputs":[],"stateMutability":"nonpayable"},{"type":"function","name":"paused","inputs":[],"outputs":[{"name":"","type":"bool","internalType":"bool"}],"stateMutability":"view"},{"type":"function","name":"proposeIssuer","inputs":[{"name":"issuerDid","type":"bytes32","internalType":"bytes32"}],"outputs":[{"name":"proposalId","type":"uint256","internalType":"uint256"}],"stateMutability":"nonpayable"},{"type":"function","name":"proposeSchema","inputs":[{"name":"schemaHash","type":"bytes32","internalType":"bytes32"},{"name":"name","type":"string","internalType":"string"},{"name":"attributeHashes","type":"bytes32[]","internalType":"bytes32[]"}],"outputs":[{"name":"proposalId","type":"uint256","internalType":"uint256"}],"stateMutability":"nonpayable"},{"type":"function","name":"queueProposal","inputs":[{"name":"proposalId","type":"uint256","internalType":"uint256"}],"outputs":[],"stateMutability":"nonpayable"},{"type":"function","name":"quorumRequired","inputs":[],"outputs":[{"name":"","type":"uint256","internalType":"uint256"}],"stateMutability":"view"},{"type":"function","name":"removeIssuer","inputs":[{"name":"issuerDid","type":"bytes32","internalType":"bytes32"}],"outputs":[],"stateMutability":"nonpayable"},{"type":"function","name":"renounceRole","inputs":[{"name":"role","type":"bytes32","internalType":"bytes32"},{"name":"callerConfirmation","type":"address","internalType":"address"}],"outputs":[],"stateMutability":"nonpayable"},{"type":"function","name":"revokeRole","inputs":[{"name":"role","type":"bytes32","internalType":"bytes32"},{"name":"account","type":"address","internalType":"address"}],"outputs":[],"stateMutability":"nonpayable"},{"type":"function","name":"revokeSchema","inputs":[{"name":"schemaHash","type":"bytes32","internalType":"bytes32"}],"outputs":[],"stateMutability":"nonpayable"},{"type":"function","name":"setQuorum","inputs":[{"name":"newQuorum","type":"uint256","internalType":"uint256"}],"outputs":[],"stateMutability":"nonpayable"},{"type":"function","name":"setVoterWeight","inputs":[{"name":"voter","type":"address","internalType":"address"},{"name":"weight","type":"uint256","internalType":"uint256"}],"outputs":[],"stateMutability":"nonpayable"},{"type":"function","name":"setVotingPeriod","inputs":[{"name":"newPeriod","type":"uint64","internalType":"uint64"}],"outputs":[],"stateMutability":"nonpayable"},{"type":"function","name":"supportsInterface","inputs":[{"name":"interfaceId","type":"bytes4","internalType":"bytes4"}],"outputs":[{"name":"","type":"bool","internalType":"bool"}],"stateMutability":"view"},{"type":"function","name":"totalIssuers","inputs":[],"outputs":[{"name":"","type":"uint256","internalType":"uint256"}],"stateMutability":"view"},{"type":"function","name":"totalSchemas","inputs":[],"outputs":[{"name":"","type":"uint256","internalType":"uint256"}],"stateMutability":"view"},{"type":"function","name":"unpause","inputs":[],"outputs":[],"stateMutability":"nonpayable"},{"type":"function","name":"votingPeriod","inputs":[],"outputs":[{"name":"","type":"uint64","internalType":"uint64"}],"stateMutability":"view"},{"type":"event","name":"IssuerApproved","inputs":[{"name":"issuerDid","type":"bytes32","indexed":true,"internalType":"bytes32"},{"name":"timestamp","type":"uint64","indexed":false,"internalType":"uint64"}],"anonymous":false},{"type":"event","name":"IssuerProposed","inputs":[{"name":"issuerDid","type":"bytes32","indexed":true,"internalType":"bytes32"},{"name":"proposer","type":"address","indexed":true,"internalType":"address"}],"anonymous":false},{"type":"event","name":"IssuerRemoved","inputs":[{"name":"issuerDid","type":"bytes32","indexed":true,"internalType":"bytes32"},{"name":"timestamp","type":"uint64","indexed":false,"internalType":"uint64"}],"anonymous":false},{"type":"event","name":"Paused","inputs":[{"name":"account","type":"address","indexed":false,"internalType":"address"}],"anonymous":false},{"type":"event","name":"ProposalCreated","inputs":[{"name":"proposalId","type":"uint256","indexed":true,"internalType":"uint256"},{"name":"proposer","type":"address","indexed":true,"internalType":"address"},{"name":"targetHash","type":"bytes32","indexed":true,"internalType":"bytes32"}],"anonymous":false},{"type":"event","name":"ProposalQueued","inputs":[{"name":"proposalId","type":"uint256","indexed":true,"internalType":"uint256"},{"name":"executionEta","type":"uint64","indexed":false,"internalType":"uint64"}],"anonymous":false},{"type":"event","name":"QuorumUpdated","inputs":[{"name":"oldQuorum","type":"uint256","indexed":false,"internalType":"uint256"},{"name":"newQuorum","type":"uint256","indexed":false,"internalType":"uint256"}],"anonymous":false},{"type":"event","name":"RoleAdminChanged","inputs":[{"name":"role","type":"bytes32","indexed":true,"internalType":"bytes32"},{"name":"previousAdminRole","type":"bytes32","indexed":true,"internalType":"bytes32"},{"name":"newAdminRole","type":"bytes32","indexed":true,"internalType":"bytes32"}],"anonymous":false},{"type":"event","name":"RoleGranted","inputs":[{"name":"role","type":"bytes32","indexed":true,"internalType":"bytes32"},{"name":"account","type":"address","indexed":true,"internalType":"address"},{"name":"sender","type":"address","indexed":true,"internalType":"address"}],"anonymous":false},{"type":"event","name":"RoleRevoked","inputs":[{"name":"role","type":"bytes32","indexed":true,"internalType":"bytes32"},{"name":"account","type":"address","indexed":true,"internalType":"address"},{"name":"sender","type":"address","indexed":true,"internalType":"address"}],"anonymous":false},{"type":"event","name":"SchemaApproved","inputs":[{"name":"schemaHash","type":"bytes32","indexed":true,"internalType":"bytes32"},{"name":"timestamp","type":"uint64","indexed":false,"internalType":"uint64"}],"anonymous":false},{"type":"event","name":"SchemaProposed","inputs":[{"name":"schemaHash","type":"bytes32","indexed":true,"internalType":"bytes32"},{"name":"proposer","type":"address","indexed":true,"internalType":"address"},{"name":"name","type":"string","indexed":false,"internalType":"string"}],"anonymous":false},{"type":"event","name":"SchemaRevoked","inputs":[{"name":"schemaHash","type":"bytes32","indexed":true,"internalType":"bytes32"},{"name":"timestamp","type":"uint64","indexed":false,"internalType":"uint64"}],"anonymous":false},{"type":"event","name":"Unpaused","inputs":[{"name":"account","type":"address","indexed":false,"internalType":"address"}],"anonymous":false},{"type":"event","name":"VoteCast","inputs":[{"name":"proposalId","type":"uint256","indexed":true,"internalType":"uint256"},{"name":"voter","type":"address","indexed":true,"internalType":"address"},{"name":"support","type":"bool","indexed":false,"internalType":"bool"},{"name":"weight","type":"uint256","indexed":false,"internalType":"uint256"}],"anonymous":false},{"type":"event","name":"VoterWeightSet","inputs":[{"name":"voter","type":"address","indexed":true,"internalType":"address"},{"name":"weight","type":"uint256","indexed":false,"internalType":"uint256"}],"anonymous":false},{"type":"event","name":"VotingPeriodUpdated","inputs":[{"name":"oldPeriod","type":"uint64","indexed":false,"internalType":"uint64"},{"name":"newPeriod","type":"uint64","indexed":false,"internalType":"uint64"}],"anonymous":false},{"type":"error","name":"AccessControlBadConfirmation","inputs":[]},{"type":"error","name":"AccessControlUnauthorizedAccount","inputs":[{"name":"account","type":"address","internalType":"address"},{"name":"neededRole","type":"bytes32","internalType":"bytes32"}]},{"type":"error","name":"AlreadyVoted","inputs":[{"name":"proposalId","type":"uint256","internalType":"uint256"},{"name":"voter","type":"address","internalType":"address"}]},{"type":"error","name":"EnforcedPause","inputs":[]},{"type":"error","name":"ExecutionTimelockNotExpired","inputs":[{"name":"eta","type":"uint64","internalType":"uint64"}]},{"type":"error","name":"ExecutionWindowExpired","inputs":[{"name":"proposalId","type":"uint256","internalType":"uint256"}]},{"type":"error","name":"ExpectedPause","inputs":[]},{"type":"error","name":"InsufficientVotingPower","inputs":[{"name":"voter","type":"address","internalType":"address"}]},{"type":"error","name":"InvalidVotingPeriod","inputs":[{"name":"period","type":"uint64","internalType":"uint64"}]},{"type":"error","name":"IssuerAlreadyApproved","inputs":[{"name":"issuerDid","type":"bytes32","internalType":"bytes32"}]},{"type":"error","name":"NoAttributes","inputs":[]},{"type":"error","name":"ProposalAlreadyExecuted","inputs":[{"name":"proposalId","type":"uint256","internalType":"uint256"}]},{"type":"error","name":"ProposalCancelled","inputs":[{"name":"proposalId","type":"uint256","internalType":"uint256"}]},{"type":"error","name":"ProposalNotActive","inputs":[{"name":"proposalId","type":"uint256","internalType":"uint256"}]},{"type":"error","name":"ProposalNotFound","inputs":[{"name":"proposalId","type":"uint256","internalType":"uint256"}]},{"type":"error","name":"ProposalNotQueued","inputs":[{"name":"proposalId","type":"uint256","internalType":"uint256"}]},{"type":"error","name":"ProposalNotSucceeded","inputs":[{"name":"proposalId","type":"uint256","internalType":"uint256"}]},{"type":"error","name":"ReentrancyGuardReentrantCall","inputs":[]},{"type":"error","name":"SchemaAlreadyExists","inputs":[{"name":"schemaHash","type":"bytes32","internalType":"bytes32"}]},{"type":"error","name":"VotingNotEnded","inputs":[{"name":"proposalId","type":"uint256","internalType":"uint256"}]}],"bytecode":{"object":"0x6080346101e057601f61267c38819003918201601f19168301916001600160401b038311848410176101e4578084926060946040528339810103126101e05780516001600160a01b03811691908281036101e0576020820151916001600160401b038316908184036101e057604001519060017f9b779b17422d0df92223018b32b4d1fa46e071723d6817e2486d003becc55f005584156101ae576201518081101590816101a0575b501561015b5780156101285760018054610100600160481b03191660089490941b68ffffffffffffffff001693909317835560025560079190915561010a906100f0816101f8565b506100fa8161026e565b5061010481610301565b50610394565b505f526006602052600160405f20556040516121b490816104288239f35b60405162461bcd60e51b815260206004820152600b60248201526a5a65726f2071756f72756d60a81b6044820152606490fd5b60405162461bcd60e51b815260206004820152601560248201527f496e76616c696420766f74696e6720706572696f6400000000000000000000006044820152606490fd5b62278d00915011155f6100a8565b60405162461bcd60e51b815260206004820152600a6024820152692d32b9379030b236b4b760b11b6044820152606490fd5b5f80fd5b634e487b7160e01b5f52604160045260245ffd5b6001600160a01b0381165f9081525f51602061265c5f395f51905f52602052604090205460ff16610269576001600160a01b03165f8181525f51602061265c5f395f51905f5260205260408120805460ff191660011790553391905f5160206125dc5f395f51905f528180a4600190565b505f90565b6001600160a01b0381165f9081525f5160206125fc5f395f51905f52602052604090205460ff16610269576001600160a01b03165f8181525f5160206125fc5f395f51905f5260205260408120805460ff191660011790553391907fa49807205ce4d355092ef5a8a18f56e8913cf4a201fbe287825b095693c21775905f5160206125dc5f395f51905f529080a4600190565b6001600160a01b0381165f9081525f51602061263c5f395f51905f52602052604090205460ff16610269576001600160a01b03165f8181525f51602061263c5f395f51905f5260205260408120805460ff191660011790553391907f71840dc4906352362b0cdaf79870196c8e42acafade72d5d5a6d59291253ceb1905f5160206125dc5f395f51905f529080a4600190565b6001600160a01b0381165f9081525f51602061261c5f395f51905f52602052604090205460ff16610269576001600160a01b03165f8181525f51602061261c5f395f51905f5260205260408120805460ff191660011790553391907f72c3eec1760bf69946625c2d4fb8e44e2c806345041960b434674fb9ab3976cf905f5160206125dc5f395f51905f529080a460019056fe6080806040526004361015610012575f80fd5b5f3560e01c90816301ffc9a714611aa75750806302a251a314611a7e578063088868e814611a615780630927cd0d14611a445780630d61b5191461170457806315373e3d1461156b5780631cc554f2146114f0578063215809ca14611320578063248a9ca3146114be5780632ab09d14146114a15780632d845298146114725780632f2ff15d1461143557806336568abe146113f15780633e65164a146113d45780633f4ba83a1461136e57806343859632146113255780634a0323a91461132057806355962fbf14610f045780635c975abb14610ee257806372602b1514610c5057806375b238fc14610c16578063791f5d2314610bfb5780638456cb5914610ba35780638f80fbca14610ae45780639080936f14610ab557806391d1485414610a6d57806394a14a341461098e578063a217fddf14610974578063a2ea7c6e14610732578063a64e024a14610715578063a94015c8146106ee578063b8c7724a146106d1578063c1ba4e5914610643578063c7f758a81461055f578063d547741f1461051b578063d85c91ae146104e3578063e0a8f6f5146103a9578063e7052895146102bd578063f36c8f5c14610283578063f5fbba70146102185763fc61195c146101df575f80fd5b34610214576020366003190112610214576004355f526008602052602060ff600260405f20015460e01c166040519015158152f35b5f80fd5b3461021457602036600319011261021457600435610234611d36565b805f526008602052600260405f200160ff60e01b1981541690557fba365d0ce467a9c75fad09a04f40c620eb48fc172344904d0384d483ae14121260206040516001600160401b0342168152a2005b34610214575f3660031901126102145760206040517f71840dc4906352362b0cdaf79870196c8e42acafade72d5d5a6d59291253ceb18152f35b34610214576040366003190112610214576102d6611b2d565b6024356102e1611d36565b6001600160a01b038216918215610377577ff70e9c37ae50777e0b845f7afff5543fe14230399023966f1cea240180dbcdd791602091845f52600683528160405f20558115158061034c575b61033c575b50604051908152a2005b61034590611f98565b5084610332565b505f51602061215f5f395f51905f525f525f835260405f20855f52835260ff60405f2054161561032d565b60405162461bcd60e51b815260206004820152600a6024820152692d32b937903b37ba32b960b11b6044820152606490fd5b3461021457602036600319011261021457600435805f52600360205260405f206001600160401b03600482015416156104d057600781019081549160ff83166104bd5760018201546001600160a01b031633148015610486575b156104415761010060029361ff00191617905501549033907ff3227f836b75b862b6424f81a339d1790ff60e3fb84b4e38596c66dd56f205b15f80a4005b60405162461bcd60e51b815260206004820152601860248201527f4e6f7420617574686f72697a656420746f2063616e63656c00000000000000006044820152606490fd5b50335f9081527f7d7ffb7a348e1c6a02869081a26547b49160dd3df72d1d75a570eb9b698292ec602052604090205460ff16610403565b83632776407360e11b5f5260045260245ffd5b5063428d06a960e01b5f5260045260245ffd5b34610214576020366003190112610214576001600160a01b03610504611b2d565b165f526006602052602060405f2054604051908152f35b346102145760403660031901126102145761055d60043561053a611b17565b90610558610553825f525f602052600160405f20015490565b611e70565b6120de565b005b3461021457602036600319011261021457600435805f52600360205260405f206004810154906001600160401b038216928315610631575060018101549160ff8360a01c169160028101549260058201549060076006840154930154936040519660018060a01b03168752600382101561061d576101209760ff966001600160401b039360208a01526040890152606088015260401c16608086015260a085015260c0840152818116151560e084015260081c161515610100820152f35b634e487b7160e01b5f52602160045260245ffd5b63428d06a960e01b5f5260045260245ffd5b346102145760203660031901126102145760043561065f611d36565b801561069e5760407f6784e9bcb845caaa98267d7b0918f97d3d17f7cb35a05b52010f7eb587a0acb091600254908060025582519182526020820152a1005b60405162461bcd60e51b815260206004820152600b60248201526a5a65726f2071756f72756d60a81b6044820152606490fd5b34610214575f366003190112610214576020600c54604051908152f35b34610214575f3660031901126102145760206040515f51602061215f5f395f51905f528152f35b34610214575f36600319011261021457602060405162278d008152f35b3461021457602036600319011261021457606060a060405161075381611b70565b5f81528260208201525f60408201525f838201525f608082015201526004355f52600860205260405f206040519061078a82611b70565b805482526001810160405190815f8254926107a484611bac565b8084529360018116908115610952575060011461090e575b506107cd9250949392940384611b8b565b602082019283526002810154604083019060018060a01b0381168252600360608501936001600160401b038360a01c16855260ff608087019360e01c161515835201906040519182602082549182815201915f5260205f20905f5b8181106108f8575050509161012091610845826020950383611b8b565b60a087019182526001600160401b0384604051998a99828b5251828b01525160c060408b015280519182918260e08d0152016101008b015e5f610100828b010152601f801991011688019661010088019660018060a01b0390511660608a01525116608088015251151560a08701525193601f19610100878303010160c08701528451809452019201905f5b8181106108df575050500390f35b82518452859450602093840193909201916001016108d1565b8254845260209093019260019283019201610828565b90505f9291925260205f20905f915b8183106109365750509060206107cd92820101866107bc565b602091935080600191548385880101520191019091839261091d565b9050602092506107cd94915060ff191682840152151560051b820101866107bc565b34610214575f3660031901126102145760206040515f8152f35b34610214576020366003190112610214576004356109ab81611c82565b600781101561061d57600303610a5b57805f52600360205260405f20620151806001600160401b03421601906001600160401b038211610a4757600401805467ffffffffffffffff60801b1916608092831b67ffffffffffffffff60801b161790819055604051911c6001600160401b031681527ff48d4c3460217f91ba44d5a0ed5108b13b935f09aac9de54267d55d2f249f06e90602090a2005b634e487b7160e01b5f52601160045260245ffd5b6367da758160e11b5f5260045260245ffd5b3461021457604036600319011261021457610a86611b17565b6004355f525f60205260405f209060018060a01b03165f52602052602060ff60405f2054166040519015158152f35b3461021457602036600319011261021457610ad1600435611c82565b604051600782101561061d576020918152f35b34610214576020366003190112610214576004356001600160401b0381169081810361021457610b12611d36565b6201518082108015610b97575b610b84576040907f829946250186b834658633b8543dcc892d5eba6ded5d7ce7befbac8be5066f669268ffffffffffffffff006001549260081b1668ffffffffffffffff00198316176001556001600160401b0383519260081c1682526020820152a1005b5063016abc7b60e51b5f5260045260245ffd5b5062278d008211610b1f565b34610214575f36600319011261021457610bbb611e01565b610bc3611f7d565b600160ff19815416176001557f62e78cea01bee320cd4e420270b5ea74000d11b0c9f74754ebdbfc544b05a2586020604051338152a1005b34610214575f36600319011261021457602060405160018152f35b34610214575f3660031901126102145760206040517fa49807205ce4d355092ef5a8a18f56e8913cf4a201fbe287825b095693c217758152f35b3461021457602036600319011261021457600435610c6c611da5565b610c74611f7d565b8015610eab57805f52600960205260ff60405f205416610e9957335f526006602052600160405f205410610e8657602090604051610cb28382611b8b565b5f808252600780546001808201909255808352600380875260409093208181559182018054600160a01b6001600160a81b03199091163360ff60a01b19161717905560028201859055835190936001600160401b034281169484019291908211610e7257610d2a82610d248554611bac565b85611be4565b8790601f8311600114610e0b579180610d5d9260049695945f92610e00575b50508160011b915f199060031b1c19161790565b90555b0190815490806001600160401b0319831617835567ffffffffffffffff60401b610d986001600160401b0360015460081c1683611b43565b60401b16916001600160801b031916171790558133827ff3227f836b75b862b6424f81a339d1790ff60e3fb84b4e38596c66dd56f205b15f80a46040519133907fb729f7ffa9a9e556b2b8c70f7259b3988a085ffc7faa3e5d5211980e00c904c05f80a38152f35b015190508a80610d49565b90601f19831691845f52895f20925f5b8b828210610e5c57505091600193918560049897969410610e44575b505050811b019055610d60565b01515f1960f88460031b161c19169055898080610e37565b6001859682939686015181550195019301610e1b565b634e487b7160e01b5f52604160045260245ffd5b63d717bf6d60e01b5f523360045260245ffd5b63722cc72560e11b5f5260045260245ffd5b60405162461bcd60e51b815260206004820152600f60248201526e16995c9bc81a5cdcdd595c88111251608a1b6044820152606490fd5b34610214575f36600319011261021457602060ff600154166040519015158152f35b34610214576060366003190112610214576004356024356001600160401b0381116102145736602382011215610214578060040135916001600160401b0383116102145760248201366024858501011161021457604435906001600160401b0382116102145736602383011215610214578160040135926001600160401b038411610214573660248560051b8501011161021457610fa0611da5565b610fa8611f7d565b801561130e57805f5260086020526001600160401b03600260405f20015460a01c1661130e5783156112ff57335f526006602052600160405f205410610e865760405191601f8701601f191691906110036020840185611b8b565b878452878160208601375f6020898601015260075493600185016007556001600160401b03421690855f52600360205260405f20908682556001820160018060a01b0333166bffffffffffffffffffffffff60a01b82541617815560ff60a01b19815416905584600283015560038201908051906001600160401b038211610e725761109382610d248554611bac565b602090601f83116001146112985791806110c69260049695945f9261128d5750508160011b915f199060031b1c19161790565b90555b0190815490806001600160401b0319831617835567ffffffffffffffff60401b6111016001600160401b0360015460081c1683611b43565b60401b16916001600160801b031916171790558133857ff3227f836b75b862b6424f81a339d1790ff60e3fb84b4e38596c66dd56f205b15f80a4835f52600360205260405f209660098801906111618a61115b8454611bac565b84611be4565b895f91601f821160011461121f5761118e925f91836112115750508160011b915f199060031b1c19161790565b90559594955b60085f9601955b878110156111bf576001906111b960248260051b8901013589611c5c565b0161119b565b50602094507f6484dd1cfc7da1110395c620ffe1d7993123c200714ac86da027472751b869bd905f60408a808251948a8652818b870152838601378301015260408133958101030190a3604051908152f35b602492500101358c80610d49565b9050601f198b1691835f528b60205f20935f5b81811061126f575010611253575b505050600189811b019055959495611194565b01602401355f1960038c901b60f8161c19169055898080611240565b8484016024013586556001909501946020938401938f935001611232565b015190508f80610d49565b90601f19831691845f52815f20925f5b8181106112e75750916001939185600498979694106112cf575b505050811b0190556110c9565b01515f1960f88460031b161c191690558e80806112c2565b929360206001819287860151815501950193016112a8565b634c4f4f3f60e11b5f5260045ffd5b635988c65560e11b5f5260045260245ffd5b611afa565b346102145760403660031901126102145761133e611b17565b6004355f52600460205260405f209060018060a01b03165f52602052602060ff60405f2054166040519015158152f35b34610214575f36600319011261021457611386611e01565b60015460ff8116156113c55760ff19166001557f5db9ee0a495bf2e6ff9c91a7834c1ba4fdd244a5e8aa4e537bd38aeae4b073aa6020604051338152a1005b638dfc202b60e01b5f5260045ffd5b34610214575f36600319011261021457602060405162093a808152f35b346102145760403660031901126102145761140a611b17565b336001600160a01b038216036114265761055d906004356120de565b63334bd91960e11b5f5260045ffd5b346102145760403660031901126102145761055d600435611454611b17565b9061146d610553825f525f602052600160405f20015490565b612056565b34610214576020366003190112610214576004355f526009602052602060ff60405f2054166040519015158152f35b34610214575f366003190112610214576020600754604051908152f35b346102145760203660031901126102145760206114e86004355f525f602052600160405f20015490565b604051908152f35b346102145760203660031901126102145760043561150c611d36565b805f52600960205260405f2060ff198154169055600d548061155f575b507f893c2dcd0389f6c521399866067d873e580e2bb4589d11c377bfda38bca0923960206040516001600160401b0342168152a2005b5f1901600d5581611529565b3461021457604036600319011261021457600435602435908115159182810361021457611596611da5565b61159e611f7d565b815f52600360205260405f2060048101546001600160401b038116156116f157600782015460ff8160081c166116de5760ff166104bd5760401c6001600160401b03164210156116cb575f83815260046020908152604080832033845290915290205460ff166116b457335f52600660205260405f2054918215610e86575f84815260046020908152604080832033808552908352818420805460ff191660011790558784526005835281842090845290915290208390551561169f57600501611669828254611b63565b90555b60405192835260208301527fcbdf6214089cba887ecbf35a0b6a734589959c9763342c756bb2a80ca2bc9f6e60403393a3005b6006016116ad828254611b63565b905561166c565b826304f9da6360e01b5f526004523360245260445ffd5b826344980d8f60e01b5f5260045260245ffd5b8463105b99a760e21b5f5260045260245ffd5b8363428d06a960e01b5f5260045260245ffd5b3461021457602036600319011261021457600435611720611d36565b60027f9b779b17422d0df92223018b32b4d1fa46e071723d6817e2486d003becc55f005414611a355760027f9b779b17422d0df92223018b32b4d1fa46e071723d6817e2486d003becc55f0055805f52600360205260405f209060048201546001600160401b038116156104d057600783019182549160ff8316611a225760ff8360081c16611a0f5760801c6001600160401b031680156119fc578042106119ea5762093a80016001600160401b038111610a47576001600160401b031642116119d8575060019060ff19161790556001810160ff815460a01c16600381101561061d57806119445750600282015490815f52600860205260405f20908282556118306009850160018401611ea8565b546002820180546001600160e81b0319166001600160a01b0392909216919091174260a01b67ffffffffffffffff60a01b1617600160e01b179055600301916008015f5b81548110156118a0578061189a61188d60019385611c33565b90549060031b1c86611c5c565b01611874565b50509050600a54600160401b811015610e72576118df6118c9826001859401600a55600a611c33565b819391549060031b91821b915f19901b19161790565b90556001600c5401600c557f9d15689cab40bfced0cd0b72c01f0a5d070f402ca02eb9a37543bf26820db7f660206040516001600160401b0342168152a25b60017f9b779b17422d0df92223018b32b4d1fa46e071723d6817e2486d003becc55f0055005b6001915014611954575b5061191e565b60020154805f52600960205260405f20600160ff19825416179055600b54600160401b811015610e72576119946118c9826001859401600b55600b611c33565b90556001600d5401600d557fa85ca97d0300bc778b0201613bf586e301ca6c6d09ef74f97747ae3b0e57f80260206040516001600160401b0342168152a28061194e565b63232fb5e360e01b5f5260045260245ffd5b630d41ef8b60e41b5f5260045260245ffd5b5063c10c720b60e01b5f5260045260245ffd5b5063105b99a760e21b5f5260045260245ffd5b50632776407360e11b5f5260045260245ffd5b633ee5aeb560e01b5f5260045ffd5b34610214575f366003190112610214576020600d54604051908152f35b34610214575f366003190112610214576020600254604051908152f35b34610214575f3660031901126102145760206001600160401b0360015460081c16604051908152f35b34610214576020366003190112610214576004359063ffffffff60e01b821680920361021457602091637965db0b60e01b8114908115611ae9575b5015158152f35b6301ffc9a760e01b14905083611ae2565b34610214575f366003190112610214576020604051620151808152f35b602435906001600160a01b038216820361021457565b600435906001600160a01b038216820361021457565b906001600160401b03809116911601906001600160401b038211610a4757565b91908201809211610a4757565b60c081019081106001600160401b03821117610e7257604052565b90601f801991011681019081106001600160401b03821117610e7257604052565b90600182811c92168015611bda575b6020831014611bc657565b634e487b7160e01b5f52602260045260245ffd5b91607f1691611bbb565b601f8211611bf157505050565b5f5260205f20906020601f840160051c83019310611c29575b601f0160051c01905b818110611c1e575050565b5f8155600101611c13565b9091508190611c0a565b8054821015611c48575f5260205f2001905f90565b634e487b7160e01b5f52603260045260245ffd5b805490600160401b821015610e7257816118c9916001611c7e94018155611c33565b9055565b805f52600360205260405f206004810154916001600160401b038316156106315750600781015460ff8160081c16611d2e5760ff16611d27576001600160401b038260401c164210611d205760066005820154910154611ce28183611b63565b60025411918215611d15575b5050611d0f5760801c6001600160401b031615611d0a57600490565b600390565b50600290565b111590505f80611cee565b5050600190565b5050600590565b505050600690565b335f9081527f316a51056d8b2401ab04c48d9973add294eadde229c785c6d19cde93785467ef602052604090205460ff1615611d6e57565b63e2517d3f60e01b5f52336004527f71840dc4906352362b0cdaf79870196c8e42acafade72d5d5a6d59291253ceb160245260445ffd5b335f9081527f93a066048dd46c0013bcf15fce7fac0b14d59579093552751e1561f815b67587602052604090205460ff1615611ddd57565b63e2517d3f60e01b5f52336004525f51602061215f5f395f51905f5260245260445ffd5b335f9081527f7d7ffb7a348e1c6a02869081a26547b49160dd3df72d1d75a570eb9b698292ec602052604090205460ff1615611e3957565b63e2517d3f60e01b5f52336004527fa49807205ce4d355092ef5a8a18f56e8913cf4a201fbe287825b095693c2177560245260445ffd5b5f8181526020818152604080832033845290915290205460ff1615611e925750565b63e2517d3f60e01b5f523360045260245260445ffd5b919091828114611f7857611ebc8354611bac565b6001600160401b038111610e7257611ed88161115b8454611bac565b5f93601f8211600114611f1257611c7e92939482915f92611f075750508160011b915f199060031b1c19161790565b015490505f80610d49565b601f198216905f5260205f2094835f5260205f20915f5b818110611f6057509583600195969710611f48575b505050811b019055565b01545f1960f88460031b161c191690555f8080611f3e565b9192600180602092868b015481550194019201611f29565b509050565b60ff60015416611f8957565b63d93c066560e01b5f5260045ffd5b6001600160a01b0381165f9081527f93a066048dd46c0013bcf15fce7fac0b14d59579093552751e1561f815b67587602052604090205460ff16612051576001600160a01b03165f8181527f93a066048dd46c0013bcf15fce7fac0b14d59579093552751e1561f815b6758760205260408120805460ff191660011790553391905f51602061215f5f395f51905f52907f2f8788117e7eff1d82e926ec794901d17c78024a50270940304540a733656f0d9080a4600190565b505f90565b5f818152602081815260408083206001600160a01b038616845290915290205460ff166120d8575f818152602081815260408083206001600160a01b0395909516808452949091528120805460ff19166001179055339291907f2f8788117e7eff1d82e926ec794901d17c78024a50270940304540a733656f0d9080a4600190565b50505f90565b5f818152602081815260408083206001600160a01b038616845290915290205460ff16156120d8575f818152602081815260408083206001600160a01b0395909516808452949091528120805460ff19169055339291907ff6391f5c32d9c69d2a47ea670b442974b53935d1edc7fd64eb21e047a839171b9080a460019056fe72c3eec1760bf69946625c2d4fb8e44e2c806345041960b434674fb9ab3976cfa2646970667358221220bc2694391ef6ce41bd574572290883e85240b8141d311d4a55fc9154a7bb9f9364736f6c634300081c00332f8788117e7eff1d82e926ec794901d17c78024a50270940304540a733656f0d7d7ffb7a348e1c6a02869081a26547b49160dd3df72d1d75a570eb9b698292ec93a066048dd46c0013bcf15fce7fac0b14d59579093552751e1561f815b67587316a51056d8b2401ab04c48d9973add294eadde229c785c6d19cde93785467efad3228b676f7d3cd4284a5443f17f1962b36e491b30a40b2405849e597ba5fb5","linkReferences":{}},"methodIdentifiers":{"ADMIN_ROLE()":"75b238fc","DEFAULT_ADMIN_ROLE()":"a217fddf","EXECUTION_TIMELOCK()":"4a0323a9","EXECUTION_WINDOW()":"3e65164a","GOVERNANCE_ROLE()":"f36c8f5c","MAX_VOTING_PERIOD()":"a64e024a","MIN_PROPOSAL_THRESHOLD()":"791f5d23","MIN_VOTING_PERIOD()":"215809ca","VOTER_ROLE()":"a94015c8","cancelProposal(uint256)":"e0a8f6f5","castVote(uint256,bool)":"15373e3d","executeProposal(uint256)":"0d61b519","getProposal(uint256)":"c7f758a8","getProposalState(uint256)":"9080936f","getRoleAdmin(bytes32)":"248a9ca3","getSchema(bytes32)":"a2ea7c6e","getVoterWeight(address)":"d85c91ae","grantRole(bytes32,address)":"2f2ff15d","hasRole(bytes32,address)":"91d14854","hasVoted(uint256,address)":"43859632","isApprovedIssuer(bytes32)":"2d845298","isApprovedSchema(bytes32)":"fc61195c","nextProposalId()":"2ab09d14","pause()":"8456cb59","paused()":"5c975abb","proposeIssuer(bytes32)":"72602b15","proposeSchema(bytes32,string,bytes32[])":"55962fbf","queueProposal(uint256)":"94a14a34","quorumRequired()":"088868e8","removeIssuer(bytes32)":"1cc554f2","renounceRole(bytes32,address)":"36568abe","revokeRole(bytes32,address)":"d547741f","revokeSchema(bytes32)":"f5fbba70","setQuorum(uint256)":"c1ba4e59","setVoterWeight(address,uint256)":"e7052895","setVotingPeriod(uint64)":"8f80fbca","supportsInterface(bytes4)":"01ffc9a7","totalIssuers()":"0927cd0d","totalSchemas()":"b8c7724a","unpause()":"3f4ba83a","votingPeriod()":"02a251a3"},"id":5}