{"abi":[{"type":"constructor","inputs":[{"name":"admin","type":"address","internalType":"address"}],"stateMutability":"nonpayable"},{"type":"function","name":"DEFAULT_ADMIN_ROLE","inputs":[],"outputs":[{"name":"","type":"bytes32","internalType":"bytes32"}],"stateMutability":"view"},{"type":"function","name":"HASH_TO_PRIME_DOMAIN","inputs":[],"outputs":[{"name":"","type":"bytes","internalType":"bytes"}],"stateMutability":"view"},{"type":"function","name":"MAX_BATCH_SIZE","inputs":[],"outputs":[{"name":"","type":"uint256","internalType":"uint256"}],"stateMutability":"view"},{"type":"function","name":"MIN_MODULUS_BITS","inputs":[],"outputs":[{"name":"","type":"uint256","internalType":"uint256"}],"stateMutability":"view"},{"type":"function","name":"NON_MEMBERSHIP_CIRCUIT_ID","inputs":[],"outputs":[{"name":"","type":"bytes32","internalType":"bytes32"}],"stateMutability":"view"},{"type":"function","name":"REVOCATION_AUTHORITY_ROLE","inputs":[],"outputs":[{"name":"","type":"bytes32","internalType":"bytes32"}],"stateMutability":"view"},{"type":"function","name":"SNAPSHOT_RETENTION","inputs":[],"outputs":[{"name":"","type":"uint256","internalType":"uint256"}],"stateMutability":"view"},{"type":"function","name":"WITNESS_UPDATER_ROLE","inputs":[],"outputs":[{"name":"","type":"bytes32","internalType":"bytes32"}],"stateMutability":"view"},{"type":"function","name":"batchRevoke","inputs":[{"name":"accId","type":"bytes32","internalType":"bytes32"},{"name":"batch","type":"tuple","internalType":"struct AccumulatorRevocation.BatchUpdate","components":[{"name":"credentialHashes","type":"bytes32[]","internalType":"bytes32[]"},{"name":"newAccumulatorValue","type":"bytes","internalType":"bytes"},{"name":"proof","type":"bytes","internalType":"bytes"},{"name":"targetEpoch","type":"uint256","internalType":"uint256"}]}],"outputs":[],"stateMutability":"nonpayable"},{"type":"function","name":"exponentiationVerifier","inputs":[],"outputs":[{"name":"","type":"address","internalType":"contract IExponentiationVerifier"}],"stateMutability":"view"},{"type":"function","name":"getCurrentState","inputs":[{"name":"accId","type":"bytes32","internalType":"bytes32"}],"outputs":[{"name":"valueHash","type":"bytes32","internalType":"bytes32"},{"name":"epoch","type":"uint256","internalType":"uint256"},{"name":"memberCount","type":"uint256","internalType":"uint256"},{"name":"lastUpdated","type":"uint256","internalType":"uint256"}],"stateMutability":"view"},{"type":"function","name":"getParameters","inputs":[],"outputs":[{"name":"modulusBitLength","type":"uint256","internalType":"uint256"},{"name":"modulusLength","type":"uint256","internalType":"uint256"},{"name":"generatorLength","type":"uint256","internalType":"uint256"}],"stateMutability":"view"},{"type":"function","name":"getRoleAdmin","inputs":[{"name":"role","type":"bytes32","internalType":"bytes32"}],"outputs":[{"name":"","type":"bytes32","internalType":"bytes32"}],"stateMutability":"view"},{"type":"function","name":"getSnapshot","inputs":[{"name":"accId","type":"bytes32","internalType":"bytes32"},{"name":"epoch","type":"uint256","internalType":"uint256"}],"outputs":[{"name":"","type":"tuple","internalType":"struct AccumulatorRevocation.Snapshot","components":[{"name":"valueHash","type":"bytes32","internalType":"bytes32"},{"name":"memberCount","type":"uint256","internalType":"uint256"},{"name":"timestamp","type":"uint256","internalType":"uint256"}]}],"stateMutability":"view"},{"type":"function","name":"getWitnessUpdateDelta","inputs":[{"name":"accId","type":"bytes32","internalType":"bytes32"},{"name":"toEpoch","type":"uint256","internalType":"uint256"}],"outputs":[{"name":"","type":"tuple","internalType":"struct AccumulatorRevocation.WitnessUpdateDelta","components":[{"name":"fromEpoch","type":"uint256","internalType":"uint256"},{"name":"toEpoch","type":"uint256","internalType":"uint256"},{"name":"productOfRevoked","type":"bytes","internalType":"bytes"},{"name":"accumulatorAtFrom","type":"bytes","internalType":"bytes"},{"name":"accumulatorAtTo","type":"bytes","internalType":"bytes"}]}],"stateMutability":"view"},{"type":"function","name":"grantRole","inputs":[{"name":"role","type":"bytes32","internalType":"bytes32"},{"name":"account","type":"address","internalType":"address"}],"outputs":[],"stateMutability":"nonpayable"},{"type":"function","name":"hasRole","inputs":[{"name":"role","type":"bytes32","internalType":"bytes32"},{"name":"account","type":"address","internalType":"address"}],"outputs":[{"name":"","type":"bool","internalType":"bool"}],"stateMutability":"view"},{"type":"function","name":"initializeAccumulator","inputs":[{"name":"accId","type":"bytes32","internalType":"bytes32"},{"name":"initialValue","type":"bytes","internalType":"bytes"}],"outputs":[],"stateMutability":"nonpayable"},{"type":"function","name":"isRevoked","inputs":[{"name":"accId","type":"bytes32","internalType":"bytes32"},{"name":"credentialHash","type":"bytes32","internalType":"bytes32"}],"outputs":[{"name":"","type":"bool","internalType":"bool"}],"stateMutability":"view"},{"type":"function","name":"linkRegistry","inputs":[{"name":"accId","type":"bytes32","internalType":"bytes32"},{"name":"registry","type":"address","internalType":"address"}],"outputs":[],"stateMutability":"nonpayable"},{"type":"function","name":"nonMembershipCircuitId","inputs":[],"outputs":[{"name":"","type":"bytes32","internalType":"bytes32"}],"stateMutability":"view"},{"type":"function","name":"pause","inputs":[],"outputs":[],"stateMutability":"nonpayable"},{"type":"function","name":"paused","inputs":[],"outputs":[{"name":"","type":"bool","internalType":"bool"}],"stateMutability":"view"},{"type":"function","name":"publishWitnessUpdate","inputs":[{"name":"accId","type":"bytes32","internalType":"bytes32"},{"name":"delta","type":"tuple","internalType":"struct AccumulatorRevocation.WitnessUpdateDelta","components":[{"name":"fromEpoch","type":"uint256","internalType":"uint256"},{"name":"toEpoch","type":"uint256","internalType":"uint256"},{"name":"productOfRevoked","type":"bytes","internalType":"bytes"},{"name":"accumulatorAtFrom","type":"bytes","internalType":"bytes"},{"name":"accumulatorAtTo","type":"bytes","internalType":"bytes"}]}],"outputs":[],"stateMutability":"nonpayable"},{"type":"function","name":"renounceRole","inputs":[{"name":"role","type":"bytes32","internalType":"bytes32"},{"name":"callerConfirmation","type":"address","internalType":"address"}],"outputs":[],"stateMutability":"nonpayable"},{"type":"function","name":"revokeCredential","inputs":[{"name":"accId","type":"bytes32","internalType":"bytes32"},{"name":"credentialHash","type":"bytes32","internalType":"bytes32"},{"name":"newValue","type":"bytes","internalType":"bytes"},{"name":"proof","type":"bytes","internalType":"bytes"}],"outputs":[],"stateMutability":"nonpayable"},{"type":"function","name":"revokeRole","inputs":[{"name":"role","type":"bytes32","internalType":"bytes32"},{"name":"account","type":"address","internalType":"address"}],"outputs":[],"stateMutability":"nonpayable"},{"type":"function","name":"setExponentiationVerifier","inputs":[{"name":"verifier","type":"address","internalType":"address"}],"outputs":[],"stateMutability":"nonpayable"},{"type":"function","name":"setParameters","inputs":[{"name":"rsaModulus","type":"bytes","internalType":"bytes"},{"name":"generator","type":"bytes","internalType":"bytes"},{"name":"modulusBitLength","type":"uint256","internalType":"uint256"}],"outputs":[],"stateMutability":"nonpayable"},{"type":"function","name":"setZKVerifier","inputs":[{"name":"verifier","type":"address","internalType":"address"},{"name":"circuitId","type":"bytes32","internalType":"bytes32"}],"outputs":[],"stateMutability":"nonpayable"},{"type":"function","name":"supportsInterface","inputs":[{"name":"interfaceId","type":"bytes4","internalType":"bytes4"}],"outputs":[{"name":"","type":"bool","internalType":"bool"}],"stateMutability":"view"},{"type":"function","name":"totalRevocations","inputs":[],"outputs":[{"name":"","type":"uint256","internalType":"uint256"}],"stateMutability":"view"},{"type":"function","name":"unpause","inputs":[],"outputs":[],"stateMutability":"nonpayable"},{"type":"function","name":"verifyNonMembership","inputs":[{"name":"accId","type":"bytes32","internalType":"bytes32"},{"name":"witness","type":"tuple","internalType":"struct AccumulatorRevocation.NonMembershipWitness","components":[{"name":"d","type":"bytes","internalType":"bytes"},{"name":"b","type":"bytes","internalType":"bytes"},{"name":"credentialHash","type":"bytes32","internalType":"bytes32"},{"name":"epoch","type":"uint256","internalType":"uint256"}]},{"name":"zkProof","type":"bytes","internalType":"bytes"}],"outputs":[{"name":"valid","type":"bool","internalType":"bool"}],"stateMutability":"view"},{"type":"function","name":"verifyNonMembershipAtEpoch","inputs":[{"name":"accId","type":"bytes32","internalType":"bytes32"},{"name":"witness","type":"tuple","internalType":"struct AccumulatorRevocation.NonMembershipWitness","components":[{"name":"d","type":"bytes","internalType":"bytes"},{"name":"b","type":"bytes","internalType":"bytes"},{"name":"credentialHash","type":"bytes32","internalType":"bytes32"},{"name":"epoch","type":"uint256","internalType":"uint256"}]},{"name":"historicalEpoch","type":"uint256","internalType":"uint256"},{"name":"zkProof","type":"bytes","internalType":"bytes"}],"outputs":[{"name":"valid","type":"bool","internalType":"bool"}],"stateMutability":"view"},{"type":"function","name":"zkVerifier","inputs":[],"outputs":[{"name":"","type":"address","internalType":"contract IZKVerifier"}],"stateMutability":"view"},{"type":"event","name":"AccumulatorInitialized","inputs":[{"name":"accId","type":"bytes32","indexed":true,"internalType":"bytes32"},{"name":"modulusBitLength","type":"uint256","indexed":false,"internalType":"uint256"},{"name":"timestamp","type":"uint256","indexed":false,"internalType":"uint256"}],"anonymous":false},{"type":"event","name":"AccumulatorUpdated","inputs":[{"name":"accId","type":"bytes32","indexed":true,"internalType":"bytes32"},{"name":"oldValueHash","type":"bytes32","indexed":false,"internalType":"bytes32"},{"name":"newValueHash","type":"bytes32","indexed":false,"internalType":"bytes32"},{"name":"epoch","type":"uint256","indexed":false,"internalType":"uint256"},{"name":"timestamp","type":"uint256","indexed":false,"internalType":"uint256"}],"anonymous":false},{"type":"event","name":"BatchRevocation","inputs":[{"name":"accId","type":"bytes32","indexed":true,"internalType":"bytes32"},{"name":"count","type":"uint256","indexed":false,"internalType":"uint256"},{"name":"epoch","type":"uint256","indexed":false,"internalType":"uint256"},{"name":"timestamp","type":"uint256","indexed":false,"internalType":"uint256"}],"anonymous":false},{"type":"event","name":"CredentialRevoked","inputs":[{"name":"accId","type":"bytes32","indexed":true,"internalType":"bytes32"},{"name":"credentialHash","type":"bytes32","indexed":true,"internalType":"bytes32"},{"name":"epoch","type":"uint256","indexed":false,"internalType":"uint256"},{"name":"timestamp","type":"uint256","indexed":false,"internalType":"uint256"}],"anonymous":false},{"type":"event","name":"ExponentiationVerifierUpdated","inputs":[{"name":"verifier","type":"address","indexed":true,"internalType":"address"}],"anonymous":false},{"type":"event","name":"NonMembershipVerified","inputs":[{"name":"accId","type":"bytes32","indexed":true,"internalType":"bytes32"},{"name":"credentialHash","type":"bytes32","indexed":true,"internalType":"bytes32"},{"name":"epoch","type":"uint256","indexed":false,"internalType":"uint256"},{"name":"timestamp","type":"uint256","indexed":false,"internalType":"uint256"}],"anonymous":false},{"type":"event","name":"Paused","inputs":[{"name":"account","type":"address","indexed":false,"internalType":"address"}],"anonymous":false},{"type":"event","name":"RegistryLinked","inputs":[{"name":"accId","type":"bytes32","indexed":true,"internalType":"bytes32"},{"name":"registry","type":"address","indexed":true,"internalType":"address"},{"name":"timestamp","type":"uint256","indexed":false,"internalType":"uint256"}],"anonymous":false},{"type":"event","name":"RoleAdminChanged","inputs":[{"name":"role","type":"bytes32","indexed":true,"internalType":"bytes32"},{"name":"previousAdminRole","type":"bytes32","indexed":true,"internalType":"bytes32"},{"name":"newAdminRole","type":"bytes32","indexed":true,"internalType":"bytes32"}],"anonymous":false},{"type":"event","name":"RoleGranted","inputs":[{"name":"role","type":"bytes32","indexed":true,"internalType":"bytes32"},{"name":"account","type":"address","indexed":true,"internalType":"address"},{"name":"sender","type":"address","indexed":true,"internalType":"address"}],"anonymous":false},{"type":"event","name":"RoleRevoked","inputs":[{"name":"role","type":"bytes32","indexed":true,"internalType":"bytes32"},{"name":"account","type":"address","indexed":true,"internalType":"address"},{"name":"sender","type":"address","indexed":true,"internalType":"address"}],"anonymous":false},{"type":"event","name":"SnapshotCreated","inputs":[{"name":"accId","type":"bytes32","indexed":true,"internalType":"bytes32"},{"name":"epoch","type":"uint256","indexed":false,"internalType":"uint256"},{"name":"valueHash","type":"bytes32","indexed":false,"internalType":"bytes32"},{"name":"timestamp","type":"uint256","indexed":false,"internalType":"uint256"}],"anonymous":false},{"type":"event","name":"Unpaused","inputs":[{"name":"account","type":"address","indexed":false,"internalType":"address"}],"anonymous":false},{"type":"event","name":"WitnessUpdatePublished","inputs":[{"name":"accId","type":"bytes32","indexed":true,"internalType":"bytes32"},{"name":"fromEpoch","type":"uint256","indexed":false,"internalType":"uint256"},{"name":"toEpoch","type":"uint256","indexed":false,"internalType":"uint256"},{"name":"timestamp","type":"uint256","indexed":false,"internalType":"uint256"}],"anonymous":false},{"type":"event","name":"ZKVerifierUpdated","inputs":[{"name":"verifier","type":"address","indexed":true,"internalType":"address"},{"name":"circuitId","type":"bytes32","indexed":true,"internalType":"bytes32"}],"anonymous":false},{"type":"error","name":"AccessControlBadConfirmation","inputs":[]},{"type":"error","name":"AccessControlUnauthorizedAccount","inputs":[{"name":"account","type":"address","internalType":"address"},{"name":"neededRole","type":"bytes32","internalType":"bytes32"}]},{"type":"error","name":"AccumulatorAlreadyInitialized","inputs":[]},{"type":"error","name":"AccumulatorNotInitialized","inputs":[]},{"type":"error","name":"BatchTooLarge","inputs":[]},{"type":"error","name":"CredentialAlreadyRevoked","inputs":[]},{"type":"error","name":"EnforcedPause","inputs":[]},{"type":"error","name":"EpochMismatch","inputs":[]},{"type":"error","name":"ExpectedPause","inputs":[]},{"type":"error","name":"ExponentiationVerifierNotSet","inputs":[]},{"type":"error","name":"InvalidAccumulatorValue","inputs":[]},{"type":"error","name":"InvalidBatchUpdate","inputs":[]},{"type":"error","name":"InvalidNonMembershipProof","inputs":[]},{"type":"error","name":"InvalidProofStructure","inputs":[]},{"type":"error","name":"InvalidRSAModulus","inputs":[]},{"type":"error","name":"InvalidWitnessUpdate","inputs":[]},{"type":"error","name":"ReentrancyGuardReentrantCall","inputs":[]},{"type":"error","name":"RegistryNotLinked","inputs":[]},{"type":"error","name":"SnapshotNotFound","inputs":[]},{"type":"error","name":"ZKVerifierNotSet","inputs":[]},{"type":"error","name":"ZeroValueNotAllowed","inputs":[]}],"bytecode":{"object":"0x6080346100c457601f612e9f38819003918201601f19168301916001600160401b038311848410176100c8578084926020946040528339810103126100c457516001600160a01b03811681036100c4576100909060017f9b779b17422d0df92223018b32b4d1fa46e071723d6817e2486d003becc55f0055610080816100dc565b5061008a81610152565b506101e5565b507fb42589e4d246fc8497c0c6de9f463fe228cb6f11f72663133cb51c16f138a7b1600755604051612ba690816102798239f35b5f80fd5b634e487b7160e01b5f52604160045260245ffd5b6001600160a01b0381165f9081525f516020612e7f5f395f51905f52602052604090205460ff1661014d576001600160a01b03165f8181525f516020612e7f5f395f51905f5260205260408120805460ff191660011790553391905f516020612e1f5f395f51905f528180a4600190565b505f90565b6001600160a01b0381165f9081525f516020612e3f5f395f51905f52602052604090205460ff1661014d576001600160a01b03165f8181525f516020612e3f5f395f51905f5260205260408120805460ff191660011790553391907fd126f4317d66f2c88bcd3d80f209d9f8e95744f6f3172d87b478d6556ddd3b25905f516020612e1f5f395f51905f529080a4600190565b6001600160a01b0381165f9081525f516020612e5f5f395f51905f52602052604090205460ff1661014d576001600160a01b03165f8181525f516020612e5f5f395f51905f5260205260408120805460ff191660011790553391907fa8a47b972ea64a46369387207f0961d9f58443b1f577aae5bbafeec09cf06f40905f516020612e1f5f395f51905f529080a460019056fe60806040526004361015610011575f80fd5b5f3560e01c806301ffc9a7146102545780631735cc381461024f5780631f090c4d1461024a578063248a9ca31461024557806324faebcf146102405780632f2ff15d1461023b5780632f9b92cb1461023657806336568abe146102315780633df3ce141461022c5780633f4ba83a146102275780635c975abb146102225780636ff9f9b91461021d578063728bafaa146102185780637bcdd22a146102135780638456cb591461020e5780638f7c34411461020957806391d14854146102045780639e6570e0146101ff578063a217fddf146101fa578063a5ea11da146101f5578063a6afb817146101f0578063a83527ce146101eb578063ab6de4a5146101e6578063acba3888146101e1578063acbb4922146101dc578063b603189b146101d7578063be7b2263146101d2578063bed4baff146101cd578063c77d174e146101c8578063cfdbf254146101c3578063d4924794146101be578063d547741f146101b9578063d6df096d146101b4578063ddae3b12146101af578063e8b3dfc3146101aa5763ff94cdd9146101a5575f80fd5b61174c565b6115ee565b6115d1565b6115a9565b61156c565b6114f5565b6114da565b6113f9565b6113dc565b611194565b6110c4565b611025565b610fe8565b610f7d565b610f61565b610db3565b610d69565b610d4f565b610c24565b610ba9565b610b5a565b610b02565b610ad3565b6109b2565b610631565b610601565b61059b565b610503565b6104bf565b610485565b610441565b6103bb565b610389565b6102f8565b6102ae565b346102aa5760203660031901126102aa5760043563ffffffff60e01b81168091036102aa57602090637965db0b60e01b8114908115610299575b506040519015158152f35b6301ffc9a760e01b1490505f61028e565b5f80fd5b346102aa575f3660031901126102aa5760206040516301e133808152f35b602435906001600160a01b03821682036102aa57565b600435906001600160a01b03821682036102aa57565b346102aa5760403660031901126102aa576004356103146102cc565b9061031d611ee4565b805f526008602052600660405f200160ff8154161561037a578261034091611786565b6040514281526001600160a01b03909216917fce4411d6cc3520e0d2e77667a5318410e36d0b012064c17a35bae30418be6b4590602090a3005b63278c86ad60e21b5f5260045ffd5b346102aa5760203660031901126102aa5760206103b36004355f525f602052600160405f20015490565b604051908152f35b346102aa5760203660031901126102aa576103d46102e2565b6103dc611ee4565b6001600160a01b0316801561043257600554610100600160a81b031916600882901b610100600160a81b0316176005557f3668601d2a10e24c0bf7d1f2cfe4915fc9f8e1171e96b772975e91cdffabd3ee5f80a2005b63273e150360e21b5f5260045ffd5b346102aa5760403660031901126102aa576104836004356104606102cc565b9061047e610479825f525f602052600160405f20015490565b612011565b612049565b005b346102aa575f3660031901126102aa5760206040517fb42589e4d246fc8497c0c6de9f463fe228cb6f11f72663133cb51c16f138a7b18152f35b346102aa5760403660031901126102aa576004356104db6102cc565b336001600160a01b038216036104f457610483916120d5565b63334bd91960e11b5f5260045ffd5b346102aa5760403660031901126102aa57600435602435905f60408051610529816109f2565b82815282602082015201525f52600a60205260405f20905f5260205261059760405f2060026040519161055b836109f2565b80548352600181015460208401520154604082015260405191829182919091604080606083019480518452602081015160208501520151910152565b0390f35b346102aa575f3660031901126102aa576105b3611ee4565b60015460ff8116156105f25760ff19166001557f5db9ee0a495bf2e6ff9c91a7834c1ba4fdd244a5e8aa4e537bd38aeae4b073aa6020604051338152a1005b638dfc202b60e01b5f5260045ffd5b346102aa575f3660031901126102aa57602060ff600154166040519015158152f35b908160809103126102aa5790565b346102aa5760403660031901126102aa576004356024356001600160401b0381116102aa57610664903690600401610623565b61066c611f33565b610674612159565b61067c612174565b61068e825f52600860205260405f2090565b906106a46106a0600684015460ff1690565b1590565b61037a576106b281806117b0565b9050156104325760026106c582806117b0565b9050116109a3575f5b6106d882806117b0565b905081101561073c5761072161071a6106f9865f52600960205260405f2090565b61070d8461070787806117b0565b906117f9565b355f5260205260405f2090565b5460ff1690565b61072d576001016106ce565b633e3c14b160e11b5f5260045ffd5b5061074a6106a08284612267565b6109945760028201805461078261077b6020850161077561076b828861180e565b9060018a016118c7565b8561180e565b369161198b565b602081519101208255600384019161079a83546119e4565b83556107a684806117b0565b9590506107b860048201968754611a13565b86556005429101555f5b866107cd86806117b0565b9050821015610812579061080c6107ff6107f16001945f52600960205260405f2090565b61070d846107078b806117b0565b805460ff19166001179055565b016107c2565b957fcfc5d405454f2f7a459b26f6bb8bd6d59f94b19f1dffa2cda0a915cddb82175691508692837f730b118ef0c03d55c58a004954ee82242269cd741aec640c226356d48eb1ef426109286109077f6570c2a0d80a0a27e8d5feee1966dfd3fb118f0e9d529bfce9e3c3812cc28ba09a6108e26109509787549054610895610a4e565b91825260208201524260408201526108c78d6108b9895f52600a60205260405f2090565b90545f5260205260405f2090565b90604060029180518455602081015160018501550151910155565b6109016108fc6108f283806117b0565b9050600d54611a13565b600d55565b806117b0565b9954604080519b8c5260208c0182905242908c015299918291506060820190565b0390a25460408051958652602086018290528501869052426060860152939081906080820190565b0390a26040805192835260208301919091524290820152606090a261048360017f9b779b17422d0df92223018b32b4d1fa46e071723d6817e2486d003becc55f0055565b634916671960e01b5f5260045ffd5b6305beb17160e11b5f5260045ffd5b346102aa575f3660031901126102aa5760055460405160089190911c6001600160a01b03168152602090f35b634e487b7160e01b5f52604160045260245ffd5b606081019081106001600160401b03821117610a0d57604052565b6109de565b60a081019081106001600160401b03821117610a0d57604052565b90601f801991011681019081106001600160401b03821117610a0d57604052565b60405190610a5d606083610a2d565b565b60405190610a5d61010083610a2d565b90610a5d6040519283610a2d565b60405190610a8c604083610a2d565b60148252735a65726f49442e4163635265762e4832502e763160601b6020830152565b805180835260209291819084018484015e5f828201840152601f01601f1916010190565b346102aa575f3660031901126102aa57610597610aee610a7d565b604051918291602083526020830190610aaf565b346102aa575f3660031901126102aa57610b1a611ee4565b610b22612159565b600160ff19815416176001557f62e78cea01bee320cd4e420270b5ea74000d11b0c9f74754ebdbfc544b05a2586020604051338152a1005b346102aa5760203660031901126102aa576004355f526008602052608060405f206002810154906003810154906005600482015491015491604051938452602084015260408301526060820152f35b346102aa5760403660031901126102aa57602060ff610beb600435610bcc6102cc565b905f525f845260405f209060018060a01b03165f5260205260405f2090565b54166040519015158152f35b9181601f840112156102aa578235916001600160401b0383116102aa57602083818601950101116102aa57565b346102aa5760603660031901126102aa576004356001600160401b0381116102aa57610c54903690600401610bf7565b6024356001600160401b0381116102aa57610c73903690600401610bf7565b9260443591610c80611ee4565b60055460ff16610d40576108008310610d295783158015610d38575b61043257610cb2610cac846119f7565b60031c90565b8410610d295760ff610cde610cd8610cca8786611a34565b356001600160f81b03191690565b60f81c90565b1615610d2957610d1794610cff610d0893610cf7610a4e565b96369161198b565b8552369161198b565b60208301526040820152611afc565b610483600160ff196005541617600555565b6374b6e73d60e01b5f5260045ffd5b508415610c9c565b632398448160e11b5f5260045ffd5b346102aa575f3660031901126102aa5760206040515f8152f35b346102aa575f3660031901126102aa57600454610d87600254611840565b90610597610d96600354611840565b604051938493846040919493926060820195825260208201520152565b346102aa5760403660031901126102aa576004356024356001600160401b0381116102aa57610de6903690600401610bf7565b610dee611f33565b610dfd6106a060055460ff1690565b61037a57610e206006610e18855f52600860205260405f2090565b015460ff1690565b610d40578015610432577f6570c2a0d80a0a27e8d5feee1966dfd3fb118f0e9d529bfce9e3c3812cc28ba091610ec3610f5c92610e7c610e6136838661198b565b6020815191012093610e71610a5f565b92888452369161198b565b60208201528260408201525f60608201525f60808201524260a0820152610ea660c0820160019052565b5f60e0820152610ebe865f52600860205260405f2090565b611bf7565b610eff610ece610a4e565b8281525f60208201524260408201526108c7610ef2875f52600a60205260405f2090565b5f805260205260405f2090565b610f0884611c72565b6004546040805191825242602083015285917fe667f7e53ed653cc1f11c2bd83e94db19168a4f0821592deca1ee9d51ff779c69190a2604080515f8152602081019290925242908201529081906060820190565b0390a2005b346102aa575f3660031901126102aa5760206040516108008152f35b346102aa5760603660031901126102aa576004356024356001600160401b0381116102aa57610fb0903690600401610623565b604435906001600160401b0382116102aa57602092610fd6610fde933690600401610bf7565b929091611cbe565b6040519015158152f35b346102aa5760403660031901126102aa57600435602435905f52600960205260405f20905f52602052602060ff60405f2054166040519015158152f35b346102aa575f3660031901126102aa5760206040517fa8a47b972ea64a46369387207f0961d9f58443b1f577aae5bbafeec09cf06f408152f35b906110c19160208152815160208201526020820151604082015260806110ac611097604085015160a0606086015260c0850190610aaf565b6060850151848203601f190184860152610aaf565b9201519060a0601f1982850301910152610aaf565b90565b346102aa5760403660031901126102aa5760043560243590606060806040516110ec81610a12565b5f81525f6020820152826040820152828082015201525f52600b60205260405f20905f5260205261059760405f2060046111836040519261112c84610a12565b80548452600181015460208501526040516111558161114e8160028601611d28565b0382610a2d565b604085015260405161116e8161114e8160038601611d28565b606085015261114e6040518094819301611d28565b60808201526040519182918261105f565b346102aa5760803660031901126102aa576004356024356044356001600160401b0381116102aa576111ca903690600401610bf7565b6064929192356001600160401b0381116102aa576111ec903690600401610bf7565b6111f4611f33565b6111fc612159565b611204612174565b611216865f52600860205260405f2090565b916112286106a0600685015460ff1690565b61037a5761125261071a866112458a5f52600960205260405f2090565b905f5260205260405f2090565b61072d57611267916106a0918588888761267b565b6113cd577fcfc5d405454f2f7a459b26f6bb8bd6d59f94b19f1dffa2cda0a915cddb8217566109507f6570c2a0d80a0a27e8d5feee1966dfd3fb118f0e9d529bfce9e3c3812cc28ba095836112cc60028a96019283549761077b8183600187016118c7565b60208151910120825561135660038201916112e783546119e4565b835560048101906112f882546119e4565b82556005429101556113196107ff8a6112458a5f52600960205260405f2090565b83549054611325610a4e565b91825260208201524260408201526108c7611348885f52600a60205260405f2090565b84545f5260205260405f2090565b6113656108fc600d5460010190565b5495847fb97da1f046ccdfa9d477bc529ee76088a7f950b68ef2f9e66b768c4075f345ef604051806113a5428c8360209093929193604081019481520152565b0390a35460408051958652602086018290528501869052426060860152939081906080820190565b6306ea169360e41b5f5260045ffd5b346102aa575f3660031901126102aa576020600754604051908152f35b346102aa5760803660031901126102aa576004356024356001600160401b0381116102aa5761142c903690600401610623565b90604435906064356001600160401b0381116102aa57611450903690600401610bf7565b91805f52600860205261146d60ff600660405f2001541615151590565b61037a5783611245611487925f52600a60205260405f2090565b926002840154156114cb576060850135036114bc57610597936114aa9354612700565b60405190151581529081906020820190565b630af2cbcf60e41b5f5260045ffd5b632402054b60e11b5f5260045ffd5b346102aa575f3660031901126102aa57602060405160028152f35b346102aa5760403660031901126102aa5761150e6102e2565b6024359061151a611ee4565b6001600160a01b0316801561043257806bffffffffffffffffffffffff60a01b6006541617600655816007557fb7ce06628d87e426bb57dc3c2637d1cc1cd49b87e46619cec44065401f041cd75f80a3005b346102aa5760403660031901126102aa5761048360043561158b6102cc565b906115a4610479825f525f602052600160405f20015490565b6120d5565b346102aa575f3660031901126102aa576006546040516001600160a01b039091168152602090f35b346102aa575f3660031901126102aa576020600d54604051908152f35b346102aa5760403660031901126102aa576004356024356001600160401b0381116102aa57806004019060a060031982360301126102aa5761162e611fa2565b611636612159565b611648835f52600860205260405f2090565b6116596106a0600683015460ff1690565b61037a57602482013590600381015482036114bc57600261168061077b608486018761180e565b602081519101209101540361173d576116a1845f52600a60205260405f2090565b916116b684358094905f5260205260405f2090565b906002820154156114cb5761077b60646116d192018661180e565b6020815191012090540361173d5761171f7f3c7203bedf524b95dc9343f5c818ecf521c7799a8a2dc4f90a9cb4cdedce95459361171a83611245885f52600b60205260405f2090565b611dc3565b60408051928352602083019190915242908201528060608101610f5c565b63cce83fe360e01b5f5260045ffd5b346102aa575f3660031901126102aa5760206040517fd126f4317d66f2c88bcd3d80f209d9f8e95744f6f3172d87b478d6556ddd3b258152f35b80549091610100600160a81b031990911660089190911b610100600160a81b0316179055565b9055565b903590601e19813603018212156102aa57018035906001600160401b0382116102aa57602001918160051b360383136102aa57565b634e487b7160e01b5f52603260045260245ffd5b91908110156118095760051b0190565b6117e5565b903590601e19813603018212156102aa57018035906001600160401b0382116102aa576020019181360383136102aa57565b90600182811c9216801561186e575b602083101461185a57565b634e487b7160e01b5f52602260045260245ffd5b91607f169161184f565b601f821161188557505050565b5f5260205f20906020601f840160051c830193106118bd575b601f0160051c01905b8181106118b2575050565b5f81556001016118a7565b909150819061189e565b9092916001600160401b038111610a0d576118ec816118e68454611840565b84611878565b5f601f82116001146119265781906117ac9394955f9261191b575b50508160011b915f199060031b1c19161790565b013590505f80611907565b601f19821694611939845f5260205f2090565b915f5b87811061197357508360019596971061195a575b505050811b019055565b01355f19600384901b60f8161c191690555f8080611950565b9092602060018192868601358155019401910161193c565b9291926001600160401b038211610a0d57604051916119b4601f8201601f191660200184610a2d565b8294818452818301116102aa578281602093845f960137010152565b634e487b7160e01b5f52601160045260245ffd5b90600182018092116119f257565b6119d0565b90600782018092116119f257565b90600282018092116119f257565b919082018092116119f257565b634e487b7160e01b5f52601260045260245ffd5b90156118095790565b91909182516001600160401b038111610a0d57611a5e816118e68454611840565b6020601f8211600114611a985781906117ac9394955f92611a8d5750508160011b915f199060031b1c19161790565b015190505f80611907565b601f19821690611aab845f5260205f2090565b915f5b818110611ae457509583600195969710611acc57505050811b019055565b01515f1960f88460031b161c191690555f8080611950565b9192602060018192868b015181550194019201611aae565b80518051906001600160401b038211610a0d57611b2582611b1e600254611840565b6002611878565b602090601f8311600114611b71579180611b5792604095945f92611a8d5750508160011b915f199060031b1c19161790565b6002555b611b6a60208201516003611a3d565b0151600455565b60025f52601f19831691907f405787fa12a823e0f2b7631cc41b3ba8828b3321ca811111fa75cd3aa3bb5ace925f5b818110611bdf5750916001939185604097969410611bc7575b505050811b01600255611b5b565b01515f1960f88460031b161c191690555f8080611bb9565b92936020600181928786015181550195019301611ba0565b90611c6c60e06006610a5d9484518155611c18602086015160018301611a3d565b60408501516002820155606085015160038201556080850151600482015560a085015160058201550192611c5e60c08201511515859060ff801983541691151516179055565b01516001600160a01b031690565b90611786565b600c5468010000000000000000811015610a0d576001810180600c5581101561180957600c5f527fdf6966c971051c3d54ec59162606531493a51404a002842f56009d7e5cf4a8c70155565b929190835f52600860205260405f209360ff6006860154161561037a5760608201356003860154036114bc5761071a611d02611d13925f52600960205260405f2090565b60408401355f5260205260405f2090565b611d20576110c193612599565b505050505f90565b5f9291815491611d3783611840565b8083529260018116908115611d8c5750600114611d5357505050565b5f9081526020812093945091925b838310611d72575060209250010190565b600181602092949394548385870101520191019190611d61565b915050602093945060ff929192191683830152151560051b010190565b60405190610a5d82611dbc816003611d28565b0383610a2d565b90803582556020810135600183015560028201611de3604083018361180e565b906001600160401b038211610a0d57611e0682611e008554611840565b85611878565b5f90601f8311600114611e6f5792611e3f83611e669460049794610a5d99975f9261191b5750508160011b915f199060031b1c19161790565b90555b611e5c611e52606083018361180e565b90600386016118c7565b608081019061180e565b929091016118c7565b601f19831691611e82855f5260205f2090565b925f5b818110611ecc57509360049693610a5d98969360019383611e669810611eb3575b505050811b019055611e42565b01355f19600384901b60f8161c191690555f8080611ea6565b91936020600181928787013581550195019201611e85565b335f9081527fad3228b676f7d3cd4284a5443f17f1962b36e491b30a40b2405849e597ba5fb5602052604090205460ff1615611f1c57565b63e2517d3f60e01b5f52336004525f60245260445ffd5b335f9081527f31994d0913e29e2e14f9b19a8c4f7ddd0d0052eff38bea8c4beb8283179091a1602052604090205460ff1615611f6b57565b63e2517d3f60e01b5f52336004527fd126f4317d66f2c88bcd3d80f209d9f8e95744f6f3172d87b478d6556ddd3b2560245260445ffd5b335f9081527fd253ef10ea8fa01cc91126f8b94aabd8a5f470b5df7258e95edde8597f1dba12602052604090205460ff1615611fda57565b63e2517d3f60e01b5f52336004527fa8a47b972ea64a46369387207f0961d9f58443b1f577aae5bbafeec09cf06f4060245260445ffd5b5f8181526020818152604080832033845290915290205460ff16156120335750565b63e2517d3f60e01b5f523360045260245260445ffd5b5f818152602081815260408083206001600160a01b038616845290915290205460ff166120cf575f818152602081815260408083206001600160a01b03861684529091529020805460ff1916600117905533916001600160a01b0316907f2f8788117e7eff1d82e926ec794901d17c78024a50270940304540a733656f0d5f80a4600190565b50505f90565b5f818152602081815260408083206001600160a01b038616845290915290205460ff16156120cf575f818152602081815260408083206001600160a01b03861684529091529020805460ff1916905533916001600160a01b0316907ff6391f5c32d9c69d2a47ea670b442974b53935d1edc7fd64eb21e047a839171b5f80a4600190565b60ff6001541661216557565b63d93c066560e01b5f5260045ffd5b60027f9b779b17422d0df92223018b32b4d1fa46e071723d6817e2486d003becc55f0054146121c35760027f9b779b17422d0df92223018b32b4d1fa46e071723d6817e2486d003becc55f0055565b633ee5aeb560e01b5f5260045ffd5b908160209103126102aa575180151581036102aa5790565b908060209392818452848401375f828201840152601f01601f1916010190565b94906110c1969261224c959461222b6122399360a08a5260a08a0190611d28565b9188830360208a01526121ea565b92604086015284830360608601526121ea565b9060808183039101526002611d28565b6040513d5f823e3d90fd5b60055490919061228a9060081c6001600160a01b03165b6001600160a01b031690565b906001600160a01b038216156123a75760208101906122a9828261180e565b905015611d20576001946122c3604083969496018361180e565b96909301956122dc6122d5878561180e565b908961276c565b946001945f988715965b6122f087806117b0565b90508b101561232a57879061231261230c8d6107078b806117b0565b356127c1565b91612325576001918a91099a01996122e6565b611a20565b98909396506123449194995060209750612364929561180e565b95909360405198899788968796636c03cb4d60e01b88526004880161220a565b03915afa9081156123a2575f91612379575090565b6110c1915060203d60201161239b575b6123938183610a2d565b8101906121d2565b503d612389565b61225c565b636d0ebae160e01b5f5260045ffd5b9080601f830112156102aa57604051916123d1604084610a2d565b8290604081019283116102aa57905b8282106123ed5750505090565b81358152602091820191016123e0565b610100818303126102aa5760405191612415836109f2565b61241f81836123b6565b835280605f830112156102aa57604091825161243b8482610a2d565b8060c08301928484116102aa5785809101915b84831061246e57505050602085015261246791906123b6565b9082015290565b60209061247b87856123b6565b815201910190859061244e565b604051608091906124998382610a2d565b6003815291601f1901366020840137565b8051156118095760200190565b8051600110156118095760400190565b8051600210156118095760600190565b905f905b600282106124e857505050565b60208060019285518152019301910190916124db565b909161014082019282526125166020830182516124d7565b60208101515f606084015b6002821061257b57505050602091612544604061016093015160e08301906124d7565b6101406101208201528451809452019201905f5b8181106125655750505090565b8251845260209384019390920191600101612558565b602060408261258d60019487516124d7565b01930191019091612521565b6006549293929091906125b4906001600160a01b031661227e565b906001600160a01b038216156126625760606125d8866020966123649801906123fd565b9160026125e3612488565b950154604080518881019283528382013560208401529061261190829084015b03601f198101835282610a2d565b51902061261d866124aa565b52612626611da9565b868151910120612635866124b7565b520135612641846124c7565b5260075460405163d7928b6360e01b815295869485938493600485016124fe565b6339959f3160e21b5f5260045ffd5b8115612325570690565b6005549495949192916126999060081c6001600160a01b031661227e565b926001600160a01b038416156123a75784156126f5576020956126d760016126c3612364946127c1565b9401936126d188878761276c565b90612671565b9760405198899788968796636c03cb4d60e01b88526004880161220a565b505050505050505f90565b60065492939290919061271b906001600160a01b031661227e565b906001600160a01b0382161561266257606061273f866020966123649801906123fd565b91612748612488565b60408051888101978852838201356020890152919691906126119082908401612603565b6127ba61279b6001949361114e61278c6126039560405192838092611d28565b6020815191012094369161198b565b8051602091820120604080519283019586528201529182906060820190565b5190201790565b5f5b6103e881106128285760405162461bcd60e51b815260206004820152602e60248201527f68617368546f5072696d653a206e6f207072696d6520666f756e6420696e203160448201526d30303020697465726174696f6e7360901b6064820152608490fd5b6001612832610a7d565b60405161286560406020838180820196805191829101885e81018983820152888482015203016020810184520182610a2d565b51902017612872816128b7565b61287f57506001016127c3565b91505090565b818102929181159184041417156119f257565b5f198101919082116119f257565b9060148110156118095760051b0190565b60028110612ae75760048110612af75760018116158015612aec575b612ae75760055b816128e58280612885565b111580612adc575b15612929576128fc8183612671565b158015612910575b6120cf576006016128da565b5061292361291d82611a05565b83612671565b15612904565b9061293681939280612885565b11612ad65761294482612898565b905f915b6001811661295c576001928301921c612948565b9192909261296b610280610a6f565b6002815292600360208501526005604085015260076060850152600b6080850152600d60a0850152601160c0850152601360e08501526017610100850152601d610120850152601f61014085015260256101608501526029610180850152602b6101a0850152602f6101c085015260356101e0850152603b610200850152603d610220850152604361024085015260476102608501525f5b60148110612a15575050505050600190565b612a32612a2c612a2583886128a6565b5160ff1690565b60ff1690565b90848381841015612ac957612a479293612b37565b600181148015612ab8575b612aae5760019081905b86868310612a80575b505050612a7757600101935b93612a03565b50505050505f90565b612a8991612afd565b90612a9387612898565b8214612aa25760010190612a5c565b5050505f5f8086612a65565b5060010193612a71565b50612ac285612898565b8114612a52565b5050600191500193612a71565b60019150565b506103e881106128ed565b505f90565b5060038106156128d3565b50600190565b9060405191602083526020808401526020604084015260608301526002608083015260a082015260208160c08160055afa156102aa575190565b91906040519260208452602080850152602060408501526060840152608083015260a082015260208160c08160055afa156102aa57519056fea264697066735822122009e931737d212b42868d752760f0411a553c51626cec48968d85c081f1c3aee264736f6c634300081c00332f8788117e7eff1d82e926ec794901d17c78024a50270940304540a733656f0d31994d0913e29e2e14f9b19a8c4f7ddd0d0052eff38bea8c4beb8283179091a1d253ef10ea8fa01cc91126f8b94aabd8a5f470b5df7258e95edde8597f1dba12ad3228b676f7d3cd4284a5443f17f1962b36e491b30a40b2405849e597ba5fb5","linkReferences":{}},"methodIdentifiers":{"DEFAULT_ADMIN_ROLE()":"a217fddf","HASH_TO_PRIME_DOMAIN()":"7bcdd22a","MAX_BATCH_SIZE()":"cfdbf254","MIN_MODULUS_BITS()":"a83527ce","NON_MEMBERSHIP_CIRCUIT_ID()":"2f9b92cb","REVOCATION_AUTHORITY_ROLE()":"ff94cdd9","SNAPSHOT_RETENTION()":"1735cc38","WITNESS_UPDATER_ROLE()":"acbb4922","batchRevoke(bytes32,(bytes32[],bytes,bytes,uint256))":"6ff9f9b9","exponentiationVerifier()":"728bafaa","getCurrentState(bytes32)":"8f7c3441","getParameters()":"a5ea11da","getRoleAdmin(bytes32)":"248a9ca3","getSnapshot(bytes32,uint256)":"3df3ce14","getWitnessUpdateDelta(bytes32,uint256)":"b603189b","grantRole(bytes32,address)":"2f2ff15d","hasRole(bytes32,address)":"91d14854","initializeAccumulator(bytes32,bytes)":"a6afb817","isRevoked(bytes32,bytes32)":"acba3888","linkRegistry(bytes32,address)":"1f090c4d","nonMembershipCircuitId()":"bed4baff","pause()":"8456cb59","paused()":"5c975abb","publishWitnessUpdate(bytes32,(uint256,uint256,bytes,bytes,bytes))":"e8b3dfc3","renounceRole(bytes32,address)":"36568abe","revokeCredential(bytes32,bytes32,bytes,bytes)":"be7b2263","revokeRole(bytes32,address)":"d547741f","setExponentiationVerifier(address)":"24faebcf","setParameters(bytes,bytes,uint256)":"9e6570e0","setZKVerifier(address,bytes32)":"d4924794","supportsInterface(bytes4)":"01ffc9a7","totalRevocations()":"ddae3b12","unpause()":"3f4ba83a","verifyNonMembership(bytes32,(bytes,bytes,bytes32,uint256),bytes)":"ab6de4a5","verifyNonMembershipAtEpoch(bytes32,(bytes,bytes,bytes32,uint256),uint256,bytes)":"c77d174e","zkVerifier()":"d6df096d"},"id":1}