{"abi":[{"type":"function","name":"verifyExponentiation","inputs":[{"name":"base","type":"bytes","internalType":"bytes"},{"name":"result","type":"bytes","internalType":"bytes"},{"name":"remainder","type":"uint256","internalType":"uint256"},{"name":"quotient","type":"bytes","internalType":"bytes"},{"name":"modulus","type":"bytes","internalType":"bytes"}],"outputs":[{"name":"valid","type":"bool","internalType":"bool"}],"stateMutability":"view"},{"type":"error","name":"ModexpCallFailed","inputs":[]}],"bytecode":{"object":"0x60808060405234601557610888908161001a8239f35b5f80fdfe60806040526004361015610011575f80fd5b5f3560e01c636c03cb4d14610024575f80fd5b346100e25760a03660031901126100e25760043567ffffffffffffffff81116100e2576100559036906004016100e6565b9060243567ffffffffffffffff81116100e2576100769036906004016100e6565b9260643567ffffffffffffffff81116100e2576100979036906004016100e6565b906084359467ffffffffffffffff86116100e2576100de966100c06100cc9736906004016100e6565b969095604435936101a1565b60405190151581529081906020820190565b0390f35b5f80fd5b9181601f840112156100e25782359167ffffffffffffffff83116100e257602083818601950101116100e257565b634e487b7160e01b5f52604160045260245ffd5b90601f8019910116810190811067ffffffffffffffff82111761014a57604052565b610114565b67ffffffffffffffff811161014a57601f01601f191660200190565b9291926101778261014f565b916101856040519384610128565b8294818452818301116100e2578281602093845f960137010152565b979391959094969297841561027d57848614801590610294575b801561028a575b61027d5783866102528361024a6102578a8f6102729f998f6102639f9b61024a60018c9561025d9f889f610214610252976102056102419361023395369161016b565b6020815191012094369161016b565b8051602091820120604080519283019586528201529182906060820190565b03601f198101835282610128565b519020176102f2565b92369161016b565b61035d565b976102f2565b9061040d565b6020815191012092369161016b565b602081519101201490565b5050505050505050505f90565b50848214156101c2565b50848914156101bb565b604080519091906102af8382610128565b6001815291601f1901366020840137565b906102ca8261014f565b6102d76040519182610128565b82815280926102e8601f199161014f565b0190602036910137565b90604080519092906103048482610128565b602081526020810193601f19013685379252565b805191908290602001825e015f815290565b9260606103539488969461034d9482526001602083015260408201520190610318565b90610318565b918237015f815290565b906103ab9094939294838351968161039684519461034d604051988997602089019d8e5260408901528460608901526080880190610318565b918237015f815203601f198101835282610128565b6103b4826102c0565b936020850191519060055afa156103c757565b635bf30ea560e01b5f5260045ffd5b634e487b7160e01b5f52603260045260245ffd5b8051156103f75760200190565b6103d6565b9081518110156103f7570160200190565b92919280519180519061044961043d61043861044361043d610438610432888b6105d4565b996105b3565b6105e1565b60041c90565b946105b3565b61046e61046861046261045c84876105d4565b96610693565b93610693565b94610614565b935f5b8481106104dc5750505050506104d5929161048b91610786565b6104bc61049661029e565b9160016104a2846103ea565b536102338482519760405195869483602087019b8c61032a565b6104c5826102c0565b936020850191519060055afa1590565b6103c75790565b5f6104e7828661063c565b515f905b8582106105275750509060019161052061051961050887856105d4565b92610513848c61063c565b516105d4565b918961063c565b5201610471565b909161059761056a6001926105658c61055e61054d6105468a8d61063c565b5189610680565b916105588a8c6105d4565b9061063c565b51906105d4565b6105d4565b6fffffffffffffffffffffffffffffffff811661059061058a87896105d4565b8d61063c565b5260801c90565b9201906104eb565b634e487b7160e01b5f52601160045260245ffd5b90601082018092116105c157565b61059f565b90600182018092116105c157565b919082018092116105c157565b5f198101919082116105c157565b919082039182116105c157565b67ffffffffffffffff811161014a5760051b60200190565b9061061e826105fc565b61062b6040519182610128565b82815280926102e8601f19916105fc565b80518210156103f75760209160051b010190565b600481901b91906001600160fc1b038116036105c157565b600381901b91906001600160fd1b038116036105c157565b818102929181159184041417156105c157565b9081516106a561043d610438836105b3565b906106af82610614565b935f5b8381106106bf5750505050565b5f60106106d36106ce846105c6565b610650565b8510610773576106ee6106e86106ce856105c6565b866105ef565b905b5f915b818310610712575050509060019161070b828961063c565b52016106b2565b90919260019061074e61074861074261073461072e89886105d4565b8b6103fc565b516001600160f81b03191690565b60f81c90565b60ff1690565b6107686107638761075e886105e1565b6105ef565b610668565b1b17930191906106f3565b505f6107816106e884610650565b6106f0565b919091610792836102c0565b928151915f5b8381106107a55750505050565b6107af818361063c565b516010906107bf6106ce846105c6565b851061083d576107d46106e86106ce856105c6565b905b5f5b8381106107eb5750505050600101610798565b8061081f61080f60ff8561080761076360019761075e8c6105e1565b1c1660ff1690565b60f81b6001600160f81b03191690565b61083661082c83876105d4565b915f1a918d6103fc565b53016107d8565b90505f61084c6106e884610650565b916107d656fea2646970667358221220dd9585e4919e340154fd3c3186d0ec6ead982a006147da1fc582babb363efe7064736f6c634300081c0033","linkReferences":{}},"methodIdentifiers":{"verifyExponentiation(bytes,bytes,uint256,bytes,bytes)":"6c03cb4d"},"id":15}