{"abi":[{"type":"constructor","inputs":[{"name":"admin","type":"address","internalType":"address"},{"name":"_credentialRegistry","type":"address","internalType":"address"},{"name":"_zkVerifier","type":"address","internalType":"address"}],"stateMutability":"nonpayable"},{"type":"function","name":"ADMIN_ROLE","inputs":[],"outputs":[{"name":"","type":"bytes32","internalType":"bytes32"}],"stateMutability":"view"},{"type":"function","name":"DEFAULT_ADMIN_ROLE","inputs":[],"outputs":[{"name":"","type":"bytes32","internalType":"bytes32"}],"stateMutability":"view"},{"type":"function","name":"GOVERNANCE_ROLE","inputs":[],"outputs":[{"name":"","type":"bytes32","internalType":"bytes32"}],"stateMutability":"view"},{"type":"function","name":"MAX_ATTRIBUTES_PER_REQUEST","inputs":[],"outputs":[{"name":"","type":"uint32","internalType":"uint32"}],"stateMutability":"view"},{"type":"function","name":"MAX_MERKLE_PROOF_DEPTH","inputs":[],"outputs":[{"name":"","type":"uint32","internalType":"uint32"}],"stateMutability":"view"},{"type":"function","name":"MAX_REQUEST_VALIDITY","inputs":[],"outputs":[{"name":"","type":"uint64","internalType":"uint64"}],"stateMutability":"view"},{"type":"function","name":"MIN_REQUEST_VALIDITY","inputs":[],"outputs":[{"name":"","type":"uint64","internalType":"uint64"}],"stateMutability":"view"},{"type":"function","name":"VERIFIER_ROLE","inputs":[],"outputs":[{"name":"","type":"bytes32","internalType":"bytes32"}],"stateMutability":"view"},{"type":"function","name":"cancelDisclosureRequest","inputs":[{"name":"requestId","type":"bytes32","internalType":"bytes32"}],"outputs":[],"stateMutability":"nonpayable"},{"type":"function","name":"createDisclosureRequest","inputs":[{"name":"subjectDid","type":"bytes32","internalType":"bytes32"},{"name":"credentialHash","type":"bytes32","internalType":"bytes32"},{"name":"attributeHashes","type":"bytes32[]","internalType":"bytes32[]"},{"name":"expiresAt","type":"uint64","internalType":"uint64"}],"outputs":[{"name":"requestId","type":"bytes32","internalType":"bytes32"}],"stateMutability":"nonpayable"},{"type":"function","name":"credentialRegistry","inputs":[],"outputs":[{"name":"","type":"address","internalType":"contract ICredentialRegistry"}],"stateMutability":"view"},{"type":"function","name":"getDisclosureRequest","inputs":[{"name":"requestId","type":"bytes32","internalType":"bytes32"}],"outputs":[{"name":"subjectDid","type":"bytes32","internalType":"bytes32"},{"name":"credentialHash","type":"bytes32","internalType":"bytes32"},{"name":"attributeHashes","type":"bytes32[]","internalType":"bytes32[]"},{"name":"verifier","type":"address","internalType":"address"},{"name":"createdAt","type":"uint64","internalType":"uint64"},{"name":"expiresAt","type":"uint64","internalType":"uint64"},{"name":"fulfilled","type":"bool","internalType":"bool"},{"name":"cancelled","type":"bool","internalType":"bool"}],"stateMutability":"view"},{"type":"function","name":"getDisclosureResult","inputs":[{"name":"requestId","type":"bytes32","internalType":"bytes32"}],"outputs":[{"name":"verified","type":"bool","internalType":"bool"},{"name":"verifiedAt","type":"uint64","internalType":"uint64"}],"stateMutability":"view"},{"type":"function","name":"getRoleAdmin","inputs":[{"name":"role","type":"bytes32","internalType":"bytes32"}],"outputs":[{"name":"","type":"bytes32","internalType":"bytes32"}],"stateMutability":"view"},{"type":"function","name":"getSubjectDisclosures","inputs":[{"name":"subjectDid","type":"bytes32","internalType":"bytes32"}],"outputs":[{"name":"","type":"bytes32[]","internalType":"bytes32[]"}],"stateMutability":"view"},{"type":"function","name":"getVerifierRequests","inputs":[{"name":"verifier","type":"address","internalType":"address"}],"outputs":[{"name":"","type":"bytes32[]","internalType":"bytes32[]"}],"stateMutability":"view"},{"type":"function","name":"grantRole","inputs":[{"name":"role","type":"bytes32","internalType":"bytes32"},{"name":"account","type":"address","internalType":"address"}],"outputs":[],"stateMutability":"nonpayable"},{"type":"function","name":"hasRole","inputs":[{"name":"role","type":"bytes32","internalType":"bytes32"},{"name":"account","type":"address","internalType":"address"}],"outputs":[{"name":"","type":"bool","internalType":"bool"}],"stateMutability":"view"},{"type":"function","name":"isNullifierUsedInContext","inputs":[{"name":"requestId","type":"bytes32","internalType":"bytes32"},{"name":"nullifier","type":"bytes32","internalType":"bytes32"}],"outputs":[{"name":"","type":"bool","internalType":"bool"}],"stateMutability":"view"},{"type":"function","name":"pause","inputs":[],"outputs":[],"stateMutability":"nonpayable"},{"type":"function","name":"paused","inputs":[],"outputs":[{"name":"","type":"bool","internalType":"bool"}],"stateMutability":"view"},{"type":"function","name":"renounceRole","inputs":[{"name":"role","type":"bytes32","internalType":"bytes32"},{"name":"callerConfirmation","type":"address","internalType":"address"}],"outputs":[],"stateMutability":"nonpayable"},{"type":"function","name":"revokeRole","inputs":[{"name":"role","type":"bytes32","internalType":"bytes32"},{"name":"account","type":"address","internalType":"address"}],"outputs":[],"stateMutability":"nonpayable"},{"type":"function","name":"submitDisclosureProof","inputs":[{"name":"requestId","type":"bytes32","internalType":"bytes32"},{"name":"circuitId","type":"bytes32","internalType":"bytes32"},{"name":"proof","type":"tuple","internalType":"struct Groth16Proof","components":[{"name":"a","type":"uint256[2]","internalType":"uint256[2]"},{"name":"b","type":"uint256[2][2]","internalType":"uint256[2][2]"},{"name":"c","type":"uint256[2]","internalType":"uint256[2]"}]},{"name":"publicInputs","type":"uint256[]","internalType":"uint256[]"},{"name":"merkleProof","type":"bytes32[]","internalType":"bytes32[]"}],"outputs":[{"name":"","type":"bool","internalType":"bool"}],"stateMutability":"nonpayable"},{"type":"function","name":"supportsInterface","inputs":[{"name":"interfaceId","type":"bytes4","internalType":"bytes4"}],"outputs":[{"name":"","type":"bool","internalType":"bool"}],"stateMutability":"view"},{"type":"function","name":"totalRequests","inputs":[],"outputs":[{"name":"","type":"uint256","internalType":"uint256"}],"stateMutability":"view"},{"type":"function","name":"totalSuccessfulDisclosures","inputs":[],"outputs":[{"name":"","type":"uint256","internalType":"uint256"}],"stateMutability":"view"},{"type":"function","name":"unpause","inputs":[],"outputs":[],"stateMutability":"nonpayable"},{"type":"function","name":"zkVerifier","inputs":[],"outputs":[{"name":"","type":"address","internalType":"contract IZKVerifier"}],"stateMutability":"view"},{"type":"event","name":"DisclosureNullifierUsed","inputs":[{"name":"requestId","type":"bytes32","indexed":true,"internalType":"bytes32"},{"name":"nullifier","type":"bytes32","indexed":true,"internalType":"bytes32"}],"anonymous":false},{"type":"event","name":"DisclosureProofSubmitted","inputs":[{"name":"requestId","type":"bytes32","indexed":true,"internalType":"bytes32"},{"name":"verified","type":"bool","indexed":false,"internalType":"bool"}],"anonymous":false},{"type":"event","name":"DisclosureRequestCancelled","inputs":[{"name":"requestId","type":"bytes32","indexed":true,"internalType":"bytes32"}],"anonymous":false},{"type":"event","name":"DisclosureRequested","inputs":[{"name":"requestId","type":"bytes32","indexed":true,"internalType":"bytes32"},{"name":"subjectDid","type":"bytes32","indexed":true,"internalType":"bytes32"},{"name":"attributeHashes","type":"bytes32[]","indexed":false,"internalType":"bytes32[]"}],"anonymous":false},{"type":"event","name":"MerkleProofVerified","inputs":[{"name":"requestId","type":"bytes32","indexed":true,"internalType":"bytes32"},{"name":"attributeHash","type":"bytes32","indexed":true,"internalType":"bytes32"},{"name":"valid","type":"bool","indexed":false,"internalType":"bool"}],"anonymous":false},{"type":"event","name":"Paused","inputs":[{"name":"account","type":"address","indexed":false,"internalType":"address"}],"anonymous":false},{"type":"event","name":"RoleAdminChanged","inputs":[{"name":"role","type":"bytes32","indexed":true,"internalType":"bytes32"},{"name":"previousAdminRole","type":"bytes32","indexed":true,"internalType":"bytes32"},{"name":"newAdminRole","type":"bytes32","indexed":true,"internalType":"bytes32"}],"anonymous":false},{"type":"event","name":"RoleGranted","inputs":[{"name":"role","type":"bytes32","indexed":true,"internalType":"bytes32"},{"name":"account","type":"address","indexed":true,"internalType":"address"},{"name":"sender","type":"address","indexed":true,"internalType":"address"}],"anonymous":false},{"type":"event","name":"RoleRevoked","inputs":[{"name":"role","type":"bytes32","indexed":true,"internalType":"bytes32"},{"name":"account","type":"address","indexed":true,"internalType":"address"},{"name":"sender","type":"address","indexed":true,"internalType":"address"}],"anonymous":false},{"type":"event","name":"Unpaused","inputs":[{"name":"account","type":"address","indexed":false,"internalType":"address"}],"anonymous":false},{"type":"error","name":"AccessControlBadConfirmation","inputs":[]},{"type":"error","name":"AccessControlUnauthorizedAccount","inputs":[{"name":"account","type":"address","internalType":"address"},{"name":"neededRole","type":"bytes32","internalType":"bytes32"}]},{"type":"error","name":"AttributeCountMismatch","inputs":[{"name":"expected","type":"uint256","internalType":"uint256"},{"name":"actual","type":"uint256","internalType":"uint256"}]},{"type":"error","name":"CredentialNotValid","inputs":[{"name":"credentialHash","type":"bytes32","internalType":"bytes32"}]},{"type":"error","name":"EnforcedPause","inputs":[]},{"type":"error","name":"ExpectedPause","inputs":[]},{"type":"error","name":"InvalidRequestValidity","inputs":[{"name":"expiresAt","type":"uint64","internalType":"uint64"}]},{"type":"error","name":"MerkleProofInvalid","inputs":[{"name":"leaf","type":"bytes32","internalType":"bytes32"},{"name":"root","type":"bytes32","internalType":"bytes32"}]},{"type":"error","name":"MerkleProofTooDeep","inputs":[{"name":"depth","type":"uint32","internalType":"uint32"}]},{"type":"error","name":"NoAttributesRequested","inputs":[]},{"type":"error","name":"NotRequestVerifier","inputs":[{"name":"requestId","type":"bytes32","internalType":"bytes32"},{"name":"caller","type":"address","internalType":"address"}]},{"type":"error","name":"NullifierAlreadyUsed","inputs":[{"name":"contextHash","type":"bytes32","internalType":"bytes32"},{"name":"nullifier","type":"bytes32","internalType":"bytes32"}]},{"type":"error","name":"ReentrancyGuardReentrantCall","inputs":[]},{"type":"error","name":"RequestAlreadyFulfilled","inputs":[{"name":"requestId","type":"bytes32","internalType":"bytes32"}]},{"type":"error","name":"RequestCancelled","inputs":[{"name":"requestId","type":"bytes32","internalType":"bytes32"}]},{"type":"error","name":"RequestExpired","inputs":[{"name":"requestId","type":"bytes32","internalType":"bytes32"}]},{"type":"error","name":"RequestNotFound","inputs":[{"name":"requestId","type":"bytes32","internalType":"bytes32"}]},{"type":"error","name":"TooManyAttributes","inputs":[{"name":"count","type":"uint32","internalType":"uint32"}]},{"type":"error","name":"ZKProofInvalid","inputs":[{"name":"circuitId","type":"bytes32","internalType":"bytes32"}]}],"bytecode":{"object":"0x60c0346101bb57601f611f3438819003918201601f19168301916001600160401b038311848410176101bf578084926060946040528339810103126101bb57610047816101d3565b61005f6040610058602085016101d3565b93016101d3565b60017f9b779b17422d0df92223018b32b4d1fa46e071723d6817e2486d003becc55f0055916001600160a01b03821615610189576001600160a01b0316918215610144576001600160a01b0316801561010c576100d59260805260a0526100c5816101e7565b506100cf8161025d565b506102f0565b50604051611b309081610384823960805181818161091501528181610c070152610fdb015260a051818181610d3b01526111650152f35b60405162461bcd60e51b815260206004820152601060248201526f2d32b937902d25903b32b934b334b2b960811b6044820152606490fd5b60405162461bcd60e51b815260206004820152601860248201527f5a65726f2063726564656e7469616c20726567697374727900000000000000006044820152606490fd5b60405162461bcd60e51b815260206004820152600a6024820152692d32b9379030b236b4b760b11b6044820152606490fd5b5f80fd5b634e487b7160e01b5f52604160045260245ffd5b51906001600160a01b03821682036101bb57565b6001600160a01b0381165f9081525f516020611f145f395f51905f52602052604090205460ff16610258576001600160a01b03165f8181525f516020611f145f395f51905f5260205260408120805460ff191660011790553391905f516020611eb45f395f51905f528180a4600190565b505f90565b6001600160a01b0381165f9081525f516020611ed45f395f51905f52602052604090205460ff16610258576001600160a01b03165f8181525f516020611ed45f395f51905f5260205260408120805460ff191660011790553391907fa49807205ce4d355092ef5a8a18f56e8913cf4a201fbe287825b095693c21775905f516020611eb45f395f51905f529080a4600190565b6001600160a01b0381165f9081525f516020611ef45f395f51905f52602052604090205460ff16610258576001600160a01b03165f8181525f516020611ef45f395f51905f5260205260408120805460ff191660011790553391907f71840dc4906352362b0cdaf79870196c8e42acafade72d5d5a6d59291253ceb1905f516020611eb45f395f51905f529080a460019056fe60806040526004361015610011575f80fd5b5f3560e01c806301ffc9a7146101df578063248a9ca3146101da5780632deddeb7146101d55780632ec90d71146101d05780632f2ff15d146101cb57806330347a60146101c6578063354d61ba146101c157806336568abe146101bc5780633f4ba83a146101b75780635c975abb146101b257806375b238fc146101ad578063767352a6146101945780637964a825146101a85780638456cb59146101a35780638aa60e921461019e5780638aea61dc146101995780638b91b4061461019457806391d148541461018f578063994dd6aa1461018a578063997602b014610185578063a217fddf14610180578063a86a14f91461017b578063b5f98e3c14610176578063b948c3d414610171578063d547741f1461016c578063d6299b4014610167578063d6df096d14610162578063e7705db61461015d5763f36c8f5c14610158575f80fd5b610da4565b610d6a565b610d26565b610c73565b610c36565b610bf2565b610bd5565b610bab565b610b91565b610851565b61079e565b6106f5565b6105be565b6106d8565b6106bb565b610663565b6105d8565b610584565b610562565b6104fc565b6104b8565b61049c565b610412565b61039e565b610308565b6102b4565b610239565b346102355760203660031901126102355760043563ffffffff60e01b811680910361023557602090637965db0b60e01b8114908115610224575b506040519015158152f35b6301ffc9a760e01b1490505f610219565b5f80fd5b346102355760203660031901126102355760206102636004355f525f602052600160405f20015490565b604051908152f35b602435906001600160a01b038216820361023557565b90602080835192838152019201905f5b81811061029e5750505090565b8251845260209384019390920191600101610291565b34610235576020366003190112610235576004356001600160a01b03811690819003610235575f5260056020526103046102f060405f20610e34565b604051918291602083526020830190610281565b0390f35b34610235576040366003190112610235576004356024355f8281526002602090815260409182902060040154825191820194855260601b6001600160601b0319169181019190915290919061036a81605481015b03601f198101835282610e13565b5190205f52600460205260405f20905f5260205261030460ff60405f20541660405191829182919091602081019215159052565b34610235576040366003190112610235576103e06004356103bd61026b565b906103db6103d6825f525f602052600160405f20015490565b6118e0565b611918565b005b9181601f84011215610235578235916001600160401b038311610235576020808501948460051b01011161023557565b34610235576101803660031901126102355760043560243561010036604319011261023557610144356001600160401b038111610235576104579036906004016103e2565b91909261016435926001600160401b038411610235576103049461048261048a9536906004016103e2565b949093610e7e565b60405190151581529081906020820190565b34610235575f36600319011261023557602060405161012c8152f35b34610235576040366003190112610235576004356104d461026b565b336001600160a01b038216036104ed576103e091611a76565b63334bd91960e11b5f5260045ffd5b34610235575f36600319011261023557610514611802565b60015460ff8116156105535760ff19166001557f5db9ee0a495bf2e6ff9c91a7834c1ba4fdd244a5e8aa4e537bd38aeae4b073aa6020604051338152a1005b638dfc202b60e01b5f5260045ffd5b34610235575f36600319011261023557602060ff600154166040519015158152f35b34610235575f3660031901126102355760206040517fa49807205ce4d355092ef5a8a18f56e8913cf4a201fbe287825b095693c217758152f35b34610235575f366003190112610235576020604051818152f35b3461023557602036600319011261023557600435805f5260026020526001600160401b03600460405f20015460a01c1615610651575f52600360205261030460405f2054604051918160ff6001600160401b03859460081c169116839092916001600160401b0360209160408401951515845216910152565b630d1c383160e11b5f5260045260245ffd5b34610235575f3660031901126102355761067b611802565b6106836119a4565b600160ff19815416176001557f62e78cea01bee320cd4e420270b5ea74000d11b0c9f74754ebdbfc544b05a2586020604051338152a1005b34610235575f366003190112610235576020600954604051908152f35b34610235575f366003190112610235576020600854604051908152f35b3461023557604036600319011261023557602060ff61073760043561071861026b565b905f525f845260405f209060018060a01b03165f5260205260405f2090565b54166040519015158152f35b96939897946107746001600160401b039460e0989486948b5260208b015261010060408b01526101008a0190610281565b6001600160a01b03909a1660608901521660808701521660a0850152151560c08401521515910152565b3461023557602036600319011261023557600435805f5260026020526001600160401b03600460405f20015460a01c1615610651575f52600260205260405f2060018101546103046002830154600484015493610802600360058301549201610e34565b9160405195869560ff8460481c16946001600160401b0360ff8660401c169516936001600160401b038460a01c169360018060a01b03169289610743565b6001600160401b0381160361023557565b34610235576080366003190112610235576004356024356044356001600160401b038111610235576108879036906004016103e2565b92906064359261089684610840565b61089e611871565b6108a66119a4565b8415610b825760208511610b69576001600160401b034216936108d76108cb8661178b565b6001600160401b031690565b6001600160401b038216908110908115610b54575b50610b3957604051636dc158eb60e01b8152600481018390526020816024816001600160a01b037f0000000000000000000000000000000000000000000000000000000000000000165afa908115610b34575f91610b05575b5015610af057610a329061096361095e60075460010190565b600755565b6007546040513360601b6001600160601b0319166020820190815260348201889052605482018690526074820192909252426094820152610a1391906109ac8160b4810161035c565b519020966109c2885f52600260205260405f2090565b8881556001810188905560028101959095556004850180546001600160a01b03191633178155805467ffffffffffffffff60a01b191660a09290921b67ffffffffffffffff60a01b16919091179055565b60058301906001600160401b03166001600160401b0319825416179055565b6003015f5b858110610ad2575050335f9081526005602052604090206103049484927f84e2e8a644b060fc8ad2be5ae05468c3e5c82a7821cd39886a3395c6e0c553d692610a869085906117ca565b6117ca565b610a9c84610a81875f52600660205260405f2090565b610ab0610aab60085460010190565b600855565b610abf604051928392836117f1565b0390a36040519081529081906020820190565b80610aea610ae36001938987611502565b35846117ca565b01610a37565b63398c8fe160e01b5f52600482905260245b5ffd5b610b27915060203d602011610b2d575b610b1f8183610e13565b81019061143b565b5f610945565b503d610b15565b611453565b630cb4535160e11b5f526001600160401b031660045260245ffd5b9050610b626108cb876117aa565b105f6108ec565b63eef0601b60e01b5f5263ffffffff851660045260245ffd5b63728dce9d60e01b5f5260045ffd5b34610235575f3660031901126102355760206040515f8152f35b34610235576020366003190112610235576004355f5260066020526103046102f060405f20610e34565b34610235575f36600319011261023557602060405162093a808152f35b34610235575f366003190112610235576040517f00000000000000000000000000000000000000000000000000000000000000006001600160a01b03168152602090f35b34610235576040366003190112610235576103e0600435610c5561026b565b90610c6e6103d6825f525f602052600160405f20015490565b611a76565b3461023557602036600319011261023557600435805f5260026020526001600160401b03600460405f20015460a01c1615610651575f81815260026020526040902060048101546001600160a01b03163303610d0f57600501805469ff000000000000000000191669010000000000000000001790557fb0fc2d6b776bff60b3b94b5be373daf12971d43040b1613264aa375665fc62fe5f80a2005b50632c878ceb60e01b5f526004523360245260445ffd5b34610235575f366003190112610235576040517f00000000000000000000000000000000000000000000000000000000000000006001600160a01b03168152602090f35b34610235575f3660031901126102355760206040517f0ce23c3e399818cfee81a7ab0880f714e53d7672b08df0fa62f2843416e1ea098152f35b34610235575f3660031901126102355760206040517f71840dc4906352362b0cdaf79870196c8e42acafade72d5d5a6d59291253ceb18152f35b634e487b7160e01b5f52604160045260245ffd5b61010081019081106001600160401b03821117610e0e57604052565b610dde565b90601f801991011681019081106001600160401b03821117610e0e57604052565b90604051918281549182825260208201905f5260205f20925f5b818110610e65575050610e6392500383610e13565b565b8454835260019485019487945060209093019201610e4e565b959493929190865f5260026020526001600160401b03600460405f20015460a01c1615610f3057865f526002602052600560405f20015460ff8160481c16610f1d57604081901c60ff16610f0957610ede906001600160401b03166108cb565b421015610ef657604490610ef396975f610f43565b90565b6263c7a560e01b5f52600487905260245ffd5b63511f5e1d60e11b5f52600488905260245ffd5b8763f903f47760e01b5f5260045260245ffd5b86630d1c383160e11b5f5260045260245ffd5b5095949193610f506119a4565b60027f9b779b17422d0df92223018b32b4d1fa46e071723d6817e2486d003becc55f00541461142c5760027f9b779b17422d0df92223018b32b4d1fa46e071723d6817e2486d003becc55f0055610faf875f52600260205260405f2090565b9360208711611413576002850154604051636dc158eb60e01b8152600481018290526001600160a01b037f000000000000000000000000000000000000000000000000000000000000000016989195906020816024818d5afa908115610b34575f916113f4575b50156113e057600487015460408051602081018d815260609390931b6001600160601b03191691810191909152611050816054810161035c565b51902095611061600386101561145e565b61107461106d866114be565b8686611502565b35996110a361109c8c61108f8b5f52600460205260405f2090565b905f5260205260405f2090565b5460ff1690565b6113c75760405163d1be488360e01b8152600481019290925290919061010090839060249082905afa918215610b34575f9261138e575b5061110861110c9160e060038b019401946111028651926110fa87610e34565b9236916115b3565b906119d3565b1590565b61135a5750918161112f61116194611126846020966114e5565b3590511461161a565b6111448661113d84846114f3565b3514611680565b60405163d7928b6360e01b815293849283928a886004860161172f565b03817f00000000000000000000000000000000000000000000000000000000000000006001600160a01b03165afa908115610b34575f9161133b575b501561132957509161120e60056112b6936111f56111e88861108f7e1814396fc3ee5edeb65dec956f71481ba5c989b9cb3b9c2ecf84bf19a4a9319a995f52600460205260405f2090565b805460ff19166001179055565b01805468ff00000000000000001916600160401b179055565b60405161122d8161035c602082019460c0810190604081019087611768565b519020611238611512565b6001815290426001600160401b031660208301526040820152826060820152611269855f52600360205260405f2090565b9060606002918051151560ff80198654169116178455602081015168ffffffffffffffff0085549160081b169068ffffffffffffffff001916178455604081015160018501550151910155565b6112ca6112c560095460010190565b600955565b60405190837fac3f97373713e5314f5115f792fc207f2aa079e3e5b81613c0206796e4805dcf5f80a360018152602090a261132460017f9b779b17422d0df92223018b32b4d1fa46e071723d6817e2486d003becc55f0055565b600190565b63bca0279d60e01b5f5260045260245ffd5b611354915060203d602011610b2d57610b1f8183610e13565b5f61119d565b9061137461136a610b0293611608565b90549060031b1c90565b9051632ae1104960e21b5f52600491909152602452604490565b61110c9192506113b8611108916101003d81116113c0575b6113b08183610e13565b810190611539565b9291506110da565b503d6113a6565b6374262db760e01b5f52600488905260248b905260445ffd5b63398c8fe160e01b5f52600486905260245ffd5b61140d915060203d602011610b2d57610b1f8183610e13565b5f611016565b6309d5a4c960e11b5f5263ffffffff871660045260245ffd5b633ee5aeb560e01b5f5260045ffd5b90816020910312610235575180151581036102355790565b6040513d5f823e3d90fd5b1561146557565b60405162461bcd60e51b815260206004820152601a60248201527f496e73756666696369656e74207075626c696320696e707574730000000000006044820152606490fd5b634e487b7160e01b5f52601160045260245ffd5b5f198101919082116114cc57565b6114aa565b634e487b7160e01b5f52603260045260245ffd5b90156114ee5790565b6114d1565b90600110156114ee5760200190565b91908110156114ee5760051b0190565b60405190610e63608083610e13565b5190610e6382610840565b5190600582101561023557565b90816101009103126102355760e06040519161155483610df2565b8051835260208101516020840152604081015160408401526060810151606084015261158260808201611521565b608084015261159360a08201611521565b60a08401526115a460c0820161152c565b60c0840152015160e082015290565b929190926001600160401b038411610e0e578360051b9060206040516115db82850182610e13565b809681520191810192831161023557905b8282106115f857505050565b81358152602091820191016115ec565b8054156114ee575f5260205f20905f90565b1561162157565b60405162461bcd60e51b815260206004820152603160248201527f5075626c696320696e7075745b305d206d757374206d617463682063726564656044820152701b9d1a585b081b595c9adb19481c9bdbdd607a1b6064820152608490fd5b1561168757565b60405162461bcd60e51b815260206004820152602f60248201527f5075626c696320696e7075745b315d206d757374206d6174636820726571756560448201526e0e6e840c6dedce8caf0e840d0c2e6d608b1b6064820152608490fd5b905f905b600282106116f557505050565b60408082818660019537019301910190916116e8565b81835290916001600160fb1b0383116102355760209260051b809284830137010190565b604060c0610ef3969461014094845282816020860137611754606085018483016116e4565b0160e083013781610120820152019161170b565b60c09061178760409496959396856101008401988437858301906116e4565b0137565b6001600160401b0361012c911601906001600160401b0382116114cc57565b6001600160401b0362093a80911601906001600160401b0382116114cc57565b805490600160401b821015610e0e57600182018082558210156114ee575f5260205f200155565b916020610ef393818152019161170b565b335f9081527f7d7ffb7a348e1c6a02869081a26547b49160dd3df72d1d75a570eb9b698292ec602052604090205460ff161561183a57565b63e2517d3f60e01b5f52336004527fa49807205ce4d355092ef5a8a18f56e8913cf4a201fbe287825b095693c2177560245260445ffd5b335f9081527f1da0b5176dfe03406af5a6eed66ca01dda9b45ac4da671c3fa379cb93717ef81602052604090205460ff16156118a957565b63e2517d3f60e01b5f52336004527f0ce23c3e399818cfee81a7ab0880f714e53d7672b08df0fa62f2843416e1ea0960245260445ffd5b5f8181526020818152604080832033845290915290205460ff16156119025750565b63e2517d3f60e01b5f523360045260245260445ffd5b5f818152602081815260408083206001600160a01b038616845290915290205460ff1661199e575f818152602081815260408083206001600160a01b03861684529091529020805460ff1916600117905533916001600160a01b0316907f2f8788117e7eff1d82e926ec794901d17c78024a50270940304540a733656f0d5f80a4600190565b50505f90565b60ff600154166119b057565b63d93c066560e01b5f5260045ffd5b80518210156114ee5760209160051b010190565b9291908351156114ee576020840151916001925b8551841015611a1657611a0e600191611a0086896119bf565b51905f5260205260405f2090565b9301926119e7565b9250929093505f915b8451831015611a6e57600190611a3584876119bf565b5190818111611a585790611a4f915f5260205260405f2090565b925b0191611a1f565b611a68915f5260205260405f2090565b92611a51565b915092501490565b5f818152602081815260408083206001600160a01b038616845290915290205460ff161561199e575f818152602081815260408083206001600160a01b03861684529091529020805460ff1916905533916001600160a01b0316907ff6391f5c32d9c69d2a47ea670b442974b53935d1edc7fd64eb21e047a839171b5f80a460019056fea26469706673582212208c3ab7fb50140ecfd654cd152b02ca50ea24ce2707693510765c94d5185a796f64736f6c634300081c00332f8788117e7eff1d82e926ec794901d17c78024a50270940304540a733656f0d7d7ffb7a348e1c6a02869081a26547b49160dd3df72d1d75a570eb9b698292ec316a51056d8b2401ab04c48d9973add294eadde229c785c6d19cde93785467efad3228b676f7d3cd4284a5443f17f1962b36e491b30a40b2405849e597ba5fb5","linkReferences":{}},"methodIdentifiers":{"ADMIN_ROLE()":"75b238fc","DEFAULT_ADMIN_ROLE()":"a217fddf","GOVERNANCE_ROLE()":"f36c8f5c","MAX_ATTRIBUTES_PER_REQUEST()":"767352a6","MAX_MERKLE_PROOF_DEPTH()":"8b91b406","MAX_REQUEST_VALIDITY()":"b5f98e3c","MIN_REQUEST_VALIDITY()":"354d61ba","VERIFIER_ROLE()":"e7705db6","cancelDisclosureRequest(bytes32)":"d6299b40","createDisclosureRequest(bytes32,bytes32,bytes32[],uint64)":"997602b0","credentialRegistry()":"b948c3d4","getDisclosureRequest(bytes32)":"994dd6aa","getDisclosureResult(bytes32)":"7964a825","getRoleAdmin(bytes32)":"248a9ca3","getSubjectDisclosures(bytes32)":"a86a14f9","getVerifierRequests(address)":"2deddeb7","grantRole(bytes32,address)":"2f2ff15d","hasRole(bytes32,address)":"91d14854","isNullifierUsedInContext(bytes32,bytes32)":"2ec90d71","pause()":"8456cb59","paused()":"5c975abb","renounceRole(bytes32,address)":"36568abe","revokeRole(bytes32,address)":"d547741f","submitDisclosureProof(bytes32,bytes32,(uint256[2],uint256[2][2],uint256[2]),uint256[],bytes32[])":"30347a60","supportsInterface(bytes4)":"01ffc9a7","totalRequests()":"8aea61dc","totalSuccessfulDisclosures()":"8aa60e92","unpause()":"3f4ba83a","zkVerifier()":"d6df096d"},"id":7}