{"abi":[{"type":"constructor","inputs":[{"name":"admin","type":"address","internalType":"address"}],"stateMutability":"nonpayable"},{"type":"function","name":"APPROVAL_DEFAULT_TTL","inputs":[],"outputs":[{"name":"","type":"uint256","internalType":"uint256"}],"stateMutability":"view"},{"type":"function","name":"DEFAULT_ADMIN_ROLE","inputs":[],"outputs":[{"name":"","type":"bytes32","internalType":"bytes32"}],"stateMutability":"view"},{"type":"function","name":"DEFAULT_REPUTATION","inputs":[],"outputs":[{"name":"","type":"uint256","internalType":"uint256"}],"stateMutability":"view"},{"type":"function","name":"GOVERNANCE_ROLE","inputs":[],"outputs":[{"name":"","type":"bytes32","internalType":"bytes32"}],"stateMutability":"view"},{"type":"function","name":"HUMAN_APPROVER_ROLE","inputs":[],"outputs":[{"name":"","type":"bytes32","internalType":"bytes32"}],"stateMutability":"view"},{"type":"function","name":"MAX_DELEGATION_DEPTH","inputs":[],"outputs":[{"name":"","type":"uint256","internalType":"uint256"}],"stateMutability":"view"},{"type":"function","name":"MAX_REPUTATION","inputs":[],"outputs":[{"name":"","type":"uint256","internalType":"uint256"}],"stateMutability":"view"},{"type":"function","name":"MIN_REPUTATION_FOR_DELEGATION","inputs":[],"outputs":[{"name":"","type":"uint256","internalType":"uint256"}],"stateMutability":"view"},{"type":"function","name":"VERIFIER_ROLE","inputs":[],"outputs":[{"name":"","type":"bytes32","internalType":"bytes32"}],"stateMutability":"view"},{"type":"function","name":"configureRateLimit","inputs":[{"name":"agentId","type":"bytes32","internalType":"bytes32"},{"name":"capabilityId","type":"bytes32","internalType":"bytes32"},{"name":"maxCallsPerWindow","type":"uint256","internalType":"uint256"},{"name":"windowDuration","type":"uint256","internalType":"uint256"}],"outputs":[],"stateMutability":"nonpayable"},{"type":"function","name":"delegateCapability","inputs":[{"name":"fromAgentId","type":"bytes32","internalType":"bytes32"},{"name":"toAgentId","type":"bytes32","internalType":"bytes32"},{"name":"capabilityId","type":"bytes32","internalType":"bytes32"},{"name":"expiresAt","type":"uint256","internalType":"uint256"}],"outputs":[],"stateMutability":"nonpayable"},{"type":"function","name":"denyApproval","inputs":[{"name":"approvalId","type":"bytes32","internalType":"bytes32"},{"name":"reason","type":"string","internalType":"string"}],"outputs":[],"stateMutability":"nonpayable"},{"type":"function","name":"getAgent","inputs":[{"name":"agentId","type":"bytes32","internalType":"bytes32"}],"outputs":[{"name":"","type":"tuple","internalType":"struct AIAgentRegistry.AgentIdentity","components":[{"name":"agentId","type":"bytes32","internalType":"bytes32"},{"name":"owner","type":"address","internalType":"address"},{"name":"agentDID","type":"string","internalType":"string"},{"name":"attestationHash","type":"bytes32","internalType":"bytes32"},{"name":"status","type":"uint8","internalType":"enum AIAgentRegistry.AgentStatus"},{"name":"registeredAt","type":"uint256","internalType":"uint256"},{"name":"reputationScore","type":"uint256","internalType":"uint256"},{"name":"totalInvocations","type":"uint256","internalType":"uint256"},{"name":"capabilityCount","type":"uint256","internalType":"uint256"},{"name":"delegationCount","type":"uint256","internalType":"uint256"}]}],"stateMutability":"view"},{"type":"function","name":"getAgentByAddress","inputs":[{"name":"addr","type":"address","internalType":"address"}],"outputs":[{"name":"","type":"bytes32","internalType":"bytes32"}],"stateMutability":"view"},{"type":"function","name":"getApproval","inputs":[{"name":"approvalId","type":"bytes32","internalType":"bytes32"}],"outputs":[{"name":"","type":"tuple","internalType":"struct AIAgentRegistry.ApprovalRequest","components":[{"name":"approvalId","type":"bytes32","internalType":"bytes32"},{"name":"agentId","type":"bytes32","internalType":"bytes32"},{"name":"capabilityId","type":"bytes32","internalType":"bytes32"},{"name":"description","type":"string","internalType":"string"},{"name":"requestedBy","type":"address","internalType":"address"},{"name":"requestedAt","type":"uint256","internalType":"uint256"},{"name":"expiresAt","type":"uint256","internalType":"uint256"},{"name":"status","type":"uint8","internalType":"enum AIAgentRegistry.ApprovalStatus"},{"name":"approver","type":"address","internalType":"address"},{"name":"denialReason","type":"string","internalType":"string"}]}],"stateMutability":"view"},{"type":"function","name":"getCapability","inputs":[{"name":"capabilityId","type":"bytes32","internalType":"bytes32"}],"outputs":[{"name":"","type":"tuple","internalType":"struct AIAgentRegistry.Capability","components":[{"name":"capabilityId","type":"bytes32","internalType":"bytes32"},{"name":"name","type":"string","internalType":"string"},{"name":"description","type":"string","internalType":"string"},{"name":"requiresHumanApproval","type":"bool","internalType":"bool"},{"name":"active","type":"bool","internalType":"bool"},{"name":"registeredAt","type":"uint256","internalType":"uint256"}]}],"stateMutability":"view"},{"type":"function","name":"getDelegation","inputs":[{"name":"fromAgent","type":"bytes32","internalType":"bytes32"},{"name":"toAgent","type":"bytes32","internalType":"bytes32"},{"name":"capabilityId","type":"bytes32","internalType":"bytes32"}],"outputs":[{"name":"","type":"tuple","internalType":"struct AIAgentRegistry.Delegation","components":[{"name":"fromAgent","type":"bytes32","internalType":"bytes32"},{"name":"toAgent","type":"bytes32","internalType":"bytes32"},{"name":"capabilityId","type":"bytes32","internalType":"bytes32"},{"name":"depth","type":"uint256","internalType":"uint256"},{"name":"createdAt","type":"uint256","internalType":"uint256"},{"name":"expiresAt","type":"uint256","internalType":"uint256"},{"name":"active","type":"bool","internalType":"bool"}]}],"stateMutability":"view"},{"type":"function","name":"getGrant","inputs":[{"name":"agentId","type":"bytes32","internalType":"bytes32"},{"name":"capabilityId","type":"bytes32","internalType":"bytes32"}],"outputs":[{"name":"","type":"tuple","internalType":"struct AIAgentRegistry.CapabilityGrant","components":[{"name":"capabilityId","type":"bytes32","internalType":"bytes32"},{"name":"grantedAt","type":"uint256","internalType":"uint256"},{"name":"expiresAt","type":"uint256","internalType":"uint256"},{"name":"active","type":"bool","internalType":"bool"},{"name":"delegatedFrom","type":"bytes32","internalType":"bytes32"},{"name":"delegationDepth","type":"uint256","internalType":"uint256"}]}],"stateMutability":"view"},{"type":"function","name":"getRoleAdmin","inputs":[{"name":"role","type":"bytes32","internalType":"bytes32"}],"outputs":[{"name":"","type":"bytes32","internalType":"bytes32"}],"stateMutability":"view"},{"type":"function","name":"grantApproval","inputs":[{"name":"approvalId","type":"bytes32","internalType":"bytes32"}],"outputs":[],"stateMutability":"nonpayable"},{"type":"function","name":"grantCapability","inputs":[{"name":"agentId","type":"bytes32","internalType":"bytes32"},{"name":"capabilityId","type":"bytes32","internalType":"bytes32"},{"name":"expiresAt","type":"uint256","internalType":"uint256"}],"outputs":[],"stateMutability":"nonpayable"},{"type":"function","name":"grantRole","inputs":[{"name":"role","type":"bytes32","internalType":"bytes32"},{"name":"account","type":"address","internalType":"address"}],"outputs":[],"stateMutability":"nonpayable"},{"type":"function","name":"hasActiveCapability","inputs":[{"name":"agentId","type":"bytes32","internalType":"bytes32"},{"name":"capabilityId","type":"bytes32","internalType":"bytes32"}],"outputs":[{"name":"","type":"bool","internalType":"bool"}],"stateMutability":"view"},{"type":"function","name":"hasRole","inputs":[{"name":"role","type":"bytes32","internalType":"bytes32"},{"name":"account","type":"address","internalType":"address"}],"outputs":[{"name":"","type":"bool","internalType":"bool"}],"stateMutability":"view"},{"type":"function","name":"invokeCapability","inputs":[{"name":"agentId","type":"bytes32","internalType":"bytes32"},{"name":"capabilityId","type":"bytes32","internalType":"bytes32"}],"outputs":[{"name":"approved","type":"bool","internalType":"bool"}],"stateMutability":"nonpayable"},{"type":"function","name":"pause","inputs":[],"outputs":[],"stateMutability":"nonpayable"},{"type":"function","name":"paused","inputs":[],"outputs":[{"name":"","type":"bool","internalType":"bool"}],"stateMutability":"view"},{"type":"function","name":"registerAgent","inputs":[{"name":"agentId","type":"bytes32","internalType":"bytes32"},{"name":"owner","type":"address","internalType":"address"},{"name":"agentDID","type":"string","internalType":"string"},{"name":"attestationHash","type":"bytes32","internalType":"bytes32"}],"outputs":[],"stateMutability":"nonpayable"},{"type":"function","name":"registerCapability","inputs":[{"name":"capabilityId","type":"bytes32","internalType":"bytes32"},{"name":"name","type":"string","internalType":"string"},{"name":"description","type":"string","internalType":"string"},{"name":"requiresHumanApproval","type":"bool","internalType":"bool"}],"outputs":[],"stateMutability":"nonpayable"},{"type":"function","name":"reinstateAgent","inputs":[{"name":"agentId","type":"bytes32","internalType":"bytes32"}],"outputs":[],"stateMutability":"nonpayable"},{"type":"function","name":"renounceRole","inputs":[{"name":"role","type":"bytes32","internalType":"bytes32"},{"name":"callerConfirmation","type":"address","internalType":"address"}],"outputs":[],"stateMutability":"nonpayable"},{"type":"function","name":"requestHumanApproval","inputs":[{"name":"agentId","type":"bytes32","internalType":"bytes32"},{"name":"capabilityId","type":"bytes32","internalType":"bytes32"},{"name":"description","type":"string","internalType":"string"}],"outputs":[{"name":"approvalId","type":"bytes32","internalType":"bytes32"}],"stateMutability":"nonpayable"},{"type":"function","name":"revokeAgent","inputs":[{"name":"agentId","type":"bytes32","internalType":"bytes32"},{"name":"reason","type":"string","internalType":"string"}],"outputs":[],"stateMutability":"nonpayable"},{"type":"function","name":"revokeCapability","inputs":[{"name":"agentId","type":"bytes32","internalType":"bytes32"},{"name":"capabilityId","type":"bytes32","internalType":"bytes32"}],"outputs":[],"stateMutability":"nonpayable"},{"type":"function","name":"revokeDelegation","inputs":[{"name":"fromAgentId","type":"bytes32","internalType":"bytes32"},{"name":"toAgentId","type":"bytes32","internalType":"bytes32"},{"name":"capabilityId","type":"bytes32","internalType":"bytes32"}],"outputs":[],"stateMutability":"nonpayable"},{"type":"function","name":"revokeRole","inputs":[{"name":"role","type":"bytes32","internalType":"bytes32"},{"name":"account","type":"address","internalType":"address"}],"outputs":[],"stateMutability":"nonpayable"},{"type":"function","name":"supportsInterface","inputs":[{"name":"interfaceId","type":"bytes4","internalType":"bytes4"}],"outputs":[{"name":"","type":"bool","internalType":"bool"}],"stateMutability":"view"},{"type":"function","name":"suspendAgent","inputs":[{"name":"agentId","type":"bytes32","internalType":"bytes32"},{"name":"reason","type":"string","internalType":"string"}],"outputs":[],"stateMutability":"nonpayable"},{"type":"function","name":"totalAgents","inputs":[],"outputs":[{"name":"","type":"uint256","internalType":"uint256"}],"stateMutability":"view"},{"type":"function","name":"totalDelegations","inputs":[],"outputs":[{"name":"","type":"uint256","internalType":"uint256"}],"stateMutability":"view"},{"type":"function","name":"totalInvocations","inputs":[],"outputs":[{"name":"","type":"uint256","internalType":"uint256"}],"stateMutability":"view"},{"type":"function","name":"unpause","inputs":[],"outputs":[],"stateMutability":"nonpayable"},{"type":"function","name":"updateReputation","inputs":[{"name":"agentId","type":"bytes32","internalType":"bytes32"},{"name":"delta","type":"int256","internalType":"int256"},{"name":"reason","type":"string","internalType":"string"}],"outputs":[],"stateMutability":"nonpayable"},{"type":"event","name":"AgentCapabilityInvoked","inputs":[{"name":"agentId","type":"bytes32","indexed":true,"internalType":"bytes32"},{"name":"capabilityId","type":"bytes32","indexed":true,"internalType":"bytes32"},{"name":"timestamp","type":"uint256","indexed":false,"internalType":"uint256"}],"anonymous":false},{"type":"event","name":"AgentRegistered","inputs":[{"name":"agentId","type":"bytes32","indexed":true,"internalType":"bytes32"},{"name":"owner","type":"address","indexed":true,"internalType":"address"},{"name":"agentDID","type":"string","indexed":false,"internalType":"string"},{"name":"timestamp","type":"uint256","indexed":false,"internalType":"uint256"}],"anonymous":false},{"type":"event","name":"AgentReinstated","inputs":[{"name":"agentId","type":"bytes32","indexed":true,"internalType":"bytes32"},{"name":"timestamp","type":"uint256","indexed":false,"internalType":"uint256"}],"anonymous":false},{"type":"event","name":"AgentRevokedEvent","inputs":[{"name":"agentId","type":"bytes32","indexed":true,"internalType":"bytes32"},{"name":"reason","type":"string","indexed":false,"internalType":"string"},{"name":"timestamp","type":"uint256","indexed":false,"internalType":"uint256"}],"anonymous":false},{"type":"event","name":"AgentSuspendedEvent","inputs":[{"name":"agentId","type":"bytes32","indexed":true,"internalType":"bytes32"},{"name":"reason","type":"string","indexed":false,"internalType":"string"},{"name":"timestamp","type":"uint256","indexed":false,"internalType":"uint256"}],"anonymous":false},{"type":"event","name":"CapabilityGranted","inputs":[{"name":"agentId","type":"bytes32","indexed":true,"internalType":"bytes32"},{"name":"capabilityId","type":"bytes32","indexed":true,"internalType":"bytes32"},{"name":"expiresAt","type":"uint256","indexed":false,"internalType":"uint256"},{"name":"timestamp","type":"uint256","indexed":false,"internalType":"uint256"}],"anonymous":false},{"type":"event","name":"CapabilityRevoked","inputs":[{"name":"agentId","type":"bytes32","indexed":true,"internalType":"bytes32"},{"name":"capabilityId","type":"bytes32","indexed":true,"internalType":"bytes32"},{"name":"timestamp","type":"uint256","indexed":false,"internalType":"uint256"}],"anonymous":false},{"type":"event","name":"DelegationCreated","inputs":[{"name":"fromAgent","type":"bytes32","indexed":true,"internalType":"bytes32"},{"name":"toAgent","type":"bytes32","indexed":true,"internalType":"bytes32"},{"name":"capabilityId","type":"bytes32","indexed":true,"internalType":"bytes32"},{"name":"depth","type":"uint256","indexed":false,"internalType":"uint256"},{"name":"timestamp","type":"uint256","indexed":false,"internalType":"uint256"}],"anonymous":false},{"type":"event","name":"DelegationRevoked","inputs":[{"name":"fromAgent","type":"bytes32","indexed":true,"internalType":"bytes32"},{"name":"toAgent","type":"bytes32","indexed":true,"internalType":"bytes32"},{"name":"capabilityId","type":"bytes32","indexed":true,"internalType":"bytes32"},{"name":"timestamp","type":"uint256","indexed":false,"internalType":"uint256"}],"anonymous":false},{"type":"event","name":"HumanApprovalDenied","inputs":[{"name":"approvalId","type":"bytes32","indexed":true,"internalType":"bytes32"},{"name":"approver","type":"address","indexed":true,"internalType":"address"},{"name":"reason","type":"string","indexed":false,"internalType":"string"},{"name":"timestamp","type":"uint256","indexed":false,"internalType":"uint256"}],"anonymous":false},{"type":"event","name":"HumanApprovalGranted","inputs":[{"name":"approvalId","type":"bytes32","indexed":true,"internalType":"bytes32"},{"name":"approver","type":"address","indexed":true,"internalType":"address"},{"name":"timestamp","type":"uint256","indexed":false,"internalType":"uint256"}],"anonymous":false},{"type":"event","name":"HumanApprovalRequested","inputs":[{"name":"approvalId","type":"bytes32","indexed":true,"internalType":"bytes32"},{"name":"agentId","type":"bytes32","indexed":true,"internalType":"bytes32"},{"name":"capabilityId","type":"bytes32","indexed":true,"internalType":"bytes32"},{"name":"description","type":"string","indexed":false,"internalType":"string"},{"name":"timestamp","type":"uint256","indexed":false,"internalType":"uint256"}],"anonymous":false},{"type":"event","name":"Paused","inputs":[{"name":"account","type":"address","indexed":false,"internalType":"address"}],"anonymous":false},{"type":"event","name":"RateLimitConfigured","inputs":[{"name":"agentId","type":"bytes32","indexed":true,"internalType":"bytes32"},{"name":"capabilityId","type":"bytes32","indexed":true,"internalType":"bytes32"},{"name":"maxCallsPerWindow","type":"uint256","indexed":false,"internalType":"uint256"},{"name":"windowDuration","type":"uint256","indexed":false,"internalType":"uint256"},{"name":"timestamp","type":"uint256","indexed":false,"internalType":"uint256"}],"anonymous":false},{"type":"event","name":"ReputationUpdated","inputs":[{"name":"agentId","type":"bytes32","indexed":true,"internalType":"bytes32"},{"name":"delta","type":"int256","indexed":false,"internalType":"int256"},{"name":"newScore","type":"uint256","indexed":false,"internalType":"uint256"},{"name":"reason","type":"string","indexed":false,"internalType":"string"},{"name":"timestamp","type":"uint256","indexed":false,"internalType":"uint256"}],"anonymous":false},{"type":"event","name":"RoleAdminChanged","inputs":[{"name":"role","type":"bytes32","indexed":true,"internalType":"bytes32"},{"name":"previousAdminRole","type":"bytes32","indexed":true,"internalType":"bytes32"},{"name":"newAdminRole","type":"bytes32","indexed":true,"internalType":"bytes32"}],"anonymous":false},{"type":"event","name":"RoleGranted","inputs":[{"name":"role","type":"bytes32","indexed":true,"internalType":"bytes32"},{"name":"account","type":"address","indexed":true,"internalType":"address"},{"name":"sender","type":"address","indexed":true,"internalType":"address"}],"anonymous":false},{"type":"event","name":"RoleRevoked","inputs":[{"name":"role","type":"bytes32","indexed":true,"internalType":"bytes32"},{"name":"account","type":"address","indexed":true,"internalType":"address"},{"name":"sender","type":"address","indexed":true,"internalType":"address"}],"anonymous":false},{"type":"event","name":"Unpaused","inputs":[{"name":"account","type":"address","indexed":false,"internalType":"address"}],"anonymous":false},{"type":"error","name":"AccessControlBadConfirmation","inputs":[]},{"type":"error","name":"AccessControlUnauthorizedAccount","inputs":[{"name":"account","type":"address","internalType":"address"},{"name":"neededRole","type":"bytes32","internalType":"bytes32"}]},{"type":"error","name":"AgentAlreadyRegistered","inputs":[]},{"type":"error","name":"AgentNotRegistered","inputs":[]},{"type":"error","name":"AgentRevoked","inputs":[]},{"type":"error","name":"AgentSuspended","inputs":[]},{"type":"error","name":"ApprovalAlreadyExists","inputs":[]},{"type":"error","name":"ApprovalExpired","inputs":[]},{"type":"error","name":"ApprovalNotFound","inputs":[]},{"type":"error","name":"CapabilityAlreadyGranted","inputs":[]},{"type":"error","name":"CapabilityExpired","inputs":[]},{"type":"error","name":"CapabilityNotGranted","inputs":[]},{"type":"error","name":"DelegationCycleDetected","inputs":[]},{"type":"error","name":"DelegationDepthExceeded","inputs":[]},{"type":"error","name":"DelegationNotFound","inputs":[]},{"type":"error","name":"EnforcedPause","inputs":[]},{"type":"error","name":"ExpectedPause","inputs":[]},{"type":"error","name":"HumanApprovalRequired","inputs":[]},{"type":"error","name":"InsufficientCapability","inputs":[]},{"type":"error","name":"InvalidCapability","inputs":[]},{"type":"error","name":"InvalidDIDFormat","inputs":[]},{"type":"error","name":"InvalidReputationScore","inputs":[]},{"type":"error","name":"RateLimitExceeded","inputs":[]},{"type":"error","name":"ReentrancyGuardReentrantCall","inputs":[]},{"type":"error","name":"SelfDelegationNotAllowed","inputs":[]}],"bytecode":{"object":"0x6080346100a057601f61309338819003918201601f19168301916001600160401b038311848410176100a4578084926020946040528339810103126100a057516001600160a01b03811681036100a0576100909060017f9b779b17422d0df92223018b32b4d1fa46e071723d6817e2486d003becc55f0055610080816100b8565b5061008a8161012e565b506101c1565b50604051612dbe90816102558239f35b5f80fd5b634e487b7160e01b5f52604160045260245ffd5b6001600160a01b0381165f9081525f5160206130735f395f51905f52602052604090205460ff16610129576001600160a01b03165f8181525f5160206130735f395f51905f5260205260408120805460ff191660011790553391905f5160206130135f395f51905f528180a4600190565b505f90565b6001600160a01b0381165f9081525f5160206130535f395f51905f52602052604090205460ff16610129576001600160a01b03165f8181525f5160206130535f395f51905f5260205260408120805460ff191660011790553391907f71840dc4906352362b0cdaf79870196c8e42acafade72d5d5a6d59291253ceb1905f5160206130135f395f51905f529080a4600190565b6001600160a01b0381165f9081525f5160206130335f395f51905f52602052604090205460ff16610129576001600160a01b03165f8181525f5160206130335f395f51905f5260205260408120805460ff191660011790553391907ffda0bf528ea7bb8c20d930c6e35376f72f96e4c08d41560e88684472aae8f0f8905f5160206130135f395f51905f529080a460019056fe60806040526004361015610011575f80fd5b5f3560e01c8063012d1d4b146124df57806301ffc9a71461248957806305b9cb3c1461246c5780630dbe00f3146123015780631baac3e914611f575780631c8d46d414611ecb5780631cb9a34414611d22578063221a5cdc14611c4c578063248a9ca314611c1a578063269f9ba514611b9c5780632bb3dcc814611b7f5780632f2ff15d14611b4257806336568abe14611afe5780633f0fa04114611a3e5780633f4ba83a146119d85780634ec04a7f146116ee5780634f21a8a61461158f578063577d4c53146114865780635c975abb14611464578063684f606a1461125357806369ce34ab146112375780637969a7131461121c5780638456cb59146111c457806391d148541461117c5780639cb7c5f414611075578063a217fddf1461105b578063a45b167014611038578063a61dbd3914610c72578063a6c2af0114610af7578063a8ad5c9114610a88578063ae1c254a1461090d578063afa94c99146108d3578063b22007d7146108b6578063b57da084146107e8578063c01f0bde146107cc578063c409efcb146103de578063c5053712146103c1578063d213c0f2146103a5578063d547741f14610361578063e30d750f146102a6578063e68dd3421461026a578063e7705db6146102305763f36c8f5c146101f2575f80fd5b3461022c575f36600319011261022c5760206040517f71840dc4906352362b0cdaf79870196c8e42acafade72d5d5a6d59291253ceb18152f35b5f80fd5b3461022c575f36600319011261022c5760206040517f0ce23c3e399818cfee81a7ab0880f714e53d7672b08df0fa62f2843416e1ea098152f35b3461022c57602036600319011261022c576004356001600160a01b0381169081900361022c575f526003602052602060405f2054604051908152f35b3461022c576102b436612699565b906102bd612a60565b825f52600260205260405f20600581015415610352576004019160ff835416600381101561033e5760021461032f577f530ce47b2e64bab98f9347363e119c2958da916f28783f969b913bc53a905dff92600160ff1982541617905561032a6040519283924291846127dd565b0390a2005b6306dfd38760e41b5f5260045ffd5b634e487b7160e01b5f52602160045260245ffd5b6383bcfb4760e01b5f5260045ffd5b3461022c57604036600319011261022c576103a3600435610380612720565b9061039e610399825f525f602052600160405f20015490565b612b1e565b612c38565b005b3461022c575f36600319011261022c5760206040516127108152f35b3461022c575f36600319011261022c576020600d54604051908152f35b3461022c57608036600319011261022c57604435602435600435606435610403612b56565b61040b612cb8565b8282146107bd5761041b82612b71565b61042483612b71565b5f828152600260205260409020600101546001600160a01b0316330361076557815f52600560205260405f20845f5260205260405f2060ff600382015416156107565760028101908154908115158061074d575b61073e576005015492600184018094116106ca576005841161072f57845f526002602052610bb8600660405f2001541061072057855f52600560205260405f20875f5260205260ff600360405f20015416806106fe575b6106ef5761064192604051602081019061050d816104ff8c8c8c8791606093918352602083015260408201520190565b03601f19810183528261284c565b519020928215801591906106e657506105a5835b60066040519161053083612831565b8a835260208301908c82528d60408501908152606085018c8152608086019142835260a0870193845260c0870194600186528c5f528660205260405f209751885551600188015551600287015551600386015551600485015551600584015551151591019060ff801983541691151516179055565b156106de57505b6005604051916105bb83612816565b888352602083019042825260408401908152610626606085016001815260808601928a845260a08701948a86528c5f52866020528d60405f20905f5260205260405f2097518855516001880155516002870155511515600386019060ff801983541691151516179055565b51600484015551910155835f52600760205260405f206128bf565b815f526002602052600960405f2001805490600182018092116106ca5755825f526002602052600860405f2001805491600183018093116106ca577f710980902dc0fa245af4668d635fb8af0357a37ff554aa2181b6d2c7c88146bc92604092556001600e5401600e558151908152426020820152a460015f516020612d695f395f51905f5255005b634e487b7160e01b5f52601160045260245ffd5b9050546105ac565b6105a590610521565b6331a5dd4360e11b5f5260045ffd5b50855f52600560205260405f20875f5260205285600460405f200154146104cf565b631839676f60e21b5f5260045ffd5b631d3a05b760e31b5f5260045ffd5b631cb1d7ed60e21b5f5260045ffd5b50814211610478565b6310b3ee9b60e01b5f5260045ffd5b60405162461bcd60e51b815260206004820152602a60248201527f4f6e6c79206167656e74206f776e65722063616e2064656c6567617465206361604482015269706162696c697469657360b01b6064820152608490fd5b63bbcec3ef60e01b5f5260045ffd5b3461022c575f36600319011261022c576020604051610bb88152f35b3461022c576107f6366126e6565b905f60a060405161080681612816565b82815282602082015282604082015282606082015282608082015201525f52600560205260405f20905f5260205260c060405f2060405161084681612816565b81549182825260018101546020830190815260028201546040840190815260ff6003840154169160608501921515835260a06005600486015495608088019687520154950194855260405195865251602086015251604085015251151560608401525160808301525160a0820152f35b3461022c575f36600319011261022c576020604051620151808152f35b3461022c575f36600319011261022c5760206040517ffda0bf528ea7bb8c20d930c6e35376f72f96e4c08d41560e88684472aae8f0f88152f35b3461022c5761091b366126e6565b90610924612b56565b61092c612cb8565b61093581612b71565b5f818152600260205260409020600101546001600160a01b03163303610a3257805f52600560205260405f20825f5260205260405f2060ff6003820154161561075657600201548015159081610a28575b5061073e57815f52600460205260ff600360405f20015416610a19576109ac8282612cf0565b805f526002602052600760405f2001805490600182018092116106ca57556001600f5401600f557fc5a4e41592157f5551b816ac4ac2da05cd75aad4b16bc36fb5cd3cf87cf3faf76020604051428152a360015f516020612d695f395f51905f5255602060405160018152f35b6360c0f6a160e11b5f5260045ffd5b9050421183610986565b60405162461bcd60e51b815260206004820152602860248201527f4f6e6c79206167656e74206f776e65722063616e20696e766f6b65206361706160448201526762696c697469657360c01b6064820152608490fd5b3461022c57610a9636612699565b90610a9f612a60565b825f52600260205260405f20916005830154156103525760047f25c444c927584cdf34cfc7794d199f12d6541681b4d91d660fb49725726df4d89301600260ff1982541617905561032a6040519283924291846127dd565b3461022c57602036600319011261022c575f610120604051610b18816127fa565b828152826020820152606060408201528260608201528260808201528260a08201528260c08201528260e08201528261010082015201526004355f52600260205260405f2060405190610b6a826127fa565b8054825260018101546001600160a01b03166020830190815290610b90600282016128e6565b91604084019283526003820154916060850192835260ff600482015416936080860194600381101561033e57855260058201549460a0870195865260068301549060c08801918252610c3460078501549360e08a0194855260096008870154966101008c019788520154966101208b019788526040519a60208c525160208c015260018060a01b0390511660408b01525161014060608b01526101608a01906126fc565b955160808901525195600387101561033e57879660a08801525160c08701525160e08601525161010085015251610120840152516101408301520390f35b3461022c57608036600319011261022c57600435610c8e612720565b906044356001600160401b03811161022c57610cae90369060040161266c565b90610cb7612b56565b825f526002602052600560405f20015461102957600a8210610f7b57610cde36838361287a565b805115610ee55760208101516001600160f81b031916601960fa1b1480159190611001575b8115610fd9575b8115610fb1575b8115610f8a575b50610f7b57604051610d29816127fa565b8381526001600160a01b0390941660208501818152909490610d4c36858561287a565b90604083019182526060830191606435835260808401925f845260a0850142815260c0860190611388825260e08701925f84526101008801945f86526101208901965f88528c5f52600260205260405f2099518a5560018060a01b0390511660018a019060018060a01b03166bffffffffffffffffffffffff60a01b8254161790556002890190518051906001600160401b038211610ef957610df982610df38554612736565b8561276e565b602090601f8311600114610f1857610e2892915f9183610f0d575b50508160011b915f199060031b1c19161790565b90555b51600388015560048701955195600387101561033e5760099660ff8019835416911617905551600587015551600686015551600785015551600884015551910155835f5260036020528260405f2055600b5491600160401b831015610ef9576001830180600b55831015610ee557837f848b086b4ab56ffb70fbcbb34fd5e8f35d1dd5347ee5344efbe6c0f5b97c70f493600b5f5260205f2001556001600d5401600d55610ee06040519283924291846127dd565b0390a3005b634e487b7160e01b5f52603260045260245ffd5b634e487b7160e01b5f52604160045260245ffd5b015190505f80610e14565b90601f19831691845f52815f20925f5b818110610f635750908460019594939210610f4b575b505050811b019055610e2b565b01515f1960f88460031b161c191690558f8080610f3e565b92936020600181928786015181550195019301610f28565b6339bc467d60e21b5f5260045ffd5b8091505160041015610ee557602401516001600160f81b031916606160f81b141585610d18565b8091505160031015610ee55760238101516001600160f81b031916601d60f91b141590610d11565b8091505160021015610ee55760228101516001600160f81b031916601960fa1b141590610d0a565b8091505160011015610ee55760218101516001600160f81b031916606960f81b141590610d03565b63704c69f760e11b5f5260045ffd5b3461022c57602061105161104b366126e6565b90612986565b6040519015158152f35b3461022c575f36600319011261022c5760206040515f8152f35b3461022c57602036600319011261022c575f60a060405161109581612816565b828152606060208201526060604082015282606082015282608082015201526004355f52600460205260405f206040516110ce81612816565b815481526110de600183016128e6565b91602082019283526110f2600282016128e6565b6040830190815260038201546111616004606086019460ff84161515865260ff608088019460081c161515845201549260a0860193845261114e604051978897602089525160208901525160c0604089015260e08801906126fc565b9051868203601f190160608801526126fc565b92511515608085015251151560a08401525160c08301520390f35b3461022c57604036600319011261022c57611195612720565b6004355f525f60205260405f209060018060a01b03165f52602052602060ff60405f2054166040519015158152f35b3461022c575f36600319011261022c576111dc612acf565b6111e4612b56565b600160ff19815416176001557f62e78cea01bee320cd4e420270b5ea74000d11b0c9f74754ebdbfc544b05a2586020604051338152a1005b3461022c575f36600319011261022c57602060405160058152f35b3461022c575f36600319011261022c5760206040516113888152f35b3461022c57606036600319011261022c576004356024356044356001600160401b03811161022c5761128990369060040161266c565b335f9081527f1da0b5176dfe03406af5a6eed66ca01dda9b45ac4da671c3fa379cb93717ef8160205260409020549192909160ff161561142d57835f52600260205260405f2091600583015415610352575f82126113fa576112ef82600685015461286d565b9261271084116113f0575b8360068201558315806113d2575b917f5cb65e547bc70d6cb7a2d6f1a6e932e89f665bf4a2ba23598a0abab15d3d153c95916113549361135f575b50604051948594855260208501526080604085015260808401916127bd565b4260608301520390a2005b600401600160ff19825416179055867f530ce47b2e64bab98f9347363e119c2958da916f28783f969b913bc53a905dff608060405160408152601a60408201527f52657075746174696f6e2064726f7070656420746f207a65726f0000000000006060820152426020820152a287611335565b509360ff60048601541691600383101561033e579094909115611308565b61271093506112fa565b600160ff1b82146106ca57600683015480835f03115f1461141d57505f926112fa565b8083019081116106ca57926112fa565b63e2517d3f60e01b5f52336004527f0ce23c3e399818cfee81a7ab0880f714e53d7672b08df0fa62f2843416e1ea0960245260445ffd5b3461022c575f36600319011261022c57602060ff600154166040519015158152f35b3461022c576114f0611497366126cc565b9192905f60c06040516114a981612831565b8281528260208201528260408201528260608201528260808201528260a082015201526104ff60405193849260208401968791606093918352602083015260408201520190565b5190205f52600660205260e060405f2060405161150c81612831565b815491828252600181015460208301908152600282015460408401908152600383015490606085019182526004840154926080860193845260c060ff600660058801549760a08a01988952015416960195151586526040519687525160208701525160408601525160608501525160808401525160a083015251151560c0820152f35b3461022c57606036600319011261022c576024356004356044356115b1612a60565b6115b9612b56565b6115c282612b71565b825f52600460205260ff600360405f20015460081c16156116df57815f52600560205260405f20835f5260205260ff600360405f200154166116d05760405161160a81612816565b83815260056020820142815260408301848152611675606085016001815260808601925f845260a08701945f8652895f528660205260405f208b5f5260205260405f2097518855516001880155516002870155511515600386019060ff801983541691151516179055565b51600484015551910155815f526002602052600860405f2001805491600183018093116106ca577f535a2b93c8f82f53681c96fdcde499cab5f0c3af4763323df55aefa52df5ebfe92604092558151908152426020820152a3005b6351c6891f60e11b5f5260045ffd5b63567158c160e11b5f5260045ffd5b3461022c57608036600319011261022c576004356024356001600160401b03811161022c5761172190369060040161266c565b6044929192356001600160401b03811161022c5761174390369060040161266c565b90936064359485151580960361022c5761175b612a60565b845f52600460205260ff600360405f20015460081c166116df576117936117a2926040519561178987612816565b878752369161287a565b9260208501938452369161287a565b936040830194855260608301908152608083016001815260a0840192428452855f52600460205260405f20945185556001850190518051906001600160401b038211610ef9576117f682610df38554612736565b602090601f83116001146119755761182492915f91836119045750508160011b915f199060031b1c19161790565b90555b6002840195519586516001600160401b038111610ef9576118528161184c8454612736565b8461276e565b6020601f821160011461190f57908061188492600498999a5f926119045750508160011b915f199060031b1c19161790565b90555b6118a46003860192511515839060ff801983541691151516179055565b51815461ff00191690151560081b61ff001617905551910155600c54600160401b811015610ef9576001810180600c55811015610ee557600c5f527fdf6966c971051c3d54ec59162606531493a51404a002842f56009d7e5cf4a8c70155005b015190508a80610e14565b601f19821698835f52815f20995f5b81811061195d575091600498999a91846001959410611945575b505050811b019055611887565b01515f1960f88460031b161c19169055898080611938565b838301518c556001909b019a6020938401930161191e565b90601f19831691845f52815f20925f5b8181106119c057509084600195949392106119a8575b505050811b019055611827565b01515f1960f88460031b161c1916905589808061199b565b92936020600181928786015181550195019301611985565b3461022c575f36600319011261022c576119f0612acf565b60015460ff811615611a2f5760ff19166001557f5db9ee0a495bf2e6ff9c91a7834c1ba4fdd244a5e8aa4e537bd38aeae4b073aa6020604051338152a1005b638dfc202b60e01b5f5260045ffd5b3461022c57608036600319011261022c57602435600435604435606435611a63612a60565b6040519160808301918383106001600160401b03841117610ef9577f7d5f1b0d1e43ecd12eeebe1bcb73e660a3886544471d56a3354e84e2696f7edd9360609360405282815260036020820183815260408301428152868401915f8352895f52600860205260405f208b5f5260205260405f2094518555516001850155516002840155519101556040519182526020820152426040820152a3005b3461022c57604036600319011261022c57611b17612720565b336001600160a01b03821603611b33576103a390600435612c38565b63334bd91960e11b5f5260045ffd5b3461022c57604036600319011261022c576103a3600435611b61612720565b90611b7a610399825f525f602052600160405f20015490565b612bb6565b3461022c575f36600319011261022c576020600f54604051908152f35b3461022c57602036600319011261022c57600435611bb8612a60565b805f52600260205260405f206005810154156103525760040160ff815416600381101561033e576001036103525760ff1981541690557f16780d42031dfd5e9169a3801b70b7b791af0630d7da24bd2f830df4406928386020604051428152a2005b3461022c57602036600319011261022c576020611c446004355f525f602052600160405f20015490565b604051908152f35b3461022c57602036600319011261022c57600435611c686129f1565b611c70612b56565b805f52600960205260405f20600581015415611d1357600781019060ff825416600481101561033e57611d0557600601544211611cf65780546001600160a81b0319163360081b610100600160a81b0316176001179055604051904282527f96c8416128dd80a90eb75b371c75b0990bb7f327966da15c0f9c4a54e631f85660203393a3005b634aad99a560e11b5f5260045ffd5b62d682b160e21b5f5260045ffd5b633d60bbdd60e21b5f5260045ffd5b3461022c57602036600319011261022c576060610120604051611d44816127fa565b5f81525f60208201525f604082015282808201525f60808201525f60a08201525f60c08201525f60e08201525f61010082015201526004355f52600960205260405f2060405190611d94826127fa565b80548252600181015460208301908152600282015460408401908152611dbc600384016128e6565b606085019081526004808501546001600160a01b031660808701908152600586015460a08801908152600687015460c08901908152600788015497929560e08a01959194929360ff8a169384101561033e57928652600898891c6001600160a01b03166101008b0190815298611e6d93611e3691016128e6565b976101208b019889526040519a60208c525160208c01525160408b01525160608a01525161014060808a01526101608901906126fc565b93516001600160a01b031660a08801525160c08701525160e08601525191600483101561033e5761010085019290925291516001600160a01b031661012084015251828203601f19016101408401528291611ec7916126fc565b0390f35b3461022c57611ed9366126e6565b90611ee2612a60565b805f52600560205260405f20825f52602052600360405f2001805460ff8116156107565760ff191690555f81815260026020526040902060080180545f198101919082116106ca57557fb8e23dfc88c34ba2279e9b3839dd31dc6c01a316226fdf4b599253f2857c9bc36020604051428152a3005b3461022c57606036600319011261022c576024356004356044356001600160401b03811161022c57611f8d90369060040161266c565b929091611f98612b56565b611fa181612b71565b805f52600560205260405f20825f5260205260ff600360405f20015416156107565760405160208101908282528360408201524260608201523360601b608082015260748152611ff260948261284c565b51902092620151804201948542116106ca57849160405196612013886127fa565b838852602088019785895260408101918783523661203290868661287a565b90606083019182526080830133815260a084019042825260c0850192835260e08501935f85526101008601965f885260209e8f6040519c8d612074838261284c565b5f90526101208a019d8e525f526009905260405f209751885551600188015551600287015560038601905180516001600160401b038111610ef9578f6120c4826120be8654612736565b8661276e565b80601f831160011461229c575081906120f1935f92610f0d5750508160011b915f199060031b1c19161790565b90555b51600485810180546001600160a01b0319166001600160a01b0393909316929092179091559051600585015590516006840155905190600783019082101561033e57805493516001600160a81b031990941660ff90921691909117600893841b610100600160a81b0316179055019251918251936001600160401b038511610ef95787936121868661184c8454612736565b8990601f87116001146122145795806121d6927f6682cf8f6b6027ce0d0157ffbe133b19f7adf5dc5c069293d4f794128e03389a97985f926122095750508160011b915f199060031b1c19161790565b90555b845f52600a88526121ed8460405f206128bf565b6121fe6040519283924291846127dd565b0390a4604051908152f35b015190508c80610e14565b90601f19871691835f528b5f20925f5b8d8282106122835750509160019391897f6682cf8f6b6027ce0d0157ffbe133b19f7adf5dc5c069293d4f794128e03389a999a941061226b575b505050811b0190556121d9565b01515f1960f88460031b161c191690558b808061225e565b8484015186558d99506001909501949384019301612224565b9192601f198416855f52835f20935f905b8282106122e95750509084600195949392106122d1575b505050811b0190556120f4565b01515f1960f88460031b161c191690555f80806122c4565b806001869782949787015181550196019401906122ad565b3461022c5761230f366126cc565b91612318612b56565b805f52600260205260018060a01b03600160405f2001541633148015612435575b156123ff5760408051602081018381529181018490526060810185905261236381608081016104ff565b5190205f526006602052600660405f2001805460ff8116156123f05760ff19169055815f52600560205260405f20835f52602052600360405f200160ff198154169055815f526002602052600860405f20018054905f1982019182116106ca57557f63e8b194e9687cb3f06da08b2b2eaaedb207918b90b2d8defcf18c7eaeba20266020604051428152a4005b631dc8319b60e01b5f5260045ffd5b60405162461bcd60e51b815260206004820152600e60248201526d139bdd08185d5d1a1bdc9a5e995960921b6044820152606490fd5b50335f9081527f316a51056d8b2401ab04c48d9973add294eadde229c785c6d19cde93785467ef602052604090205460ff16612339565b3461022c575f36600319011261022c576020600e54604051908152f35b3461022c57602036600319011261022c5760043563ffffffff60e01b811680910361022c57602090637965db0b60e01b81149081156124ce575b506040519015158152f35b6301ffc9a760e01b149050826124c3565b3461022c576124ed36612699565b91906124f76129f1565b815f52600960205260405f20600581015415611d1357600781019060ff825416600481101561033e57611d055781546001600160a81b03191633600890811b610100600160a81b031691909117600217909255016001600160401b038411610ef95761256d846125678354612736565b8361276e565b835f601f82116001146125de57916125c0827f15d1644e2b24039d05f37f91f3ae6fe3b8d8369e742c0a46a7ac9135d0f540849593610ee0955f916125d3575b508160011b915f199060031b1c19161790565b90555b60405191829133964291846127dd565b9050840135896125ad565b5f8381526020812092508690601f198216905b8181106126515750917f15d1644e2b24039d05f37f91f3ae6fe3b8d8369e742c0a46a7ac9135d0f54084959391610ee0959310612638575b5050600186811b0190556125c3565b8301355f19600389901b60f8161c191690558680612629565b868401358555600190940193602093840193899350016125f1565b9181601f8401121561022c578235916001600160401b03831161022c576020838186019501011161022c57565b90604060031983011261022c5760043591602435906001600160401b03821161022c576126c89160040161266c565b9091565b606090600319011261022c57600435906024359060443590565b604090600319011261022c576004359060243590565b805180835260209291819084018484015e5f828201840152601f01601f1916010190565b602435906001600160a01b038216820361022c57565b90600182811c92168015612764575b602083101461275057565b634e487b7160e01b5f52602260045260245ffd5b91607f1691612745565b601f821161277b57505050565b5f5260205f20906020601f840160051c830193106127b3575b601f0160051c01905b8181106127a8575050565b5f815560010161279d565b9091508190612794565b908060209392818452848401375f828201840152601f01601f1916010190565b9392916020916127f5916040875260408701916127bd565b930152565b61014081019081106001600160401b03821117610ef957604052565b60c081019081106001600160401b03821117610ef957604052565b60e081019081106001600160401b03821117610ef957604052565b90601f801991011681019081106001600160401b03821117610ef957604052565b919082018092116106ca57565b9291926001600160401b038211610ef957604051916128a3601f8201601f19166020018461284c565b82948184528183011161022c578281602093845f960137010152565b805490600160401b821015610ef95760018201808255821015610ee5575f5260205f200155565b9060405191825f8254926128f984612736565b80845293600181169081156129645750600114612920575b5061291e9250038361284c565b565b90505f9291925260205f20905f915b81831061294857505090602061291e928201015f612911565b602091935080600191548385890101520191019091849261292f565b90506020925061291e94915060ff191682840152151560051b8201015f612911565b90815f52600560205260405f20905f5260205260405f2060ff600382015416156129eb576002015480151590816129e1575b506129dc575f52600260205260ff600460405f20015416600381101561033e571590565b505f90565b905042115f6129b8565b50505f90565b335f9081527fb037d01fbc1b440fb633c5c3bfee4a3d5b3c40ed977a616d7b8b5add01b76fea602052604090205460ff1615612a2957565b63e2517d3f60e01b5f52336004527ffda0bf528ea7bb8c20d930c6e35376f72f96e4c08d41560e88684472aae8f0f860245260445ffd5b335f9081527f316a51056d8b2401ab04c48d9973add294eadde229c785c6d19cde93785467ef602052604090205460ff1615612a9857565b63e2517d3f60e01b5f52336004527f71840dc4906352362b0cdaf79870196c8e42acafade72d5d5a6d59291253ceb160245260445ffd5b335f9081527fad3228b676f7d3cd4284a5443f17f1962b36e491b30a40b2405849e597ba5fb5602052604090205460ff1615612b0757565b63e2517d3f60e01b5f52336004525f60245260445ffd5b5f8181526020818152604080832033845290915290205460ff1615612b405750565b63e2517d3f60e01b5f523360045260245260445ffd5b60ff60015416612b6257565b63d93c066560e01b5f5260045ffd5b5f52600260205260405f20600581015415610352576004015460ff16600381101561033e5760018114612ba75760021461032f57565b63be06741760e01b5f5260045ffd5b5f818152602081815260408083206001600160a01b038616845290915290205460ff166129eb575f818152602081815260408083206001600160a01b0395909516808452949091528120805460ff19166001179055339291907f2f8788117e7eff1d82e926ec794901d17c78024a50270940304540a733656f0d9080a4600190565b5f818152602081815260408083206001600160a01b038616845290915290205460ff16156129eb575f818152602081815260408083206001600160a01b0395909516808452949091528120805460ff19169055339291907ff6391f5c32d9c69d2a47ea670b442974b53935d1edc7fd64eb21e047a839171b9080a4600190565b60025f516020612d695f395f51905f525414612ce15760025f516020612d695f395f51905f5255565b633ee5aeb560e01b5f5260045ffd5b5f52600860205260405f20905f5260205260405f208054908115612d645780600260039201612d25815460018401549061286d565b421015612d56575b5001805491821015612d4757600182018092116106ca5755565b63a74c1c5f60e01b5f5260045ffd5b4290555f828201555f612d2d565b505056fe9b779b17422d0df92223018b32b4d1fa46e071723d6817e2486d003becc55f00a2646970667358221220bba85c221294b7c0417d08717b28e84cb2c303a2838022052543225b12626e1964736f6c634300081c00332f8788117e7eff1d82e926ec794901d17c78024a50270940304540a733656f0db037d01fbc1b440fb633c5c3bfee4a3d5b3c40ed977a616d7b8b5add01b76fea316a51056d8b2401ab04c48d9973add294eadde229c785c6d19cde93785467efad3228b676f7d3cd4284a5443f17f1962b36e491b30a40b2405849e597ba5fb5","linkReferences":{}},"methodIdentifiers":{"APPROVAL_DEFAULT_TTL()":"b22007d7","DEFAULT_ADMIN_ROLE()":"a217fddf","DEFAULT_REPUTATION()":"69ce34ab","GOVERNANCE_ROLE()":"f36c8f5c","HUMAN_APPROVER_ROLE()":"afa94c99","MAX_DELEGATION_DEPTH()":"7969a713","MAX_REPUTATION()":"d213c0f2","MIN_REPUTATION_FOR_DELEGATION()":"c01f0bde","VERIFIER_ROLE()":"e7705db6","configureRateLimit(bytes32,bytes32,uint256,uint256)":"3f0fa041","delegateCapability(bytes32,bytes32,bytes32,uint256)":"c409efcb","denyApproval(bytes32,string)":"012d1d4b","getAgent(bytes32)":"a6c2af01","getAgentByAddress(address)":"e68dd342","getApproval(bytes32)":"1cb9a344","getCapability(bytes32)":"9cb7c5f4","getDelegation(bytes32,bytes32,bytes32)":"577d4c53","getGrant(bytes32,bytes32)":"b57da084","getRoleAdmin(bytes32)":"248a9ca3","grantApproval(bytes32)":"221a5cdc","grantCapability(bytes32,bytes32,uint256)":"4f21a8a6","grantRole(bytes32,address)":"2f2ff15d","hasActiveCapability(bytes32,bytes32)":"a45b1670","hasRole(bytes32,address)":"91d14854","invokeCapability(bytes32,bytes32)":"ae1c254a","pause()":"8456cb59","paused()":"5c975abb","registerAgent(bytes32,address,string,bytes32)":"a61dbd39","registerCapability(bytes32,string,string,bool)":"4ec04a7f","reinstateAgent(bytes32)":"269f9ba5","renounceRole(bytes32,address)":"36568abe","requestHumanApproval(bytes32,bytes32,string)":"1baac3e9","revokeAgent(bytes32,string)":"a8ad5c91","revokeCapability(bytes32,bytes32)":"1c8d46d4","revokeDelegation(bytes32,bytes32,bytes32)":"0dbe00f3","revokeRole(bytes32,address)":"d547741f","supportsInterface(bytes4)":"01ffc9a7","suspendAgent(bytes32,string)":"e30d750f","totalAgents()":"c5053712","totalDelegations()":"05b9cb3c","totalInvocations()":"2bb3dcc8","unpause()":"3f4ba83a","updateReputation(bytes32,int256,string)":"684f606a"},"id":0}