{"abi":[{"type":"constructor","inputs":[{"name":"admin","type":"address","internalType":"address"}],"stateMutability":"nonpayable"},{"type":"function","name":"CONFIG_MANAGER_ROLE","inputs":[],"outputs":[{"name":"","type":"bytes32","internalType":"bytes32"}],"stateMutability":"view"},{"type":"function","name":"DEFAULT_ADMIN_ROLE","inputs":[],"outputs":[{"name":"","type":"bytes32","internalType":"bytes32"}],"stateMutability":"view"},{"type":"function","name":"GUARDIAN_ROLE","inputs":[],"outputs":[{"name":"","type":"bytes32","internalType":"bytes32"}],"stateMutability":"view"},{"type":"function","name":"KEY_ROTATION_WINDOW","inputs":[],"outputs":[{"name":"","type":"uint256","internalType":"uint256"}],"stateMutability":"view"},{"type":"function","name":"MAX_SIGNERS","inputs":[],"outputs":[{"name":"","type":"uint256","internalType":"uint256"}],"stateMutability":"view"},{"type":"function","name":"RECOVERY_COOLDOWN","inputs":[],"outputs":[{"name":"","type":"uint256","internalType":"uint256"}],"stateMutability":"view"},{"type":"function","name":"REQUEST_DEFAULT_TTL","inputs":[],"outputs":[{"name":"","type":"uint256","internalType":"uint256"}],"stateMutability":"view"},{"type":"function","name":"SIGNER_ROLE","inputs":[],"outputs":[{"name":"","type":"bytes32","internalType":"bytes32"}],"stateMutability":"view"},{"type":"function","name":"aggregateSignatures","inputs":[{"name":"requestId","type":"bytes32","internalType":"bytes32"},{"name":"signerIndices","type":"uint256[]","internalType":"uint256[]"}],"outputs":[{"name":"credentialHash","type":"bytes32","internalType":"bytes32"}],"stateMutability":"nonpayable"},{"type":"function","name":"approveRecovery","inputs":[{"name":"configId","type":"bytes32","internalType":"bytes32"}],"outputs":[],"stateMutability":"nonpayable"},{"type":"function","name":"completeKeyRotation","inputs":[{"name":"oldConfigId","type":"bytes32","internalType":"bytes32"}],"outputs":[],"stateMutability":"nonpayable"},{"type":"function","name":"createConfig","inputs":[{"name":"configId","type":"bytes32","internalType":"bytes32"},{"name":"threshold","type":"uint256","internalType":"uint256"},{"name":"totalSigners","type":"uint256","internalType":"uint256"},{"name":"groupPubKey","type":"tuple","internalType":"struct BN254.G1Point","components":[{"name":"x","type":"uint256","internalType":"uint256"},{"name":"y","type":"uint256","internalType":"uint256"}]}],"outputs":[],"stateMutability":"nonpayable"},{"type":"function","name":"executeRecovery","inputs":[{"name":"configId","type":"bytes32","internalType":"bytes32"},{"name":"requiredApprovals","type":"uint256","internalType":"uint256"}],"outputs":[],"stateMutability":"nonpayable"},{"type":"function","name":"getAggregatedTEEStatus","inputs":[{"name":"configId","type":"bytes32","internalType":"bytes32"},{"name":"signerIndices","type":"uint256[]","internalType":"uint256[]"}],"outputs":[{"name":"attestedCount","type":"uint256","internalType":"uint256"},{"name":"attestations","type":"bytes32[]","internalType":"bytes32[]"}],"stateMutability":"view"},{"type":"function","name":"getConfig","inputs":[{"name":"configId","type":"bytes32","internalType":"bytes32"}],"outputs":[{"name":"threshold","type":"uint256","internalType":"uint256"},{"name":"totalSigners","type":"uint256","internalType":"uint256"},{"name":"active","type":"bool","internalType":"bool"},{"name":"createdAt","type":"uint256","internalType":"uint256"}],"stateMutability":"view"},{"type":"function","name":"getRequestStatus","inputs":[{"name":"requestId","type":"bytes32","internalType":"bytes32"}],"outputs":[{"name":"configId","type":"bytes32","internalType":"bytes32"},{"name":"credentialHash","type":"bytes32","internalType":"bytes32"},{"name":"partialSigCount","type":"uint256","internalType":"uint256"},{"name":"finalized","type":"bool","internalType":"bool"},{"name":"expiresAt","type":"uint256","internalType":"uint256"}],"stateMutability":"view"},{"type":"function","name":"getRoleAdmin","inputs":[{"name":"role","type":"bytes32","internalType":"bytes32"}],"outputs":[{"name":"","type":"bytes32","internalType":"bytes32"}],"stateMutability":"view"},{"type":"function","name":"getSigner","inputs":[{"name":"configId","type":"bytes32","internalType":"bytes32"},{"name":"index","type":"uint256","internalType":"uint256"}],"outputs":[{"name":"signerAddress","type":"address","internalType":"address"},{"name":"active","type":"bool","internalType":"bool"},{"name":"teeAttestation","type":"bytes32","internalType":"bytes32"}],"stateMutability":"view"},{"type":"function","name":"grantRole","inputs":[{"name":"role","type":"bytes32","internalType":"bytes32"},{"name":"account","type":"address","internalType":"address"}],"outputs":[],"stateMutability":"nonpayable"},{"type":"function","name":"hasRole","inputs":[{"name":"role","type":"bytes32","internalType":"bytes32"},{"name":"account","type":"address","internalType":"address"}],"outputs":[{"name":"","type":"bool","internalType":"bool"}],"stateMutability":"view"},{"type":"function","name":"initiateEmergencyRecovery","inputs":[{"name":"configId","type":"bytes32","internalType":"bytes32"},{"name":"newConfigId","type":"bytes32","internalType":"bytes32"}],"outputs":[],"stateMutability":"nonpayable"},{"type":"function","name":"initiateKeyRotation","inputs":[{"name":"oldConfigId","type":"bytes32","internalType":"bytes32"},{"name":"newConfigId","type":"bytes32","internalType":"bytes32"}],"outputs":[],"stateMutability":"nonpayable"},{"type":"function","name":"pause","inputs":[],"outputs":[],"stateMutability":"nonpayable"},{"type":"function","name":"paused","inputs":[],"outputs":[{"name":"","type":"bool","internalType":"bool"}],"stateMutability":"view"},{"type":"function","name":"recordTEEAttestation","inputs":[{"name":"configId","type":"bytes32","internalType":"bytes32"},{"name":"attestationHash","type":"bytes32","internalType":"bytes32"},{"name":"enclaveReport","type":"bytes","internalType":"bytes"}],"outputs":[],"stateMutability":"nonpayable"},{"type":"function","name":"registerSigner","inputs":[{"name":"configId","type":"bytes32","internalType":"bytes32"},{"name":"signer","type":"address","internalType":"address"},{"name":"index","type":"uint256","internalType":"uint256"},{"name":"pubShare","type":"tuple","internalType":"struct BN254.G1Point","components":[{"name":"x","type":"uint256","internalType":"uint256"},{"name":"y","type":"uint256","internalType":"uint256"}]},{"name":"g2Key","type":"tuple","internalType":"struct BN254.G2Point","components":[{"name":"x","type":"uint256[2]","internalType":"uint256[2]"},{"name":"y","type":"uint256[2]","internalType":"uint256[2]"}]}],"outputs":[],"stateMutability":"nonpayable"},{"type":"function","name":"renounceRole","inputs":[{"name":"role","type":"bytes32","internalType":"bytes32"},{"name":"callerConfirmation","type":"address","internalType":"address"}],"outputs":[],"stateMutability":"nonpayable"},{"type":"function","name":"requestCredential","inputs":[{"name":"configId","type":"bytes32","internalType":"bytes32"},{"name":"credentialHash","type":"bytes32","internalType":"bytes32"},{"name":"messageHashes","type":"uint256[]","internalType":"uint256[]"},{"name":"ttl","type":"uint256","internalType":"uint256"}],"outputs":[{"name":"requestId","type":"bytes32","internalType":"bytes32"}],"stateMutability":"nonpayable"},{"type":"function","name":"revokeRole","inputs":[{"name":"role","type":"bytes32","internalType":"bytes32"},{"name":"account","type":"address","internalType":"address"}],"outputs":[],"stateMutability":"nonpayable"},{"type":"function","name":"submitPartialSignature","inputs":[{"name":"requestId","type":"bytes32","internalType":"bytes32"},{"name":"sigmaI","type":"tuple","internalType":"struct BN254.G1Point","components":[{"name":"x","type":"uint256","internalType":"uint256"},{"name":"y","type":"uint256","internalType":"uint256"}]},{"name":"teeProof","type":"bytes32","internalType":"bytes32"}],"outputs":[],"stateMutability":"nonpayable"},{"type":"function","name":"supportsInterface","inputs":[{"name":"interfaceId","type":"bytes4","internalType":"bytes4"}],"outputs":[{"name":"","type":"bool","internalType":"bool"}],"stateMutability":"view"},{"type":"function","name":"totalCredentialsIssued","inputs":[],"outputs":[{"name":"","type":"uint256","internalType":"uint256"}],"stateMutability":"view"},{"type":"function","name":"unpause","inputs":[],"outputs":[],"stateMutability":"nonpayable"},{"type":"event","name":"CredentialAggregated","inputs":[{"name":"requestId","type":"bytes32","indexed":true,"internalType":"bytes32"},{"name":"credentialHash","type":"bytes32","indexed":true,"internalType":"bytes32"},{"name":"signaturesUsed","type":"uint256","indexed":false,"internalType":"uint256"},{"name":"timestamp","type":"uint256","indexed":false,"internalType":"uint256"}],"anonymous":false},{"type":"event","name":"CredentialRequested","inputs":[{"name":"configId","type":"bytes32","indexed":true,"internalType":"bytes32"},{"name":"requestId","type":"bytes32","indexed":true,"internalType":"bytes32"},{"name":"credentialHash","type":"bytes32","indexed":false,"internalType":"bytes32"},{"name":"expiresAt","type":"uint256","indexed":false,"internalType":"uint256"}],"anonymous":false},{"type":"event","name":"EmergencyRecoveryInitiated","inputs":[{"name":"configId","type":"bytes32","indexed":true,"internalType":"bytes32"},{"name":"initiator","type":"address","indexed":true,"internalType":"address"},{"name":"timestamp","type":"uint256","indexed":false,"internalType":"uint256"}],"anonymous":false},{"type":"event","name":"GuardianApproval","inputs":[{"name":"configId","type":"bytes32","indexed":true,"internalType":"bytes32"},{"name":"guardian","type":"address","indexed":true,"internalType":"address"},{"name":"totalApprovals","type":"uint256","indexed":false,"internalType":"uint256"}],"anonymous":false},{"type":"event","name":"KeyRotationCompleted","inputs":[{"name":"configId","type":"bytes32","indexed":true,"internalType":"bytes32"},{"name":"newConfigId","type":"bytes32","indexed":true,"internalType":"bytes32"},{"name":"timestamp","type":"uint256","indexed":false,"internalType":"uint256"}],"anonymous":false},{"type":"event","name":"KeyRotationInitiated","inputs":[{"name":"configId","type":"bytes32","indexed":true,"internalType":"bytes32"},{"name":"newConfigId","type":"bytes32","indexed":true,"internalType":"bytes32"},{"name":"timestamp","type":"uint256","indexed":false,"internalType":"uint256"}],"anonymous":false},{"type":"event","name":"PartialSignatureSubmitted","inputs":[{"name":"requestId","type":"bytes32","indexed":true,"internalType":"bytes32"},{"name":"signer","type":"address","indexed":true,"internalType":"address"},{"name":"signerIndex","type":"uint256","indexed":false,"internalType":"uint256"},{"name":"totalCollected","type":"uint256","indexed":false,"internalType":"uint256"}],"anonymous":false},{"type":"event","name":"Paused","inputs":[{"name":"account","type":"address","indexed":false,"internalType":"address"}],"anonymous":false},{"type":"event","name":"RoleAdminChanged","inputs":[{"name":"role","type":"bytes32","indexed":true,"internalType":"bytes32"},{"name":"previousAdminRole","type":"bytes32","indexed":true,"internalType":"bytes32"},{"name":"newAdminRole","type":"bytes32","indexed":true,"internalType":"bytes32"}],"anonymous":false},{"type":"event","name":"RoleGranted","inputs":[{"name":"role","type":"bytes32","indexed":true,"internalType":"bytes32"},{"name":"account","type":"address","indexed":true,"internalType":"address"},{"name":"sender","type":"address","indexed":true,"internalType":"address"}],"anonymous":false},{"type":"event","name":"RoleRevoked","inputs":[{"name":"role","type":"bytes32","indexed":true,"internalType":"bytes32"},{"name":"account","type":"address","indexed":true,"internalType":"address"},{"name":"sender","type":"address","indexed":true,"internalType":"address"}],"anonymous":false},{"type":"event","name":"SignerRegistered","inputs":[{"name":"configId","type":"bytes32","indexed":true,"internalType":"bytes32"},{"name":"signer","type":"address","indexed":true,"internalType":"address"},{"name":"signerIndex","type":"uint256","indexed":false,"internalType":"uint256"},{"name":"timestamp","type":"uint256","indexed":false,"internalType":"uint256"}],"anonymous":false},{"type":"event","name":"TEEAttestationRecorded","inputs":[{"name":"configId","type":"bytes32","indexed":true,"internalType":"bytes32"},{"name":"signer","type":"address","indexed":true,"internalType":"address"},{"name":"attestationHash","type":"bytes32","indexed":false,"internalType":"bytes32"}],"anonymous":false},{"type":"event","name":"ThresholdConfigCreated","inputs":[{"name":"configId","type":"bytes32","indexed":true,"internalType":"bytes32"},{"name":"threshold","type":"uint256","indexed":false,"internalType":"uint256"},{"name":"totalSigners","type":"uint256","indexed":false,"internalType":"uint256"},{"name":"timestamp","type":"uint256","indexed":false,"internalType":"uint256"}],"anonymous":false},{"type":"event","name":"Unpaused","inputs":[{"name":"account","type":"address","indexed":false,"internalType":"address"}],"anonymous":false},{"type":"error","name":"AccessControlBadConfirmation","inputs":[]},{"type":"error","name":"AccessControlUnauthorizedAccount","inputs":[{"name":"account","type":"address","internalType":"address"},{"name":"neededRole","type":"bytes32","internalType":"bytes32"}]},{"type":"error","name":"AggregationFailed","inputs":[]},{"type":"error","name":"BN254_EcAddFailed","inputs":[]},{"type":"error","name":"BN254_EcMulFailed","inputs":[]},{"type":"error","name":"BN254_HashToCurveFailed","inputs":[]},{"type":"error","name":"BN254_PairingFailed","inputs":[]},{"type":"error","name":"ConfigurationAlreadyExists","inputs":[]},{"type":"error","name":"ConfigurationNotActive","inputs":[]},{"type":"error","name":"ConfigurationNotFound","inputs":[]},{"type":"error","name":"DuplicatePartialSignature","inputs":[]},{"type":"error","name":"EnforcedPause","inputs":[]},{"type":"error","name":"ExpectedPause","inputs":[]},{"type":"error","name":"InsufficientGuardianApprovals","inputs":[]},{"type":"error","name":"InsufficientPartialSignatures","inputs":[]},{"type":"error","name":"InvalidPartialSignature","inputs":[]},{"type":"error","name":"InvalidSignerIndex","inputs":[]},{"type":"error","name":"InvalidTEEAttestation","inputs":[]},{"type":"error","name":"InvalidThreshold","inputs":[]},{"type":"error","name":"KeyRotationInProgress","inputs":[]},{"type":"error","name":"KeyRotationNotInProgress","inputs":[]},{"type":"error","name":"RecoveryAlreadyInitiated","inputs":[]},{"type":"error","name":"RecoveryCooldownActive","inputs":[]},{"type":"error","name":"RecoveryNotInitiated","inputs":[]},{"type":"error","name":"ReentrancyGuardReentrantCall","inputs":[]},{"type":"error","name":"RequestAlreadyFinalized","inputs":[]},{"type":"error","name":"RequestExpired","inputs":[]},{"type":"error","name":"RequestNotFound","inputs":[]},{"type":"error","name":"SignerAlreadyRegistered","inputs":[]},{"type":"error","name":"SignerCountMismatch","inputs":[]},{"type":"error","name":"SignerNotRegistered","inputs":[]}],"bytecode":{"object":"0x60803461009657601f612a6538819003918201601f19168301916001600160401b0383118484101761009a5780849260209460405283398101031261009657516001600160a01b0381168103610096576100869060017f9b779b17422d0df92223018b32b4d1fa46e071723d6817e2486d003becc55f0055610080816100ae565b50610124565b5060405161284d90816101b88239f35b5f80fd5b634e487b7160e01b5f52604160045260245ffd5b6001600160a01b0381165f9081525f516020612a455f395f51905f52602052604090205460ff1661011f576001600160a01b03165f8181525f516020612a455f395f51905f5260205260408120805460ff191660011790553391905f516020612a055f395f51905f528180a4600190565b505f90565b6001600160a01b0381165f9081525f516020612a255f395f51905f52602052604090205460ff1661011f576001600160a01b03165f8181525f516020612a255f395f51905f5260205260408120805460ff191660011790553391907fbbfb55d933c2bfa638763473275b1d84c4418e58d26cf9d2cd5758237756d9f0905f516020612a055f395f51905f529080a460019056fe60806040526004361015610011575f80fd5b5f3560e01c806301ffc9a7146102245780630afff8ea1461021f5780631210169b1461021a57806318da4c3914610215578063248a9ca31461021057806324ea54f41461020b57806327c89cf81461020657806329d84aa7146102015780632f2ff15d146101fc57806336568abe146101f75780633e97ecb1146101f25780633f4ba83a146101ed57806345d07664146101e8578063484cc1d5146101e35780634fa6caf6146101de57806359ecd657146101d95780635c975abb146101d457806366c90046146101cf5780636dd5b69d146101ca578063712c7d4b146101c55780638456cb59146101c0578063849bfa04146101bb5780638f6b7411146101b657806391d14854146101b157806398093aae146101ac578063a0c7f799146101a7578063a1ebf35d146101a2578063a217fddf1461019d578063b22ddcfe14610198578063b519c83714610193578063cfd4cd431461018e578063d547741f146101895763f7e16a9914610184575f80fd5b6114bc565b61147f565b611399565b61137c565b6111dc565b6111c2565b611188565b61114e565b610fde565b610f90565b610f2e565b610f11565b610eb9565b610de1565b610d90565b610c78565b610c56565b610c3b565b610bdf565b610b09565b610aae565b610a48565b610a2b565b6109e7565b6109a5565b610988565b6108fd565b6108c3565b610891565b6106a7565b6103ee565b610323565b3461027a57602036600319011261027a5760043563ffffffff60e01b811680910361027a57602090637965db0b60e01b8114908115610269575b506040519015158152f35b6301ffc9a760e01b1490505f61025e565b5f80fd5b9181601f8401121561027a5782359167ffffffffffffffff831161027a576020808501948460051b01011161027a57565b90604060031983011261027a57600435916024359067ffffffffffffffff821161027a576102df9160040161027e565b9091565b6060602091604081019381526040838201528451809452019201905f5b81811061030d5750505090565b8251845260209384019390920191600101610300565b3461027a57610331366102af565b915f9161033d84611665565b9361034b6040519586611614565b808552601f1961035a82611665565b013660208701375f5b81811061037d57604051806103798888836102e3565b0390f35b835f52600360205260086103a660405f20610399848688611691565b355f5260205260405f2090565b0154806103b383896116a6565b526103c1575b600101610363565b6001909401936103b9565b604090602319011261027a57602490565b604090606319011261027a57606490565b3461027a57608036600319011261027a5760043561040b366103cc565b9060643591610418611a09565b610420611bdd565b610428611bf8565b61043a825f52600560205260405f2090565b90815493841561068257600483015460ff16610673576003830154421161066457610482610470865f52600460205260405f2090565b335f9081526020919091526040902090565b54948515610655576104b76104b0876104a3885f52600760205260405f2090565b905f5260205260405f2090565b5460ff1690565b61064657856104a36104d1925f52600360205260405f2090565b906104e46104e0848487611c30565b1590565b610637577fe6176ec027afc1b4e3539342ac104ca4d28d7fb47d2507993cbd4ba89bfc2f429361056d6105c99461052761051c611636565b918a835236906116ba565b6020820152836040820152610548896104a38a5f52600660205260405f2090565b9060406003918051845560208082015180516001870155015160028501550151910155565b610593610586886104a3895f52600760205260405f2090565b805460ff19166001179055565b60058101926105a284546116f6565b8455826105e4575b5050505460405191829133968360209093929193604081019481520152565b0390a36105e260015f5160206127f85f395f51905f5255565b005b335f908152600960205260409020839160089183905501555460405191825233917f929fdbdbce7259110aa01579ab59ed7728564b037d24e9961cf894354e600daa9080602081010390a35f80806105aa565b632026098d60e01b5f5260045ffd5b63d2be13d360e01b5f5260045ffd5b633dda173960e01b5f5260045ffd5b637f780e6960e11b5f5260045ffd5b63f1a6019360e01b5f5260045ffd5b632589d98f60e11b5f5260045ffd5b602435906001600160a01b038216820361027a57565b3461027a5761012036600319011261027a576004356106c4610691565b90604435916106d2366103dd565b60803660a319011261027a576106e6611a78565b6106ee611bdd565b610700835f52600260205260405f2090565b6107116104e0600483015460ff1690565b610883578415908115610875575b5061086657610747600961073f866104a3875f52600360205260405f2090565b015460ff1690565b610857577f46107119bd3ad5c5743e136f50fad815dc6814ab38082ee947d963122d4438fa916107ef6108479260a4351580159061084c575b61078990611736565b6107ae610794611647565b6001600160a01b03851681529188602084015236906116ba565b60408201526107bc366117c9565b60608201525f6080820152600160a08201524260c08201526107ea876104a3885f52600360205260405f2090565b611802565b8461081b82610806875f52600460205260405f2090565b9060018060a01b03165f5260205260405f2090565b5561082581611ceb565b50604080519586524260208701526001600160a01b0390911694918291820190565b0390a3005b5060c4351515610780565b639a35333360e01b5f5260045ffd5b632fe2d91b60e21b5f5260045ffd5b60019150015484115f61071f565b621ad43b60e21b5f5260045ffd5b3461027a57602036600319011261027a5760206108bb6004355f525f602052600160405f20015490565b604051908152f35b3461027a575f36600319011261027a5760206040517f55435dd261a4b9b3364963f7738a7a662ad9c84396d64be3365284bb7f0a50418152f35b3461027a57602036600319011261027a57600435610919611a78565b610921611bdd565b805f52600260205260405f209060068201805415610979575f9060046007850154940160ff198154169055557f99e955232bd959f51358341a0b550507758674d5a9fcc362da299125af9887d36020604051428152a3005b632b4adb2f60e01b5f5260045ffd5b3461027a575f36600319011261027a576020604051620151808152f35b3461027a57604036600319011261027a576105e26004356109c4610691565b906109e26109dd825f525f602052600160405f20015490565b611ba5565b611dc4565b3461027a57604036600319011261027a57600435610a03610691565b336001600160a01b03821603610a1c576105e291611e50565b63334bd91960e11b5f5260045ffd5b3461027a575f36600319011261027a5760206040516202a3008152f35b3461027a575f36600319011261027a57610a60611ae7565b60015460ff811615610a9f5760ff19166001557f5db9ee0a495bf2e6ff9c91a7834c1ba4fdd244a5e8aa4e537bd38aeae4b073aa6020604051338152a1005b638dfc202b60e01b5f5260045ffd5b3461027a57602036600319011261027a576004355f52600560205260a060405f208054906001810154906005810154600360ff6004840154169201549260405194855260208501526040840152151560608301526080820152f35b3461027a57602036600319011261027a57600435610b25611b36565b610b2d611bdd565b805f52600860205260405f20610b476104e0825460ff1690565b610bd057335f9081526005820160208190526040909120909190610b6a906104b0565b61064657610b8c6105866003933360018060a01b03165f5260205260405f2090565b01610b9781546116f6565b815554907ffa4f6a9bd0fa34ed9c2c0febc597fa83cd96f49974e25067f83ad5fbf989f8f8604051806108473395829190602083019252565b63078591a760e11b5f5260045ffd5b3461027a57604036600319011261027a57600435602435905f52600360205260405f20905f52602052606060405f2060018060a01b0381541690600860ff60098301541691015490604051928352151560208301526040820152f35b3461027a575f36600319011261027a57602060405160648152f35b3461027a575f36600319011261027a57602060ff600154166040519015158152f35b3461027a5760a036600319011261027a57600435604435602435610c9b366103dd565b91610ca4611a78565b610cac611bdd565b81158015610d87575b610d785760648111610d7857610cd8600461073f865f52600260205260405f2090565b610d69577fb383c7407d6628627b1d4a21b54c2ef855085ab89cb90302dd866d9b3762fef692610d31610d13865f52600260205260405f2090565b84815560018101849055823560028201556020909201356003830155565b60048101805460ff19166001179055600542910155610d4f846118cd565b6040805192835260208301919091524290820152606090a2005b630735e0fd60e51b5f5260045ffd5b63aabd5a0960e01b5f5260045ffd5b50808211610cb5565b3461027a57602036600319011261027a576004355f526002602052608060405f20805490600181015490600560ff600483015416910154916040519384526020840152151560408301526060820152f35b3461027a57604036600319011261027a57602435600435610e00611a78565b610e08611bdd565b610e1a815f52600260205260405f2090565b610e2c835f52600260205260405f2090565b610e3d6104e0600484015460ff1690565b610eaa576004015460ff161561088357600681018054610e9b578391600791610e6542611709565b905501556040514281527f0b1e867bc4300d2ecf0b7f9d2acb9969563c6cecf788eac8177f7efc0821d700908060208101610847565b63ef0311d760e01b5f5260045ffd5b63ff300d1b60e01b5f5260045ffd5b3461027a575f36600319011261027a57610ed1611ae7565b610ed9611bdd565b600160ff19815416176001557f62e78cea01bee320cd4e420270b5ea74000d11b0c9f74754ebdbfc544b05a2586020604051338152a1005b3461027a575f36600319011261027a576020600b54604051908152f35b3461027a57606036600319011261027a5760443560243560043567ffffffffffffffff831161027a573660238401121561027a5782600401359167ffffffffffffffff831161027a57366024848601011161027a5760246105e2940191611916565b3461027a57604036600319011261027a57602060ff610fd2600435610fb3610691565b905f525f845260405f209060018060a01b03165f5260205260405f2090565b54166040519015158152f35b3461027a57608036600319011261027a5760043560243560443567ffffffffffffffff811161027a5761101590369060040161027e565b9091606435611022611bdd565b61103c6104e0600461073f885f52600260205260405f2090565b610eaa57801561113e57611054909392935b42611729565b60408051602081018781529181018490524260608083019190915233901b6bffffffffffffffffffffffff191660808201529193916110a081609481015b03601f198101835282611614565b519020936110b6855f52600560205260405f2090565b9086825583600183015584600383015560025f9201915b81811061112057604080518681526020810188905261037991899182918c917fe8b03ab31dffd1cd1fee48b8c06cb9961784595d19179badf202cf75e0886f879190a36040519081529081906020820190565b806111386111316001938588611691565b35856119c2565b016110cd565b506110546201518093929361104e565b3461027a575f36600319011261027a5760206040517fbbfb55d933c2bfa638763473275b1d84c4418e58d26cf9d2cd5758237756d9f08152f35b3461027a575f36600319011261027a5760206040517fe2f4eaae4a9751e85a3e4a7b9587827a877f29914755229b07a7b2da98285f708152f35b3461027a575f36600319011261027a5760206040515f8152f35b3461027a576111ea366102af565b906111f3611bdd565b6111fb611bf8565b61120d835f52600560205260405f2090565b908154908115610682576004830191611227835460ff1690565b6106735761123d905f52600260205260405f2090565b54841061136d5761124c611f47565b905f905b8582106112f65782516006860155602083015160078601556103796112cd87897f827d3dfab089ed64ba809df9e30ef65913e96bfd838469d8cdf34a8bea14651c60018a61129d8b610586565b6112b16112ac600b5460010190565b600b55565b0154604080519485524260208601529094859491829190820190565b0390a36112e660015f5160206127f85f395f51905f5255565b6040519081529081906020820190565b9091611303838784611691565b356113206104e06104b0836104a38c5f52600760205260405f2090565b61136d5760019161135f8961135a85611354611365966104a36113458f8d908d611fd5565b955f52600660205260405f2090565b016119eb565b6120e0565b9061212e565b920190611250565b6304d06a5f60e11b5f5260045ffd5b3461027a575f36600319011261027a57602060405162093a808152f35b3461027a57604036600319011261027a576024356004356113b8611b36565b6113c0611bdd565b6113d2815f52600860205260405f2090565b916113e16104e0845460ff1690565b610bd05760028301544210611470576003830190815410611461575f906114206004611415855f52600260205260405f2090565b01805460ff19169055565b6004840154845460ff1916909455556040514281527f99e955232bd959f51358341a0b550507758674d5a9fcc362da299125af9887d3908060208101610847565b63016730a760e41b5f5260045ffd5b63fb3a10a960e01b5f5260045ffd5b3461027a57604036600319011261027a576105e260043561149e610691565b906114b76109dd825f525f602052600160405f20015490565b611e50565b3461027a57604036600319011261027a576004356024356114db611b36565b6114e3611bdd565b6114f5825f52600860205260405f2090565b90611501825460ff1690565b6115d057815460ff1916600117825561156a91610586918154610100600160a81b0319163360081b610100600160a81b031617825542600183015561154542611719565b6002830155600160038301556004820155335f90815260059091016020526040902090565b604051428152339082907f03e0eb10ba0f96c9d1a0f19a242bfaa04491bc4d11c344aa870e994658c5707990602090a3604051600181523391907ffa4f6a9bd0fa34ed9c2c0febc597fa83cd96f49974e25067f83ad5fbf989f8f8908060208101610847565b635659dc6b60e01b5f5260045ffd5b634e487b7160e01b5f52604160045260245ffd5b6040810190811067ffffffffffffffff82111761160f57604052565b6115df565b90601f8019910116810190811067ffffffffffffffff82111761160f57604052565b60405190611645606083611614565b565b6040519061164560e083611614565b60405190611645604083611614565b67ffffffffffffffff811161160f5760051b60200190565b634e487b7160e01b5f52603260045260245ffd5b91908110156116a15760051b0190565b61167d565b80518210156116a15760209160051b010190565b919082604091031261027a576040516116d2816115f3565b6020808294803584520135910152565b634e487b7160e01b5f52601160045260245ffd5b906001820180921161170457565b6116e2565b9062093a80820180921161170457565b906202a300820180921161170457565b9190820180921161170457565b1561173d57565b60405162461bcd60e51b815260206004820152601760248201527f4732206b6579206d757374206e6f74206265207a65726f0000000000000000006044820152606490fd5b9080601f8301121561027a576040519161179d604084611614565b82906040810192831161027a57905b8282106117b95750505090565b81358152602091820191016117ac565b90608060a31983011261027a576040516117e2816115f3565b60206117fd82946117f48160a4611782565b845260e4611782565b910152565b815181546001600160a01b0319166001600160a01b0391909116178155602080830151600183015560408301518051600284015501516003820155906060810151600483019080515f5b600281106118b9575050602001515f5b600281106118a25750505060c0816080600a930151600885015561189b61188660a0830151151590565b600986019060ff801983541691151516179055565b0151910155565b60019060208351930192600282860101550161185c565b60019060208351930192818601550161184c565b600a54600160401b81101561160f5760018101600a55600a548110156116a157600a5f527fc65a7bb8d6351c1cf70c95a316cc6a92839c986682d98bc35f958f4883f9d2a80155565b919092611921611a09565b611929611bdd565b5f83815260046020908152604080832033845290915290205491821561065557611954918591611ed4565b156119b3575f8281526003602090815260408083209383529281528282206008018590553380835260098252918390208590559151938452927f929fdbdbce7259110aa01579ab59ed7728564b037d24e9961cf894354e600daa9190a3565b630ac5b57360e31b5f5260045ffd5b8054600160401b81101561160f57600181018083558110156116a1575f91825260209091200155565b906040516119f8816115f3565b602060018294805484520154910152565b335f9081527f059f08e7d7ba1c82eddc57afae67f80df851baf38a099607a779825038c3ce5b602052604090205460ff1615611a4157565b63e2517d3f60e01b5f52336004527fe2f4eaae4a9751e85a3e4a7b9587827a877f29914755229b07a7b2da98285f7060245260445ffd5b335f9081527f1a98536394a89bde21c352fe1c1076b59f564e1e17e1afe0b735e553ce9ce044602052604090205460ff1615611ab057565b63e2517d3f60e01b5f52336004527fbbfb55d933c2bfa638763473275b1d84c4418e58d26cf9d2cd5758237756d9f060245260445ffd5b335f9081527fad3228b676f7d3cd4284a5443f17f1962b36e491b30a40b2405849e597ba5fb5602052604090205460ff1615611b1f57565b63e2517d3f60e01b5f52336004525f60245260445ffd5b335f9081527f8a40f0b47fdc2a0ce293b772acfc7508c8315a4d462786c1adc3a56f92ca2d05602052604090205460ff1615611b6e57565b63e2517d3f60e01b5f52336004527f55435dd261a4b9b3364963f7738a7a662ad9c84396d64be3365284bb7f0a504160245260445ffd5b5f8181526020818152604080832033845290915290205460ff1615611bc75750565b63e2517d3f60e01b5f523360045260245260445ffd5b60ff60015416611be957565b63d93c066560e01b5f5260045ffd5b60025f5160206127f85f395f51905f525414611c215760025f5160206127f85f395f51905f5255565b633ee5aeb560e01b5f5260045ffd5b929190604051732d32b937a4a2172a343932b9b437b63229b4b3b760611b602082015260148152611c62603482611614565b60026001860154950160405195602087015260408601815490915f5260205f20905f5b818110611cd55750505094611cb091611cab82611cd2979803601f198101845283611614565b6121c4565b90611ccd611cc5611cbf612312565b92612483565b9336906116ba565b612500565b90565b8254845260209093019260019283019201611c85565b6001600160a01b0381165f9081527f059f08e7d7ba1c82eddc57afae67f80df851baf38a099607a779825038c3ce5b602052604090205460ff16611dbf576001600160a01b0381165f9081527f059f08e7d7ba1c82eddc57afae67f80df851baf38a099607a779825038c3ce5b60205260409020805460ff1916600117905533906001600160a01b03167fe2f4eaae4a9751e85a3e4a7b9587827a877f29914755229b07a7b2da98285f707f2f8788117e7eff1d82e926ec794901d17c78024a50270940304540a733656f0d5f80a4600190565b505f90565b5f818152602081815260408083206001600160a01b038616845290915290205460ff16611e4a575f818152602081815260408083206001600160a01b03861684529091529020805460ff1916600117905533916001600160a01b0316907f2f8788117e7eff1d82e926ec794901d17c78024a50270940304540a733656f0d5f80a4600190565b50505f90565b5f818152602081815260408083206001600160a01b038616845290915290205460ff1615611e4a575f818152602081815260408083206001600160a01b03861684529091529020805460ff1916905533916001600160a01b0316907ff6391f5c32d9c69d2a47ea670b442974b53935d1edc7fd64eb21e047a839171b5f80a4600190565b9060408110611f285767ffffffffffffffff811161160f5760405190611f04601f8201601f191660200183611614565b8082526020820192368282011161027a57815f926020928637830101525190201490565b5050505f90565b60405190611f3c826115f3565b5f6020838281520152565b611f4f611f2f565b50604051611f5c816115f3565b5f81525f602082015290565b634e487b7160e01b5f52601260045260245ffd5b5f5160206127d85f395f51905f5203905f5160206127d85f395f51905f52821161170457565b5f5160206127b85f395f51905f5203905f5160206127b85f395f51905f52821161170457565b9190820391821161170457565b90611fe1838284611691565b35906001936001925f925f955b818510612020575050505050612003906125c1565b9061201b575f5160206127d85f395f51905f52910990565b611f68565b909192939495968486146120a957612039868484611691565b359761201b57875f5160206127d85f395f51905f529109968380821115612083576120745f5160206127d85f395f51905f5291600193611fc8565b5f9809955b0193929190611fee565b03838111611704575f5160206127d85f395f51905f526120a4600192611f7c565b612074565b969594600190612079565b604051906101806120c58184611614565b368337565b604051906120d9602083611614565b6020368337565b919060409060606120ef611f2f565b94859260208551926121018585611614565b8436853780518452015160208301528482015260075afa1561211f57565b635cb5299360e11b5f5260045ffd5b60209291608060409261213f611f2f565b958693818651936121508686611614565b85368637805185520151828401528051868401520151606082015260065afa1561217657565b635962de8b60e01b5f5260045ffd5b805191908290602001825e015f815290565b916121a8600194936121ae93612185565b90612185565b60f89190911b6001600160f81b03191681520190565b6121cc611f2f565b505f907f0c19139cb84c680a6e14116da060561765e05aa45a1c72a34f082305b61f3f5290825b610100811061220b57630cc019b960e31b5f5260045ffd5b61223f60405160208101906122298161109260ff87168b8987612197565b5190205f5160206127b85f395f51905f52900690565b9361201b575f5160206127b85f395f51905f52600381808780098709089361226784866126fd565b5f955f5160206127b85f395f51905f52828009146122895750506001016121f3565b945094505050507f183227397098d014dc2822db40c0ac2ecbc0b548b438e5469e10460b6c3e7ea381116122cb575b6122c0611656565b918252602082015290565b6122d490611fa2565b6122b8565b604051906122e6826115f3565b81602060409182516122f88482611614565b83368237815282519261230b8185611614565b3684370152565b61231a6122d9565b50604051612327816115f3565b7f1800deef121f1e76426a00665e5c4479674322d4f75edadd46debd5cd992f6ed81527f198e9393920d483a7260bfb731fb5d25f1aa493335a9e71297e485b7aef312c2602082015260405161237c816115f3565b7f12c85ea5db8c6deb4aab71808dcb408fe3d1e7690c43d37b4ce6cc0166fa7daa81527f090689d0585ff075ec9e99ad690c3395bc4b313370b38ef355acdadcd122975b6020820152604051916123d2836115f3565b8252602082015290565b156123e357565b60405162461bcd60e51b815260206004820152601c60248201527f5369676e6572204732206b6579206e6f742072656769737465726564000000006044820152606490fd5b60405191905f835b6002821061244657505050611645604083611614565b6001602081928554815201930191019091612430565b90604051612469816115f3565b60206117fd6002839561247b81612428565b855201612428565b61248b6122d9565b5060ff600982015416156124c7576004018054611cd29190158015906124ba575b6124b5906123dc565b61245c565b50600181015415156124ac565b60405162461bcd60e51b81526020600482015260116024820152705369676e6572206e6f742061637469766560781b6044820152606490fd5b61258d6020610180958180956125568261251c6125a79a612746565b92816125266120b4565b8a51815299015160208a015280515160408a015280516020015160608a015201805151608089015b525160200190565b5160a0870152805160c0870152015160e085015280515161010085015280516020015161012085015201805151610140840161254e565b5161016082015261259c6120ca565b93849160085afa1590565b6125b2575160011490565b6349541ea960e11b5f5260045ffd5b801561266657611cd29060206040518181019282845282604083015282606083015260808201527f30644e72e131a029b85045b68181585d2833e84879b9709143e1f593efffffff60a08201525f5160206127d85f395f51905f5260c082015260c0815261263060e082611614565b61265c8260405192612643604085611614565b8184528382019586916020368437519060055afa6126ab565b80510101906126ee565b60405162461bcd60e51b815260206004820152601a60248201527f424e3235343a207a65726f20686173206e6f20696e76657273650000000000006044820152606490fd5b156126b257565b60405162461bcd60e51b815260206004820152601460248201527310938c8d4d0e881b5bd9195e1c0819985a5b195960621b6044820152606490fd5b9081602091031261027a575190565b6020611cd2926040519082820193838552836040840152836060840152608083015260a08201525f5160206127b85f395f51905f5260c082015260c0815261263060e082611614565b61274e611f2f565b50805115806127ab575b6127a2575f5160206127b85f395f51905f5260208251920151065f5160206127b85f395f51905f52035f5160206127b85f395f51905f52811161170457604051916123d2836115f3565b50611cd2611f47565b5060208101511561275856fe30644e72e131a029b85045b68181585d97816a916871ca8d3c208c16d87cfd4730644e72e131a029b85045b68181585d2833e84879b9709143e1f593f00000019b779b17422d0df92223018b32b4d1fa46e071723d6817e2486d003becc55f00a2646970667358221220ad6c6bc77b6d6c820b310ce960739bf4c18a810c975e9645e6e49dbf3eac983064736f6c634300081c00332f8788117e7eff1d82e926ec794901d17c78024a50270940304540a733656f0d1a98536394a89bde21c352fe1c1076b59f564e1e17e1afe0b735e553ce9ce044ad3228b676f7d3cd4284a5443f17f1962b36e491b30a40b2405849e597ba5fb5","linkReferences":{}},"methodIdentifiers":{"CONFIG_MANAGER_ROLE()":"a0c7f799","DEFAULT_ADMIN_ROLE()":"a217fddf","GUARDIAN_ROLE()":"24ea54f4","KEY_ROTATION_WINDOW()":"b519c837","MAX_SIGNERS()":"59ecd657","RECOVERY_COOLDOWN()":"3e97ecb1","REQUEST_DEFAULT_TTL()":"29d84aa7","SIGNER_ROLE()":"a1ebf35d","aggregateSignatures(bytes32,uint256[])":"b22ddcfe","approveRecovery(bytes32)":"484cc1d5","completeKeyRotation(bytes32)":"27c89cf8","createConfig(bytes32,uint256,uint256,(uint256,uint256))":"66c90046","executeRecovery(bytes32,uint256)":"cfd4cd43","getAggregatedTEEStatus(bytes32,uint256[])":"0afff8ea","getConfig(bytes32)":"6dd5b69d","getRequestStatus(bytes32)":"45d07664","getRoleAdmin(bytes32)":"248a9ca3","getSigner(bytes32,uint256)":"4fa6caf6","grantRole(bytes32,address)":"2f2ff15d","hasRole(bytes32,address)":"91d14854","initiateEmergencyRecovery(bytes32,bytes32)":"f7e16a99","initiateKeyRotation(bytes32,bytes32)":"712c7d4b","pause()":"8456cb59","paused()":"5c975abb","recordTEEAttestation(bytes32,bytes32,bytes)":"8f6b7411","registerSigner(bytes32,address,uint256,(uint256,uint256),(uint256[2],uint256[2]))":"18da4c39","renounceRole(bytes32,address)":"36568abe","requestCredential(bytes32,bytes32,uint256[],uint256)":"98093aae","revokeRole(bytes32,address)":"d547741f","submitPartialSignature(bytes32,(uint256,uint256),bytes32)":"1210169b","supportsInterface(bytes4)":"01ffc9a7","totalCredentialsIssued()":"849bfa04","unpause()":"3f4ba83a"},"id":9}