{"abi":[{"type":"constructor","inputs":[{"name":"admin","type":"address","internalType":"address"}],"stateMutability":"nonpayable"},{"type":"receive","stateMutability":"payable"},{"type":"function","name":"BRIDGE_OPERATOR_ROLE","inputs":[],"outputs":[{"name":"","type":"bytes32","internalType":"bytes32"}],"stateMutability":"view"},{"type":"function","name":"CHALLENGE_WINDOW","inputs":[],"outputs":[{"name":"","type":"uint256","internalType":"uint256"}],"stateMutability":"view"},{"type":"function","name":"CIRCUIT_BREAKER_THRESHOLD","inputs":[],"outputs":[{"name":"","type":"uint256","internalType":"uint256"}],"stateMutability":"view"},{"type":"function","name":"DEFAULT_ADMIN_ROLE","inputs":[],"outputs":[{"name":"","type":"bytes32","internalType":"bytes32"}],"stateMutability":"view"},{"type":"function","name":"DEFAULT_FRAUD_PROOF_WINDOW","inputs":[],"outputs":[{"name":"","type":"uint256","internalType":"uint256"}],"stateMutability":"view"},{"type":"function","name":"FRAUD_PROOF_CHALLENGER_ROLE","inputs":[],"outputs":[{"name":"","type":"bytes32","internalType":"bytes32"}],"stateMutability":"view"},{"type":"function","name":"LIGHT_CLIENT_UPDATER_ROLE","inputs":[],"outputs":[{"name":"","type":"bytes32","internalType":"bytes32"}],"stateMutability":"view"},{"type":"function","name":"MAX_MESSAGE_AGE","inputs":[],"outputs":[{"name":"","type":"uint256","internalType":"uint256"}],"stateMutability":"view"},{"type":"function","name":"MIN_CHALLENGE_BOND","inputs":[],"outputs":[{"name":"","type":"uint256","internalType":"uint256"}],"stateMutability":"view"},{"type":"function","name":"MIN_OPERATOR_STAKE","inputs":[],"outputs":[{"name":"","type":"uint256","internalType":"uint256"}],"stateMutability":"view"},{"type":"function","name":"REVOCATION_SYNC_ROLE","inputs":[],"outputs":[{"name":"","type":"bytes32","internalType":"bytes32"}],"stateMutability":"view"},{"type":"function","name":"SLASHER_ROLE","inputs":[],"outputs":[{"name":"","type":"bytes32","internalType":"bytes32"}],"stateMutability":"view"},{"type":"function","name":"SLASH_PERCENTAGE","inputs":[],"outputs":[{"name":"","type":"uint256","internalType":"uint256"}],"stateMutability":"view"},{"type":"function","name":"STAKE_LOCK_PERIOD","inputs":[],"outputs":[{"name":"","type":"uint256","internalType":"uint256"}],"stateMutability":"view"},{"type":"function","name":"VERIFIED_PROOF_SUBMITTER_ROLE","inputs":[],"outputs":[{"name":"","type":"bytes32","internalType":"bytes32"}],"stateMutability":"view"},{"type":"function","name":"addStake","inputs":[],"outputs":[],"stateMutability":"payable"},{"type":"function","name":"bridgeCredential","inputs":[{"name":"credentialHash","type":"bytes32","internalType":"bytes32"},{"name":"destChain","type":"uint256","internalType":"uint256"},{"name":"merkleProof","type":"bytes","internalType":"bytes"},{"name":"accumulatorRoot","type":"bytes32","internalType":"bytes32"}],"outputs":[{"name":"messageHash","type":"bytes32","internalType":"bytes32"}],"stateMutability":"nonpayable"},{"type":"function","name":"cancelRevocationSync","inputs":[{"name":"syncKey","type":"bytes32","internalType":"bytes32"}],"outputs":[],"stateMutability":"nonpayable"},{"type":"function","name":"finalizeCredential","inputs":[{"name":"messageHash","type":"bytes32","internalType":"bytes32"}],"outputs":[],"stateMutability":"nonpayable"},{"type":"function","name":"finalizeRevocationSync","inputs":[{"name":"syncKey","type":"bytes32","internalType":"bytes32"}],"outputs":[],"stateMutability":"nonpayable"},{"type":"function","name":"getChainConfig","inputs":[{"name":"chainId","type":"uint256","internalType":"uint256"}],"outputs":[{"name":"","type":"tuple","internalType":"struct CrossChainIdentityBridge.ChainConfig","components":[{"name":"chainId","type":"uint256","internalType":"uint256"},{"name":"latestStateRoot","type":"bytes32","internalType":"bytes32"},{"name":"latestBlockNumber","type":"uint256","internalType":"uint256"},{"name":"lastUpdated","type":"uint256","internalType":"uint256"},{"name":"fraudProofWindow","type":"uint256","internalType":"uint256"},{"name":"active","type":"bool","internalType":"bool"},{"name":"bridgeCount","type":"uint256","internalType":"uint256"},{"name":"circuitBreakerActive","type":"bool","internalType":"bool"}]}],"stateMutability":"view"},{"type":"function","name":"getCrossChainAccumulatorRoot","inputs":[{"name":"chainId","type":"uint256","internalType":"uint256"}],"outputs":[{"name":"","type":"bytes32","internalType":"bytes32"}],"stateMutability":"view"},{"type":"function","name":"getMessage","inputs":[{"name":"messageHash","type":"bytes32","internalType":"bytes32"}],"outputs":[{"name":"","type":"tuple","internalType":"struct CrossChainIdentityBridge.BridgeMessage","components":[{"name":"messageHash","type":"bytes32","internalType":"bytes32"},{"name":"credentialHash","type":"bytes32","internalType":"bytes32"},{"name":"sourceChain","type":"uint256","internalType":"uint256"},{"name":"destChain","type":"uint256","internalType":"uint256"},{"name":"sourceStateRoot","type":"bytes32","internalType":"bytes32"},{"name":"merkleProof","type":"bytes","internalType":"bytes"},{"name":"accumulatorRoot","type":"bytes32","internalType":"bytes32"},{"name":"timestamp","type":"uint256","internalType":"uint256"},{"name":"operator","type":"address","internalType":"address"},{"name":"status","type":"uint8","internalType":"enum CrossChainIdentityBridge.BridgeMessageStatus"},{"name":"fraudProofDeadline","type":"uint256","internalType":"uint256"}]}],"stateMutability":"view"},{"type":"function","name":"getOperatorInfo","inputs":[{"name":"operator","type":"address","internalType":"address"}],"outputs":[{"name":"","type":"tuple","internalType":"struct CrossChainIdentityBridge.OperatorInfo","components":[{"name":"operator","type":"address","internalType":"address"},{"name":"stakedAmount","type":"uint256","internalType":"uint256"},{"name":"registeredAt","type":"uint256","internalType":"uint256"},{"name":"totalRelayed","type":"uint256","internalType":"uint256"},{"name":"slashCount","type":"uint256","internalType":"uint256"},{"name":"active","type":"bool","internalType":"bool"},{"name":"lastRelayTimestamp","type":"uint256","internalType":"uint256"},{"name":"relaysInWindow","type":"uint256","internalType":"uint256"}]}],"stateMutability":"view"},{"type":"function","name":"getPendingRevocationSync","inputs":[{"name":"syncKey","type":"bytes32","internalType":"bytes32"}],"outputs":[{"name":"","type":"tuple","internalType":"struct CrossChainIdentityBridge.PendingRevocationSync","components":[{"name":"sourceChain","type":"uint256","internalType":"uint256"},{"name":"accumulatorRoot","type":"bytes32","internalType":"bytes32"},{"name":"epoch","type":"uint256","internalType":"uint256"},{"name":"readyAt","type":"uint256","internalType":"uint256"},{"name":"exists","type":"bool","internalType":"bool"},{"name":"cancelled","type":"bool","internalType":"bool"}]}],"stateMutability":"view"},{"type":"function","name":"getRoleAdmin","inputs":[{"name":"role","type":"bytes32","internalType":"bytes32"}],"outputs":[{"name":"","type":"bytes32","internalType":"bytes32"}],"stateMutability":"view"},{"type":"function","name":"getSupportedChains","inputs":[],"outputs":[{"name":"","type":"uint256[]","internalType":"uint256[]"}],"stateMutability":"view"},{"type":"function","name":"grantRole","inputs":[{"name":"role","type":"bytes32","internalType":"bytes32"},{"name":"account","type":"address","internalType":"address"}],"outputs":[],"stateMutability":"nonpayable"},{"type":"function","name":"hasRole","inputs":[{"name":"role","type":"bytes32","internalType":"bytes32"},{"name":"account","type":"address","internalType":"address"}],"outputs":[{"name":"","type":"bool","internalType":"bool"}],"stateMutability":"view"},{"type":"function","name":"isCredentialBridged","inputs":[{"name":"credentialHash","type":"bytes32","internalType":"bytes32"},{"name":"chainId","type":"uint256","internalType":"uint256"}],"outputs":[{"name":"","type":"bool","internalType":"bool"}],"stateMutability":"view"},{"type":"function","name":"messageNonce","inputs":[],"outputs":[{"name":"","type":"uint256","internalType":"uint256"}],"stateMutability":"view"},{"type":"function","name":"pause","inputs":[],"outputs":[],"stateMutability":"nonpayable"},{"type":"function","name":"paused","inputs":[],"outputs":[{"name":"","type":"bool","internalType":"bool"}],"stateMutability":"view"},{"type":"function","name":"registerChain","inputs":[{"name":"chainId","type":"uint256","internalType":"uint256"},{"name":"genesisRoot","type":"bytes32","internalType":"bytes32"},{"name":"fraudProofWindow","type":"uint256","internalType":"uint256"},{"name":"rateLimit","type":"uint256","internalType":"uint256"},{"name":"windowDuration","type":"uint256","internalType":"uint256"}],"outputs":[],"stateMutability":"nonpayable"},{"type":"function","name":"registerDID","inputs":[{"name":"didHash","type":"bytes32","internalType":"bytes32"},{"name":"documentHash","type":"bytes32","internalType":"bytes32"}],"outputs":[],"stateMutability":"nonpayable"},{"type":"function","name":"registerDIDMethod","inputs":[{"name":"methodHash","type":"bytes32","internalType":"bytes32"},{"name":"chainId","type":"uint256","internalType":"uint256"}],"outputs":[],"stateMutability":"nonpayable"},{"type":"function","name":"registerOperator","inputs":[],"outputs":[],"stateMutability":"payable"},{"type":"function","name":"renounceRole","inputs":[{"name":"role","type":"bytes32","internalType":"bytes32"},{"name":"callerConfirmation","type":"address","internalType":"address"}],"outputs":[],"stateMutability":"nonpayable"},{"type":"function","name":"resetCircuitBreaker","inputs":[{"name":"chainId","type":"uint256","internalType":"uint256"}],"outputs":[],"stateMutability":"nonpayable"},{"type":"function","name":"resolveDID","inputs":[{"name":"didHash","type":"bytes32","internalType":"bytes32"}],"outputs":[{"name":"ref","type":"tuple","internalType":"struct CrossChainIdentityBridge.DIDReference","components":[{"name":"didHash","type":"bytes32","internalType":"bytes32"},{"name":"homeChain","type":"uint256","internalType":"uint256"},{"name":"documentHash","type":"bytes32","internalType":"bytes32"},{"name":"lastUpdated","type":"uint256","internalType":"uint256"},{"name":"active","type":"bool","internalType":"bool"}]}],"stateMutability":"view"},{"type":"function","name":"revocationSyncDelay","inputs":[],"outputs":[{"name":"","type":"uint256","internalType":"uint256"}],"stateMutability":"view"},{"type":"function","name":"revokeRole","inputs":[{"name":"role","type":"bytes32","internalType":"bytes32"},{"name":"account","type":"address","internalType":"address"}],"outputs":[],"stateMutability":"nonpayable"},{"type":"function","name":"setRevocationSyncDelay","inputs":[{"name":"newDelay","type":"uint256","internalType":"uint256"}],"outputs":[],"stateMutability":"nonpayable"},{"type":"function","name":"submitFraudProof","inputs":[{"name":"messageHash","type":"bytes32","internalType":"bytes32"},{"name":"fraudEvidence","type":"bytes","internalType":"bytes"}],"outputs":[],"stateMutability":"payable"},{"type":"function","name":"supportsInterface","inputs":[{"name":"interfaceId","type":"bytes4","internalType":"bytes4"}],"outputs":[{"name":"","type":"bool","internalType":"bool"}],"stateMutability":"view"},{"type":"function","name":"syncRevocation","inputs":[{"name":"sync","type":"tuple","internalType":"struct CrossChainIdentityBridge.RevocationSync","components":[{"name":"sourceChain","type":"uint256","internalType":"uint256"},{"name":"accumulatorRoot","type":"bytes32","internalType":"bytes32"},{"name":"epoch","type":"uint256","internalType":"uint256"},{"name":"previousRoot","type":"bytes32","internalType":"bytes32"},{"name":"updateProof","type":"bytes","internalType":"bytes"},{"name":"timestamp","type":"uint256","internalType":"uint256"}]}],"outputs":[],"stateMutability":"nonpayable"},{"type":"function","name":"tripCircuitBreaker","inputs":[{"name":"chainId","type":"uint256","internalType":"uint256"},{"name":"reason","type":"string","internalType":"string"}],"outputs":[],"stateMutability":"nonpayable"},{"type":"function","name":"unpause","inputs":[],"outputs":[],"stateMutability":"nonpayable"},{"type":"function","name":"updateLightClient","inputs":[{"name":"chainId","type":"uint256","internalType":"uint256"},{"name":"stateRoot","type":"bytes32","internalType":"bytes32"},{"name":"blockNumber","type":"uint256","internalType":"uint256"},{"name":"proof","type":"bytes","internalType":"bytes"}],"outputs":[],"stateMutability":"nonpayable"},{"type":"function","name":"withdrawStake","inputs":[{"name":"amount","type":"uint256","internalType":"uint256"}],"outputs":[],"stateMutability":"nonpayable"},{"type":"event","name":"ChainRegistered","inputs":[{"name":"chainId","type":"uint256","indexed":true,"internalType":"uint256"},{"name":"genesisStateRoot","type":"bytes32","indexed":false,"internalType":"bytes32"},{"name":"timestamp","type":"uint256","indexed":false,"internalType":"uint256"}],"anonymous":false},{"type":"event","name":"CircuitBreakerTriggered","inputs":[{"name":"chainId","type":"uint256","indexed":true,"internalType":"uint256"},{"name":"reason","type":"string","indexed":false,"internalType":"string"},{"name":"timestamp","type":"uint256","indexed":false,"internalType":"uint256"}],"anonymous":false},{"type":"event","name":"CredentialBridged","inputs":[{"name":"credentialHash","type":"bytes32","indexed":true,"internalType":"bytes32"},{"name":"sourceChain","type":"uint256","indexed":true,"internalType":"uint256"},{"name":"destChain","type":"uint256","indexed":true,"internalType":"uint256"},{"name":"operator","type":"address","indexed":false,"internalType":"address"},{"name":"timestamp","type":"uint256","indexed":false,"internalType":"uint256"}],"anonymous":false},{"type":"event","name":"CredentialReceived","inputs":[{"name":"credentialHash","type":"bytes32","indexed":true,"internalType":"bytes32"},{"name":"sourceChain","type":"uint256","indexed":true,"internalType":"uint256"},{"name":"proofHash","type":"bytes32","indexed":false,"internalType":"bytes32"},{"name":"timestamp","type":"uint256","indexed":false,"internalType":"uint256"}],"anonymous":false},{"type":"event","name":"DIDResolved","inputs":[{"name":"didHash","type":"bytes32","indexed":true,"internalType":"bytes32"},{"name":"chainId","type":"uint256","indexed":true,"internalType":"uint256"},{"name":"documentHash","type":"bytes32","indexed":false,"internalType":"bytes32"},{"name":"timestamp","type":"uint256","indexed":false,"internalType":"uint256"}],"anonymous":false},{"type":"event","name":"FraudProofSubmitted","inputs":[{"name":"messageHash","type":"bytes32","indexed":true,"internalType":"bytes32"},{"name":"challenger","type":"address","indexed":true,"internalType":"address"},{"name":"operator","type":"address","indexed":true,"internalType":"address"},{"name":"timestamp","type":"uint256","indexed":false,"internalType":"uint256"}],"anonymous":false},{"type":"event","name":"LightClientUpdated","inputs":[{"name":"chainId","type":"uint256","indexed":true,"internalType":"uint256"},{"name":"newStateRoot","type":"bytes32","indexed":false,"internalType":"bytes32"},{"name":"blockNumber","type":"uint256","indexed":false,"internalType":"uint256"},{"name":"timestamp","type":"uint256","indexed":false,"internalType":"uint256"}],"anonymous":false},{"type":"event","name":"OperatorSlashedEvent","inputs":[{"name":"operator","type":"address","indexed":true,"internalType":"address"},{"name":"amount","type":"uint256","indexed":false,"internalType":"uint256"},{"name":"reason","type":"bytes32","indexed":false,"internalType":"bytes32"},{"name":"timestamp","type":"uint256","indexed":false,"internalType":"uint256"}],"anonymous":false},{"type":"event","name":"OperatorStaked","inputs":[{"name":"operator","type":"address","indexed":true,"internalType":"address"},{"name":"amount","type":"uint256","indexed":false,"internalType":"uint256"},{"name":"timestamp","type":"uint256","indexed":false,"internalType":"uint256"}],"anonymous":false},{"type":"event","name":"Paused","inputs":[{"name":"account","type":"address","indexed":false,"internalType":"address"}],"anonymous":false},{"type":"event","name":"RateLimitUpdated","inputs":[{"name":"chainId","type":"uint256","indexed":true,"internalType":"uint256"},{"name":"newLimit","type":"uint256","indexed":false,"internalType":"uint256"},{"name":"timestamp","type":"uint256","indexed":false,"internalType":"uint256"}],"anonymous":false},{"type":"event","name":"RevocationSyncCancelled","inputs":[{"name":"syncKey","type":"bytes32","indexed":true,"internalType":"bytes32"},{"name":"sourceChain","type":"uint256","indexed":true,"internalType":"uint256"}],"anonymous":false},{"type":"event","name":"RevocationSyncFinalized","inputs":[{"name":"syncKey","type":"bytes32","indexed":true,"internalType":"bytes32"},{"name":"sourceChain","type":"uint256","indexed":true,"internalType":"uint256"},{"name":"accumulatorRoot","type":"bytes32","indexed":false,"internalType":"bytes32"},{"name":"epoch","type":"uint256","indexed":false,"internalType":"uint256"}],"anonymous":false},{"type":"event","name":"RevocationSyncQueued","inputs":[{"name":"syncKey","type":"bytes32","indexed":true,"internalType":"bytes32"},{"name":"sourceChain","type":"uint256","indexed":true,"internalType":"uint256"},{"name":"accumulatorRoot","type":"bytes32","indexed":false,"internalType":"bytes32"},{"name":"epoch","type":"uint256","indexed":false,"internalType":"uint256"},{"name":"readyAt","type":"uint256","indexed":false,"internalType":"uint256"}],"anonymous":false},{"type":"event","name":"RevocationSynced","inputs":[{"name":"sourceChain","type":"uint256","indexed":true,"internalType":"uint256"},{"name":"accumulatorRoot","type":"bytes32","indexed":false,"internalType":"bytes32"},{"name":"epoch","type":"uint256","indexed":false,"internalType":"uint256"},{"name":"timestamp","type":"uint256","indexed":false,"internalType":"uint256"}],"anonymous":false},{"type":"event","name":"RoleAdminChanged","inputs":[{"name":"role","type":"bytes32","indexed":true,"internalType":"bytes32"},{"name":"previousAdminRole","type":"bytes32","indexed":true,"internalType":"bytes32"},{"name":"newAdminRole","type":"bytes32","indexed":true,"internalType":"bytes32"}],"anonymous":false},{"type":"event","name":"RoleGranted","inputs":[{"name":"role","type":"bytes32","indexed":true,"internalType":"bytes32"},{"name":"account","type":"address","indexed":true,"internalType":"address"},{"name":"sender","type":"address","indexed":true,"internalType":"address"}],"anonymous":false},{"type":"event","name":"RoleRevoked","inputs":[{"name":"role","type":"bytes32","indexed":true,"internalType":"bytes32"},{"name":"account","type":"address","indexed":true,"internalType":"address"},{"name":"sender","type":"address","indexed":true,"internalType":"address"}],"anonymous":false},{"type":"event","name":"Unpaused","inputs":[{"name":"account","type":"address","indexed":false,"internalType":"address"}],"anonymous":false},{"type":"error","name":"AccessControlBadConfirmation","inputs":[]},{"type":"error","name":"AccessControlUnauthorizedAccount","inputs":[{"name":"account","type":"address","internalType":"address"},{"name":"neededRole","type":"bytes32","internalType":"bytes32"}]},{"type":"error","name":"BridgeMessageExpired","inputs":[]},{"type":"error","name":"ChainAlreadyRegistered","inputs":[]},{"type":"error","name":"ChainNotSupported","inputs":[]},{"type":"error","name":"ChallengeBondTransferFailed","inputs":[]},{"type":"error","name":"ChallengeWindowExpired","inputs":[]},{"type":"error","name":"CircuitBreakerTripped","inputs":[]},{"type":"error","name":"CredentialAlreadyBridged","inputs":[]},{"type":"error","name":"ECDSAInvalidSignature","inputs":[]},{"type":"error","name":"ECDSAInvalidSignatureLength","inputs":[{"name":"length","type":"uint256","internalType":"uint256"}]},{"type":"error","name":"ECDSAInvalidSignatureS","inputs":[{"name":"s","type":"bytes32","internalType":"bytes32"}]},{"type":"error","name":"EnforcedPause","inputs":[]},{"type":"error","name":"ExpectedPause","inputs":[]},{"type":"error","name":"FraudProofWindowActive","inputs":[]},{"type":"error","name":"FraudProofWindowExpired","inputs":[]},{"type":"error","name":"InsufficientChallengeBond","inputs":[]},{"type":"error","name":"InsufficientStake","inputs":[]},{"type":"error","name":"InvalidDIDMethod","inputs":[]},{"type":"error","name":"InvalidFraudProof","inputs":[]},{"type":"error","name":"InvalidLightClientUpdate","inputs":[]},{"type":"error","name":"InvalidMerkleProof","inputs":[]},{"type":"error","name":"InvalidRevocationSignature","inputs":[]},{"type":"error","name":"InvalidSignatureCount","inputs":[]},{"type":"error","name":"OperatorAlreadyRegistered","inputs":[]},{"type":"error","name":"OperatorNotRegistered","inputs":[]},{"type":"error","name":"OperatorSlashed","inputs":[]},{"type":"error","name":"RateLimitExceeded","inputs":[]},{"type":"error","name":"ReentrancyGuardReentrantCall","inputs":[]},{"type":"error","name":"RevocationSyncFailed","inputs":[]},{"type":"error","name":"StakeWithdrawalLocked","inputs":[]},{"type":"error","name":"StateRootNotFound","inputs":[]}],"bytecode":{"object":"0x60803461009c57601f6136c138819003918201601f19168301916001600160401b038311848410176100a05780849260209460405283398101031261009c57516001600160a01b038116810361009c5761008c9060017f9b779b17422d0df92223018b32b4d1fa46e071723d6817e2486d003becc55f0055610e10601155610086816100b4565b5061012a565b506040516134a390816101be8239f35b5f80fd5b634e487b7160e01b5f52604160045260245ffd5b6001600160a01b0381165f9081525f5160206136a15f395f51905f52602052604090205460ff16610125576001600160a01b03165f8181525f5160206136a15f395f51905f5260205260408120805460ff191660011790553391905f5160206136615f395f51905f528180a4600190565b505f90565b6001600160a01b0381165f9081525f5160206136815f395f51905f52602052604090205460ff16610125576001600160a01b03165f8181525f5160206136815f395f51905f5260205260408120805460ff191660011790553391907f12b42e8a160f6064dc959c6f251e3af0750ad213dbecf573b4710d67d6c28e39905f5160206136615f395f51905f529080a460019056fe6080604052600436101561001a575b3615610018575f80fd5b005b5f3560e01c80630139a2211461033457806301ffc9a71461032f57806304a829f21461032a5780630ca55cd7146103255780631932526d1461032057806319ed16dc1461031b578063248a9ca31461031657806325d5971f14610311578063279e72731461030c57806327d9ab5d1461030757806329bcee00146103025780632acde098146102fd5780632f2ff15d146102f85780632fd459fe146102f35780633483c5eb146102ee57806336568abe146102e95780633b22fb76146102e45780633f4ba83a146102df5780633f767b68146102675780633fa01c6f146102da578063454084f4146102d55780634be40fd1146102d05780634c605e83146102cb5780635095af64146102c65780635a627dbc146102c15780635c975abb146102bc5780636072c5a2146102b757806383244ee3146102b25780638456cb59146102ad5780638c2c2909146102a85780638c3a6f3d146102a35780639134948d1461029e57806391d14854146102995780639f29f13514610294578063a0a68bbb1461028f578063a217fddf1461028a578063a4ffbb0914610285578063a8bcfa5414610280578063c48703e01461027b578063c4b6d15414610276578063c4bffe2b14610271578063d547741f1461026c578063d62aad2914610267578063d856433a14610262578063de8d4ed21461025d578063e1672a8d14610258578063e7b46b4f14610253578063ea099cda1461024e578063ecc70428146102495763ee7de3ef0361000e5761209c565b61207f565b612045565b611de1565b611cdf565b611bfe565b611bdc565b611100565b611b9f565b611b1f565b611a05565b6119be565b611879565b61183c565b611822565b611801565b6117e6565b611798565b611548565b611507565b6114dd565b611485565b61136e565b6112c3565b6112a1565b61122b565b6111f1565b6111b7565b611190565b611156565b61111c565b61109a565b610ee6565b610e75565b610ca3565b610c86565b610c44565b610b59565b610a00565b6108f5565b610818565b61071f565b6106ed565b6105f2565b6105d5565b6105ba565b610598565b610542565b61042a565b805180835260209291819084018484015e5f828201840152601f01601f1916010190565b634e487b7160e01b5f52602160045260245ffd5b6005111561037b57565b61035d565b90600582101561037b5752565b6020815281516020820152602082015160408201526040820151606082015260608201516080820152608082015160a08201526101606101406103df60a08501518360c0860152610180850190610339565b9360c081015160e085015260e081015161010085015261041061010082015161012086019060018060a01b03169052565b61042261012082015183860190610380565b015191015290565b3461053e57602036600319011261053e576004355f61014060405161044e816120cd565b828152826020820152826040820152826060820152826080820152606060a08201528260c08201528260e0820152826101008201528261012082015201525f52600460205261053a60405f2060096104a4612145565b9180548352600181015460208401526002810154604084015260038101546060840152600481015460808401526104dd600582016121bd565b60a0840152600681015460c0840152600781015460e084015260088101546001600160a01b0381166101008501526105269061051c9060a01c60ff1690565b610120850161225b565b01546101408201526040519182918261038d565b0390f35b5f80fd5b3461053e57602036600319011261053e5760043563ffffffff60e01b811680910361053e57602090637965db0b60e01b8114908115610587575b506040519015158152f35b6301ffc9a760e01b1490505f61057c565b3461053e575f36600319011261053e57602060405167016345785d8a00008152f35b3461053e575f36600319011261053e57602060405160648152f35b3461053e575f36600319011261053e57602060405162093a808152f35b3461053e57602036600319011261053e5760043561060e612267565b505f52600260205261053a60405f2061068f610686600761062d612157565b93805485526001810154602086015260028101546040860152600381015460608601526004810154608086015261067461066b600583015460ff1690565b151560a0870152565b600681015460c0860152015460ff1690565b151560e0830152565b6040519182918291909160e080610100830194805184526020810151602085015260408101516040850152606081015160608501526080810151608085015260a0810151151560a085015260c081015160c085015201511515910152565b3461053e57602036600319011261053e5760206107176004355f525f602052600160405f20015490565b604051908152f35b3461053e57602036600319011261053e5760043561073b612962565b335f90815260036020526040902090600582019161076161075d845460ff1690565b1590565b6108095761077260028201546122c8565b42106107fa576001019182548281106107eb575f80848194670de0b6b3a7640000886107a26107bd998698612302565b815554106107d3575b50335af16107b761232a565b50612359565b61001860015f51602061344e5f395f51905f5255565b805460ff191690556107e43361299a565b50866107ab565b6378de4a6960e11b5f5260045ffd5b638df3fa4f60e01b5f5260045ffd5b6325ec6c1f60e01b5f5260045ffd5b3461053e57602036600319011261053e57600435610834612aba565b805f52601260205260405f206004810160ff8154610853828216612397565b60081c1661089057805461ff00191661010017905554907f0ebc8458a66aaa318e271e52e5a8b16a9638e10a7015f4aff53f501bd844dead5f80a3005b60405162461bcd60e51b8152602060048201526011602482015270105b1c9958591e4818d85b98d95b1b1959607a1b6044820152606490fd5b600435906001600160a01b038216820361053e57565b602435906001600160a01b038216820361053e57565b3461053e57602036600319011261053e5761090e6108c9565b610916612267565b506001600160a01b03165f90815260036020526040902061053a90600761093b612157565b82546001600160a01b03168152916001810154602084015260028101546040840152600381015460608401526004810154608084015261098b610982600583015460ff1690565b151560a0850152565b600681015460c0840152015460e08201526040519182918291909160e08061010083019460018060a01b0381511684526020810151602085015260408101516040850152606081015160608501526080810151608085015260a0810151151560a085015260c081015160c08501520151910152565b3461053e57602036600319011261053e57600435610a1c612cd7565b7f4082b38270f2c5cdd51d8d07ac8b8e7d333c57a0fff58deb624d990ed46d164e610a4f825f52601260205260405f2090565b6004810192610a7f610a7a61075d8654610a71610a6c8260ff1690565b612397565b60081c60ff1690565b6123d4565b610a8f6003830154421015612415565b6002820191610af3835495610ab9835497610ab2895f52600760205260405f2090565b541061245a565b6001830196610ad28854915f52600660205260405f2090565b558454610ae884545f52600760205260405f2090565b55805460ff19169055565b548094549254917f84efe7badad4436265b71596d4b0684bfbc720a60d14aa252c5e8f2439721c3260405180610b3786888360209093929193604081019481520152565b0390a3604080519283526020830191909152429082015280606081015b0390a2005b5f36600319011261053e57610b6c612cd7565b670de0b6b3a764000034106107eb57335f908152600360205260409020610b99906005905b015460ff1690565b610c3557610bf0610ba8612157565b3381523460208201524260408201525f60608201525f6080820152610bd060a0820160019052565b5f60c0820181905260e082018190523381526003602052604090206124a6565b610bf933612cf2565b506040805134815242602082015233917f5fcc6fba62213b611d2b55ee7ec5b9b02533a31910f390ea9feb008a40431d87919081908101610b54565b6342ee68b560e01b5f5260045ffd5b3461053e57604036600319011261053e57610018600435610c636108df565b90610c81610c7c825f525f602052600160405f20015490565b612c9f565b612d8d565b3461053e575f36600319011261053e576020601154604051908152f35b3461053e5760a036600319011261053e57600435608435606435602435604435610ccb612aba565b610ce26005610b91875f52600260205260405f2090565b610e66577fad028b33c69fbcbad5e1a86913ffca471d01a470d4616c4997a4f468e043b26a93610b5493610dfc928015610e5a57610d6e905b610d23612157565b908982528660208301525f60408301524260608301526080820152610d4b60a0820160019052565b5f60c08201525f60e0820152610d69895f52600260205260405f2090565b612527565b801580159190610e525780925b8015610e4857915b15610e3f57610d91906125a7565b610d9a426122d8565b91610da3612167565b938452602084015260408301525f60608301526080820152610dcd865f52600b60205260405f2090565b906080600491805184556020810151600185015560408101516002850155606081015160038501550151910155565b80610e1f610e12865f52600c60205260405f2090565b5f805260205260405f2090565b55610e29846125d3565b6040805191825242602083015290918291820190565b506101f4610d91565b50610e1091610d83565b603292610d7b565b50610d6e610e10610d1b565b63b0b5006f60e01b5f5260045ffd5b3461053e57604036600319011261053e57600435610e916108df565b336001600160a01b03821603610eaa5761001891612a30565b63334bd91960e11b5f5260045ffd5b9181601f8401121561053e578235916001600160401b03831161053e576020838186019501011161053e57565b604036600319011261053e576004356024356001600160401b03811161053e57610f14903690600401610eb9565b90610f1d612b09565b610f25612cd7565b610f2d612962565b67016345785d8a0000341061108b57610f4e835f52600460205260405f2090565b6008810192610f62845460ff9060a01c1690565b610f6b81610371565b61107c576009820154421161107c57610f8760078301546122d8565b421161106d57610f9a9261075d92612e13565b61105e57610fb0825f52601060205260405f2090565b335f908152602091909152604090203490558054600160a11b60ff60a01b198216178255610fe89083906001600160a01b0316612e67565b5f80808034335af1610ff861232a565b501561104f57546040514281526001600160a01b039091169133917fd2eaa989d6e662e4b0ae4f1603de486c35076e56cdb47732e0ab10c833f6345890602090a461001860015f51602061344e5f395f51905f5255565b6371a2774160e01b5f5260045ffd5b63b120ea6560e01b5f5260045ffd5b632b0fbfc560e11b5f5260045ffd5b6315f450e960e21b5f5260045ffd5b6338fb69a960e21b5f5260045ffd5b3461053e575f36600319011261053e576110b2612aba565b60015460ff8116156110f15760ff19166001557f5db9ee0a495bf2e6ff9c91a7834c1ba4fdd244a5e8aa4e537bd38aeae4b073aa6020604051338152a1005b638dfc202b60e01b5f5260045ffd5b3461053e575f36600319011261053e576020604051610e108152f35b3461053e575f36600319011261053e5760206040517f36138e9075fe2aacc0e8c0bca2672e26e5a20781c3f1c78beb9f7fd693fe15c08152f35b3461053e575f36600319011261053e5760206040517f2c558337a8307cc29c19bf623e05c8e928e1adf7241b5239d90c315fe0da88f58152f35b3461053e575f36600319011261053e5760206040515f51602061340e5f395f51905f528152f35b3461053e575f36600319011261053e5760206040517fd1f0c36e0c8e197a589ac15a880fe39650d6cc3ff0a114db9b0a987798aff6228152f35b3461053e575f36600319011261053e5760206040517f12b42e8a160f6064dc959c6f251e3af0750ad213dbecf573b4710d67d6c28e398152f35b5f36600319011261053e57335f52600360205260405f2060ff6005820154161561080957600101805434810180911161129c57908190556040805191825242602083015233917f5fcc6fba62213b611d2b55ee7ec5b9b02533a31910f390ea9feb008a40431d879181908101610b54565b6122b4565b3461053e575f36600319011261053e57602060ff600154166040519015158152f35b3461053e57604036600319011261053e576004356024356001600160401b03811161053e5760606113197f852d074b1070f084be2b0e237453ef02a9ea5bd34f1223e5826e723ac10d632e923690600401610eb9565b9190611323612aba565b845f526002602052600760405f2001600160ff198254161790558260405193849260408452816040850152848401375f828201840152426020830152601f01601f19168101030190a2005b3461053e57608036600319011261053e576004356044356024356064356001600160401b03811161053e576113a7903690600401610eb9565b6113b2939193612b78565b6113ba612cd7565b845f52600260205260405f20936113d861075d600587015460ff1690565b611476576113ec9161075d91848689612f9a565b61146757828260017f3c3c1b1fe9ca71533460a852d12984b386cd51146bf7e9df962ffbadaca6d1b6950155816002820155600342910155816114488261143b875f52600c60205260405f2090565b905f5260205260405f2090565b5560408051928352602083019190915242908201528060608101610b54565b6330d98c7560e11b5f5260045ffd5b63f21c9f0760e01b5f5260045ffd5b3461053e575f36600319011261053e5761149d612aba565b6114a5612cd7565b600160ff19815416176001557f62e78cea01bee320cd4e420270b5ea74000d11b0c9f74754ebdbfc544b05a2586020604051338152a1005b3461053e57602036600319011261053e576004355f526006602052602060405f2054604051908152f35b3461053e57602036600319011261053e57600435611523612aba565b5f908152600260209081526040808320600701805460ff19169055600e909152812055005b3461053e57608036600319011261053e576024356004356044356001600160401b03811161053e5761157e903690600401610eb9565b9290916064359261158d612be7565b611595612cd7565b61159d612962565b6115af835f52600260205260405f2090565b6115c061075d600583015460ff1690565b61147657600781015460ff16611789576115f06115e98561143b865f52600560205260405f2090565b5460ff1690565b61177a576116f660069261053a976116083388613064565b61161c611617600f5460010190565b600f55565b600f5460405161166481611656602082019442908d8d469089939160a0959391855260208501526040840152606083015260808201520190565b03601f198101835282612124565b519020976116bb600161167f465f52600260205260405f2090565b0154936116906004880154426122f5565b93611699612145565b958c87528a60208801524660408801528b606088015260808701523691612657565b60a084015260c08301524260e0830152336101008301525f6101208301526101408201526116f1875f52600460205260405f2090565b6127a7565b335f9081526003602081905260409091200161171281546122e7565b90550161171f81546122e7565b9055604080513381524260208201524692917f27ba6282f61d9e1cbafdb08859dcba8ec861fbb027d78554d9ecaff66503997391a461176a60015f51602061344e5f395f51905f5255565b6040519081529081906020820190565b635231058f60e11b5f5260045ffd5b63f40982ef60e01b5f5260045ffd5b3461053e57604036600319011261053e57602060ff6117da6004356117bb6108df565b905f525f845260405f209060018060a01b03165f5260205260405f2090565b54166040519015158152f35b3461053e575f36600319011261053e57602060405160328152f35b3461053e57602036600319011261053e5760043561181d612aba565b601155005b3461053e575f36600319011261053e5760206040515f8152f35b3461053e57604036600319011261053e57600435602435905f52600560205260405f20905f52602052602060ff60405f2054166040519015158152f35b3461053e57602036600319011261053e57600435611895612cd7565b61189d612962565b6118af815f52600460205260405f2090565b60088101805460a01c60ff166118c481610371565b61107c57600982015442106119af57600182016118f661075d825460048601546118f0600588016121bd565b916131f6565b6119a057815460ff60a01b1916600160a01b179091557f99063f5a090bb34b9657c836b2eae7d654286f6434a9f30291d56a8ecb82b9b6906119879060029061196c61195f61194e83545f52600560205260405f2090565b60038801545f5260205260405f2090565b805460ff19166001179055565b54930154604080519586524260208701529094918291820190565b0390a361001860015f51602061344e5f395f51905f5255565b63582f497d60e11b5f5260045ffd5b631f304cc160e01b5f5260045ffd5b3461053e57604036600319011261053e576024356004356119dd612aba565b815f52600260205260ff600560405f2001541615611476575f52600a60205260405f20555f80f35b3461053e57602036600319011261053e576004355f60a0604051611a28816120ee565b82815282602082015282604082015282606082015282608082015201525f52601260205261053a60405f2060ff600460405192611a64846120ee565b8054845260018101546020850152600281015460408501526003810154606085015201548181161515608084015260081c16151560a08201526040519182918291909160a08060c08301948051845260208101516020850152604081015160408501526060810151606085015260808101511515608085015201511515910152565b60206040818301928281528451809452019201905f5b818110611b095750505090565b8251845260209384019390920191600101611afc565b3461053e575f36600319011261053e57604051806020600d54918281520190600d5f527fd7b6990105719101dabeb77144f2a3385c8033acd3af97e9423a695e81ad1eb5905f5b818110611b895761053a85611b7d81870382612124565b60405191829182611ae6565b8254845260209093019260019283019201611b66565b3461053e57604036600319011261053e57610018600435611bbe6108df565b90611bd7610c7c825f525f602052600160405f20015490565b612a30565b3461053e575f36600319011261053e576020604051670de0b6b3a76400008152f35b3461053e57602036600319011261053e576004355f6080604051611c2181612109565b82815282602082015282604082015282606082015201525f52600860205260405f20611c8b61075d60ff600460405194611c5a86612109565b8054865260018101546020870152600281015460408701526003810154606087015201541615156080840181905290565b611cd05761053a906040519182918291909160808060a08301948051845260208101516020850152604081015160408501526060810151606085015201511515910152565b6332d64e7560e21b5f5260045ffd5b3461053e57604036600319011261053e57602435600435611cfe612cd7565b5f818152600960205260409020546001600160a01b031680611dd0575b50611d5133611d32835f52600960205260405f2090565b80546001600160a01b0319166001600160a01b03909216919091179055565b611d95611d5c612167565b828152466020820152836040820152426060820152611d7e6080820160019052565b611d90835f52600860205260405f2090565b612892565b6040805192835242602084015246927fd15d5ce538d9886d685d97292467c79a413bd44aae318c26dec10f0674495f4c91819081015b0390a3005b611ddb903314612846565b5f611d1b565b3461053e57602036600319011261053e576004356001600160401b03811161053e578060040160c0600319833603011261053e57611e1d612c30565b611e25612cd7565b803591611e4261075d6005610b91865f52600260205260405f2090565b611476576064810135906024810135926084611ec3604484013594604051611e938161165660208201948c8b8d469389939160a0959391855260208501526040840152606083015260808201520190565b5190207f19457468657265756d205369676e6564204d6573736167653a0a3332000000005f52601c52603c5f2090565b9201906041611ed283836128d3565b90500361203657611f3992611ef7611ef061075d94611efd946128d3565b3691612657565b906132a7565b6001600160a01b03165f9081527fcd3ada8650f82ef3c64f6cbe723a57383ca439e51c045b37dac1ccd9e6c5f92e602052604090205460ff1690565b61203657611f4f835f52600760205260405f2090565b54811115612027577ff33ba020e154694fcf2c92e15fe2becd90b96c5973230619e1e7ca3cc86128f6906040516020810190611fa18161165685888a8791606093918352602083015260408201520190565b51902092611ffb611fb4601154426122f5565b611fbc612176565b908782528360208301528460408301526060820152611fde6080820160019052565b5f60a0820152611ff6865f52601260205260405f2090565b612905565b611dcb61200a601154426122f5565b604051938493846040919493926060820195825260208201520152565b638cdee40360e01b5f5260045ffd5b6302a5856d60e61b5f5260045ffd5b3461053e575f36600319011261053e5760206040517f79bc6d21d6ac245a2381fed59206cf00903efdf632b4fa65583f82b860488f3a8152f35b3461053e575f36600319011261053e576020600f54604051908152f35b3461053e575f36600319011261053e576020604051620151808152f35b634e487b7160e01b5f52604160045260245ffd5b61016081019081106001600160401b038211176120e957604052565b6120b9565b60c081019081106001600160401b038211176120e957604052565b60a081019081106001600160401b038211176120e957604052565b90601f801991011681019081106001600160401b038211176120e957604052565b6040519061215561016083612124565b565b6040519061215561010083612124565b6040519061215560a083612124565b6040519061215560c083612124565b90600182811c921680156121b3575b602083101461219f57565b634e487b7160e01b5f52602260045260245ffd5b91607f1691612194565b9060405191825f8254926121d084612185565b808452936001811690811561223957506001146121f5575b5061215592500383612124565b90505f9291925260205f20905f915b81831061221d575050906020612155928201015f6121e8565b6020919350806001915483858901015201910190918492612204565b90506020925061215594915060ff191682840152151560051b8201015f6121e8565b600582101561037b5752565b6040519061010082018281106001600160401b038211176120e9576040525f60e0838281528260208201528260408201528260608201528260808201528260a08201528260c08201520152565b634e487b7160e01b5f52601160045260245ffd5b9062093a80820180921161129c57565b90610e10820180921161129c57565b906001820180921161129c57565b9190820180921161129c57565b9190820391821161129c57565b6001600160401b0381116120e957601f01601f191660200190565b3d15612354573d9061233b8261230f565b916123496040519384612124565b82523d5f602084013e565b606090565b1561236057565b60405162461bcd60e51b815260206004820152600f60248201526e151c985b9cd9995c8819985a5b1959608a1b6044820152606490fd5b1561239e57565b60405162461bcd60e51b815260206004820152600e60248201526d14de5b98c81b9bdd08199bdd5b9960921b6044820152606490fd5b156123db57565b60405162461bcd60e51b815260206004820152601260248201527114de5b98c81dd85cc818d85b98d95b1b195960721b6044820152606490fd5b1561241c57565b60405162461bcd60e51b815260206004820152601660248201527514de5b98c819195b185e481b9bdd08195b185c1cd95960521b6044820152606490fd5b1561246157565b60405162461bcd60e51b815260206004820152601860248201527f45706f636820616c7265616479207375706572736564656400000000000000006044820152606490fd5b815181546001600160a01b0319166001600160a01b039091161781559060079060e0906020810151600185015560408101516002850155606081015160038501556080810151600485015561251661250160a0830151151590565b600586019060ff801983541691151516179055565b60c081015160068501550151910155565b600761259460e061215594805185556020810151600186015560408101516002860155606081015160038601556080810151600486015561258361256e60a0830151151590565b600587019060ff801983541691151516179055565b60c081015160068601550151151590565b91019060ff801983541691151516179055565b90600a820291808304600a149015171561129c57565b908160051b918083046020149015171561129c57565b600d54680100000000000000008110156120e9576001810180600d5581101561261f57600d5f527fd7b6990105719101dabeb77144f2a3385c8033acd3af97e9423a695e81ad1eb50155565b634e487b7160e01b5f52603260045260245ffd5b90600581101561037b57815460ff60a01b191660a09190911b60ff60a01b16179055565b9291926126638261230f565b916126716040519384612124565b82948184528183011161053e578281602093845f960137010152565b601f821161269a57505050565b5f5260205f20906020601f840160051c830193106126d2575b601f0160051c01905b8181106126c7575050565b5f81556001016126bc565b90915081906126b3565b91909182516001600160401b0381116120e957612703816126fd8454612185565b8461268d565b6020601f82116001146127425781906127339394955f92612737575b50508160011b915f199060031b1c19161790565b9055565b015190505f8061271f565b601f19821690612755845f5260205f2090565b915f5b81811061278f57509583600195969710612777575b505050811b019055565b01515f1960f88460031b161c191690555f808061276d565b9192602060018192868b015181550194019201612758565b9061014060099180518455602081015160018501556040810151600285015560608101516003850155608081015160048501556127eb60a0820151600586016126dc565b60c0810151600685015560e081015160078501556101008101516008850180546001600160a01b0319166001600160a01b0390921691909117815561283f906101208301519061283a82610371565b612633565b0151910155565b1561284d57565b60405162461bcd60e51b815260206004820152601e60248201527f4f6e6c792044494420636f6e74726f6c6c65722063616e2075706461746500006044820152606490fd5b6004608061215593805184556020810151600185015560408101516002850155606081015160038501550151151591019060ff801983541691151516179055565b903590601e198136030182121561053e57018035906001600160401b03821161053e5760200191813603831361053e57565b600460a09183518155602084015160018201556040840151600282015560608401516003820155019161294a60808201511515849060ff801983541691151516179055565b0151815461ff00191690151560081b61ff0016179055565b60025f51602061344e5f395f51905f52541461298b5760025f51602061344e5f395f51905f5255565b633ee5aeb560e01b5f5260045ffd5b6001600160a01b0381165f9081525f51602061342e5f395f51905f52602052604090205460ff1615612a2b576001600160a01b03165f8181525f51602061342e5f395f51905f5260205260408120805460ff191690553391905f51602061340e5f395f51905f52907ff6391f5c32d9c69d2a47ea670b442974b53935d1edc7fd64eb21e047a839171b9080a4600190565b505f90565b5f818152602081815260408083206001600160a01b038616845290915290205460ff1615612ab4575f818152602081815260408083206001600160a01b03861684529091529020805460ff1916905533916001600160a01b0316907ff6391f5c32d9c69d2a47ea670b442974b53935d1edc7fd64eb21e047a839171b5f80a4600190565b50505f90565b335f9081527fad3228b676f7d3cd4284a5443f17f1962b36e491b30a40b2405849e597ba5fb5602052604090205460ff1615612af257565b63e2517d3f60e01b5f52336004525f60245260445ffd5b335f9081527f17fef83721e62da193f9f62f7ed221d6d1915ec914b80b21f90bf656e2f801b0602052604090205460ff1615612b4157565b63e2517d3f60e01b5f52336004527f36138e9075fe2aacc0e8c0bca2672e26e5a20781c3f1c78beb9f7fd693fe15c060245260445ffd5b335f9081527f9dd822d5f9802001d3f6b7619eb9eb9d9d807bb8bafa3b127e713f697cb4015f602052604090205460ff1615612bb057565b63e2517d3f60e01b5f52336004527f79bc6d21d6ac245a2381fed59206cf00903efdf632b4fa65583f82b860488f3a60245260445ffd5b335f9081525f51602061342e5f395f51905f52602052604090205460ff1615612c0c57565b63e2517d3f60e01b5f52336004525f51602061340e5f395f51905f5260245260445ffd5b335f9081527fcd3ada8650f82ef3c64f6cbe723a57383ca439e51c045b37dac1ccd9e6c5f92e602052604090205460ff1615612c6857565b63e2517d3f60e01b5f52336004527fd1f0c36e0c8e197a589ac15a880fe39650d6cc3ff0a114db9b0a987798aff62260245260445ffd5b5f8181526020818152604080832033845290915290205460ff1615612cc15750565b63e2517d3f60e01b5f523360045260245260445ffd5b60ff60015416612ce357565b63d93c066560e01b5f5260045ffd5b6001600160a01b0381165f9081525f51602061342e5f395f51905f52602052604090205460ff16612a2b576001600160a01b0381165f9081525f51602061342e5f395f51905f5260205260409020805460ff1916600117905533906001600160a01b03165f51602061340e5f395f51905f527f2f8788117e7eff1d82e926ec794901d17c78024a50270940304540a733656f0d5f80a4600190565b5f818152602081815260408083206001600160a01b038616845290915290205460ff16612ab4575f818152602081815260408083206001600160a01b03861684529091529020805460ff1916600117905533916001600160a01b0316907f2f8788117e7eff1d82e926ec794901d17c78024a50270940304540a733656f0d5f80a4600190565b60408310612e605760048101549081833503612e5857600101549182602082013503612e58578360401161053e5761075d936118f0913691603f190190604001612657565b505050505f90565b5050505f90565b9060018060a01b03821691825f52600360205260405f20916001830192835492603284028481046032148515171561129c577fb93bb42c1e20564c67c7b170b94a83637dfef5d7a02bd443c0fbda05ed17569f95612ed9612ed2670de0b6b3a7640000936064900490565b8097612302565b815560048401612ee981546122e7565b90555410612f13575b5050604080519283526020830191909152429082015280606081015b0390a2565b612f276005612f2c930160ff198154169055565b61299a565b505f80612ef2565b15612f3b57565b60405162461bcd60e51b815260206004820152603160248201527f43616c6c6572206e6f7420617574686f72697a656420617320766572696669656044820152703210383937b7b31039bab136b4ba3a32b960791b6064820152608490fd5b9092916060851061305b576002612fb9835f52600260205260405f2090565b015481111561305b576040805160208101938452908101949094526060840152612ff592612fea8160808101611656565b519020923691612657565b6020815191012015908115613052575b5061304e57335f9081527fc599da91144548782a9983dccb5d26bf9fe64ce8c1048b9f6e26cf8702ef7e526020526040902061304990613044906115e9565b612f34565b600190565b5f90565b9050155f613005565b50505050505f90565b9061309561307a835f52600b60205260405f2090565b6001600160a01b039092165f90815260036020526040902090565b906004810180544210156131df575b5060038101918254600283015411156131c257806006600792016130ce81546001860154906122f5565b42116131d1575b500190815490548110156131c2576130ec906122e7565b90556130f881546122e7565b905561310c815f52600e60205260405f2090565b61311681546122e7565b9055606461312c825f52600e60205260405f2090565b54116131355750565b61315a600761314c835f52600260205260405f2090565b01805460ff19166001179055565b7f852d074b1070f084be2b0e237453ef02a9ea5bd34f1223e5826e723ac10d632e60405180612f0e4282919060408352601a60408401527f416e6f6d616c79207468726573686f6c642065786365656465640000000000006060840152602060808401930152565b63a74c1c5f60e01b5f5260045ffd5b5f838301554290555f6130d5565b5f60038301556131ee426122d8565b90555f6130a4565b91909181516020811090811561329a575b50612e605790613218815160051c90565b5f915b818310613229575050501490565b909192600190602061323a866125bd565b84010151808211613271576040805160208101938452908101919091526132648160608101611656565b519020935b01919061321b565b604080516020810192835290810192909252906132918160608101611656565b51902093613269565b601f16905015155f613207565b6132bd916132b4916132c0565b90929192613304565b90565b81519190604183036132f0576132e99250602082015190606060408401519301515f1a90613380565b9192909190565b50505f9160029190565b6004111561037b57565b61330d816132fa565b80613316575050565b61331f816132fa565b600181036133365763f645eedf60e01b5f5260045ffd5b61333f816132fa565b6002810361335a575063fce698f760e01b5f5260045260245ffd5b806133666003926132fa565b1461336e5750565b6335e2f38360e21b5f5260045260245ffd5b91907f7fffffffffffffffffffffffffffffff5d576e7357a4501ddfe92f46681b20a08411613402579160209360809260ff5f9560405194855216868401526040830152606082015282805260015afa156133f7575f516001600160a01b038116156133ed57905f905f90565b505f906001905f90565b6040513d5f823e3d90fd5b5050505f916003919056fe7045adfe67d5f94dbfddcdb901e44bef55baacabb398c7cddda1bfd7620b15680d4654aaffc87c2c9a3fd6a99770bc308fad799420104834ddcca8973d0090399b779b17422d0df92223018b32b4d1fa46e071723d6817e2486d003becc55f00a264697066735822122095a8d585495ee636197bf02c30f7b70afba6efcba27e66819dba4d6efd5a1f1f64736f6c634300081c00332f8788117e7eff1d82e926ec794901d17c78024a50270940304540a733656f0dab95ee8443670cc2f20498fec769f3646c2375509362f6df15e28d91d3395118ad3228b676f7d3cd4284a5443f17f1962b36e491b30a40b2405849e597ba5fb5","linkReferences":{}},"methodIdentifiers":{"BRIDGE_OPERATOR_ROLE()":"4be40fd1","CHALLENGE_WINDOW()":"d62aad29","CIRCUIT_BREAKER_THRESHOLD()":"0ca55cd7","DEFAULT_ADMIN_ROLE()":"a217fddf","DEFAULT_FRAUD_PROOF_WINDOW()":"3f767b68","FRAUD_PROOF_CHALLENGER_ROLE()":"3fa01c6f","LIGHT_CLIENT_UPDATER_ROLE()":"ea099cda","MAX_MESSAGE_AGE()":"ee7de3ef","MIN_CHALLENGE_BOND()":"04a829f2","MIN_OPERATOR_STAKE()":"d856433a","REVOCATION_SYNC_ROLE()":"4c605e83","SLASHER_ROLE()":"5095af64","SLASH_PERCENTAGE()":"9f29f135","STAKE_LOCK_PERIOD()":"1932526d","VERIFIED_PROOF_SUBMITTER_ROLE()":"454084f4","addStake()":"5a627dbc","bridgeCredential(bytes32,uint256,bytes,bytes32)":"9134948d","cancelRevocationSync(bytes32)":"279e7273","finalizeCredential(bytes32)":"a8bcfa54","finalizeRevocationSync(bytes32)":"29bcee00","getChainConfig(uint256)":"19ed16dc","getCrossChainAccumulatorRoot(uint256)":"8c2c2909","getMessage(bytes32)":"0139a221","getOperatorInfo(address)":"27d9ab5d","getPendingRevocationSync(bytes32)":"c4b6d154","getRoleAdmin(bytes32)":"248a9ca3","getSupportedChains()":"c4bffe2b","grantRole(bytes32,address)":"2f2ff15d","hasRole(bytes32,address)":"91d14854","isCredentialBridged(bytes32,uint256)":"a4ffbb09","messageNonce()":"ecc70428","pause()":"8456cb59","paused()":"5c975abb","registerChain(uint256,bytes32,uint256,uint256,uint256)":"3483c5eb","registerDID(bytes32,bytes32)":"e1672a8d","registerDIDMethod(bytes32,uint256)":"c48703e0","registerOperator()":"2acde098","renounceRole(bytes32,address)":"36568abe","resetCircuitBreaker(uint256)":"8c3a6f3d","resolveDID(bytes32)":"de8d4ed2","revocationSyncDelay()":"2fd459fe","revokeRole(bytes32,address)":"d547741f","setRevocationSyncDelay(uint256)":"a0a68bbb","submitFraudProof(bytes32,bytes)":"3b22fb76","supportsInterface(bytes4)":"01ffc9a7","syncRevocation((uint256,bytes32,uint256,bytes32,bytes,uint256))":"e7b46b4f","tripCircuitBreaker(uint256,string)":"6072c5a2","unpause()":"3f4ba83a","updateLightClient(uint256,bytes32,uint256,bytes)":"83244ee3","withdrawStake(uint256)":"25d5971f"},"id":4}