{"abi":[{"type":"constructor","inputs":[{"name":"admin","type":"address","internalType":"address"},{"name":"_identityRegistry","type":"address","internalType":"address"}],"stateMutability":"nonpayable"},{"type":"function","name":"ADMIN_ROLE","inputs":[],"outputs":[{"name":"","type":"bytes32","internalType":"bytes32"}],"stateMutability":"view"},{"type":"function","name":"DEFAULT_ADMIN_ROLE","inputs":[],"outputs":[{"name":"","type":"bytes32","internalType":"bytes32"}],"stateMutability":"view"},{"type":"function","name":"GOVERNANCE_ROLE","inputs":[],"outputs":[{"name":"","type":"bytes32","internalType":"bytes32"}],"stateMutability":"view"},{"type":"function","name":"ISSUER_ROLE","inputs":[],"outputs":[{"name":"","type":"bytes32","internalType":"bytes32"}],"stateMutability":"view"},{"type":"function","name":"MAX_BATCH_SIZE","inputs":[],"outputs":[{"name":"","type":"uint32","internalType":"uint32"}],"stateMutability":"view"},{"type":"function","name":"MAX_CREDENTIAL_VALIDITY","inputs":[],"outputs":[{"name":"","type":"uint64","internalType":"uint64"}],"stateMutability":"view"},{"type":"function","name":"advanceRevocationEpoch","inputs":[],"outputs":[],"stateMutability":"nonpayable"},{"type":"function","name":"approveSchema","inputs":[{"name":"schemaHash","type":"bytes32","internalType":"bytes32"}],"outputs":[],"stateMutability":"nonpayable"},{"type":"function","name":"batchCheckValidity","inputs":[{"name":"credentialHashes","type":"bytes32[]","internalType":"bytes32[]"}],"outputs":[{"name":"results","type":"bool[]","internalType":"bool[]"}],"stateMutability":"view"},{"type":"function","name":"batchIssueCredentials","inputs":[{"name":"credentialHashes","type":"bytes32[]","internalType":"bytes32[]"},{"name":"schemaHashes","type":"bytes32[]","internalType":"bytes32[]"},{"name":"subjectDids","type":"bytes32[]","internalType":"bytes32[]"},{"name":"expiresAts","type":"uint64[]","internalType":"uint64[]"},{"name":"merkleRoots","type":"bytes32[]","internalType":"bytes32[]"}],"outputs":[],"stateMutability":"nonpayable"},{"type":"function","name":"currentRevocationEpoch","inputs":[],"outputs":[{"name":"","type":"uint256","internalType":"uint256"}],"stateMutability":"view"},{"type":"function","name":"getCredential","inputs":[{"name":"credentialHash","type":"bytes32","internalType":"bytes32"}],"outputs":[{"name":"","type":"tuple","internalType":"struct Credential","components":[{"name":"credentialHash","type":"bytes32","internalType":"bytes32"},{"name":"schemaHash","type":"bytes32","internalType":"bytes32"},{"name":"issuerDid","type":"bytes32","internalType":"bytes32"},{"name":"subjectDid","type":"bytes32","internalType":"bytes32"},{"name":"issuedAt","type":"uint64","internalType":"uint64"},{"name":"expiresAt","type":"uint64","internalType":"uint64"},{"name":"status","type":"uint8","internalType":"enum CredentialStatus"},{"name":"merkleRoot","type":"bytes32","internalType":"bytes32"}]}],"stateMutability":"view"},{"type":"function","name":"getIssuerCredentials","inputs":[{"name":"issuerDid","type":"bytes32","internalType":"bytes32"}],"outputs":[{"name":"","type":"bytes32[]","internalType":"bytes32[]"}],"stateMutability":"view"},{"type":"function","name":"getRoleAdmin","inputs":[{"name":"role","type":"bytes32","internalType":"bytes32"}],"outputs":[{"name":"","type":"bytes32","internalType":"bytes32"}],"stateMutability":"view"},{"type":"function","name":"getSubjectCredentials","inputs":[{"name":"subjectDid","type":"bytes32","internalType":"bytes32"}],"outputs":[{"name":"","type":"bytes32[]","internalType":"bytes32[]"}],"stateMutability":"view"},{"type":"function","name":"grantRole","inputs":[{"name":"role","type":"bytes32","internalType":"bytes32"},{"name":"account","type":"address","internalType":"address"}],"outputs":[],"stateMutability":"nonpayable"},{"type":"function","name":"hasRole","inputs":[{"name":"role","type":"bytes32","internalType":"bytes32"},{"name":"account","type":"address","internalType":"address"}],"outputs":[{"name":"","type":"bool","internalType":"bool"}],"stateMutability":"view"},{"type":"function","name":"identityRegistry","inputs":[],"outputs":[{"name":"","type":"address","internalType":"contract IIdentityRegistry"}],"stateMutability":"view"},{"type":"function","name":"isCredentialValid","inputs":[{"name":"credentialHash","type":"bytes32","internalType":"bytes32"}],"outputs":[{"name":"","type":"bool","internalType":"bool"}],"stateMutability":"view"},{"type":"function","name":"isRevokedInBitmap","inputs":[{"name":"credentialHash","type":"bytes32","internalType":"bytes32"}],"outputs":[{"name":"","type":"bool","internalType":"bool"}],"stateMutability":"view"},{"type":"function","name":"isSchemaApproved","inputs":[{"name":"schemaHash","type":"bytes32","internalType":"bytes32"}],"outputs":[{"name":"","type":"bool","internalType":"bool"}],"stateMutability":"view"},{"type":"function","name":"issueCredential","inputs":[{"name":"credentialHash","type":"bytes32","internalType":"bytes32"},{"name":"schemaHash","type":"bytes32","internalType":"bytes32"},{"name":"subjectDid","type":"bytes32","internalType":"bytes32"},{"name":"expiresAt","type":"uint64","internalType":"uint64"},{"name":"merkleRoot","type":"bytes32","internalType":"bytes32"}],"outputs":[],"stateMutability":"nonpayable"},{"type":"function","name":"pause","inputs":[],"outputs":[],"stateMutability":"nonpayable"},{"type":"function","name":"paused","inputs":[],"outputs":[{"name":"","type":"bool","internalType":"bool"}],"stateMutability":"view"},{"type":"function","name":"reinstateCredential","inputs":[{"name":"credentialHash","type":"bytes32","internalType":"bytes32"}],"outputs":[],"stateMutability":"nonpayable"},{"type":"function","name":"renounceRole","inputs":[{"name":"role","type":"bytes32","internalType":"bytes32"},{"name":"callerConfirmation","type":"address","internalType":"address"}],"outputs":[],"stateMutability":"nonpayable"},{"type":"function","name":"revokeCredential","inputs":[{"name":"credentialHash","type":"bytes32","internalType":"bytes32"}],"outputs":[],"stateMutability":"nonpayable"},{"type":"function","name":"revokeRole","inputs":[{"name":"role","type":"bytes32","internalType":"bytes32"},{"name":"account","type":"address","internalType":"address"}],"outputs":[],"stateMutability":"nonpayable"},{"type":"function","name":"revokeSchema","inputs":[{"name":"schemaHash","type":"bytes32","internalType":"bytes32"}],"outputs":[],"stateMutability":"nonpayable"},{"type":"function","name":"supportsInterface","inputs":[{"name":"interfaceId","type":"bytes4","internalType":"bytes4"}],"outputs":[{"name":"","type":"bool","internalType":"bool"}],"stateMutability":"view"},{"type":"function","name":"suspendCredential","inputs":[{"name":"credentialHash","type":"bytes32","internalType":"bytes32"}],"outputs":[],"stateMutability":"nonpayable"},{"type":"function","name":"totalCredentialsIssued","inputs":[],"outputs":[{"name":"","type":"uint256","internalType":"uint256"}],"stateMutability":"view"},{"type":"function","name":"totalRevoked","inputs":[],"outputs":[{"name":"","type":"uint256","internalType":"uint256"}],"stateMutability":"view"},{"type":"function","name":"unpause","inputs":[],"outputs":[],"stateMutability":"nonpayable"},{"type":"event","name":"BatchCredentialsIssued","inputs":[{"name":"issuerDid","type":"bytes32","indexed":true,"internalType":"bytes32"},{"name":"count","type":"uint32","indexed":false,"internalType":"uint32"}],"anonymous":false},{"type":"event","name":"CredentialIssued","inputs":[{"name":"credentialHash","type":"bytes32","indexed":true,"internalType":"bytes32"},{"name":"issuerDid","type":"bytes32","indexed":true,"internalType":"bytes32"},{"name":"subjectDid","type":"bytes32","indexed":true,"internalType":"bytes32"}],"anonymous":false},{"type":"event","name":"CredentialReinstated","inputs":[{"name":"credentialHash","type":"bytes32","indexed":true,"internalType":"bytes32"},{"name":"issuerDid","type":"bytes32","indexed":true,"internalType":"bytes32"},{"name":"timestamp","type":"uint64","indexed":false,"internalType":"uint64"}],"anonymous":false},{"type":"event","name":"CredentialRevoked","inputs":[{"name":"credentialHash","type":"bytes32","indexed":true,"internalType":"bytes32"},{"name":"issuerDid","type":"bytes32","indexed":true,"internalType":"bytes32"},{"name":"timestamp","type":"uint64","indexed":false,"internalType":"uint64"}],"anonymous":false},{"type":"event","name":"CredentialSuspended","inputs":[{"name":"credentialHash","type":"bytes32","indexed":true,"internalType":"bytes32"},{"name":"issuerDid","type":"bytes32","indexed":true,"internalType":"bytes32"},{"name":"timestamp","type":"uint64","indexed":false,"internalType":"uint64"}],"anonymous":false},{"type":"event","name":"Paused","inputs":[{"name":"account","type":"address","indexed":false,"internalType":"address"}],"anonymous":false},{"type":"event","name":"RevocationEpochAdvanced","inputs":[{"name":"oldEpoch","type":"uint256","indexed":false,"internalType":"uint256"},{"name":"newEpoch","type":"uint256","indexed":false,"internalType":"uint256"}],"anonymous":false},{"type":"event","name":"RoleAdminChanged","inputs":[{"name":"role","type":"bytes32","indexed":true,"internalType":"bytes32"},{"name":"previousAdminRole","type":"bytes32","indexed":true,"internalType":"bytes32"},{"name":"newAdminRole","type":"bytes32","indexed":true,"internalType":"bytes32"}],"anonymous":false},{"type":"event","name":"RoleGranted","inputs":[{"name":"role","type":"bytes32","indexed":true,"internalType":"bytes32"},{"name":"account","type":"address","indexed":true,"internalType":"address"},{"name":"sender","type":"address","indexed":true,"internalType":"address"}],"anonymous":false},{"type":"event","name":"RoleRevoked","inputs":[{"name":"role","type":"bytes32","indexed":true,"internalType":"bytes32"},{"name":"account","type":"address","indexed":true,"internalType":"address"},{"name":"sender","type":"address","indexed":true,"internalType":"address"}],"anonymous":false},{"type":"event","name":"SchemaApproved","inputs":[{"name":"schemaHash","type":"bytes32","indexed":true,"internalType":"bytes32"}],"anonymous":false},{"type":"event","name":"SchemaRevoked","inputs":[{"name":"schemaHash","type":"bytes32","indexed":true,"internalType":"bytes32"}],"anonymous":false},{"type":"event","name":"Unpaused","inputs":[{"name":"account","type":"address","indexed":false,"internalType":"address"}],"anonymous":false},{"type":"error","name":"AccessControlBadConfirmation","inputs":[]},{"type":"error","name":"AccessControlUnauthorizedAccount","inputs":[{"name":"account","type":"address","internalType":"address"},{"name":"neededRole","type":"bytes32","internalType":"bytes32"}]},{"type":"error","name":"BatchSizeExceeded","inputs":[{"name":"size","type":"uint32","internalType":"uint32"}]},{"type":"error","name":"CredentialAlreadyExists","inputs":[{"name":"credentialHash","type":"bytes32","internalType":"bytes32"}]},{"type":"error","name":"CredentialAlreadyRevoked","inputs":[{"name":"credentialHash","type":"bytes32","internalType":"bytes32"}]},{"type":"error","name":"CredentialNotActive","inputs":[{"name":"credentialHash","type":"bytes32","internalType":"bytes32"}]},{"type":"error","name":"CredentialNotFound","inputs":[{"name":"credentialHash","type":"bytes32","internalType":"bytes32"}]},{"type":"error","name":"EnforcedPause","inputs":[]},{"type":"error","name":"ExpectedPause","inputs":[]},{"type":"error","name":"InvalidExpiry","inputs":[{"name":"expiresAt","type":"uint64","internalType":"uint64"}]},{"type":"error","name":"InvalidTransition","inputs":[{"name":"from","type":"uint8","internalType":"enum CredentialStatus"},{"name":"to","type":"uint8","internalType":"enum CredentialStatus"}]},{"type":"error","name":"NotCredentialIssuer","inputs":[{"name":"credentialHash","type":"bytes32","internalType":"bytes32"},{"name":"caller","type":"address","internalType":"address"}]},{"type":"error","name":"ReentrancyGuardReentrantCall","inputs":[]},{"type":"error","name":"SchemaNotApproved","inputs":[{"name":"schemaHash","type":"bytes32","internalType":"bytes32"}]},{"type":"error","name":"SubjectIdentityNotActive","inputs":[{"name":"subjectDid","type":"bytes32","internalType":"bytes32"}]}],"bytecode":{"object":"0x60a03461015857601f61203538819003918201601f19168301916001600160401b0383118484101761015c57808492604094855283398101031261015857610052602061004b83610170565b9201610170565b60017f9b779b17422d0df92223018b32b4d1fa46e071723d6817e2486d003becc55f00556001600160a01b03821615610126576001600160a01b03169081156100f1576100b5916080526100a581610184565b506100af816101fa565b5061028d565b50604051611c949081610321823960805181818161054d0152818161090a01528181610d2501528181611155015281816118000152611b650152f35b60405162461bcd60e51b815260206004820152600d60248201526c5a65726f20726567697374727960981b6044820152606490fd5b60405162461bcd60e51b815260206004820152600a6024820152692d32b9379030b236b4b760b11b6044820152606490fd5b5f80fd5b634e487b7160e01b5f52604160045260245ffd5b51906001600160a01b038216820361015857565b6001600160a01b0381165f9081525f5160206120155f395f51905f52602052604090205460ff166101f5576001600160a01b03165f8181525f5160206120155f395f51905f5260205260408120805460ff191660011790553391905f516020611fb55f395f51905f528180a4600190565b505f90565b6001600160a01b0381165f9081525f516020611fd55f395f51905f52602052604090205460ff166101f5576001600160a01b03165f8181525f516020611fd55f395f51905f5260205260408120805460ff191660011790553391907fa49807205ce4d355092ef5a8a18f56e8913cf4a201fbe287825b095693c21775905f516020611fb55f395f51905f529080a4600190565b6001600160a01b0381165f9081525f516020611ff55f395f51905f52602052604090205460ff166101f5576001600160a01b03165f8181525f516020611ff55f395f51905f5260205260408120805460ff191660011790553391907f71840dc4906352362b0cdaf79870196c8e42acafade72d5d5a6d59291253ceb1905f516020611fb55f395f51905f529080a460019056fe6080806040526004361015610012575f80fd5b5f3560e01c90816301ffc9a7146111a15750806306131bd314611184578063134e18f414611140578063248a9ca31461110e5780632c995f06146110f05780632f2ff15d146110c157806336568abe1461108b5780633f4ba83a1461102557806359751f7d14610f935780635c975abb14610f715780635d6831c114610e2057806369c0040714610cb85780636dc158eb14610c9a5780637456547314610c3757806375b238fc14610bfd5780637b88009a14610bce57806382aefa2414610b945780638456cb5914610b3c578063849bfa0414610b1f57806385d285fb14610af757806391d1485414610abc578063a00a872214610a58578063a217fddf14610a3e578063ca6eec781461089d578063cc0d99df14610838578063cfdbf2541461081d578063d1be4883146106d5578063d547741f1461069f578063dbf82939146104e0578063dd06b3b51461046c578063ddc21c7314610243578063e62ce7ac14610226578063f36c8f5c146101ec5763f5fbba7014610192575f80fd5b346101e85760203660031901126101e8576004356101ae611511565b805f52600360205260405f2060ff1981541690557ff7e81589bb7fe17d8814f319ab91bf3e6a9e842a40c67a8feb5c40c9129950705f80a2005b5f80fd5b346101e8575f3660031901126101e85760206040517f71840dc4906352362b0cdaf79870196c8e42acafade72d5d5a6d59291253ceb18152f35b346101e8575f3660031901126101e8576020600b54604051908152f35b346101e85760a03660031901126101e8576004356001600160401b0381116101e85761027390369060040161121a565b6024356001600160401b0381116101e85761029290369060040161121a565b92906044356001600160401b0381116101e8576102b390369060040161121a565b91906064356001600160401b0381116101e8576102d490369060040161121a565b6084356001600160401b0381116101e8576102f390369060040161121a565b9590986102fe611580565b610306611729565b61030e611744565b63ffffffff89169860648a1161045957818a1480610450575b80610447575b8061043e575b1561040157610340611b38565b985f5b63ffffffff8116908c8210156103c2579088918e8b8a61038b858c610384828e61037d8f8f908f858093610376926112f9565b359a6112f9565b359b6112f9565b35936112f9565b35906001600160401b03821682036101e8578f966103b460019763ffffffff996103bb976112f9565b35936117a8565b0116610343565b8b7f7ffa5209c3140f27deba2ab130851006d55da4356b8fd00c8b61bfb082ae369060208f604051908152a260015f516020611c3f5f395f51905f5255005b60405162461bcd60e51b8152602060048201526015602482015274082e4e4c2f240d8cadccee8d040dad2e6dac2e8c6d605b1b6044820152606490fd5b50878a14610333565b50838a1461032d565b50828a14610327565b896307549dcb60e31b5f5260045260245ffd5b346101e85760203660031901126101e8576004355f52600560205260405f206040519081602082549182815201915f5260205f20905f5b8181106104ca576104c6856104ba818703826112c1565b6040519182918261124a565b0390f35b82548452602090930192600192830192016104a3565b346101e85760203660031901126101e857600435805f5260026020526001600160401b03600460405f200154161561068d5761051a611580565b805f526002602052600260405f20015460405190633e1e079b60e21b825260048201526101008160248160018060a01b037f0000000000000000000000000000000000000000000000000000000000000000165afa908115610682575f91610653575b50602001516001600160a01b0316330361063d57805f52600260205260405f2090600482019160ff835460801c16926005841015610629576002840361060c57805460ff60801b1916600160801b17905560020154604051426001600160401b031681529091907fd7e33db7228904d61d45f12ef8b0237242a94250dba20f1240b1e54ff2eec1c990602090a3005b6305fdf05f60e31b5f5261061f84611283565b600160245260445ffd5b634e487b7160e01b5f52602160045260245ffd5b63c44b1eed60e01b5f526004523360245260445ffd5b61067591506101003d811161067b575b61066d81836112c1565b81019061132e565b8261057d565b503d610663565b6040513d5f823e3d90fd5b630d99a0d160e01b5f5260045260245ffd5b346101e8576106d36106b0366111f4565b906106ce6106c9825f525f602052600160405f20015490565b6115ef565b6116a9565b005b346101e85760203660031901126101e8576004355f60e06040516106f881611291565b8281528260208201528260408201528260608201528260808201528260a08201528260c08201520152805f5260026020526001600160401b03600460405f200154161561068d575f52600260205260405f2060405161075681611291565b81548152600182015491602082019283526002810154906040830191825260038101549060608401918252600481015490608085016001600160401b038316815260ff60a08701936001600160401b038160401c16855260801c169360c087019560058610156106295760056001600160401b0396948795895201549860e08901998a526040519851895251602089015251604088015251606087015251166080850152511660a083015251916005831015610629576101009260c08301525160e0820152f35b346101e8575f3660031901126101e857602060405160648152f35b346101e85760a03660031901126101e8576064356001600160401b03811681036101e85761088a90610868611580565b610870611729565b610878611744565b608435906044356024356004356117a8565b60015f516020611c3f5f395f51905f5255005b346101e85760203660031901126101e857600435805f5260026020526001600160401b03600460405f200154161561068d576108d7611580565b805f526002602052600260405f20015460405190633e1e079b60e21b825260048201526101008160248160018060a01b037f0000000000000000000000000000000000000000000000000000000000000000165afa908115610682575f91610a1f575b50602001516001600160a01b0316330361063d57805f52600260205260405f20600481019060ff825460801c16600581101561062957600314610a0c57600291600360801b60ff60801b19825416179055825f52600860205260405f20600181015490545f52600760205260405f206001600160801b0382165f52602052600160ff60405f209260801c161b81541790556001600b5401600b550154907f91c1999c77d9680b094ee8f1de5e29886fc8613f3eb3a5aeea740cc6d704d4a060206040516001600160401b0342168152a3005b8263aac64f4560e01b5f5260045260245ffd5b610a3891506101003d811161067b5761066d81836112c1565b8261093a565b346101e8575f3660031901126101e85760206040515f8152f35b346101e85760203660031901126101e8576004355f52600460205260405f206040519081602082549182815201915f5260205f20905f5b818110610aa6576104c6856104ba818703826112c1565b8254845260209093019260019283019201610a8f565b346101e857610aca366111f4565b905f525f60205260405f209060018060a01b03165f52602052602060ff60405f2054166040519015158152f35b346101e85760203660031901126101e8576020610b15600435611420565b6040519015158152f35b346101e8575f3660031901126101e8576020600a54604051908152f35b346101e8575f3660031901126101e857610b546114a2565b610b5c611729565b600160ff19815416176001557f62e78cea01bee320cd4e420270b5ea74000d11b0c9f74754ebdbfc544b05a2586020604051338152a1005b346101e8575f3660031901126101e85760206040517f114e74f6ea3bd819998f78687bfcb11b140da08e9b7d222fa9c1f1ba1f2aa1228152f35b346101e85760203660031901126101e8576004355f526003602052602060ff60405f2054166040519015158152f35b346101e8575f3660031901126101e85760206040517fa49807205ce4d355092ef5a8a18f56e8913cf4a201fbe287825b095693c217758152f35b346101e8575f3660031901126101e857610c4f611511565b7fd640f72314b94f2f796cd26580a2632753bd237c2e18ee303e695a39dece062b604060065460018101806006556001600160881b03196009541660095582519182526020820152a1005b346101e85760203660031901126101e8576020610b156004356113ca565b346101e85760203660031901126101e857600435805f5260026020526001600160401b03600460405f200154161561068d57610cf2611580565b805f526002602052600260405f20015460405190633e1e079b60e21b825260048201526101008160248160018060a01b037f0000000000000000000000000000000000000000000000000000000000000000165afa908115610682575f91610e01575b50602001516001600160a01b0316330361063d57805f52600260205260405f2090600482019160ff835460801c169260058410156106295760018403610de457805460ff60801b1916600160811b17905560020154604051426001600160401b031681529091907f7153d8cc0e9bcb0a4df85e72a8ebd660795134faf1a82e2a2528e555f415fd1a90602090a3005b6305fdf05f60e31b5f52610df784611283565b600260245260445ffd5b610e1a91506101003d811161067b5761066d81836112c1565b82610d55565b346101e85760203660031901126101e8576004356001600160401b0381116101e857610e5090369060040161121a565b90610e5a826112e2565b90610e6860405192836112c1565b828252610e74836112e2565b602083019390601f19013685375f5b818110610ed157505050604051918291602083019060208452518091526040830191905f5b818110610eb6575050500390f35b82511515845285945060209384019390920191600101610ea8565b610edf8183859697956112f9565b355f526002602052600460405f200154906001600160401b03821615159182610f56575b82610f40575b508551811015610f2c57600191151560208260051b880101520193929193610e83565b634e487b7160e01b5f52603260045260245ffd5b60401c6001600160401b03164210915086610f09565b915060ff8260801c1660058110156106295760011491610f03565b346101e8575f3660031901126101e857602060ff600154166040519015158152f35b346101e85760203660031901126101e857600435610faf611511565b8015610ff257805f52600360205260405f20600160ff198254161790557f26ae2741bf1dfec7db76994ef211dacbfe91bad044a04d252a68bb4739aab5a25f80a2005b60405162461bcd60e51b815260206004820152600b60248201526a5a65726f20736368656d6160a81b6044820152606490fd5b346101e8575f3660031901126101e85761103d6114a2565b60015460ff81161561107c5760ff19166001557f5db9ee0a495bf2e6ff9c91a7834c1ba4fdd244a5e8aa4e537bd38aeae4b073aa6020604051338152a1005b638dfc202b60e01b5f5260045ffd5b346101e857611099366111f4565b336001600160a01b038216036110b2576106d3916116a9565b63334bd91960e11b5f5260045ffd5b346101e8576106d36110d2366111f4565b906110eb6106c9825f525f602052600160405f20015490565b611627565b346101e8575f3660031901126101e85760206040516312cc03008152f35b346101e85760203660031901126101e85760206111386004355f525f602052600160405f20015490565b604051908152f35b346101e8575f3660031901126101e8576040517f00000000000000000000000000000000000000000000000000000000000000006001600160a01b03168152602090f35b346101e8575f3660031901126101e8576020600654604051908152f35b346101e85760203660031901126101e8576004359063ffffffff60e01b82168092036101e857602091637965db0b60e01b81149081156111e3575b5015158152f35b6301ffc9a760e01b149050836111dc565b60409060031901126101e857600435906024356001600160a01b03811681036101e85790565b9181601f840112156101e8578235916001600160401b0383116101e8576020808501948460051b0101116101e857565b60206040818301928281528451809452019201905f5b81811061126d5750505090565b8251845260209384019390920191600101611260565b600581101561062957600452565b61010081019081106001600160401b038211176112ad57604052565b634e487b7160e01b5f52604160045260245ffd5b90601f801991011681019081106001600160401b038211176112ad57604052565b6001600160401b0381116112ad5760051b60200190565b9190811015610f2c5760051b0190565b51906001600160401b03821682036101e857565b519063ffffffff821682036101e857565b90816101009103126101e8576040519061134782611291565b8051825260208101516001600160a01b03811681036101e857602083015261137160408201611309565b604083015261138260608201611309565b6060830152608081015160048110156101e8576113c29160e091608085015260a081015160a08501526113b760c0820161131d565b60c08501520161131d565b60e082015290565b5f526002602052600460405f2001546001600160401b0381161561141b5760ff8160801c1660058110156106295760010361141b5760401c6001600160401b031642101561141757600190565b5f90565b505f90565b5f52600860205260405f20805480158061148d575b8061147b575b6114755760019182915f5260076020528160405f20910154906001600160801b0382165f5260205260ff60405f20549160801c161c161490565b50505f90565b5060ff600183015460801c161561143b565b506001600160801b0360018301541615611435565b335f9081527f7d7ffb7a348e1c6a02869081a26547b49160dd3df72d1d75a570eb9b698292ec602052604090205460ff16156114da57565b63e2517d3f60e01b5f52336004527fa49807205ce4d355092ef5a8a18f56e8913cf4a201fbe287825b095693c2177560245260445ffd5b335f9081527f316a51056d8b2401ab04c48d9973add294eadde229c785c6d19cde93785467ef602052604090205460ff161561154957565b63e2517d3f60e01b5f52336004527f71840dc4906352362b0cdaf79870196c8e42acafade72d5d5a6d59291253ceb160245260445ffd5b335f9081527ff9c002f57bb53b4d861ae1ef1369a8087d06c8210e4846f897918d0e534663ce602052604090205460ff16156115b857565b63e2517d3f60e01b5f52336004527f114e74f6ea3bd819998f78687bfcb11b140da08e9b7d222fa9c1f1ba1f2aa12260245260445ffd5b5f8181526020818152604080832033845290915290205460ff16156116115750565b63e2517d3f60e01b5f523360045260245260445ffd5b5f818152602081815260408083206001600160a01b038616845290915290205460ff16611475575f818152602081815260408083206001600160a01b0395909516808452949091528120805460ff19166001179055339291907f2f8788117e7eff1d82e926ec794901d17c78024a50270940304540a733656f0d9080a4600190565b5f818152602081815260408083206001600160a01b038616845290915290205460ff1615611475575f818152602081815260408083206001600160a01b0395909516808452949091528120805460ff19169055339291907ff6391f5c32d9c69d2a47ea670b442974b53935d1edc7fd64eb21e047a839171b9080a4600190565b60ff6001541661173557565b63d93c066560e01b5f5260045ffd5b60025f516020611c3f5f395f51905f52541461176d5760025f516020611c3f5f395f51905f5255565b633ee5aeb560e01b5f5260045ffd5b805490680100000000000000008210156112ad5760018201808255821015610f2c575f5260205f200155565b919390928215611b2557825f5260026020526001600160401b03600460405f20015416611b1257835f52600360205260ff60405f20541615611aff5760405163c8e1d7ff60e01b8152600481018690526020816024817f00000000000000000000000000000000000000000000000000000000000000006001600160a01b03165afa908115610682575f91611ac4575b5015611ab1576001600160401b03804216911691818311801590611a77575b611a6457611863611b38565b946040519361187185611291565b858552602085019182526040850187815260608601908982526080870195865260a0870192835260c08701936001855260e08801958652885f52600260205260405f20975188555160018801555160028701555160038601556001600160401b03600486019451166fffffffffffffffff00000000000000008554925160401b16916001600160801b03191617178355519160058310156106295760059281549060ff60801b9060801b169060ff60801b19161790555191015560065460095460405191606083018381106001600160401b038211176112ad5760405282526001600160801b0360016020840193828416855260ff604082019460801c168452855f52600860205260405f2090518155019251166001600160801b03198354161782555181549060ff60801b9060ff60801b9060801b16169060ff60801b191617905560095460ff60801b600160ff8360801c160160801b1660ff818160801b198416178060095560801c1615611a3e575b5050815f5260046020526119fa8160405f2061177c565b825f526005602052611a0f8160405f2061177c565b6001600a5401600a557ff26c26cd46bc512fff4cbc5ee4f054dbf3e2dbd4b6991dbb485c5a9d6b5760125f80a4565b6001600160801b0360018184160116916001600160881b03191617176009555f806119e3565b82630bc4794d60e31b5f5260045260245ffd5b506312cc030082016001600160401b038111611a9d576001600160401b03168311611857565b634e487b7160e01b5f52601160045260245ffd5b84633d940c9560e01b5f5260045260245ffd5b90506020813d602011611af7575b81611adf602093836112c1565b810103126101e8575180151581036101e8575f611838565b3d9150611ad2565b8363f4ef14fb60e01b5f5260045260245ffd5b826343edda8360e11b5f5260045260245ffd5b82630d99a0d160e01b5f5260045260245ffd5b5f80604051602081019063274124d360e01b825233602482015260248152611b616044826112c1565b51907f00000000000000000000000000000000000000000000000000000000000000006001600160a01b03165afa3d15611c36573d906001600160401b0382116112ad5760405191611bbd601f8201601f1916602001846112c1565b82523d5f602084013e5b80611c2b575b15611be6576020818051810103126101e8576020015190565b60405162461bcd60e51b815260206004820152601960248201527f43616e6e6f74207265736f6c76652069737375657220444944000000000000006044820152606490fd5b506020815114611bcd565b606090611bc756fe9b779b17422d0df92223018b32b4d1fa46e071723d6817e2486d003becc55f00a264697066735822122066931d585aac9fd183737e9e3980bc321b353930542b3ddebebd2a519f16b12f64736f6c634300081c00332f8788117e7eff1d82e926ec794901d17c78024a50270940304540a733656f0d7d7ffb7a348e1c6a02869081a26547b49160dd3df72d1d75a570eb9b698292ec316a51056d8b2401ab04c48d9973add294eadde229c785c6d19cde93785467efad3228b676f7d3cd4284a5443f17f1962b36e491b30a40b2405849e597ba5fb5","linkReferences":{}},"methodIdentifiers":{"ADMIN_ROLE()":"75b238fc","DEFAULT_ADMIN_ROLE()":"a217fddf","GOVERNANCE_ROLE()":"f36c8f5c","ISSUER_ROLE()":"82aefa24","MAX_BATCH_SIZE()":"cfdbf254","MAX_CREDENTIAL_VALIDITY()":"2c995f06","advanceRevocationEpoch()":"74565473","approveSchema(bytes32)":"59751f7d","batchCheckValidity(bytes32[])":"5d6831c1","batchIssueCredentials(bytes32[],bytes32[],bytes32[],uint64[],bytes32[])":"ddc21c73","currentRevocationEpoch()":"06131bd3","getCredential(bytes32)":"d1be4883","getIssuerCredentials(bytes32)":"a00a8722","getRoleAdmin(bytes32)":"248a9ca3","getSubjectCredentials(bytes32)":"dd06b3b5","grantRole(bytes32,address)":"2f2ff15d","hasRole(bytes32,address)":"91d14854","identityRegistry()":"134e18f4","isCredentialValid(bytes32)":"6dc158eb","isRevokedInBitmap(bytes32)":"85d285fb","isSchemaApproved(bytes32)":"7b88009a","issueCredential(bytes32,bytes32,bytes32,uint64,bytes32)":"cc0d99df","pause()":"8456cb59","paused()":"5c975abb","reinstateCredential(bytes32)":"dbf82939","renounceRole(bytes32,address)":"36568abe","revokeCredential(bytes32)":"ca6eec78","revokeRole(bytes32,address)":"d547741f","revokeSchema(bytes32)":"f5fbba70","supportsInterface(bytes4)":"01ffc9a7","suspendCredential(bytes32)":"69c00407","totalCredentialsIssued()":"849bfa04","totalRevoked()":"e62ce7ac","unpause()":"3f4ba83a"},"id":3}