{"abi":[{"type":"constructor","inputs":[{"name":"admin","type":"address","internalType":"address"}],"stateMutability":"nonpayable"},{"type":"function","name":"ACCUMULATOR_MANAGER_ROLE","inputs":[],"outputs":[{"name":"","type":"bytes32","internalType":"bytes32"}],"stateMutability":"view"},{"type":"function","name":"DEFAULT_ADMIN_ROLE","inputs":[],"outputs":[{"name":"","type":"bytes32","internalType":"bytes32"}],"stateMutability":"view"},{"type":"function","name":"ISSUER_ROLE","inputs":[],"outputs":[{"name":"","type":"bytes32","internalType":"bytes32"}],"stateMutability":"view"},{"type":"function","name":"batchVerifyProofs","inputs":[{"name":"issuerId","type":"bytes32","internalType":"bytes32"},{"name":"proofs","type":"tuple[]","internalType":"struct BBSPlusCredential.BBSProof[]","components":[{"name":"aBar","type":"tuple","internalType":"struct BN254.G1Point","components":[{"name":"x","type":"uint256","internalType":"uint256"},{"name":"y","type":"uint256","internalType":"uint256"}]},{"name":"aPrime","type":"tuple","internalType":"struct BN254.G1Point","components":[{"name":"x","type":"uint256","internalType":"uint256"},{"name":"y","type":"uint256","internalType":"uint256"}]},{"name":"d","type":"tuple","internalType":"struct BN254.G1Point","components":[{"name":"x","type":"uint256","internalType":"uint256"},{"name":"y","type":"uint256","internalType":"uint256"}]},{"name":"challenge","type":"uint256","internalType":"uint256"},{"name":"responses","type":"uint256[]","internalType":"uint256[]"},{"name":"revealedIndices","type":"uint256[]","internalType":"uint256[]"},{"name":"revealedMessages","type":"uint256[]","internalType":"uint256[]"},{"name":"domainTag","type":"bytes32","internalType":"bytes32"},{"name":"nonce","type":"uint256","internalType":"uint256"},{"name":"expiresAt","type":"uint256","internalType":"uint256"}]}],"outputs":[{"name":"validCount","type":"uint256","internalType":"uint256"}],"stateMutability":"nonpayable"},{"type":"function","name":"getAccumulatorState","inputs":[{"name":"accumulatorId","type":"bytes32","internalType":"bytes32"}],"outputs":[{"name":"","type":"tuple","internalType":"struct BBSPlusCredential.AccumulatorState","components":[{"name":"root","type":"bytes32","internalType":"bytes32"},{"name":"epoch","type":"uint256","internalType":"uint256"},{"name":"memberCount","type":"uint256","internalType":"uint256"},{"name":"revokedCount","type":"uint256","internalType":"uint256"},{"name":"lastUpdated","type":"uint256","internalType":"uint256"},{"name":"initialized","type":"bool","internalType":"bool"}]}],"stateMutability":"view"},{"type":"function","name":"getHistoricalRoot","inputs":[{"name":"accumulatorId","type":"bytes32","internalType":"bytes32"},{"name":"epoch","type":"uint256","internalType":"uint256"}],"outputs":[{"name":"root","type":"bytes32","internalType":"bytes32"}],"stateMutability":"view"},{"type":"function","name":"getIssuerKeyInfo","inputs":[{"name":"issuerId","type":"bytes32","internalType":"bytes32"}],"outputs":[{"name":"maxMessages","type":"uint256","internalType":"uint256"},{"name":"domainTag","type":"bytes32","internalType":"bytes32"},{"name":"active","type":"bool","internalType":"bool"},{"name":"registeredAt","type":"uint256","internalType":"uint256"}],"stateMutability":"view"},{"type":"function","name":"getRoleAdmin","inputs":[{"name":"role","type":"bytes32","internalType":"bytes32"}],"outputs":[{"name":"","type":"bytes32","internalType":"bytes32"}],"stateMutability":"view"},{"type":"function","name":"grantRole","inputs":[{"name":"role","type":"bytes32","internalType":"bytes32"},{"name":"account","type":"address","internalType":"address"}],"outputs":[],"stateMutability":"nonpayable"},{"type":"function","name":"hasRole","inputs":[{"name":"role","type":"bytes32","internalType":"bytes32"},{"name":"account","type":"address","internalType":"address"}],"outputs":[{"name":"","type":"bool","internalType":"bool"}],"stateMutability":"view"},{"type":"function","name":"initializeAccumulator","inputs":[{"name":"accumulatorId","type":"bytes32","internalType":"bytes32"},{"name":"initialRoot","type":"bytes32","internalType":"bytes32"}],"outputs":[],"stateMutability":"nonpayable"},{"type":"function","name":"isCredentialIssued","inputs":[{"name":"credentialHash","type":"bytes32","internalType":"bytes32"}],"outputs":[{"name":"","type":"bool","internalType":"bool"}],"stateMutability":"view"},{"type":"function","name":"isDomainRegistered","inputs":[{"name":"domainTag","type":"bytes32","internalType":"bytes32"}],"outputs":[{"name":"","type":"bool","internalType":"bool"}],"stateMutability":"view"},{"type":"function","name":"issueBlindedCredential","inputs":[{"name":"issuerId","type":"bytes32","internalType":"bytes32"},{"name":"request","type":"tuple","internalType":"struct BBSPlusCredential.BlindedCredentialRequest","components":[{"name":"commitment","type":"tuple","internalType":"struct BN254.G1Point","components":[{"name":"x","type":"uint256","internalType":"uint256"},{"name":"y","type":"uint256","internalType":"uint256"}]},{"name":"revealedMessages","type":"uint256[]","internalType":"uint256[]"},{"name":"revealedIndices","type":"uint256[]","internalType":"uint256[]"},{"name":"proofCommitment","type":"tuple","internalType":"struct BN254.G1Point","components":[{"name":"x","type":"uint256","internalType":"uint256"},{"name":"y","type":"uint256","internalType":"uint256"}]},{"name":"proofChallenge","type":"uint256","internalType":"uint256"},{"name":"proofResponses","type":"uint256[]","internalType":"uint256[]"}]},{"name":"signature","type":"tuple","internalType":"struct BBSPlusCredential.BBSSignature","components":[{"name":"a","type":"tuple","internalType":"struct BN254.G1Point","components":[{"name":"x","type":"uint256","internalType":"uint256"},{"name":"y","type":"uint256","internalType":"uint256"}]},{"name":"e","type":"uint256","internalType":"uint256"},{"name":"s","type":"uint256","internalType":"uint256"}]}],"outputs":[{"name":"credentialHash","type":"bytes32","internalType":"bytes32"}],"stateMutability":"nonpayable"},{"type":"function","name":"issueCredential","inputs":[{"name":"issuerId","type":"bytes32","internalType":"bytes32"},{"name":"messages","type":"uint256[]","internalType":"uint256[]"},{"name":"signature","type":"tuple","internalType":"struct BBSPlusCredential.BBSSignature","components":[{"name":"a","type":"tuple","internalType":"struct BN254.G1Point","components":[{"name":"x","type":"uint256","internalType":"uint256"},{"name":"y","type":"uint256","internalType":"uint256"}]},{"name":"e","type":"uint256","internalType":"uint256"},{"name":"s","type":"uint256","internalType":"uint256"}]}],"outputs":[{"name":"credentialHash","type":"bytes32","internalType":"bytes32"}],"stateMutability":"nonpayable"},{"type":"function","name":"pause","inputs":[],"outputs":[],"stateMutability":"nonpayable"},{"type":"function","name":"paused","inputs":[],"outputs":[{"name":"","type":"bool","internalType":"bool"}],"stateMutability":"view"},{"type":"function","name":"registerIssuerKey","inputs":[{"name":"issuerId","type":"bytes32","internalType":"bytes32"},{"name":"w","type":"tuple","internalType":"struct BN254.G2Point","components":[{"name":"x","type":"uint256[2]","internalType":"uint256[2]"},{"name":"y","type":"uint256[2]","internalType":"uint256[2]"}]},{"name":"h0","type":"tuple","internalType":"struct BN254.G1Point","components":[{"name":"x","type":"uint256","internalType":"uint256"},{"name":"y","type":"uint256","internalType":"uint256"}]},{"name":"h","type":"tuple[]","internalType":"struct BN254.G1Point[]","components":[{"name":"x","type":"uint256","internalType":"uint256"},{"name":"y","type":"uint256","internalType":"uint256"}]},{"name":"domainTag","type":"bytes32","internalType":"bytes32"}],"outputs":[],"stateMutability":"nonpayable"},{"type":"function","name":"renounceRole","inputs":[{"name":"role","type":"bytes32","internalType":"bytes32"},{"name":"callerConfirmation","type":"address","internalType":"address"}],"outputs":[],"stateMutability":"nonpayable"},{"type":"function","name":"revokeIssuerKey","inputs":[{"name":"issuerId","type":"bytes32","internalType":"bytes32"}],"outputs":[],"stateMutability":"nonpayable"},{"type":"function","name":"revokeRole","inputs":[{"name":"role","type":"bytes32","internalType":"bytes32"},{"name":"account","type":"address","internalType":"address"}],"outputs":[],"stateMutability":"nonpayable"},{"type":"function","name":"supportsInterface","inputs":[{"name":"interfaceId","type":"bytes4","internalType":"bytes4"}],"outputs":[{"name":"","type":"bool","internalType":"bool"}],"stateMutability":"view"},{"type":"function","name":"totalCredentialsIssued","inputs":[],"outputs":[{"name":"","type":"uint256","internalType":"uint256"}],"stateMutability":"view"},{"type":"function","name":"totalProofsVerified","inputs":[],"outputs":[{"name":"","type":"uint256","internalType":"uint256"}],"stateMutability":"view"},{"type":"function","name":"unpause","inputs":[],"outputs":[],"stateMutability":"nonpayable"},{"type":"function","name":"updateAccumulator","inputs":[{"name":"accumulatorId","type":"bytes32","internalType":"bytes32"},{"name":"newRoot","type":"bytes32","internalType":"bytes32"},{"name":"revokedCount","type":"uint256","internalType":"uint256"},{"name":"updateProof","type":"bytes","internalType":"bytes"}],"outputs":[],"stateMutability":"nonpayable"},{"type":"function","name":"verifyNonRevocation","inputs":[{"name":"accumulatorId","type":"bytes32","internalType":"bytes32"},{"name":"witness","type":"tuple","internalType":"struct BBSPlusCredential.NonRevocationWitness","components":[{"name":"witnessPoint","type":"tuple","internalType":"struct BN254.G1Point","components":[{"name":"x","type":"uint256","internalType":"uint256"},{"name":"y","type":"uint256","internalType":"uint256"}]},{"name":"epoch","type":"uint256","internalType":"uint256"},{"name":"credentialHash","type":"bytes32","internalType":"bytes32"}]},{"name":"proofData","type":"bytes","internalType":"bytes"}],"outputs":[{"name":"valid","type":"bool","internalType":"bool"}],"stateMutability":"view"},{"type":"function","name":"verifySelectiveDisclosure","inputs":[{"name":"issuerId","type":"bytes32","internalType":"bytes32"},{"name":"proof","type":"tuple","internalType":"struct BBSPlusCredential.BBSProof","components":[{"name":"aBar","type":"tuple","internalType":"struct BN254.G1Point","components":[{"name":"x","type":"uint256","internalType":"uint256"},{"name":"y","type":"uint256","internalType":"uint256"}]},{"name":"aPrime","type":"tuple","internalType":"struct BN254.G1Point","components":[{"name":"x","type":"uint256","internalType":"uint256"},{"name":"y","type":"uint256","internalType":"uint256"}]},{"name":"d","type":"tuple","internalType":"struct BN254.G1Point","components":[{"name":"x","type":"uint256","internalType":"uint256"},{"name":"y","type":"uint256","internalType":"uint256"}]},{"name":"challenge","type":"uint256","internalType":"uint256"},{"name":"responses","type":"uint256[]","internalType":"uint256[]"},{"name":"revealedIndices","type":"uint256[]","internalType":"uint256[]"},{"name":"revealedMessages","type":"uint256[]","internalType":"uint256[]"},{"name":"domainTag","type":"bytes32","internalType":"bytes32"},{"name":"nonce","type":"uint256","internalType":"uint256"},{"name":"expiresAt","type":"uint256","internalType":"uint256"}]}],"outputs":[{"name":"valid","type":"bool","internalType":"bool"}],"stateMutability":"nonpayable"},{"type":"event","name":"AccumulatorUpdated","inputs":[{"name":"accumulatorId","type":"bytes32","indexed":true,"internalType":"bytes32"},{"name":"newRoot","type":"bytes32","indexed":false,"internalType":"bytes32"},{"name":"epoch","type":"uint256","indexed":false,"internalType":"uint256"},{"name":"revokedCount","type":"uint256","indexed":false,"internalType":"uint256"}],"anonymous":false},{"type":"event","name":"BatchVerificationCompleted","inputs":[{"name":"totalProofs","type":"uint256","indexed":false,"internalType":"uint256"},{"name":"validCount","type":"uint256","indexed":false,"internalType":"uint256"},{"name":"timestamp","type":"uint256","indexed":false,"internalType":"uint256"}],"anonymous":false},{"type":"event","name":"CredentialBlinded","inputs":[{"name":"credentialHash","type":"bytes32","indexed":true,"internalType":"bytes32"},{"name":"blindedHash","type":"bytes32","indexed":false,"internalType":"bytes32"},{"name":"timestamp","type":"uint256","indexed":false,"internalType":"uint256"}],"anonymous":false},{"type":"event","name":"CredentialIssued","inputs":[{"name":"issuerId","type":"bytes32","indexed":true,"internalType":"bytes32"},{"name":"credentialHash","type":"bytes32","indexed":true,"internalType":"bytes32"},{"name":"messageCount","type":"uint256","indexed":false,"internalType":"uint256"},{"name":"timestamp","type":"uint256","indexed":false,"internalType":"uint256"}],"anonymous":false},{"type":"event","name":"IssuerKeyRegistered","inputs":[{"name":"issuerId","type":"bytes32","indexed":true,"internalType":"bytes32"},{"name":"maxMessages","type":"uint256","indexed":false,"internalType":"uint256"},{"name":"domainTag","type":"bytes32","indexed":false,"internalType":"bytes32"}],"anonymous":false},{"type":"event","name":"IssuerKeyRevoked","inputs":[{"name":"issuerId","type":"bytes32","indexed":true,"internalType":"bytes32"}],"anonymous":false},{"type":"event","name":"Paused","inputs":[{"name":"account","type":"address","indexed":false,"internalType":"address"}],"anonymous":false},{"type":"event","name":"ProofVerified","inputs":[{"name":"domainTag","type":"bytes32","indexed":true,"internalType":"bytes32"},{"name":"proofHash","type":"bytes32","indexed":true,"internalType":"bytes32"},{"name":"revealedCount","type":"uint256","indexed":false,"internalType":"uint256"},{"name":"timestamp","type":"uint256","indexed":false,"internalType":"uint256"}],"anonymous":false},{"type":"event","name":"RoleAdminChanged","inputs":[{"name":"role","type":"bytes32","indexed":true,"internalType":"bytes32"},{"name":"previousAdminRole","type":"bytes32","indexed":true,"internalType":"bytes32"},{"name":"newAdminRole","type":"bytes32","indexed":true,"internalType":"bytes32"}],"anonymous":false},{"type":"event","name":"RoleGranted","inputs":[{"name":"role","type":"bytes32","indexed":true,"internalType":"bytes32"},{"name":"account","type":"address","indexed":true,"internalType":"address"},{"name":"sender","type":"address","indexed":true,"internalType":"address"}],"anonymous":false},{"type":"event","name":"RoleRevoked","inputs":[{"name":"role","type":"bytes32","indexed":true,"internalType":"bytes32"},{"name":"account","type":"address","indexed":true,"internalType":"address"},{"name":"sender","type":"address","indexed":true,"internalType":"address"}],"anonymous":false},{"type":"event","name":"Unpaused","inputs":[{"name":"account","type":"address","indexed":false,"internalType":"address"}],"anonymous":false},{"type":"error","name":"AccessControlBadConfirmation","inputs":[]},{"type":"error","name":"AccessControlUnauthorizedAccount","inputs":[{"name":"account","type":"address","internalType":"address"},{"name":"neededRole","type":"bytes32","internalType":"bytes32"}]},{"type":"error","name":"AccumulatorNotInitialized","inputs":[]},{"type":"error","name":"BN254_EcAddFailed","inputs":[]},{"type":"error","name":"BN254_EcMulFailed","inputs":[]},{"type":"error","name":"BN254_PairingFailed","inputs":[]},{"type":"error","name":"BatchVerificationFailed","inputs":[]},{"type":"error","name":"CredentialRevoked","inputs":[]},{"type":"error","name":"DomainMismatch","inputs":[]},{"type":"error","name":"EmptyBatch","inputs":[]},{"type":"error","name":"EnforcedPause","inputs":[]},{"type":"error","name":"ExpectedPause","inputs":[]},{"type":"error","name":"InvalidAccumulatorUpdate","inputs":[]},{"type":"error","name":"InvalidBlindingFactor","inputs":[]},{"type":"error","name":"InvalidDomainTag","inputs":[]},{"type":"error","name":"InvalidMessageCount","inputs":[]},{"type":"error","name":"InvalidProof","inputs":[]},{"type":"error","name":"InvalidPublicKeyLength","inputs":[]},{"type":"error","name":"InvalidSignature","inputs":[]},{"type":"error","name":"ProofExpired","inputs":[]},{"type":"error","name":"PublicKeyAlreadyRegistered","inputs":[]},{"type":"error","name":"PublicKeyNotRegistered","inputs":[]},{"type":"error","name":"ReentrancyGuardReentrantCall","inputs":[]},{"type":"error","name":"WitnessUpdateFailed","inputs":[]}],"bytecode":{"object":"0x6080346100a057601f61291238819003918201601f19168301916001600160401b038311848410176100a4578084926020946040528339810103126100a057516001600160a01b03811681036100a0576100909060017f9b779b17422d0df92223018b32b4d1fa46e071723d6817e2486d003becc55f0055610080816100b8565b5061008a8161012e565b506101c1565b5060405161263d90816102558239f35b5f80fd5b634e487b7160e01b5f52604160045260245ffd5b6001600160a01b0381165f9081525f5160206128f25f395f51905f52602052604090205460ff16610129576001600160a01b03165f8181525f5160206128f25f395f51905f5260205260408120805460ff191660011790553391905f5160206128925f395f51905f528180a4600190565b505f90565b6001600160a01b0381165f9081525f5160206128b25f395f51905f52602052604090205460ff16610129576001600160a01b03165f8181525f5160206128b25f395f51905f5260205260408120805460ff191660011790553391907f114e74f6ea3bd819998f78687bfcb11b140da08e9b7d222fa9c1f1ba1f2aa122905f5160206128925f395f51905f529080a4600190565b6001600160a01b0381165f9081525f5160206128d25f395f51905f52602052604090205460ff16610129576001600160a01b03165f8181525f5160206128d25f395f51905f5260205260408120805460ff191660011790553391907f39262b9a4353d0808208451e2b27a9b70cf7cba106f2db8aee690b95bbcb70d0905f5160206128925f395f51905f529080a460019056fe60806040526004361015610011575f80fd5b5f3560e01c8063014efd78146101d457806301ffc9a7146101cf578063248a9ca3146101ca5780632ae8999d146101c55780632f2ff15d146101c057806336568abe146101bb5780633c01f2d1146101b65780633c283a9e146101b15780633f4ba83a146101ac5780634e03f9c3146101a75780635c975abb146101a25780636c2761ba1461019d57806382aefa24146101985780638456cb59146101935780638463f45a1461018e578063849bfa04146101895780638ae35aae146101845780638cbd82271461017f57806391d148541461017a5780639800e2b014610175578063a217fddf14610170578063a90f03881461016b578063b4b0291c14610166578063d246a2a314610161578063d547741f1461015c578063e57f775714610157578063e583144d146101525763fdb7b9911461014d575f80fd5b6111a2565b611131565b6110f9565b6110ca565b6110ad565b611073565b61101f565b611005565b610fd6565b610f96565b610c6c565b610bef565b610bd2565b610af1565b610a99565b610a5f565b610983565b610961565b61090c565b610879565b610673565b610644565b61060e565b6105d8565b61046b565b610439565b6103e3565b61022f565b9181601f84011215610209578235916001600160401b038311610209576020808501948460051b01011161020957565b5f80fd5b608090604319011261020957604490565b608090602319011261020957602490565b346102095760c0366003190112610209576004356024356001600160401b038111610209576102629036906004016101d9565b61026b3661020d565b92610274611a2d565b61027c611b92565b610284611bad565b610296815f52600260205260405f2090565b6102ab6102a7600983015460ff1690565b1590565b6103d457821580156103c7575b6103b8576102a78584866102cb94611c1c565b6103a9577f8fc1c20e6c4231feb7c817cbba7671adcba16344265bb66241208e8a38f6a4bf61037c936103a59561032a606060408301359201359161031c6040519384928960208501978a89611323565b03601f198101835282611393565b519020938493610352610345865f52600460205260405f2090565b805460ff19166001179055565b61036661036160095460010190565b600955565b6040805191825242602083015290918291820190565b0390a361039560015f5160206125e85f395f51905f5255565b6040519081529081906020820190565b0390f35b638baa579f60e01b5f5260045ffd5b633e92a48960e11b5f5260045ffd5b50600781015483116102b8565b635d40861f60e01b5f5260045ffd5b346102095760203660031901126102095760043563ffffffff60e01b811680910361020957602090637965db0b60e01b8114908115610428575b506040519015158152f35b6301ffc9a760e01b1490505f61041d565b346102095760203660031901126102095760206104636004355f525f602052600160405f20015490565b604051908152f35b346102095760c0366003190112610209576024356004356001600160401b0382116102095761010082600401926003199036030112610209576104ad3661020d565b6104b5611a2d565b6104bd611b92565b6104c5611bad565b6104d7825f52600260205260405f2090565b6104e86102a7600983015460ff1690565b6103d4576102a7846104f992611ce8565b6105a3576105346105166105116103a59536906113b4565b611e26565b61031c606060408501359401356040519485936020850197886113ee565b51902061054c610345825f52600460205260405f2090565b61055b61036160095460010190565b6040805182815242602082015282917f61e2ff40463054651861ba5f4e6a42e455f4b673d7bf74ac804b12ea7bbe858591a261039560015f5160206125e85f395f51905f5255565b63ade9040960e01b5f5260045ffd5b604090600319011261020957600435906024356001600160a01b03811681036102095790565b346102095761060c6105e9366105b2565b90610607610602825f525f602052600160405f20015490565b611b5a565b611e4a565b005b346102095761061c366105b2565b336001600160a01b038216036106355761060c91611ed6565b63334bd91960e11b5f5260045ffd5b34610209576020366003190112610209576004355f526007602052602060ff60405f2054166040519015158152f35b34610209576040366003190112610209576004356024356001600160401b0381116102095780600401916101a06003198336030112610209576106ce906106b8611b92565b6106c0611bad565b5f52600260205260405f2090565b906106e06102a7600984015460ff1690565b6103d457610184810135801515908161086f575b5061086057610144810135916008810154830361085157604080516101648401356020820190815291810185905261072f816060810161031c565b51902061074e610747825f52600560205260405f2090565b5460ff1690565b610842576107719161076c61034587935f52600560205260405f2090565b611f95565b918215610842577fe4b0d806ba76f443af6e456fc9f1f610813c6d09c9208e355fff689e8748450f6108176107ff6103a5966107b76107b2600a5460010190565b600a55565b6101046107c761051136846113b4565b6107d76105113660448b016113b4565b6107f460c48a01359161031c604051938492602084019687611402565b519020960190611420565b60408051918252426020830152909283925090820190565b0390a361083060015f5160206125e85f395f51905f5255565b60405190151581529081906020820190565b6309bde33960e01b5f5260045ffd5b63672a460f60e11b5f5260045ffd5b63b67a771360e01b5f5260045ffd5b905042115f6106f4565b34610209575f36600319011261020957610891611a9c565b60015460ff8116156108d05760ff19166001557f5db9ee0a495bf2e6ff9c91a7834c1ba4fdd244a5e8aa4e537bd38aeae4b073aa6020604051338152a1005b638dfc202b60e01b5f5260045ffd5b9181601f84011215610209578235916001600160401b038311610209576020838186019501011161020957565b346102095760c0366003190112610209576004356109293661021e565b60a435906001600160401b0382116102095760209261094f6109579336906004016108df565b9290916114b3565b6040519015158152f35b34610209575f36600319011261020957602060ff600154166040519015158152f35b34610209576020366003190112610209576004355f60a06040516109a681611358565b82815282602082015282604082015282606082015282608082015201525f5260036020526103a560405f2060ff6005604051926109e284611358565b8054845260018101546020850152600281015460408501526003810154606085015260048101546080850152015416151560a08201526040519182918291909160a08060c0830194805184526020810151602085015260408101516040850152606081015160608501526080810151608085015201511515910152565b34610209575f3660031901126102095760206040517f114e74f6ea3bd819998f78687bfcb11b140da08e9b7d222fa9c1f1ba1f2aa1228152f35b34610209575f36600319011261020957610ab1611a9c565b610ab9611b92565b600160ff19815416176001557f62e78cea01bee320cd4e420270b5ea74000d11b0c9f74754ebdbfc544b05a2586020604051338152a1005b3461020957604036600319011261020957600435602435610b10611aeb565b815f52600360205260405f2090600582019060ff825416610bc357610b7c610bbe9284837f65331a9776aa8541381ed507b282c85e8206fe2eea0a433e159f35675aaaead796556001808201555f60028201555f6003820155600442910155600160ff19825416179055565b80610ba0610b92865f52600660205260405f2090565b60015f5260205260405f2090565b5560408051918252600160208301525f908201529081906060820190565b0390a2005b63fe35a48d60e01b5f5260045ffd5b34610209575f366003190112610209576020600954604051908152f35b346102095761012036600319011261020957600435610c0d3661021e565b9060403660a31901126102095760e435906001600160401b0382116102095736602383011215610209578160040135906001600160401b038211610209573660248360061b850101116102095761060c93602461010435940191611555565b34610209576040366003190112610209576004356024356001600160401b03811161020957610c9f9036906004016101d9565b9190610ca9611b92565b610cb1611bad565b5f918315610f8757610ccb905f52600260205260405f2090565b610cdc6102a7600983015460ff1690565b6103d457906040516020810190610d1c8161031c334442879160549391835260208301526bffffffffffffffffffffffff199060601b1660408201520190565b519020610d30610d2b866116ad565b611840565b91610d42610d3d876116ad565b6118f4565b935f925b878410610dec575050505082610dc5575b6103a5837fa87750367d5f7b6fe042a923d30331365ad7bf0525ffce58ad70373f8db68b13610dac87610d8f6107b285600a546119c0565b604080519182526020820185905242908201529081906060820190565b0390a161039560015f5160206125e85f395f51905f5255565b610dd2916102a79161237b565b610ddd575f80610d57565b6377f5479760e01b5f5260045ffd5b90919295610dfb878986611943565b604080516101608301356020820190815261014084013592820192909252610e26816060810161031c565b519020610e3e610747825f52600560205260405f2090565b610f7c5791610f3d610f1a610f158b60019695610e6761034589985f52600560205260405f2090565b60408051602081018b8152918101849052610eb39190610e8a816060810161031c565b5190207f30644e72e131a029b85045b68181585d2833e84879b9709143e1f593f0000001900690565b908d8d8315610f74575b93610f0a91610ef88596610edd610ed897610ed836896113b4565b612142565b90610ee7856116ad565b91610ef28383611966565b52611966565b50610ee7610f04612190565b926116ad565b5060403691016113b4565b61225a565b610f2b610f268c6116ad565b61197a565b90610f36828b611966565b5288611966565b50610f67610f4d610f268b6116ad565b610f5687611a01565b610f60828c611966565b5289611966565b5001965b01929190610d46565b899350610ebd565b505095600190610f6b565b63c2e5347d60e01b5f5260045ffd5b3461020957602060ff610fca610fab366105b2565b905f525f845260405f209060018060a01b03165f5260205260405f2090565b54166040519015158152f35b34610209576020366003190112610209576004355f526004602052602060ff60405f2054166040519015158152f35b34610209575f3660031901126102095760206040515f8152f35b34610209576020366003190112610209576004355f526002602052608060405f20600781015490600881015490600a60ff600983015416910154916040519384526020840152151560408301526060820152f35b34610209575f3660031901126102095760206040517f39262b9a4353d0808208451e2b27a9b70cf7cba106f2db8aee690b95bbcb70d08152f35b34610209575f366003190112610209576020600a54604051908152f35b346102095761060c6110db366105b2565b906110f4610602825f525f602052600160405f20015490565b611ed6565b3461020957604036600319011261020957600435602435905f52600660205260405f20905f52602052602060405f2054604051908152f35b346102095760203660031901126102095760043561114d611a9c565b805f52600260205260ff600960405f20015416156103d457805f526002602052600960405f200160ff1981541690557f9fc39610d9863d4b622f1e4afa7bf40d31eb13ceb59dae6a300db8e20315a6a75f80a2005b34610209576080366003190112610209576004356024356044356064356001600160401b038111610209576111db9036906004016108df565b6111e6939193611aeb565b6111ee611b92565b611200855f52600360205260405f2090565b936112126102a7600587015460ff1690565b6112f95784549161125e60018701928354946040516112538161031c898c8c6020850197889290916080949284526020840152604083015260608201520190565b51902092369161146e565b6020815191012003610bc3577f65331a9776aa8541381ed507b282c85e8206fe2eea0a433e159f35675aaaead794611298610bbe9361197a565b82558381556112ac600382019586546119c0565b8555600442910155826112d86112ca885f52600660205260405f2090565b83545f5260205260405f2090565b55549254604051938493846040919493926060820195825260208201520152565b63278c86ad60e21b5f5260045ffd5b91906001600160fb1b0381116102095760051b809282370190565b92602060409694611338949381520191611308565b91825260208201520190565b634e487b7160e01b5f52604160045260245ffd5b60c081019081106001600160401b0382111761137357604052565b611344565b604081019081106001600160401b0382111761137357604052565b90601f801991011681019081106001600160401b0382111761137357604052565b9190826040910312610209576040516113cc81611378565b6020808294803584520135910152565b805191908290602001825e015f815290565b9160206040959361133893815201906113dc565b9161141360209493611419936113dc565b906113dc565b9081520190565b903590601e198136030182121561020957018035906001600160401b03821161020957602001918160051b3603831361020957565b60409061141993602096959382528682015201906113dc565b9291926001600160401b0382116113735760405191611497601f8201601f191660200184611393565b829481845281830111610209578281602093845f960137010152565b6114c8909392935f52600360205260405f2090565b6114d96102a7600583015460ff1690565b6112f9576040820135906001810154820361154c5761151c90549261031c61150a61051160608401359336906113b4565b93604051948593602085019788611455565b51902061152a36838561146e565b602081519101201491821561153e57505090565b506101001115905090565b90565b50505050505f90565b929094939194611563611a2d565b61156b611b92565b811561168a576115906009611588865f52600260205260405f2090565b015460ff1690565b61167b57821561166c576115b66115af855f52600260205260405f2090565b91826116f4565b60a435600482015560c43560058201558160078201558260088201556115e660098201600160ff19825416179055565b42600a8201556006015f5b82811061164f575050829394506116287f21a3d7037f52d16f325978033395436aa416406e20c895039f1177419f5d9854936117ca565b61163d610345835f52600760205260405f2090565b604080519182526020820192909252a2565b80611666611660600193868b611753565b84611781565b016115f1565b630706e3b560e01b5f5260045ffd5b6367b4a10f60e01b5f5260045ffd5b6318dca5e960e21b5f5260045ffd5b634e487b7160e01b5f52601160045260245ffd5b908160011b91808304600214901517156116c357565b611699565b906006820291808304600614901517156116c357565b908160051b91808304602014901517156116c357565b90805f5b6002811061172b5750506040015f5b6002811061171457505050565b600190602083359301926002828601015501611707565b6001906020833593019281860155016116f8565b634e487b7160e01b5f52603260045260245ffd5b91908110156117635760061b0190565b61173f565b8054821015611763575f5260205f209060011b01905f90565b8054600160401b8110156113735761179e91600182018155611768565b9190916117b7578035825560200135600190910155565b565b634e487b7160e01b5f525f60045260245ffd5b600854600160401b8110156113735760018101806008558110156117635760085f527ff3f7a9fe364faab93b216da50a3214154f22a0a2b415b23a84c8169e8b636ee30155565b6001600160401b0381116113735760051b60200190565b6040519061183582611378565b5f6020838281520152565b9061184a82611811565b6118576040519182611393565b8281528092611868601f1991611811565b01905f5b82811061187857505050565b602090611883611828565b8282850101520161186c565b6040519061189e602083611393565b6020368337565b604051906101806118b68184611393565b368337565b604051906118c882611378565b81602060409182516118da8482611393565b8336823781528251926118ed8185611393565b3684370152565b906118fe82611811565b61190b6040519182611393565b828152809261191c601f1991611811565b01905f5b82811061192c57505050565b6020906119376118bb565b82828501015201611920565b91908110156117635760051b8101359061019e1981360301821215610209570190565b80518210156117635760209160051b010190565b90600182018092116116c357565b90600282018092116116c357565b90600382018092116116c357565b90600482018092116116c357565b90600582018092116116c357565b919082018092116116c357565b60405191905f835b600282106119eb575050506117b5604083611393565b60016020819285548152019301910190916119d5565b90604051611a0e81611378565b6020611a2860028395611a20816119cd565b8552016119cd565b910152565b335f9081527ff9c002f57bb53b4d861ae1ef1369a8087d06c8210e4846f897918d0e534663ce602052604090205460ff1615611a6557565b63e2517d3f60e01b5f52336004527f114e74f6ea3bd819998f78687bfcb11b140da08e9b7d222fa9c1f1ba1f2aa12260245260445ffd5b335f9081527fad3228b676f7d3cd4284a5443f17f1962b36e491b30a40b2405849e597ba5fb5602052604090205460ff1615611ad457565b63e2517d3f60e01b5f52336004525f60245260445ffd5b335f9081527f1e06eaae1a47c87db712f3b1c7f9d864d863c85b51eac14e1af4f87be0be2959602052604090205460ff1615611b2357565b63e2517d3f60e01b5f52336004527f39262b9a4353d0808208451e2b27a9b70cf7cba106f2db8aee690b95bbcb70d060245260445ffd5b5f8181526020818152604080832033845290915290205460ff1615611b7c5750565b63e2517d3f60e01b5f523360045260245260445ffd5b60ff60015416611b9e57565b63d93c066560e01b5f5260045ffd5b60025f5160206125e85f395f51905f525414611bd65760025f5160206125e85f395f51905f5255565b633ee5aeb560e01b5f5260045ffd5b90604051611bf281611378565b602060018294805484520154910152565b90156117635790565b91908110156117635760051b0190565b9190611c26611828565b50611c5b604051611c3681611378565b6001815260026020820152611c556060870135610ed860048801611be5565b906124bd565b915f915b818310611cb05750505090611c8d6115499392611c55611c876040860135610ed836886113b4565b9161225a565b90611caa611ca4611c9c612190565b9436906113b4565b91611a01565b90612514565b909192611cdf600191611c55611cc98760068a01611768565b50610ed8611cd8898989611c0c565b3591611be5565b93019190611c5f565b9091611cf26125b2565b5f5b60e08501611d028187611420565b9050821015611d57576006850180548310611d22575b5050600101611cf4565b92611c55611d4f92610ed8611cd886611d49611d418260019a9b611768565b50948d611420565b90611c0c565b91905f611d18565b50919360c0810135935060808101925083611d7236856113b4565b90611d7c91612142565b611d8636836113b4565b90611d90916124bd565b5036611d9b916113b4565b611da490611e26565b9136611daf916113b4565b611db890611e26565b90611dc290611e26565b90604051918291602083019485611dd8916113dc565b611de1916113dc565b611dea916113dc565b03601f1981018252611dfc9082611393565b5190207f30644e72e131a029b85045b68181585d2833e84879b9709143e1f593f000000190061490565b60208151910151604051916020830152604082015260408152611549606082611393565b5f818152602081815260408083206001600160a01b038616845290915290205460ff16611ed0575f818152602081815260408083206001600160a01b03861684529091529020805460ff1916600117905533916001600160a01b0316907f2f8788117e7eff1d82e926ec794901d17c78024a50270940304540a733656f0d5f80a4600190565b50505f90565b5f818152602081815260408083206001600160a01b038616845290915290205460ff1615611ed0575f818152602081815260408083206001600160a01b03861684529091529020805460ff1916905533916001600160a01b0316907ff6391f5c32d9c69d2a47ea670b442974b53935d1edc7fd64eb21e047a839171b5f80a4600190565b5f1981146116c35760010190565b611549989693611413611f86946114136114139460409a99966113dc565b91825260208201520191611308565b9190611f9f612190565b91611fd06102a76040840194611fb536866113b4565b90611fc036886113b4565b90611fca89611a01565b926125d3565b61213a579060e0810190611ffd611ff0611fea8484611420565b90611c03565b35610ed860048801611be5565b916001935f905f945b6007890154861080612126575b156120ad57886101008601878561202a838a611420565b905081109283612093575b50505061207d5761206a61207692611c5588610ed8611cd88d611d498c8f6120639060066120709c01611768565b5095611420565b97611f5a565b95611f5a565b9495612006565b5095949161208d61207691611f5a565b92611f5a565b6120a3929350611d49908a611420565b351487855f612035565b925096505060c0935061211f9250939093610e8a6120d4610511611c9c610511368a6113b4565b61031c6120f06120ea6105113660808c016113b4565b94611e26565b610140890135906101608a013561210b6101208c018c611420565b939092604051988997602089019b8c611f68565b9101351490565b506121318486611420565b90508710612013565b925050505f90565b91906040906060612151611828565b94859260208551926121638585611393565b8436853780518452015160208301528482015260075afa1561218157565b635cb5299360e11b5f5260045ffd5b6121986118bb565b506040516121a581611378565b7f1800deef121f1e76426a00665e5c4479674322d4f75edadd46debd5cd992f6ed81527f198e9393920d483a7260bfb731fb5d25f1aa493335a9e71297e485b7aef312c260208201526040516121fa81611378565b7f12c85ea5db8c6deb4aab71808dcb408fe3d1e7690c43d37b4ce6cc0166fa7daa81527f090689d0585ff075ec9e99ad690c3395bc4b313370b38ef355acdadcd122975b60208201526040519161225083611378565b8252602082015290565b612262611828565b50805115806122f8575b6122ef577f30644e72e131a029b85045b68181585d97816a916871ca8d3c208c16d87cfd4760208251920151067f30644e72e131a029b85045b68181585d97816a916871ca8d3c208c16d87cfd47037f30644e72e131a029b85045b68181585d97816a916871ca8d3c208c16d87cfd4781116116c3576040519161225083611378565b506115496125b2565b5060208101511561226c565b1561230b57565b60405162461bcd60e51b81526020600482015260166024820152750849c646a687440d8cadccee8d040dad2e6dac2e8c6d60531b6044820152606490fd5b9061235382611811565b6123606040519182611393565b8281528092612371601f1991611811565b0190602036910137565b91909161238b8151845114612304565b805190612397826116c8565b916123a183612349565b915f5b8281106123f0575050506123cc9293506123d691602091826123c461188f565b9586936116de565b910160085afa1590565b6123e1575160011490565b6349541ea960e11b5f5260045ffd5b80826124b66124b06124a960206124a0868e8c6124418561242e8561241660019f6116c8565b9c8d610ef26124258484611966565b51519188611966565b5101519161243b8b61197a565b90611966565b528c61245d6124508484611966565b5151519161243b8b611988565b528c61248261247761246f8585611966565b515160200190565b519161243b8b611996565b528c610ef2856124928585611966565b510151519161243b8b6119a4565b51015160200190565b51926119b2565b87611966565b52016123a4565b6020929160806040926124ce611828565b958693818651936124df8686611393565b85368637805185520151828401528051868401520151606082015260065afa1561250557565b635962de8b60e01b5f5260045ffd5b612598602061018095816123d696612561828098816125316118a5565b8a51815299015160208a015280515160408a015280516020015160608a015201805151608089015b525160200190565b5160a0870152805160c0870152015160e0850152805151610100850152805160200151610120850152018051516101408401612559565b516101608201526125a761188f565b93849160085afa1590565b6125ba611828565b506040516125c781611378565b5f81525f602082015290565b906125e1611549949361225a565b9161251456fe9b779b17422d0df92223018b32b4d1fa46e071723d6817e2486d003becc55f00a2646970667358221220d1b2599f0e7f4ec6f61c7a03ecebfbf53cd602937abf5260bb31a415ecdb083564736f6c634300081c00332f8788117e7eff1d82e926ec794901d17c78024a50270940304540a733656f0df9c002f57bb53b4d861ae1ef1369a8087d06c8210e4846f897918d0e534663ce1e06eaae1a47c87db712f3b1c7f9d864d863c85b51eac14e1af4f87be0be2959ad3228b676f7d3cd4284a5443f17f1962b36e491b30a40b2405849e597ba5fb5","linkReferences":{}},"methodIdentifiers":{"ACCUMULATOR_MANAGER_ROLE()":"b4b0291c","DEFAULT_ADMIN_ROLE()":"a217fddf","ISSUER_ROLE()":"82aefa24","batchVerifyProofs(bytes32,((uint256,uint256),(uint256,uint256),(uint256,uint256),uint256,uint256[],uint256[],uint256[],bytes32,uint256,uint256)[])":"8cbd8227","getAccumulatorState(bytes32)":"6c2761ba","getHistoricalRoot(bytes32,uint256)":"e57f7757","getIssuerKeyInfo(bytes32)":"a90f0388","getRoleAdmin(bytes32)":"248a9ca3","grantRole(bytes32,address)":"2f2ff15d","hasRole(bytes32,address)":"91d14854","initializeAccumulator(bytes32,bytes32)":"8463f45a","isCredentialIssued(bytes32)":"9800e2b0","isDomainRegistered(bytes32)":"3c01f2d1","issueBlindedCredential(bytes32,((uint256,uint256),uint256[],uint256[],(uint256,uint256),uint256,uint256[]),((uint256,uint256),uint256,uint256))":"2ae8999d","issueCredential(bytes32,uint256[],((uint256,uint256),uint256,uint256))":"014efd78","pause()":"8456cb59","paused()":"5c975abb","registerIssuerKey(bytes32,(uint256[2],uint256[2]),(uint256,uint256),(uint256,uint256)[],bytes32)":"8ae35aae","renounceRole(bytes32,address)":"36568abe","revokeIssuerKey(bytes32)":"e583144d","revokeRole(bytes32,address)":"d547741f","supportsInterface(bytes4)":"01ffc9a7","totalCredentialsIssued()":"849bfa04","totalProofsVerified()":"d246a2a3","unpause()":"3f4ba83a","updateAccumulator(bytes32,bytes32,uint256,bytes)":"fdb7b991","verifyNonRevocation(bytes32,((uint256,uint256),uint256,bytes32),bytes)":"4e03f9c3","verifySelectiveDisclosure(bytes32,((uint256,uint256),(uint256,uint256),(uint256,uint256),uint256,uint256[],uint256[],uint256[],bytes32,uint256,uint256))":"3c283a9e"},"id":2}