{"abi":[{"type":"constructor","inputs":[{"name":"admin","type":"address","internalType":"address"}],"stateMutability":"nonpayable"},{"type":"function","name":"ADMIN_ROLE","inputs":[],"outputs":[{"name":"","type":"bytes32","internalType":"bytes32"}],"stateMutability":"view"},{"type":"function","name":"CIRCUIT_MANAGER_ROLE","inputs":[],"outputs":[{"name":"","type":"bytes32","internalType":"bytes32"}],"stateMutability":"view"},{"type":"function","name":"DEFAULT_ADMIN_ROLE","inputs":[],"outputs":[{"name":"","type":"bytes32","internalType":"bytes32"}],"stateMutability":"view"},{"type":"function","name":"GOVERNANCE_ROLE","inputs":[],"outputs":[{"name":"","type":"bytes32","internalType":"bytes32"}],"stateMutability":"view"},{"type":"function","name":"circuitCount","inputs":[],"outputs":[{"name":"","type":"uint256","internalType":"uint256"}],"stateMutability":"view"},{"type":"function","name":"deactivateCircuit","inputs":[{"name":"circuitId","type":"bytes32","internalType":"bytes32"}],"outputs":[],"stateMutability":"nonpayable"},{"type":"function","name":"getCircuitStats","inputs":[{"name":"circuitId","type":"bytes32","internalType":"bytes32"}],"outputs":[{"name":"isActive","type":"bool","internalType":"bool"},{"name":"registeredAt","type":"uint64","internalType":"uint64"},{"name":"updatedAt","type":"uint64","internalType":"uint64"},{"name":"verificationCount","type":"uint32","internalType":"uint32"},{"name":"icLength","type":"uint256","internalType":"uint256"}],"stateMutability":"view"},{"type":"function","name":"getProofRecord","inputs":[{"name":"proofHash","type":"bytes32","internalType":"bytes32"}],"outputs":[{"name":"","type":"tuple","internalType":"struct ZKCredentialVerifier.ProofRecord","components":[{"name":"circuitId","type":"bytes32","internalType":"bytes32"},{"name":"nullifier","type":"bytes32","internalType":"bytes32"},{"name":"verifier","type":"address","internalType":"address"},{"name":"verifiedAt","type":"uint64","internalType":"uint64"},{"name":"valid","type":"bool","internalType":"bool"}]}],"stateMutability":"view"},{"type":"function","name":"getRoleAdmin","inputs":[{"name":"role","type":"bytes32","internalType":"bytes32"}],"outputs":[{"name":"","type":"bytes32","internalType":"bytes32"}],"stateMutability":"view"},{"type":"function","name":"grantRole","inputs":[{"name":"role","type":"bytes32","internalType":"bytes32"},{"name":"account","type":"address","internalType":"address"}],"outputs":[],"stateMutability":"nonpayable"},{"type":"function","name":"hasRole","inputs":[{"name":"role","type":"bytes32","internalType":"bytes32"},{"name":"account","type":"address","internalType":"address"}],"outputs":[{"name":"","type":"bool","internalType":"bool"}],"stateMutability":"view"},{"type":"function","name":"isCircuitRegistered","inputs":[{"name":"circuitId","type":"bytes32","internalType":"bytes32"}],"outputs":[{"name":"","type":"bool","internalType":"bool"}],"stateMutability":"view"},{"type":"function","name":"isNullifierUsed","inputs":[{"name":"nullifier","type":"bytes32","internalType":"bytes32"}],"outputs":[{"name":"","type":"bool","internalType":"bool"}],"stateMutability":"view"},{"type":"function","name":"pause","inputs":[],"outputs":[],"stateMutability":"nonpayable"},{"type":"function","name":"paused","inputs":[],"outputs":[{"name":"","type":"bool","internalType":"bool"}],"stateMutability":"view"},{"type":"function","name":"renounceRole","inputs":[{"name":"role","type":"bytes32","internalType":"bytes32"},{"name":"callerConfirmation","type":"address","internalType":"address"}],"outputs":[],"stateMutability":"nonpayable"},{"type":"function","name":"revokeRole","inputs":[{"name":"role","type":"bytes32","internalType":"bytes32"},{"name":"account","type":"address","internalType":"address"}],"outputs":[],"stateMutability":"nonpayable"},{"type":"function","name":"setVerificationKey","inputs":[{"name":"circuitId","type":"bytes32","internalType":"bytes32"},{"name":"alpha","type":"uint256[2]","internalType":"uint256[2]"},{"name":"beta","type":"uint256[2][2]","internalType":"uint256[2][2]"},{"name":"gamma","type":"uint256[2][2]","internalType":"uint256[2][2]"},{"name":"delta","type":"uint256[2][2]","internalType":"uint256[2][2]"},{"name":"ic","type":"uint256[2][]","internalType":"uint256[2][]"}],"outputs":[],"stateMutability":"nonpayable"},{"type":"function","name":"supportsInterface","inputs":[{"name":"interfaceId","type":"bytes4","internalType":"bytes4"}],"outputs":[{"name":"","type":"bool","internalType":"bool"}],"stateMutability":"view"},{"type":"function","name":"totalVerifications","inputs":[],"outputs":[{"name":"","type":"uint256","internalType":"uint256"}],"stateMutability":"view"},{"type":"function","name":"unpause","inputs":[],"outputs":[],"stateMutability":"nonpayable"},{"type":"function","name":"verifyAndRecord","inputs":[{"name":"circuitId","type":"bytes32","internalType":"bytes32"},{"name":"proof","type":"tuple","internalType":"struct Groth16Proof","components":[{"name":"a","type":"uint256[2]","internalType":"uint256[2]"},{"name":"b","type":"uint256[2][2]","internalType":"uint256[2][2]"},{"name":"c","type":"uint256[2]","internalType":"uint256[2]"}]},{"name":"publicInputs","type":"uint256[]","internalType":"uint256[]"},{"name":"nullifier","type":"bytes32","internalType":"bytes32"}],"outputs":[{"name":"valid","type":"bool","internalType":"bool"}],"stateMutability":"nonpayable"},{"type":"function","name":"verifyProof","inputs":[{"name":"circuitId","type":"bytes32","internalType":"bytes32"},{"name":"proof","type":"tuple","internalType":"struct Groth16Proof","components":[{"name":"a","type":"uint256[2]","internalType":"uint256[2]"},{"name":"b","type":"uint256[2][2]","internalType":"uint256[2][2]"},{"name":"c","type":"uint256[2]","internalType":"uint256[2]"}]},{"name":"publicInputs","type":"uint256[]","internalType":"uint256[]"}],"outputs":[{"name":"","type":"bool","internalType":"bool"}],"stateMutability":"view"},{"type":"event","name":"CircuitDeactivated","inputs":[{"name":"circuitId","type":"bytes32","indexed":true,"internalType":"bytes32"},{"name":"timestamp","type":"uint64","indexed":false,"internalType":"uint64"}],"anonymous":false},{"type":"event","name":"CircuitRegistered","inputs":[{"name":"circuitId","type":"bytes32","indexed":true,"internalType":"bytes32"},{"name":"icLength","type":"uint256","indexed":false,"internalType":"uint256"},{"name":"timestamp","type":"uint64","indexed":false,"internalType":"uint64"}],"anonymous":false},{"type":"event","name":"NullifierUsed","inputs":[{"name":"nullifier","type":"bytes32","indexed":true,"internalType":"bytes32"},{"name":"circuitId","type":"bytes32","indexed":true,"internalType":"bytes32"}],"anonymous":false},{"type":"event","name":"Paused","inputs":[{"name":"account","type":"address","indexed":false,"internalType":"address"}],"anonymous":false},{"type":"event","name":"ProofVerified","inputs":[{"name":"proofHash","type":"bytes32","indexed":true,"internalType":"bytes32"},{"name":"credentialHash","type":"bytes32","indexed":true,"internalType":"bytes32"},{"name":"valid","type":"bool","indexed":false,"internalType":"bool"}],"anonymous":false},{"type":"event","name":"RoleAdminChanged","inputs":[{"name":"role","type":"bytes32","indexed":true,"internalType":"bytes32"},{"name":"previousAdminRole","type":"bytes32","indexed":true,"internalType":"bytes32"},{"name":"newAdminRole","type":"bytes32","indexed":true,"internalType":"bytes32"}],"anonymous":false},{"type":"event","name":"RoleGranted","inputs":[{"name":"role","type":"bytes32","indexed":true,"internalType":"bytes32"},{"name":"account","type":"address","indexed":true,"internalType":"address"},{"name":"sender","type":"address","indexed":true,"internalType":"address"}],"anonymous":false},{"type":"event","name":"RoleRevoked","inputs":[{"name":"role","type":"bytes32","indexed":true,"internalType":"bytes32"},{"name":"account","type":"address","indexed":true,"internalType":"address"},{"name":"sender","type":"address","indexed":true,"internalType":"address"}],"anonymous":false},{"type":"event","name":"Unpaused","inputs":[{"name":"account","type":"address","indexed":false,"internalType":"address"}],"anonymous":false},{"type":"event","name":"VerificationKeyUpdated","inputs":[{"name":"circuitId","type":"bytes32","indexed":true,"internalType":"bytes32"},{"name":"timestamp","type":"uint64","indexed":false,"internalType":"uint64"}],"anonymous":false},{"type":"error","name":"AccessControlBadConfirmation","inputs":[]},{"type":"error","name":"AccessControlUnauthorizedAccount","inputs":[{"name":"account","type":"address","internalType":"address"},{"name":"neededRole","type":"bytes32","internalType":"bytes32"}]},{"type":"error","name":"CircuitAlreadyRegistered","inputs":[{"name":"circuitId","type":"bytes32","internalType":"bytes32"}]},{"type":"error","name":"CircuitNotActive","inputs":[{"name":"circuitId","type":"bytes32","internalType":"bytes32"}]},{"type":"error","name":"CircuitNotRegistered","inputs":[{"name":"circuitId","type":"bytes32","internalType":"bytes32"}]},{"type":"error","name":"EnforcedPause","inputs":[]},{"type":"error","name":"ExpectedPause","inputs":[]},{"type":"error","name":"InputOutOfField","inputs":[{"name":"input","type":"uint256","internalType":"uint256"}]},{"type":"error","name":"InvalidICLength","inputs":[{"name":"expected","type":"uint256","internalType":"uint256"},{"name":"actual","type":"uint256","internalType":"uint256"}]},{"type":"error","name":"InvalidInputCount","inputs":[{"name":"expected","type":"uint256","internalType":"uint256"},{"name":"actual","type":"uint256","internalType":"uint256"}]},{"type":"error","name":"InvalidProofPoint","inputs":[]},{"type":"error","name":"NullifierAlreadyUsed","inputs":[{"name":"nullifier","type":"bytes32","internalType":"bytes32"}]},{"type":"error","name":"PairingFailed","inputs":[]},{"type":"error","name":"ReentrancyGuardReentrantCall","inputs":[]}],"bytecode":{"object":"0x6080346100e257601f611dfd38819003918201601f19168301916001600160401b038311848410176100e6578084926020946040528339810103126100e257516001600160a01b0381168082036100e25760017f9b779b17422d0df92223018b32b4d1fa46e071723d6817e2486d003becc55f0055156100b057806100866100a0926100fa565b5061009081610170565b5061009a81610203565b50610296565b50604051611a33908161032a8239f35b60405162461bcd60e51b815260206004820152600a6024820152692d32b9379030b236b4b760b11b6044820152606490fd5b5f80fd5b634e487b7160e01b5f52604160045260245ffd5b6001600160a01b0381165f9081525f516020611ddd5f395f51905f52602052604090205460ff1661016b576001600160a01b03165f8181525f516020611ddd5f395f51905f5260205260408120805460ff191660011790553391905f516020611d5d5f395f51905f528180a4600190565b505f90565b6001600160a01b0381165f9081525f516020611d9d5f395f51905f52602052604090205460ff1661016b576001600160a01b03165f8181525f516020611d9d5f395f51905f5260205260408120805460ff191660011790553391907fa49807205ce4d355092ef5a8a18f56e8913cf4a201fbe287825b095693c21775905f516020611d5d5f395f51905f529080a4600190565b6001600160a01b0381165f9081525f516020611dbd5f395f51905f52602052604090205460ff1661016b576001600160a01b03165f8181525f516020611dbd5f395f51905f5260205260408120805460ff191660011790553391907f71840dc4906352362b0cdaf79870196c8e42acafade72d5d5a6d59291253ceb1905f516020611d5d5f395f51905f529080a4600190565b6001600160a01b0381165f9081525f516020611d7d5f395f51905f52602052604090205460ff1661016b576001600160a01b03165f8181525f516020611d7d5f395f51905f5260205260408120805460ff191660011790553391907f989ba6b16cc6d6383d1f04b2c67f311e853dd18b04e2a41b2e901e2ae6fe3380905f516020611d5d5f395f51905f529080a460019056fe60806040526004361015610011575f80fd5b5f3560e01c806301ffc9a71461018457806322dc7b4c1461017f578063248a9ca31461017a5780632f2ff15d1461017557806336568abe146101705780633822f2fc1461016b5780633ccc9022146101665780633f4ba83a146101615780634840d1231461015c5780635c975abb1461015757806374fbd6bc1461015257806375b238fc1461014d5780637eab19ce146101485780638456cb591461014357806391d148541461013e578063a217fddf14610139578063a2423cb814610134578063ac90c1401461012f578063d547741f1461012a578063d7928b6314610125578063d88b1f2214610120578063f36c8f5c1461011b5763fb1b7ddd14610116575f80fd5b610b0e565b610ad4565b610ab7565b610a60565b610a31565b610a14565b610980565b610966565b610926565b6108ce565b6105d8565b61055c565b61052a565b610508565b610422565b6103bc565b610382565b6102fb565b61029b565b610265565b61020d565b6101de565b346101da5760203660031901126101da5760043563ffffffff60e01b81168091036101da57602090637965db0b60e01b81149081156101c9575b506040519015158152f35b6301ffc9a760e01b1490505f6101be565b5f80fd5b346101da5760203660031901126101da576004355f526004602052602060ff60405f2054166040519015158152f35b346101da5760203660031901126101da5760206102376004355f525f602052600160405f20015490565b604051908152f35b60409060031901126101da57600435906024356001600160a01b03811681036101da5790565b346101da576102996102763661023f565b9061029461028f825f525f602052600160405f20015490565b611222565b61125a565b005b346101da576102a93661023f565b336001600160a01b038216036102c257610299916112e6565b63334bd91960e11b5f5260045ffd5b9060649160e4116101da57565b9060e491610164116101da57565b90610164916101e4116101da57565b346101da576102003660031901126101da57600435366064116101da57610321366102d1565b61032a366102de565b91610334366102ec565b6101e435936001600160401b0385116101da57366023860112156101da578460040135936001600160401b0385116101da573660248660061b880101116101da576024610299960193610ba4565b346101da575f3660031901126101da5760206040517f989ba6b16cc6d6383d1f04b2c67f311e853dd18b04e2a41b2e901e2ae6fe33808152f35b346101da575f3660031901126101da576103d4611144565b60015460ff8116156104135760ff19166001557f5db9ee0a495bf2e6ff9c91a7834c1ba4fdd244a5e8aa4e537bd38aeae4b073aa6020604051338152a1005b638dfc202b60e01b5f5260045ffd5b346101da5760203660031901126101da576004355f608060405161044581610e93565b82815282602082015282604082015282606082015201525f52600560205261050460405f2060ff60026040519261047b84610e93565b8054845260018101546020850152015460018060a01b03811660408401526001600160401b038160a01c16606084015260e01c16151560808201526040519182918291909160808060a0830194805184526020810151602085015260018060a01b0360408201511660408501526001600160401b03606082015116606085015201511515910152565b0390f35b346101da575f3660031901126101da57602060ff600154166040519015158152f35b346101da5760203660031901126101da576004355f526002602052602060ff600f60405f200154166040519015158152f35b346101da575f3660031901126101da5760206040517fa49807205ce4d355092ef5a8a18f56e8913cf4a201fbe287825b095693c217758152f35b6101009060231901126101da57602490565b9181601f840112156101da578235916001600160401b0383116101da576020808501948460051b0101116101da57565b346101da576101603660031901126101da576004356105f636610596565b610124356001600160401b0381116101da576106169036906004016105a8565b92909161014435936106266113b6565b60027f9b779b17422d0df92223018b32b4d1fa46e071723d6817e2486d003becc55f0054146108bf5760027f9b779b17422d0df92223018b32b4d1fa46e071723d6817e2486d003becc55f005561068f610688865f52600460205260405f2090565b5460ff1690565b6108aa5781816107186106c97f93d4ed78b89f39dcd2420a893e1b1e1de5b0eebd04d5982192df6853a0b5e87b94886105049a97896114d3565b966106ec6106df875f52600460205260405f2090565b805460ff19166001179055565b61070a604051938492602084019660c08101906040810190896110dd565b03601f198101835282610eb3565b51902091846107cc610728610ed4565b86815260208101849052336040820152426001600160401b031660608201528215156080820152610761865f52600560205260405f2090565b8151815560208201516001820155604082015160029190910180546060840151608094909401516001600160e81b03199091166001600160a01b03939093169290921760a09390931b67ffffffffffffffff60a01b169290921790151560e01b60ff60e01b16179055565b61083e575b83604051917f7bf7b383fa73202309da50f1feabeff4936f245a2f469ad667e684555c92eb2b5f80a38415158152602090a361082c60017f9b779b17422d0df92223018b32b4d1fa46e071723d6817e2486d003becc55f0055565b60405190151581529081906020820190565b610891600f610855865f52600260205260405f2090565b0180546108719060881c63ffffffff1660010163ffffffff1690565b815463ffffffff60881b191660889190911b63ffffffff60881b16179055565b6108a56108a060065460010190565b600655565b6107d1565b632920f74160e21b5f52600485905260245b5ffd5b633ee5aeb560e01b5f5260045ffd5b346101da575f3660031901126101da576108e6611144565b6108ee6113b6565b600160ff19815416176001557f62e78cea01bee320cd4e420270b5ea74000d11b0c9f74754ebdbfc544b05a2586020604051338152a1005b346101da57602060ff61095a61093b3661023f565b905f525f845260405f209060018060a01b03165f5260205260405f2090565b54166040519015158152f35b346101da575f3660031901126101da5760206040515f8152f35b346101da5760203660031901126101da576004355f52600260205260405f20600e600f82015491015490610504604051928263ffffffff859460881c16906001600160401b038160481c169060ff6001600160401b038260081c1691168691936001600160401b036080948163ffffffff9499989760a087019a151587521660208601521660408401521660608201520152565b346101da575f3660031901126101da576020600654604051908152f35b346101da57610299610a423661023f565b90610a5b61028f825f525f602052600160405f20015490565b6112e6565b346101da576101403660031901126101da57600435610a7e36610596565b61012435906001600160401b0382116101da57602092610aa5610aad9336906004016105a8565b9290916114d3565b6040519015158152f35b346101da575f3660031901126101da576020600354604051908152f35b346101da575f3660031901126101da5760206040517f71840dc4906352362b0cdaf79870196c8e42acafade72d5d5a6d59291253ceb18152f35b346101da5760203660031901126101da57600435610b2a6111b3565b805f52600260205260ff600f60405f2001541615610b92575f81815260026020908152604091829020600f01805460ff1916905590516001600160401b03421681527ff6062155b862998ec16875345b5e804c6e1fbeed2dd8a946eebedf15b541f23f9190a2005b63b22c972360e01b5f5260045260245ffd5b9493909192610bb16111b3565b610bbc861515610df5565b610bc96002861015610e33565b610bdc610bd7366024610ef3565b61136a565b5f5b858110610dd65750610c0c610c08600f610c00895f52600260205260405f2090565b015460ff1690565b1590565b9384610d91575b90610c4e610c5792610c45610c308a5f52600260205260405f2090565b96610c3c602489610f7a565b60028801610f9e565b60068601610f9e565b600a8401610f9e565b600f8201805460ff1916600117815591600e01610c7381610fcc565b5f5b858110610d745750505091610ce8610d02927fb4a8afee05bbdc1d91b9885979ff9c7c1684c32aa1fdcfae3ca8e01d787b36bb94866001600160401b03421694858094610d07575b5050509067ffffffffffffffff60481b82549160481b169067ffffffffffffffff60481b1916179055565b6040516001600160401b0390911681529081906020820190565b0390a2565b835468ffffffffffffffff001916600882901b68ffffffffffffffff00161784557fb5ef691b753082d8226daabc6d49a5c9adaf0af226cd38375d374aa0ddb9ed7291610d5384611096565b604080519182526001600160401b03929092166020820152a2865f83610cbd565b80610d8b610d856001938987610f51565b84611056565b01610c75565b9350610c5790610c4e6001600160401b03610dca600f610db98b5f52600260205260405f2090565b015460081c6001600160401b031690565b16159591925050610c13565b80610def610bd7610dea6001948a88610f51565b610f2f565b01610bde565b15610dfc57565b60405162461bcd60e51b815260206004820152600f60248201526e16995c9bc818da5c98dd5a5d081251608a1b6044820152606490fd5b15610e3a57565b60405162461bcd60e51b815260206004820152601e60248201527f4943206d7573742068617665206174206c65617374203220706f696e747300006044820152606490fd5b634e487b7160e01b5f52604160045260245ffd5b60a081019081106001600160401b03821117610eae57604052565b610e7f565b90601f801991011681019081106001600160401b03821117610eae57604052565b60405190610ee360a083610eb3565b565b90610ee36040519283610eb3565b919060405192610f04604085610eb3565b8390604081019283116101da57905b828210610f1f57505050565b8135815260209182019101610f13565b610f3a903690610ef3565b90565b634e487b7160e01b5f52603260045260245ffd5b9190811015610f615760061b0190565b610f3d565b634e487b7160e01b5f52601160045260245ffd5b905f5b60028110610f8a57505050565b600190602083359301928185015501610f7d565b905f905b60028210610faf57505050565b6002604082610fc060019487610f7a565b01930191019091610fa2565b8054905f815581610fdb575050565b6001600160ff1b0382168203611026575f5260205f209060011b8101905b818110611004575050565b60028101815b81811061101b575050600201610ff9565b5f815560010161100a565b610f66565b805415610f61575f5260205f20905f90565b8054821015610f61575f5260205f209060011b01905f90565b8054600160401b811015610eae576110739160018201815561103d565b91909161108357610ee391610f7a565b634e487b7160e01b5f525f60045260245ffd5b600354600160401b811015610eae576001810180600355811015610f615760035f527fc2575a0e9e593c00f959f8c92f12db2869c3395a3b0502d05e2516446f71f85b0155565b92919060409084375f604084015b6002821061112e5750505060409060c0830137610120610100820181905281018390526001600160fb1b0383116101da576101409260051b809284830137010190565b60408082818660019537019301910190916110eb565b335f9081527f7d7ffb7a348e1c6a02869081a26547b49160dd3df72d1d75a570eb9b698292ec602052604090205460ff161561117c57565b63e2517d3f60e01b5f52336004527fa49807205ce4d355092ef5a8a18f56e8913cf4a201fbe287825b095693c2177560245260445ffd5b335f9081527f6a112c2d81bdd237e93d567819c31ae1d3f46752b23ad7c5dbb3951914f4011a602052604090205460ff16156111eb57565b63e2517d3f60e01b5f52336004527f989ba6b16cc6d6383d1f04b2c67f311e853dd18b04e2a41b2e901e2ae6fe338060245260445ffd5b5f8181526020818152604080832033845290915290205460ff16156112445750565b63e2517d3f60e01b5f523360045260245260445ffd5b5f818152602081815260408083206001600160a01b038616845290915290205460ff166112e0575f818152602081815260408083206001600160a01b03861684529091529020805460ff1916600117905533916001600160a01b0316907f2f8788117e7eff1d82e926ec794901d17c78024a50270940304540a733656f0d5f80a4600190565b50505f90565b5f818152602081815260408083206001600160a01b038616845290915290205460ff16156112e0575f818152602081815260408083206001600160a01b03861684529091529020805460ff1916905533916001600160a01b0316907ff6391f5c32d9c69d2a47ea670b442974b53935d1edc7fd64eb21e047a839171b5f80a4600190565b5f5160206119de5f395f51905f528151109081159161139a575b5061138b57565b63aff80bb760e01b5f5260045ffd5b5f5160206119de5f395f51905f5291506020015110155f611384565b60ff600154166113c257565b63d93c066560e01b5f5260045ffd5b5f1981019190821161102657565b9190811015610f615760051b0190565b906001820180921161102657565b60405191905f835b6002821061141b57505050610ee3604083610eb3565b6001602081928554815201930191019091611405565b91909160409060405193611446604086610eb3565b8460808301928284116101da57905b838210611463575050505050565b82601f830112156101da576020859161147c8585610ef3565b815201910190611455565b9060405191604083018381106001600160401b03821117610eae576040525f835b600282106114b557505050565b600260206001926114c5866113fd565b8152019301910190916114a8565b90919392936114ea825f52600260205260405f2090565b91600f8301546001600160401b0361150c826001600160401b039060081c1690565b16156116e85760ff16156116d65750600e820161152981546113d1565b8087036116bf57505f5b868110611663575090611549610bd73686610ef3565b60c084019161155b610bd73685610ef3565b6115656040610ee5565b61157c5f6115728461102b565b50549060031b1c90565b81526115a061159661158d8461102b565b50600101905f90565b90549060031b1c90565b6020820152915f975b80891061161857505050610f3a9495506115d96115ce6115c93687610ef3565b61182f565b946040369101611431565b6115e2846113fd565b6115ee60028601611487565b91611612600a61160b61160360068a01611487565b973690610ef3565b9701611487565b966118b0565b9091926116586001916116528b61164d61164661163d611637846113ef565b8b61103d565b5092888a6113df565b35916113fd565b611728565b906117aa565b9801979291906115a9565b7f30644e72e131a029b85045b68181585d2833e84879b9709143e1f593f000000161168f8289866113df565b35101561169e57600101611533565b6116ac6108bc9188856113df565b637e20f49b60e11b5f5235600452602490565b632fca04b760e11b5f52600452602486905260445ffd5b63b22c972360e01b5f5260045260245ffd5b6301968bed60e61b5f52600482905260245ffd5b6040519061030061170d8184610eb3565b368337565b60405190611721602083610eb3565b6020368337565b91909160408091606082519161173e8484610eb3565b8336843782966117628551926117548585610eb3565b843685378051845260200190565b5160208301528482015260075afa156117785750565b5162461bcd60e51b815260206004820152600c60248201526b1958d35d5b0819985a5b195960a21b6044820152606490fd5b9190916040809160808251916117c08484610eb3565b8336843760208397818651936117d68686610eb3565b85368637805185520151828401528051868401520151606082015260065afa156117fd5750565b5162461bcd60e51b815260206004820152600c60248201526b1958d059190819985a5b195960a21b6044820152606490fd5b604090815161183e8382610eb3565b8236823750805115806118a4575b61189f5760205f5160206119de5f395f51905f529161186d84519485610eb3565b805184520151065f5160206119de5f395f51905f52035f5160206119de5f395f51905f52811161102657602082015290565b905090565b5060208101511561184c565b969594939291906118bf6116fc565b8851815297602001516020890152805160200151604089015280515160608901526020018051602001516080890152515160a0880152805160c08801526020015160e087015280516020015161010087015280515161012087015260200180516020015161014087015251516101608601528051610180860152602001516101a08501528051602001516101c08501528051516101e085015260200180516020015161020085015251516102208401528051610240840152602001516102608301528051602001516102808301528051516102a08301526020018051602001516102c083015251516102e08201526119b5611712565b90815a602092600861030092fa156119ce575160011490565b634df45e2f60e01b5f5260045ffdfe30644e72e131a029b85045b68181585d97816a916871ca8d3c208c16d87cfd47a2646970667358221220652e02451ce1905777f1e4e7d3a9a42c068e5a6897cb9634cfa01b3a31fabd2364736f6c634300081c00332f8788117e7eff1d82e926ec794901d17c78024a50270940304540a733656f0d6a112c2d81bdd237e93d567819c31ae1d3f46752b23ad7c5dbb3951914f4011a7d7ffb7a348e1c6a02869081a26547b49160dd3df72d1d75a570eb9b698292ec316a51056d8b2401ab04c48d9973add294eadde229c785c6d19cde93785467efad3228b676f7d3cd4284a5443f17f1962b36e491b30a40b2405849e597ba5fb5","linkReferences":{}},"methodIdentifiers":{"ADMIN_ROLE()":"75b238fc","CIRCUIT_MANAGER_ROLE()":"3ccc9022","DEFAULT_ADMIN_ROLE()":"a217fddf","GOVERNANCE_ROLE()":"f36c8f5c","circuitCount()":"d88b1f22","deactivateCircuit(bytes32)":"fb1b7ddd","getCircuitStats(bytes32)":"a2423cb8","getProofRecord(bytes32)":"4840d123","getRoleAdmin(bytes32)":"248a9ca3","grantRole(bytes32,address)":"2f2ff15d","hasRole(bytes32,address)":"91d14854","isCircuitRegistered(bytes32)":"74fbd6bc","isNullifierUsed(bytes32)":"22dc7b4c","pause()":"8456cb59","paused()":"5c975abb","renounceRole(bytes32,address)":"36568abe","revokeRole(bytes32,address)":"d547741f","setVerificationKey(bytes32,uint256[2],uint256[2][2],uint256[2][2],uint256[2][2],uint256[2][])":"3822f2fc","supportsInterface(bytes4)":"01ffc9a7","totalVerifications()":"ac90c140","unpause()":"3f4ba83a","verifyAndRecord(bytes32,(uint256[2],uint256[2][2],uint256[2]),uint256[],bytes32)":"7eab19ce","verifyProof(bytes32,(uint256[2],uint256[2][2],uint256[2]),uint256[])":"d7928b63"},"id":10}