{"abi":[{"type":"constructor","inputs":[{"name":"admin","type":"address","internalType":"address"}],"stateMutability":"nonpayable"},{"type":"function","name":"ADMIN_ROLE","inputs":[],"outputs":[{"name":"","type":"bytes32","internalType":"bytes32"}],"stateMutability":"view"},{"type":"function","name":"DEFAULT_ADMIN_ROLE","inputs":[],"outputs":[{"name":"","type":"bytes32","internalType":"bytes32"}],"stateMutability":"view"},{"type":"function","name":"GOVERNANCE_ROLE","inputs":[],"outputs":[{"name":"","type":"bytes32","internalType":"bytes32"}],"stateMutability":"view"},{"type":"function","name":"MAX_AUTH_KEYS","inputs":[],"outputs":[{"name":"","type":"uint32","internalType":"uint32"}],"stateMutability":"view"},{"type":"function","name":"MAX_BATCH_SIZE","inputs":[],"outputs":[{"name":"","type":"uint32","internalType":"uint32"}],"stateMutability":"view"},{"type":"function","name":"OPERATOR_ROLE","inputs":[],"outputs":[{"name":"","type":"bytes32","internalType":"bytes32"}],"stateMutability":"view"},{"type":"function","name":"RECOVERY_TIMELOCK","inputs":[],"outputs":[{"name":"","type":"uint64","internalType":"uint64"}],"stateMutability":"view"},{"type":"function","name":"addAuthKey","inputs":[{"name":"didHash","type":"bytes32","internalType":"bytes32"},{"name":"keyHash","type":"bytes32","internalType":"bytes32"}],"outputs":[],"stateMutability":"nonpayable"},{"type":"function","name":"addDelegate","inputs":[{"name":"didHash","type":"bytes32","internalType":"bytes32"},{"name":"delegate","type":"address","internalType":"address"},{"name":"duration","type":"uint64","internalType":"uint64"}],"outputs":[],"stateMutability":"nonpayable"},{"type":"function","name":"batchRegister","inputs":[{"name":"didHashes","type":"bytes32[]","internalType":"bytes32[]"},{"name":"controllers","type":"address[]","internalType":"address[]"},{"name":"recoveryHashes","type":"bytes32[]","internalType":"bytes32[]"}],"outputs":[],"stateMutability":"nonpayable"},{"type":"function","name":"cancelRecovery","inputs":[{"name":"didHash","type":"bytes32","internalType":"bytes32"}],"outputs":[],"stateMutability":"nonpayable"},{"type":"function","name":"changeController","inputs":[{"name":"didHash","type":"bytes32","internalType":"bytes32"},{"name":"newController","type":"address","internalType":"address"}],"outputs":[],"stateMutability":"nonpayable"},{"type":"function","name":"executeRecovery","inputs":[{"name":"didHash","type":"bytes32","internalType":"bytes32"}],"outputs":[],"stateMutability":"nonpayable"},{"type":"function","name":"getRoleAdmin","inputs":[{"name":"role","type":"bytes32","internalType":"bytes32"}],"outputs":[{"name":"","type":"bytes32","internalType":"bytes32"}],"stateMutability":"view"},{"type":"function","name":"grantRole","inputs":[{"name":"role","type":"bytes32","internalType":"bytes32"},{"name":"account","type":"address","internalType":"address"}],"outputs":[],"stateMutability":"nonpayable"},{"type":"function","name":"hasRole","inputs":[{"name":"role","type":"bytes32","internalType":"bytes32"},{"name":"account","type":"address","internalType":"address"}],"outputs":[{"name":"","type":"bool","internalType":"bool"}],"stateMutability":"view"},{"type":"function","name":"incrementCredentialCount","inputs":[{"name":"didHash","type":"bytes32","internalType":"bytes32"}],"outputs":[],"stateMutability":"nonpayable"},{"type":"function","name":"initiateRecovery","inputs":[{"name":"didHash","type":"bytes32","internalType":"bytes32"},{"name":"recoveryProof","type":"bytes32","internalType":"bytes32"},{"name":"newController","type":"address","internalType":"address"}],"outputs":[],"stateMutability":"nonpayable"},{"type":"function","name":"isActiveIdentity","inputs":[{"name":"didHash","type":"bytes32","internalType":"bytes32"}],"outputs":[{"name":"","type":"bool","internalType":"bool"}],"stateMutability":"view"},{"type":"function","name":"isAuthKey","inputs":[{"name":"didHash","type":"bytes32","internalType":"bytes32"},{"name":"keyHash","type":"bytes32","internalType":"bytes32"}],"outputs":[{"name":"","type":"bool","internalType":"bool"}],"stateMutability":"view"},{"type":"function","name":"isValidDelegate","inputs":[{"name":"didHash","type":"bytes32","internalType":"bytes32"},{"name":"delegate","type":"address","internalType":"address"}],"outputs":[{"name":"","type":"bool","internalType":"bool"}],"stateMutability":"view"},{"type":"function","name":"pause","inputs":[],"outputs":[],"stateMutability":"nonpayable"},{"type":"function","name":"paused","inputs":[],"outputs":[{"name":"","type":"bool","internalType":"bool"}],"stateMutability":"view"},{"type":"function","name":"registerIdentity","inputs":[{"name":"didHash","type":"bytes32","internalType":"bytes32"},{"name":"recoveryHash","type":"bytes32","internalType":"bytes32"}],"outputs":[],"stateMutability":"nonpayable"},{"type":"function","name":"renounceRole","inputs":[{"name":"role","type":"bytes32","internalType":"bytes32"},{"name":"callerConfirmation","type":"address","internalType":"address"}],"outputs":[],"stateMutability":"nonpayable"},{"type":"function","name":"resolveByController","inputs":[{"name":"controller","type":"address","internalType":"address"}],"outputs":[{"name":"","type":"bytes32","internalType":"bytes32"}],"stateMutability":"view"},{"type":"function","name":"resolveIdentity","inputs":[{"name":"didHash","type":"bytes32","internalType":"bytes32"}],"outputs":[{"name":"","type":"tuple","internalType":"struct Identity","components":[{"name":"didHash","type":"bytes32","internalType":"bytes32"},{"name":"controller","type":"address","internalType":"address"},{"name":"createdAt","type":"uint64","internalType":"uint64"},{"name":"updatedAt","type":"uint64","internalType":"uint64"},{"name":"status","type":"uint8","internalType":"enum IdentityStatus"},{"name":"recoveryHash","type":"bytes32","internalType":"bytes32"},{"name":"credentialCount","type":"uint32","internalType":"uint32"},{"name":"nonce","type":"uint32","internalType":"uint32"}]}],"stateMutability":"view"},{"type":"function","name":"revokeAuthKey","inputs":[{"name":"didHash","type":"bytes32","internalType":"bytes32"},{"name":"keyHash","type":"bytes32","internalType":"bytes32"}],"outputs":[],"stateMutability":"nonpayable"},{"type":"function","name":"revokeDelegate","inputs":[{"name":"didHash","type":"bytes32","internalType":"bytes32"},{"name":"delegate","type":"address","internalType":"address"}],"outputs":[],"stateMutability":"nonpayable"},{"type":"function","name":"revokeRole","inputs":[{"name":"role","type":"bytes32","internalType":"bytes32"},{"name":"account","type":"address","internalType":"address"}],"outputs":[],"stateMutability":"nonpayable"},{"type":"function","name":"supportsInterface","inputs":[{"name":"interfaceId","type":"bytes4","internalType":"bytes4"}],"outputs":[{"name":"","type":"bool","internalType":"bool"}],"stateMutability":"view"},{"type":"function","name":"totalIdentities","inputs":[],"outputs":[{"name":"","type":"uint256","internalType":"uint256"}],"stateMutability":"view"},{"type":"function","name":"unpause","inputs":[],"outputs":[],"stateMutability":"nonpayable"},{"type":"function","name":"updateIdentityStatus","inputs":[{"name":"didHash","type":"bytes32","internalType":"bytes32"},{"name":"newStatus","type":"uint8","internalType":"enum IdentityStatus"}],"outputs":[],"stateMutability":"nonpayable"},{"type":"event","name":"AuthKeyAdded","inputs":[{"name":"didHash","type":"bytes32","indexed":true,"internalType":"bytes32"},{"name":"keyHash","type":"bytes32","indexed":true,"internalType":"bytes32"}],"anonymous":false},{"type":"event","name":"AuthKeyRevoked","inputs":[{"name":"didHash","type":"bytes32","indexed":true,"internalType":"bytes32"},{"name":"keyHash","type":"bytes32","indexed":true,"internalType":"bytes32"}],"anonymous":false},{"type":"event","name":"ControllerChanged","inputs":[{"name":"didHash","type":"bytes32","indexed":true,"internalType":"bytes32"},{"name":"oldController","type":"address","indexed":true,"internalType":"address"},{"name":"newController","type":"address","indexed":true,"internalType":"address"}],"anonymous":false},{"type":"event","name":"DelegateAdded","inputs":[{"name":"didHash","type":"bytes32","indexed":true,"internalType":"bytes32"},{"name":"delegate","type":"address","indexed":true,"internalType":"address"},{"name":"expiresAt","type":"uint64","indexed":false,"internalType":"uint64"}],"anonymous":false},{"type":"event","name":"DelegateRevoked","inputs":[{"name":"didHash","type":"bytes32","indexed":true,"internalType":"bytes32"},{"name":"delegate","type":"address","indexed":true,"internalType":"address"}],"anonymous":false},{"type":"event","name":"IdentityRegistered","inputs":[{"name":"didHash","type":"bytes32","indexed":true,"internalType":"bytes32"},{"name":"controller","type":"address","indexed":true,"internalType":"address"},{"name":"timestamp","type":"uint64","indexed":false,"internalType":"uint64"}],"anonymous":false},{"type":"event","name":"IdentityUpdated","inputs":[{"name":"didHash","type":"bytes32","indexed":true,"internalType":"bytes32"},{"name":"newStatus","type":"uint8","indexed":false,"internalType":"enum IdentityStatus"},{"name":"timestamp","type":"uint64","indexed":false,"internalType":"uint64"}],"anonymous":false},{"type":"event","name":"Paused","inputs":[{"name":"account","type":"address","indexed":false,"internalType":"address"}],"anonymous":false},{"type":"event","name":"RecoveryCancelled","inputs":[{"name":"didHash","type":"bytes32","indexed":true,"internalType":"bytes32"}],"anonymous":false},{"type":"event","name":"RecoveryExecuted","inputs":[{"name":"didHash","type":"bytes32","indexed":true,"internalType":"bytes32"},{"name":"newController","type":"address","indexed":true,"internalType":"address"}],"anonymous":false},{"type":"event","name":"RecoveryInitiated","inputs":[{"name":"didHash","type":"bytes32","indexed":true,"internalType":"bytes32"},{"name":"newController","type":"address","indexed":true,"internalType":"address"}],"anonymous":false},{"type":"event","name":"RoleAdminChanged","inputs":[{"name":"role","type":"bytes32","indexed":true,"internalType":"bytes32"},{"name":"previousAdminRole","type":"bytes32","indexed":true,"internalType":"bytes32"},{"name":"newAdminRole","type":"bytes32","indexed":true,"internalType":"bytes32"}],"anonymous":false},{"type":"event","name":"RoleGranted","inputs":[{"name":"role","type":"bytes32","indexed":true,"internalType":"bytes32"},{"name":"account","type":"address","indexed":true,"internalType":"address"},{"name":"sender","type":"address","indexed":true,"internalType":"address"}],"anonymous":false},{"type":"event","name":"RoleRevoked","inputs":[{"name":"role","type":"bytes32","indexed":true,"internalType":"bytes32"},{"name":"account","type":"address","indexed":true,"internalType":"address"},{"name":"sender","type":"address","indexed":true,"internalType":"address"}],"anonymous":false},{"type":"event","name":"Unpaused","inputs":[{"name":"account","type":"address","indexed":false,"internalType":"address"}],"anonymous":false},{"type":"error","name":"AccessControlBadConfirmation","inputs":[]},{"type":"error","name":"AccessControlUnauthorizedAccount","inputs":[{"name":"account","type":"address","internalType":"address"},{"name":"neededRole","type":"bytes32","internalType":"bytes32"}]},{"type":"error","name":"AuthKeyAlreadyExists","inputs":[{"name":"keyHash","type":"bytes32","internalType":"bytes32"}]},{"type":"error","name":"AuthKeyNotFound","inputs":[{"name":"keyHash","type":"bytes32","internalType":"bytes32"}]},{"type":"error","name":"BatchSizeExceeded","inputs":[{"name":"size","type":"uint32","internalType":"uint32"}]},{"type":"error","name":"ControllerAlreadyBound","inputs":[{"name":"controller","type":"address","internalType":"address"}]},{"type":"error","name":"DelegateExpired","inputs":[{"name":"delegate","type":"address","internalType":"address"}]},{"type":"error","name":"EnforcedPause","inputs":[]},{"type":"error","name":"ExpectedPause","inputs":[]},{"type":"error","name":"IdentityAlreadyExists","inputs":[{"name":"didHash","type":"bytes32","internalType":"bytes32"}]},{"type":"error","name":"IdentityNotFound","inputs":[{"name":"didHash","type":"bytes32","internalType":"bytes32"}]},{"type":"error","name":"InvalidRecoveryProof","inputs":[]},{"type":"error","name":"InvalidStatus","inputs":[{"name":"current","type":"uint8","internalType":"enum IdentityStatus"},{"name":"required","type":"uint8","internalType":"enum IdentityStatus"}]},{"type":"error","name":"MaxAuthKeysReached","inputs":[{"name":"didHash","type":"bytes32","internalType":"bytes32"}]},{"type":"error","name":"NotController","inputs":[{"name":"didHash","type":"bytes32","internalType":"bytes32"},{"name":"caller","type":"address","internalType":"address"}]},{"type":"error","name":"RecoveryAlreadyActive","inputs":[{"name":"didHash","type":"bytes32","internalType":"bytes32"}]},{"type":"error","name":"RecoveryNotActive","inputs":[{"name":"didHash","type":"bytes32","internalType":"bytes32"}]},{"type":"error","name":"RecoveryTimelockNotExpired","inputs":[{"name":"executeAfter","type":"uint64","internalType":"uint64"}]},{"type":"error","name":"ReentrancyGuardReentrantCall","inputs":[]},{"type":"error","name":"ZeroAddress","inputs":[]},{"type":"error","name":"ZeroHash","inputs":[]}],"bytecode":{"object":"0x6080346100b557601f61200038819003918201601f19168301916001600160401b038311848410176100b9578084926020946040528339810103126100b557516001600160a01b0381168082036100b55760017f9b779b17422d0df92223018b32b4d1fa46e071723d6817e2486d003becc55f0055156100a65780610086610096926100cd565b5061009081610143565b506101d6565b50604051611d16908161026a8239f35b63d92e233d60e01b5f5260045ffd5b5f80fd5b634e487b7160e01b5f52604160045260245ffd5b6001600160a01b0381165f9081525f516020611fe05f395f51905f52602052604090205460ff1661013e576001600160a01b03165f8181525f516020611fe05f395f51905f5260205260408120805460ff191660011790553391905f516020611f805f395f51905f528180a4600190565b505f90565b6001600160a01b0381165f9081525f516020611fa05f395f51905f52602052604090205460ff1661013e576001600160a01b03165f8181525f516020611fa05f395f51905f5260205260408120805460ff191660011790553391907fa49807205ce4d355092ef5a8a18f56e8913cf4a201fbe287825b095693c21775905f516020611f805f395f51905f529080a4600190565b6001600160a01b0381165f9081525f516020611fc05f395f51905f52602052604090205460ff1661013e576001600160a01b03165f8181525f516020611fc05f395f51905f5260205260408120805460ff191660011790553391907f71840dc4906352362b0cdaf79870196c8e42acafade72d5d5a6d59291253ceb1905f516020611f805f395f51905f529080a460019056fe6080806040526004361015610012575f80fd5b5f3560e01c90816301ffc9a7146119225750806303add94f146117a9578063045ce3641461178e5780631506ac5a146117715780631b12c5b114611684578063248a9ca314611652578063274124d3146116165780632f2ff15d146115d957806336568abe146115955780633f4ba83a1461152f5780633ffb00361461138757806355161467146111fc5780635c975abb146111da578063631fec7f14611127578063704b509614610df157806375b238fc14610db75780637abed90514610be05780638382c101146109e05780638456cb591461098857806391d1485414610940578063a217fddf14610926578063b7415157146107d5578063c8e1d7ff14610795578063cfdbf2541461077a578063d547741f14610736578063e078d84b146106d2578063e714b35114610534578063e9e8315614610450578063f34eb38f146103e6578063f36c8f5c146103ac578063f5b541a614610372578063f5c5987b14610355578063f8781e6c146101ca5763fcb1a2cc14610192575f80fd5b346101c6576101a03661198b565b905f52600560205260405f20905f52602052602060ff60405f2054166040519015158152f35b5f80fd5b346101c65760203660031901126101c6576004355f60e06040516101ed816119ec565b8281528260208201528260408201528260608201528260808201528260a08201528260c08201520152805f5260026020526001600160401b03600160405f20015460a01c1615610343575f52600260205260405f2060405161024e816119ec565b815481526001820154916020820160018060a01b03841681526001600160401b03604084019460a01c168452600282015460ff60608501916001600160401b038116835260401c166080850193600482101561032f57610319856001600160401b0363ffffffff9795816101009b60e0998c988c9a5289600460038a01549960a08c019a8b5201549b8a8260c08f9d019c168c52019b60201c168b526040519c518d5260018060a01b0390511660208d0152511660408b0152511660608901525160808801906119df565b5160a0860152511660c0840152511660e0820152f35b634e487b7160e01b5f52602160045260245ffd5b6325f103b160e11b5f5260045260245ffd5b346101c6575f3660031901126101c6576020600854604051908152f35b346101c6575f3660031901126101c65760206040517f97667070c54ef182b0f5858b034beac1b6f3089aa2d3188bb1e8929f4fa9b9298152f35b346101c6575f3660031901126101c65760206040517f71840dc4906352362b0cdaf79870196c8e42acafade72d5d5a6d59291253ceb18152f35b346101c65760203660031901126101c657600435610402611abe565b805f5260026020526001600160401b03600160405f20015460a01c1615610343575f908152600260205260409020600401805463ffffffff19811663ffffffff918216600101909116179055005b346101c65760403660031901126101c65760043561046c611975565b815f5260026020526001600160401b03600160405f20015460a01c1615610521575f828152600260205260409020600101546001600160a01b0316330361050a575f8281526004602090815260408083206001600160a01b0394909416808452939091528120805467ffffffffffffffff191690559091907f2561881a4fe0917547b16fe48555a769528c6ebd0f2da81c0037f3df35dba8f59080a3005b50637349b3c360e11b5f526004523360245260445ffd5b506325f103b160e11b5f5260045260245ffd5b346101c6576105423661198b565b90805f5260026020526001600160401b03600160405f20015460a01c161561034357805f52600260205260ff600260405f20015460401c16600481101561032f576001036106a1575f818152600260205260409020600101546001600160a01b0316330361068b57811561067c57805f52600560205260405f20825f5260205260ff60405f20541661066957805f526006602052601063ffffffff60405f205416101561065757805f52600560205260405f20825f5260205260405f20600160ff19825416179055805f52600660205260405f2063ffffffff8060018184541601161663ffffffff198254161790557fa8ab9e562cef2d6d642b5f86d95012fd1531eaec75c3ec919e4384f37e1106405f80a3005b6339c9d13160e11b5f5260045260245ffd5b50630be896ed60e11b5f5260045260245ffd5b63f1ae58d560e01b5f5260045ffd5b637349b3c360e11b5f526004523360245260445ffd5b5f5260026020526106c860ff600260405f20015460401c1663f924664d60e01b5f526119d1565b600160245260445ffd5b346101c65760403660031901126101c6576106eb611975565b6004355f52600460205260405f209060018060a01b03165f5260205260206001600160401b0360405f205416801515908161072c575b506040519015158152f35b9050421082610721565b346101c65760403660031901126101c657610778600435610755611975565b9061077361076e825f525f602052600160405f20015490565b611b2d565b611bed565b005b346101c6575f3660031901126101c657602060405160328152f35b346101c65760203660031901126101c6576004355f52600260205260ff600260405f20015460401c16600481101561032f57602090600160405191148152f35b346101c65760403660031901126101c65760043560243560048110156101c657815f5260026020526001600160401b03600160405f20015460a01c161561052157335f9081527f316a51056d8b2401ab04c48d9973add294eadde229c785c6d19cde93785467ef602052604090205460ff16156108ef5760407fdec997f1bc8d21072518a4d7afcfff46614cf5757d72a9c19e871eacee77552891835f526002602052815f206108db6004600283019261088f8585611a08565b835467ffffffffffffffff1916426001600160401b031690811790945501805467ffffffff00000000198116602091821c63ffffffff1660010190911b67ffffffff0000000016179055565b6108e7835180936119df565b6020820152a2005b63e2517d3f60e01b5f52336004527f71840dc4906352362b0cdaf79870196c8e42acafade72d5d5a6d59291253ceb160245260445ffd5b346101c6575f3660031901126101c65760206040515f8152f35b346101c65760403660031901126101c657610959611975565b6004355f525f60205260405f209060018060a01b03165f52602052602060ff60405f2054166040519015158152f35b346101c6575f3660031901126101c6576109a0611a4f565b6109a8611c6d565b600160ff19815416176001557f62e78cea01bee320cd4e420270b5ea74000d11b0c9f74754ebdbfc544b05a2586020604051338152a1005b346101c65760603660031901126101c6576044356001600160a01b03811690600435908290036101c657805f5260026020526001600160401b03600160405f20015460a01c161561034357610a33611c6d565b610a3b611c88565b8115610bd157805f52600760205260ff60405f205460e01c16610bbf57805f52600260205260405f206040516020810160243581526020825260408201918083106001600160401b03841117610b885760039260405251902091015403610bb0576202a3006001600160401b034216016001600160401b038111610b9c5760405190606082018281106001600160401b03821117610b885760409081528483526001600160401b0391909116602080840191825260018484019081525f86815260079092529290209251835491516001600160e01b03199092166001600160a01b03919091161760a09190911b67ffffffffffffffff60a01b1617825551815460ff60e01b191690151560e01b60ff60e01b161790557f19e7e0655fb515d4f56fdc04dee16b5253c714efe38b468d4c5de010bed4fd7e5f80a360015f516020611cc15f395f51905f5255005b634e487b7160e01b5f52604160045260245ffd5b634e487b7160e01b5f52601160045260245ffd5b63c4991abd60e01b5f5260045ffd5b63fabeb92360e01b5f5260045260245ffd5b63d92e233d60e01b5f5260045ffd5b346101c65760203660031901126101c657600435805f5260026020526001600160401b03600160405f20015460a01c161561034357610c1d611c88565b805f52600760205260405f205460ff8160e01c1615610da4576001600160401b038160a01c16804210610d925750815f52600260205260405f2091600183019260018060a01b038454169260018060a01b031693845f52600360205260405f2054610d7f575f84815260036020908152604080832083905587835290912084905581546001600160a01b0319166001600160a01b0387161790915560028201805468ffffffffffffffffff1916426001600160401b031617680100000000000000001790556004909101805467ffffffff0000000019811690831c63ffffffff1660010190921b67ffffffff0000000016919091179055805f5260076020525f604081205582817fe0467ef4a5103f5cdecf158449b313743f9e40a6b9b817614aed765c42a98df25f80a37f3a853b43325d5f5843adb2e8fe01edd56491ac7695c418ca1564ed38624d4e685f80a460015f516020611cc15f395f51905f5255005b84638679ce9d60e01b5f5260045260245ffd5b63d6bd7b2360e01b5f5260045260245ffd5b5063d29d907960e01b5f5260045260245ffd5b346101c6575f3660031901126101c65760206040517fa49807205ce4d355092ef5a8a18f56e8913cf4a201fbe287825b095693c217758152f35b346101c65760603660031901126101c6576004356001600160401b0381116101c657610e219036906004016119a1565b6024356001600160401b0381116101c657610e409036906004016119a1565b6044939193356001600160401b0381116101c657610e629036906004016119a1565b91610e6b611abe565b610e73611c6d565b610e7b611c88565b63ffffffff85169060328211611114578082148061110b575b156110ce576001600160401b034216955f5b63ffffffff811690848210156110b357610ec182848a611a2b565b3591610ece81868d611a2b565b356001600160a01b03811691908290036101c657610eed908989611a2b565b3592801580156110ab575b61067c578115610bd157805f5260026020526001600160401b03600160405f20015460a01c1661109957815f52600360205260405f205461108657908a9291604051610f43816119ec565b818152602080820184815260408084018881526060850198895260016080860181815260a08088019c8d525f60c0890181815260e08a018281528b835260029099529590209751885594519187018054935167ffffffffffffffff60a01b961b959095166001600160a01b039092166001600160e01b031990931692909217179092559192906001600160401b038060028401995116166001600160401b03198954161788555192600484101561032f5763ffffffff806004819b9482956110106110469960019e611a08565b51600382015501945116168219845416178355511667ffffffff0000000082549160201b169067ffffffff000000001916179055565b815f5260036020528060405f20557f79c1aabf34648938e33bd2bfd9cf03443f66796c2efdc5c9ff9d48a63bd927f460208d604051908152a30116610ea6565b50638679ce9d60e01b5f5260045260245ffd5b637461a6a160e11b5f5260045260245ffd5b508315610ef8565b600880548601905560015f516020611cc15f395f51905f5255005b60405162461bcd60e51b8152602060048201526015602482015274082e4e4c2f240d8cadccee8d040dad2e6dac2e8c6d605b1b6044820152606490fd5b50838214610e94565b506307549dcb60e31b5f5260045260245ffd5b346101c65760203660031901126101c657600435805f5260026020526001600160401b03600160405f20015460a01c1615610343575f818152600260205260409020600101546001600160a01b0316330361068b57805f52600760205260ff60405f205460e01c16156111c857805f5260076020525f60408120557f7d6dceb0ad9e1c7d903468b0d49a3151dcb4d9f5fb0c5d0940b3ee2a7a8fd5d15f80a2005b63d29d907960e01b5f5260045260245ffd5b346101c6575f3660031901126101c657602060ff600154166040519015158152f35b346101c65760403660031901126101c657600435611218611975565b815f5260026020526001600160401b03600160405f20015460a01c161561052157815f52600260205260ff600260405f20015460401c16600481101561032f5760010361135f575f828152600260205260409020600101546001600160a01b0316330361050a576001600160a01b0316908115610bd157815f52600360205260405f2054611086575f818152600260208181526040808420600180820180546001600160a01b0316808852600386528488208890558988529390962087905585546001600160a01b0319168817909555928301805467ffffffffffffffff1916426001600160401b03161790556004909201805467ffffffff0000000019811690831c63ffffffff1690940190911b67ffffffff000000001692909217909155907f3a853b43325d5f5843adb2e8fe01edd56491ac7695c418ca1564ed38624d4e685f80a4005b505f5260026020526106c860ff600260405f20015460401c1663f924664d60e01b5f526119d1565b346101c6576113953661198b565b9061139e611c6d565b6113a6611c88565b801561067c57811561067c57805f5260026020526001600160401b03600160405f20015460a01c1661109957335f52600360205260405f205461151c576001600160401b034216916040516113fa816119ec565b82815233602080830191825260408084018781526060850188815260016080870181815260a0808901998a525f60c08a0181815260e08b018281528d835260029099529690209851895596519188018054945167ffffffffffffffff60a01b981b979097166001600160a01b039092166001600160e01b0319909416939093171790945592949093926001600160401b038060028601975116166001600160401b03198754161786555194600486101561032f57600463ffffffff9485936110106114c6998695611a08565b335f5260036020528060405f20556001600854016008556040519182527f79c1aabf34648938e33bd2bfd9cf03443f66796c2efdc5c9ff9d48a63bd927f460203393a360015f516020611cc15f395f51905f5255005b638679ce9d60e01b5f523360045260245ffd5b346101c6575f3660031901126101c657611547611a4f565b60015460ff8116156115865760ff19166001557f5db9ee0a495bf2e6ff9c91a7834c1ba4fdd244a5e8aa4e537bd38aeae4b073aa6020604051338152a1005b638dfc202b60e01b5f5260045ffd5b346101c65760403660031901126101c6576115ae611975565b336001600160a01b038216036115ca5761077890600435611bed565b63334bd91960e11b5f5260045ffd5b346101c65760403660031901126101c6576107786004356115f8611975565b9061161161076e825f525f602052600160405f20015490565b611b65565b346101c65760203660031901126101c6576004356001600160a01b038116908190036101c6575f526003602052602060405f2054604051908152f35b346101c65760203660031901126101c657602061167c6004355f525f602052600160405f20015490565b604051908152f35b346101c6576116923661198b565b90805f5260026020526001600160401b03600160405f20015460a01c1615610343575f818152600260205260409020600101546001600160a01b0316330361068b57805f52600560205260405f20825f5260205260ff60405f2054161561175e57805f52600560205260405f20825f5260205260405f2060ff198154169055805f52600660205260405f2063ffffffff805f198184541601161663ffffffff198254161790557ff5e3f1916d0c18544a377dd56a3a79d9e287bfabbd652ea3805938ca5d88c6255f80a3005b506303b4fdc360e11b5f5260045260245ffd5b346101c6575f3660031901126101c65760206040516202a3008152f35b346101c6575f3660031901126101c657602060405160108152f35b346101c65760603660031901126101c6576004356117c5611975565b90604435916001600160401b0383168093036101c657815f5260026020526001600160401b03600160405f20015460a01c161561052157815f52600260205260ff600260405f20015460401c16600481101561032f5760010361135f575f828152600260205260409020600101546001600160a01b0316330361050a576001600160a01b0316918215610bd15780151580611914575b156118dc576001600160401b034216016001600160401b038111610b9c5760207f1c8024b953b163ae78f99d9cea17e0d46c97468747505946a0f65ad7219f73e791835f526004825260405f20855f52825260405f206001600160401b0382166001600160401b03198254161790556001600160401b0360405191168152a3005b60405162461bcd60e51b815260206004820152601060248201526f24b73b30b634b210323ab930ba34b7b760811b6044820152606490fd5b506301e1338081111561185b565b346101c65760203660031901126101c6576004359063ffffffff60e01b82168092036101c657602091637965db0b60e01b8114908115611964575b5015158152f35b6301ffc9a760e01b1490508361195d565b602435906001600160a01b03821682036101c657565b60409060031901126101c6576004359060243590565b9181601f840112156101c6578235916001600160401b0383116101c6576020808501948460051b0101116101c657565b600481101561032f57600452565b90600482101561032f5752565b61010081019081106001600160401b03821117610b8857604052565b90600481101561032f5760ff60401b82549160401b169060ff60401b1916179055565b9190811015611a3b5760051b0190565b634e487b7160e01b5f52603260045260245ffd5b335f9081527f7d7ffb7a348e1c6a02869081a26547b49160dd3df72d1d75a570eb9b698292ec602052604090205460ff1615611a8757565b63e2517d3f60e01b5f52336004527fa49807205ce4d355092ef5a8a18f56e8913cf4a201fbe287825b095693c2177560245260445ffd5b335f9081527fee57cd81e84075558e8fcc182a1f4393f91fc97f963a136e66b7f949a62f319f602052604090205460ff1615611af657565b63e2517d3f60e01b5f52336004527f97667070c54ef182b0f5858b034beac1b6f3089aa2d3188bb1e8929f4fa9b92960245260445ffd5b5f8181526020818152604080832033845290915290205460ff1615611b4f5750565b63e2517d3f60e01b5f523360045260245260445ffd5b5f818152602081815260408083206001600160a01b038616845290915290205460ff16611be7575f818152602081815260408083206001600160a01b0395909516808452949091528120805460ff19166001179055339291907f2f8788117e7eff1d82e926ec794901d17c78024a50270940304540a733656f0d9080a4600190565b50505f90565b5f818152602081815260408083206001600160a01b038616845290915290205460ff1615611be7575f818152602081815260408083206001600160a01b0395909516808452949091528120805460ff19169055339291907ff6391f5c32d9c69d2a47ea670b442974b53935d1edc7fd64eb21e047a839171b9080a4600190565b60ff60015416611c7957565b63d93c066560e01b5f5260045ffd5b60025f516020611cc15f395f51905f525414611cb15760025f516020611cc15f395f51905f5255565b633ee5aeb560e01b5f5260045ffdfe9b779b17422d0df92223018b32b4d1fa46e071723d6817e2486d003becc55f00a2646970667358221220f1fd0a1ff9c54209f89a0667b178f4a21298e6a6782e5a480fbda7d307687b9b64736f6c634300081c00332f8788117e7eff1d82e926ec794901d17c78024a50270940304540a733656f0d7d7ffb7a348e1c6a02869081a26547b49160dd3df72d1d75a570eb9b698292ec316a51056d8b2401ab04c48d9973add294eadde229c785c6d19cde93785467efad3228b676f7d3cd4284a5443f17f1962b36e491b30a40b2405849e597ba5fb5","linkReferences":{}},"methodIdentifiers":{"ADMIN_ROLE()":"75b238fc","DEFAULT_ADMIN_ROLE()":"a217fddf","GOVERNANCE_ROLE()":"f36c8f5c","MAX_AUTH_KEYS()":"045ce364","MAX_BATCH_SIZE()":"cfdbf254","OPERATOR_ROLE()":"f5b541a6","RECOVERY_TIMELOCK()":"1506ac5a","addAuthKey(bytes32,bytes32)":"e714b351","addDelegate(bytes32,address,uint64)":"03add94f","batchRegister(bytes32[],address[],bytes32[])":"704b5096","cancelRecovery(bytes32)":"631fec7f","changeController(bytes32,address)":"55161467","executeRecovery(bytes32)":"7abed905","getRoleAdmin(bytes32)":"248a9ca3","grantRole(bytes32,address)":"2f2ff15d","hasRole(bytes32,address)":"91d14854","incrementCredentialCount(bytes32)":"f34eb38f","initiateRecovery(bytes32,bytes32,address)":"8382c101","isActiveIdentity(bytes32)":"c8e1d7ff","isAuthKey(bytes32,bytes32)":"fcb1a2cc","isValidDelegate(bytes32,address)":"e078d84b","pause()":"8456cb59","paused()":"5c975abb","registerIdentity(bytes32,bytes32)":"3ffb0036","renounceRole(bytes32,address)":"36568abe","resolveByController(address)":"274124d3","resolveIdentity(bytes32)":"f8781e6c","revokeAuthKey(bytes32,bytes32)":"1b12c5b1","revokeDelegate(bytes32,address)":"e9e83156","revokeRole(bytes32,address)":"d547741f","supportsInterface(bytes4)":"01ffc9a7","totalIdentities()":"f5c5987b","unpause()":"3f4ba83a","updateIdentityStatus(bytes32,uint8)":"b7415157"},"id":11}