{"abi":[{"type":"constructor","inputs":[{"name":"admin","type":"address","internalType":"address"}],"stateMutability":"nonpayable"},{"type":"function","name":"COMPLIANCE_OFFICER_ROLE","inputs":[],"outputs":[{"name":"","type":"bytes32","internalType":"bytes32"}],"stateMutability":"view"},{"type":"function","name":"DEFAULT_ADMIN_ROLE","inputs":[],"outputs":[{"name":"","type":"bytes32","internalType":"bytes32"}],"stateMutability":"view"},{"type":"function","name":"DEFAULT_ATTESTATION_VALIDITY","inputs":[],"outputs":[{"name":"","type":"uint256","internalType":"uint256"}],"stateMutability":"view"},{"type":"function","name":"EIDAS_AUTHORITY_ROLE","inputs":[],"outputs":[{"name":"","type":"bytes32","internalType":"bytes32"}],"stateMutability":"view"},{"type":"function","name":"FATF_TRAVEL_RULE_THRESHOLD","inputs":[],"outputs":[{"name":"","type":"uint256","internalType":"uint256"}],"stateMutability":"view"},{"type":"function","name":"JURISDICTION_ADMIN_ROLE","inputs":[],"outputs":[{"name":"","type":"bytes32","internalType":"bytes32"}],"stateMutability":"view"},{"type":"function","name":"MAX_RULES_PER_JURISDICTION","inputs":[],"outputs":[{"name":"","type":"uint256","internalType":"uint256"}],"stateMutability":"view"},{"type":"function","name":"SANCTIONS_ORACLE_ROLE","inputs":[],"outputs":[{"name":"","type":"bytes32","internalType":"bytes32"}],"stateMutability":"view"},{"type":"function","name":"TRAVEL_RULE_ROLE","inputs":[],"outputs":[{"name":"","type":"bytes32","internalType":"bytes32"}],"stateMutability":"view"},{"type":"function","name":"addComplianceRule","inputs":[{"name":"jurisdictionId","type":"bytes32","internalType":"bytes32"},{"name":"ruleId","type":"bytes32","internalType":"bytes32"},{"name":"ruleType","type":"string","internalType":"string"},{"name":"description","type":"string","internalType":"string"},{"name":"requiredCredentialType","type":"bytes32","internalType":"bytes32"},{"name":"validityPeriod","type":"uint256","internalType":"uint256"},{"name":"mandatory","type":"bool","internalType":"bool"}],"outputs":[],"stateMutability":"nonpayable"},{"type":"function","name":"checkCompliance","inputs":[{"name":"credentialHash","type":"bytes32","internalType":"bytes32"},{"name":"jurisdictionId","type":"bytes32","internalType":"bytes32"}],"outputs":[{"name":"status","type":"uint8","internalType":"enum RegulatoryCompliance.ComplianceStatus"},{"name":"kycLevel","type":"uint8","internalType":"enum RegulatoryCompliance.KYCLevel"},{"name":"expiresAt","type":"uint256","internalType":"uint256"},{"name":"valid","type":"bool","internalType":"bool"}],"stateMutability":"view"},{"type":"function","name":"checkEIDAS","inputs":[{"name":"credentialHash","type":"bytes32","internalType":"bytes32"},{"name":"minimumLevel","type":"uint8","internalType":"enum RegulatoryCompliance.EIDASLevel"}],"outputs":[{"name":"valid","type":"bool","internalType":"bool"},{"name":"actualLevel","type":"uint8","internalType":"enum RegulatoryCompliance.EIDASLevel"}],"stateMutability":"view"},{"type":"function","name":"checkMultiJurisdictionCompliance","inputs":[{"name":"credentialHash","type":"bytes32","internalType":"bytes32"},{"name":"jurisdictionIds","type":"bytes32[]","internalType":"bytes32[]"}],"outputs":[{"name":"compliantCount","type":"uint256","internalType":"uint256"},{"name":"results","type":"uint8[]","internalType":"enum RegulatoryCompliance.ComplianceStatus[]"}],"stateMutability":"view"},{"type":"function","name":"commitReport","inputs":[{"name":"reportId","type":"bytes32","internalType":"bytes32"},{"name":"jurisdictionId","type":"bytes32","internalType":"bytes32"},{"name":"reportHash","type":"bytes32","internalType":"bytes32"},{"name":"reportType","type":"string","internalType":"string"},{"name":"periodStart","type":"uint256","internalType":"uint256"},{"name":"periodEnd","type":"uint256","internalType":"uint256"}],"outputs":[],"stateMutability":"nonpayable"},{"type":"function","name":"getAttestation","inputs":[{"name":"credentialHash","type":"bytes32","internalType":"bytes32"},{"name":"jurisdictionId","type":"bytes32","internalType":"bytes32"}],"outputs":[{"name":"","type":"tuple","internalType":"struct RegulatoryCompliance.ComplianceAttestation","components":[{"name":"credentialHash","type":"bytes32","internalType":"bytes32"},{"name":"jurisdictionId","type":"bytes32","internalType":"bytes32"},{"name":"status","type":"uint8","internalType":"enum RegulatoryCompliance.ComplianceStatus"},{"name":"issuedAt","type":"uint256","internalType":"uint256"},{"name":"expiresAt","type":"uint256","internalType":"uint256"},{"name":"attestationHash","type":"bytes32","internalType":"bytes32"},{"name":"issuedBy","type":"address","internalType":"address"},{"name":"kycLevel","type":"uint8","internalType":"enum RegulatoryCompliance.KYCLevel"},{"name":"satisfiedRules","type":"bytes32[]","internalType":"bytes32[]"}]}],"stateMutability":"view"},{"type":"function","name":"getEIDASMarker","inputs":[{"name":"credentialHash","type":"bytes32","internalType":"bytes32"}],"outputs":[{"name":"","type":"tuple","internalType":"struct RegulatoryCompliance.EIDASMarker","components":[{"name":"credentialHash","type":"bytes32","internalType":"bytes32"},{"name":"level","type":"uint8","internalType":"enum RegulatoryCompliance.EIDASLevel"},{"name":"trustedListHash","type":"bytes32","internalType":"bytes32"},{"name":"issuerHash","type":"bytes32","internalType":"bytes32"},{"name":"issuedAt","type":"uint256","internalType":"uint256"},{"name":"expiresAt","type":"uint256","internalType":"uint256"},{"name":"active","type":"bool","internalType":"bool"}]}],"stateMutability":"view"},{"type":"function","name":"getJurisdiction","inputs":[{"name":"jurisdictionId","type":"bytes32","internalType":"bytes32"}],"outputs":[{"name":"","type":"tuple","internalType":"struct RegulatoryCompliance.Jurisdiction","components":[{"name":"jurisdictionId","type":"bytes32","internalType":"bytes32"},{"name":"isoCode","type":"string","internalType":"string"},{"name":"name","type":"string","internalType":"string"},{"name":"active","type":"bool","internalType":"bool"},{"name":"registeredAt","type":"uint256","internalType":"uint256"},{"name":"minimumKYCLevel","type":"uint8","internalType":"enum RegulatoryCompliance.KYCLevel"},{"name":"requiresEIDAS","type":"bool","internalType":"bool"},{"name":"minimumEIDASLevel","type":"uint8","internalType":"enum RegulatoryCompliance.EIDASLevel"},{"name":"travelRuleThreshold","type":"uint256","internalType":"uint256"},{"name":"ruleCount","type":"uint256","internalType":"uint256"}]}],"stateMutability":"view"},{"type":"function","name":"getJurisdictionRuleIds","inputs":[{"name":"jurisdictionId","type":"bytes32","internalType":"bytes32"}],"outputs":[{"name":"","type":"bytes32[]","internalType":"bytes32[]"}],"stateMutability":"view"},{"type":"function","name":"getReport","inputs":[{"name":"reportId","type":"bytes32","internalType":"bytes32"}],"outputs":[{"name":"","type":"tuple","internalType":"struct RegulatoryCompliance.RegulatoryReport","components":[{"name":"reportId","type":"bytes32","internalType":"bytes32"},{"name":"jurisdictionId","type":"bytes32","internalType":"bytes32"},{"name":"reportHash","type":"bytes32","internalType":"bytes32"},{"name":"reportType","type":"string","internalType":"string"},{"name":"submittedAt","type":"uint256","internalType":"uint256"},{"name":"submittedBy","type":"address","internalType":"address"},{"name":"periodStart","type":"uint256","internalType":"uint256"},{"name":"periodEnd","type":"uint256","internalType":"uint256"}]}],"stateMutability":"view"},{"type":"function","name":"getRoleAdmin","inputs":[{"name":"role","type":"bytes32","internalType":"bytes32"}],"outputs":[{"name":"","type":"bytes32","internalType":"bytes32"}],"stateMutability":"view"},{"type":"function","name":"getRule","inputs":[{"name":"jurisdictionId","type":"bytes32","internalType":"bytes32"},{"name":"ruleId","type":"bytes32","internalType":"bytes32"}],"outputs":[{"name":"","type":"tuple","internalType":"struct RegulatoryCompliance.ComplianceRule","components":[{"name":"ruleId","type":"bytes32","internalType":"bytes32"},{"name":"jurisdictionId","type":"bytes32","internalType":"bytes32"},{"name":"ruleType","type":"string","internalType":"string"},{"name":"description","type":"string","internalType":"string"},{"name":"requiredCredentialType","type":"bytes32","internalType":"bytes32"},{"name":"validityPeriod","type":"uint256","internalType":"uint256"},{"name":"mandatory","type":"bool","internalType":"bool"},{"name":"active","type":"bool","internalType":"bool"}]}],"stateMutability":"view"},{"type":"function","name":"getSanctionsList","inputs":[{"name":"jurisdictionId","type":"bytes32","internalType":"bytes32"}],"outputs":[{"name":"","type":"tuple","internalType":"struct RegulatoryCompliance.SanctionsList","components":[{"name":"merkleRoot","type":"bytes32","internalType":"bytes32"},{"name":"listSize","type":"uint256","internalType":"uint256"},{"name":"lastUpdated","type":"uint256","internalType":"uint256"},{"name":"sourceHash","type":"bytes32","internalType":"bytes32"}]}],"stateMutability":"view"},{"type":"function","name":"getTravelRuleTransfer","inputs":[{"name":"transferId","type":"bytes32","internalType":"bytes32"}],"outputs":[{"name":"","type":"tuple","internalType":"struct RegulatoryCompliance.TravelRuleRecord","components":[{"name":"transferId","type":"bytes32","internalType":"bytes32"},{"name":"originatorHash","type":"bytes32","internalType":"bytes32"},{"name":"beneficiaryHash","type":"bytes32","internalType":"bytes32"},{"name":"originatorJurisdiction","type":"bytes32","internalType":"bytes32"},{"name":"beneficiaryJurisdiction","type":"bytes32","internalType":"bytes32"},{"name":"amount","type":"uint256","internalType":"uint256"},{"name":"originatorVASPHash","type":"bytes32","internalType":"bytes32"},{"name":"beneficiaryVASPHash","type":"bytes32","internalType":"bytes32"},{"name":"timestamp","type":"uint256","internalType":"uint256"},{"name":"compliant","type":"bool","internalType":"bool"}]}],"stateMutability":"view"},{"type":"function","name":"grantRole","inputs":[{"name":"role","type":"bytes32","internalType":"bytes32"},{"name":"account","type":"address","internalType":"address"}],"outputs":[],"stateMutability":"nonpayable"},{"type":"function","name":"hasRole","inputs":[{"name":"role","type":"bytes32","internalType":"bytes32"},{"name":"account","type":"address","internalType":"address"}],"outputs":[{"name":"","type":"bool","internalType":"bool"}],"stateMutability":"view"},{"type":"function","name":"issueComplianceAttestation","inputs":[{"name":"credentialHash","type":"bytes32","internalType":"bytes32"},{"name":"jurisdictionId","type":"bytes32","internalType":"bytes32"},{"name":"status","type":"uint8","internalType":"enum RegulatoryCompliance.ComplianceStatus"},{"name":"attestationHash","type":"bytes32","internalType":"bytes32"},{"name":"kycLevel","type":"uint8","internalType":"enum RegulatoryCompliance.KYCLevel"},{"name":"satisfiedRules","type":"bytes32[]","internalType":"bytes32[]"},{"name":"validityPeriod","type":"uint256","internalType":"uint256"}],"outputs":[],"stateMutability":"nonpayable"},{"type":"function","name":"markEIDASCredential","inputs":[{"name":"credentialHash","type":"bytes32","internalType":"bytes32"},{"name":"level","type":"uint8","internalType":"enum RegulatoryCompliance.EIDASLevel"},{"name":"trustedListHash","type":"bytes32","internalType":"bytes32"},{"name":"issuerHash","type":"bytes32","internalType":"bytes32"},{"name":"validityPeriod","type":"uint256","internalType":"uint256"}],"outputs":[],"stateMutability":"nonpayable"},{"type":"function","name":"pause","inputs":[],"outputs":[],"stateMutability":"nonpayable"},{"type":"function","name":"paused","inputs":[],"outputs":[{"name":"","type":"bool","internalType":"bool"}],"stateMutability":"view"},{"type":"function","name":"recordTravelRuleTransfer","inputs":[{"name":"originatorHash","type":"bytes32","internalType":"bytes32"},{"name":"beneficiaryHash","type":"bytes32","internalType":"bytes32"},{"name":"originatorJurisdiction","type":"bytes32","internalType":"bytes32"},{"name":"beneficiaryJurisdiction","type":"bytes32","internalType":"bytes32"},{"name":"amount","type":"uint256","internalType":"uint256"},{"name":"originatorVASPHash","type":"bytes32","internalType":"bytes32"},{"name":"beneficiaryVASPHash","type":"bytes32","internalType":"bytes32"}],"outputs":[{"name":"transferId","type":"bytes32","internalType":"bytes32"}],"stateMutability":"nonpayable"},{"type":"function","name":"registerJurisdiction","inputs":[{"name":"jurisdictionId","type":"bytes32","internalType":"bytes32"},{"name":"isoCode","type":"string","internalType":"string"},{"name":"name","type":"string","internalType":"string"},{"name":"minimumKYCLevel","type":"uint8","internalType":"enum RegulatoryCompliance.KYCLevel"},{"name":"requiresEIDAS","type":"bool","internalType":"bool"},{"name":"minimumEIDASLevel","type":"uint8","internalType":"enum RegulatoryCompliance.EIDASLevel"},{"name":"travelRuleThreshold","type":"uint256","internalType":"uint256"}],"outputs":[],"stateMutability":"nonpayable"},{"type":"function","name":"renounceRole","inputs":[{"name":"role","type":"bytes32","internalType":"bytes32"},{"name":"callerConfirmation","type":"address","internalType":"address"}],"outputs":[],"stateMutability":"nonpayable"},{"type":"function","name":"revokeRole","inputs":[{"name":"role","type":"bytes32","internalType":"bytes32"},{"name":"account","type":"address","internalType":"address"}],"outputs":[],"stateMutability":"nonpayable"},{"type":"function","name":"screenSanctions","inputs":[{"name":"subjectHash","type":"bytes32","internalType":"bytes32"},{"name":"jurisdictionId","type":"bytes32","internalType":"bytes32"},{"name":"merkleProof","type":"bytes32[]","internalType":"bytes32[]"}],"outputs":[{"name":"hit","type":"bool","internalType":"bool"}],"stateMutability":"nonpayable"},{"type":"function","name":"supportsInterface","inputs":[{"name":"interfaceId","type":"bytes4","internalType":"bytes4"}],"outputs":[{"name":"","type":"bool","internalType":"bool"}],"stateMutability":"view"},{"type":"function","name":"totalAttestations","inputs":[],"outputs":[{"name":"","type":"uint256","internalType":"uint256"}],"stateMutability":"view"},{"type":"function","name":"totalReports","inputs":[],"outputs":[{"name":"","type":"uint256","internalType":"uint256"}],"stateMutability":"view"},{"type":"function","name":"totalTravelRuleTransfers","inputs":[],"outputs":[{"name":"","type":"uint256","internalType":"uint256"}],"stateMutability":"view"},{"type":"function","name":"unpause","inputs":[],"outputs":[],"stateMutability":"nonpayable"},{"type":"function","name":"updateJurisdiction","inputs":[{"name":"jurisdictionId","type":"bytes32","internalType":"bytes32"},{"name":"minimumKYCLevel","type":"uint8","internalType":"enum RegulatoryCompliance.KYCLevel"},{"name":"requiresEIDAS","type":"bool","internalType":"bool"},{"name":"minimumEIDASLevel","type":"uint8","internalType":"enum RegulatoryCompliance.EIDASLevel"},{"name":"travelRuleThreshold","type":"uint256","internalType":"uint256"}],"outputs":[],"stateMutability":"nonpayable"},{"type":"function","name":"updateSanctionsList","inputs":[{"name":"jurisdictionId","type":"bytes32","internalType":"bytes32"},{"name":"merkleRoot","type":"bytes32","internalType":"bytes32"},{"name":"listSize","type":"uint256","internalType":"uint256"},{"name":"sourceHash","type":"bytes32","internalType":"bytes32"}],"outputs":[],"stateMutability":"nonpayable"},{"type":"event","name":"ComplianceAttestationIssued","inputs":[{"name":"credentialHash","type":"bytes32","indexed":true,"internalType":"bytes32"},{"name":"jurisdictionId","type":"bytes32","indexed":true,"internalType":"bytes32"},{"name":"status","type":"uint8","indexed":false,"internalType":"enum RegulatoryCompliance.ComplianceStatus"},{"name":"timestamp","type":"uint256","indexed":false,"internalType":"uint256"}],"anonymous":false},{"type":"event","name":"ComplianceRuleAdded","inputs":[{"name":"jurisdictionId","type":"bytes32","indexed":true,"internalType":"bytes32"},{"name":"ruleId","type":"bytes32","indexed":true,"internalType":"bytes32"},{"name":"ruleType","type":"string","indexed":false,"internalType":"string"},{"name":"timestamp","type":"uint256","indexed":false,"internalType":"uint256"}],"anonymous":false},{"type":"event","name":"ComplianceStatusChanged","inputs":[{"name":"credentialHash","type":"bytes32","indexed":true,"internalType":"bytes32"},{"name":"jurisdictionId","type":"bytes32","indexed":true,"internalType":"bytes32"},{"name":"oldStatus","type":"uint8","indexed":false,"internalType":"enum RegulatoryCompliance.ComplianceStatus"},{"name":"newStatus","type":"uint8","indexed":false,"internalType":"enum RegulatoryCompliance.ComplianceStatus"},{"name":"timestamp","type":"uint256","indexed":false,"internalType":"uint256"}],"anonymous":false},{"type":"event","name":"EIDASCredentialMarked","inputs":[{"name":"credentialHash","type":"bytes32","indexed":true,"internalType":"bytes32"},{"name":"level","type":"uint8","indexed":false,"internalType":"enum RegulatoryCompliance.EIDASLevel"},{"name":"trustedListHash","type":"bytes32","indexed":true,"internalType":"bytes32"},{"name":"timestamp","type":"uint256","indexed":false,"internalType":"uint256"}],"anonymous":false},{"type":"event","name":"JurisdictionRegistered","inputs":[{"name":"jurisdictionId","type":"bytes32","indexed":true,"internalType":"bytes32"},{"name":"isoCode","type":"string","indexed":false,"internalType":"string"},{"name":"timestamp","type":"uint256","indexed":false,"internalType":"uint256"}],"anonymous":false},{"type":"event","name":"JurisdictionUpdated","inputs":[{"name":"jurisdictionId","type":"bytes32","indexed":true,"internalType":"bytes32"},{"name":"timestamp","type":"uint256","indexed":false,"internalType":"uint256"}],"anonymous":false},{"type":"event","name":"Paused","inputs":[{"name":"account","type":"address","indexed":false,"internalType":"address"}],"anonymous":false},{"type":"event","name":"RegulatoryReportCommitted","inputs":[{"name":"reportId","type":"bytes32","indexed":true,"internalType":"bytes32"},{"name":"jurisdictionId","type":"bytes32","indexed":true,"internalType":"bytes32"},{"name":"reportHash","type":"bytes32","indexed":false,"internalType":"bytes32"},{"name":"timestamp","type":"uint256","indexed":false,"internalType":"uint256"}],"anonymous":false},{"type":"event","name":"RoleAdminChanged","inputs":[{"name":"role","type":"bytes32","indexed":true,"internalType":"bytes32"},{"name":"previousAdminRole","type":"bytes32","indexed":true,"internalType":"bytes32"},{"name":"newAdminRole","type":"bytes32","indexed":true,"internalType":"bytes32"}],"anonymous":false},{"type":"event","name":"RoleGranted","inputs":[{"name":"role","type":"bytes32","indexed":true,"internalType":"bytes32"},{"name":"account","type":"address","indexed":true,"internalType":"address"},{"name":"sender","type":"address","indexed":true,"internalType":"address"}],"anonymous":false},{"type":"event","name":"RoleRevoked","inputs":[{"name":"role","type":"bytes32","indexed":true,"internalType":"bytes32"},{"name":"account","type":"address","indexed":true,"internalType":"address"},{"name":"sender","type":"address","indexed":true,"internalType":"address"}],"anonymous":false},{"type":"event","name":"SanctionsListUpdated","inputs":[{"name":"jurisdictionId","type":"bytes32","indexed":true,"internalType":"bytes32"},{"name":"newMerkleRoot","type":"bytes32","indexed":false,"internalType":"bytes32"},{"name":"listSize","type":"uint256","indexed":false,"internalType":"uint256"},{"name":"timestamp","type":"uint256","indexed":false,"internalType":"uint256"}],"anonymous":false},{"type":"event","name":"SanctionsScreeningResult","inputs":[{"name":"subjectHash","type":"bytes32","indexed":true,"internalType":"bytes32"},{"name":"jurisdictionId","type":"bytes32","indexed":true,"internalType":"bytes32"},{"name":"hit","type":"bool","indexed":false,"internalType":"bool"},{"name":"timestamp","type":"uint256","indexed":false,"internalType":"uint256"}],"anonymous":false},{"type":"event","name":"TravelRuleTransfer","inputs":[{"name":"transferId","type":"bytes32","indexed":true,"internalType":"bytes32"},{"name":"originatorJurisdiction","type":"bytes32","indexed":true,"internalType":"bytes32"},{"name":"beneficiaryJurisdiction","type":"bytes32","indexed":true,"internalType":"bytes32"},{"name":"amount","type":"uint256","indexed":false,"internalType":"uint256"},{"name":"compliant","type":"bool","indexed":false,"internalType":"bool"},{"name":"timestamp","type":"uint256","indexed":false,"internalType":"uint256"}],"anonymous":false},{"type":"event","name":"Unpaused","inputs":[{"name":"account","type":"address","indexed":false,"internalType":"address"}],"anonymous":false},{"type":"error","name":"AccessControlBadConfirmation","inputs":[]},{"type":"error","name":"AccessControlUnauthorizedAccount","inputs":[{"name":"account","type":"address","internalType":"address"},{"name":"neededRole","type":"bytes32","internalType":"bytes32"}]},{"type":"error","name":"AttestationExpired","inputs":[]},{"type":"error","name":"ComplianceCheckFailed","inputs":[]},{"type":"error","name":"CredentialNotFound","inputs":[]},{"type":"error","name":"EnforcedPause","inputs":[]},{"type":"error","name":"ExpectedPause","inputs":[]},{"type":"error","name":"InvalidCredentialType","inputs":[]},{"type":"error","name":"InvalidEIDASLevel","inputs":[]},{"type":"error","name":"InvalidJurisdictionPair","inputs":[]},{"type":"error","name":"InvalidKYCLevel","inputs":[]},{"type":"error","name":"InvalidMerkleProof","inputs":[]},{"type":"error","name":"JurisdictionAlreadyRegistered","inputs":[]},{"type":"error","name":"JurisdictionNotActive","inputs":[]},{"type":"error","name":"JurisdictionNotRegistered","inputs":[]},{"type":"error","name":"QualifiedStatusRequired","inputs":[]},{"type":"error","name":"ReentrancyGuardReentrantCall","inputs":[]},{"type":"error","name":"ReportAlreadySubmitted","inputs":[]},{"type":"error","name":"ReportNotFound","inputs":[]},{"type":"error","name":"RuleAlreadyExists","inputs":[]},{"type":"error","name":"RuleNotFound","inputs":[]},{"type":"error","name":"SanctionsHit","inputs":[]},{"type":"error","name":"TransferAmountExceeded","inputs":[]},{"type":"error","name":"TravelRuleViolation","inputs":[]}],"bytecode":{"object":"0x6080346100be57601f6134e238819003918201601f19168301916001600160401b038311848410176100c2578084926020946040528339810103126100be57516001600160a01b03811681036100be576100ae9060017f9b779b17422d0df92223018b32b4d1fa46e071723d6817e2486d003becc55f0055610080816100d6565b5061008a8161014c565b50610094816101df565b5061009e81610272565b506100a881610305565b50610398565b50604051612fd6908161042c8239f35b5f80fd5b634e487b7160e01b5f52604160045260245ffd5b6001600160a01b0381165f9081525f5160206134c25f395f51905f52602052604090205460ff16610147576001600160a01b03165f8181525f5160206134c25f395f51905f5260205260408120805460ff191660011790553391905f5160206134025f395f51905f528180a4600190565b505f90565b6001600160a01b0381165f9081525f5160206134425f395f51905f52602052604090205460ff16610147576001600160a01b03165f8181525f5160206134425f395f51905f5260205260408120805460ff191660011790553391907fb6f0283bd1ed00c6aa7e988a7516070240f3610a34d167391359b648eb37cefc905f5160206134025f395f51905f529080a4600190565b6001600160a01b0381165f9081525f5160206134225f395f51905f52602052604090205460ff16610147576001600160a01b03165f8181525f5160206134225f395f51905f5260205260408120805460ff191660011790553391907fb60c3dee89953765ec7f88f8cff07fbf07201fcb471ce2148d9402cdd7591ac6905f5160206134025f395f51905f529080a4600190565b6001600160a01b0381165f9081525f5160206134a25f395f51905f52602052604090205460ff16610147576001600160a01b03165f8181525f5160206134a25f395f51905f5260205260408120805460ff191660011790553391907f4109d771ea20fe0007a8fc213e9978dd679ee4481b784721ad3249761b602f08905f5160206134025f395f51905f529080a4600190565b6001600160a01b0381165f9081525f5160206134825f395f51905f52602052604090205460ff16610147576001600160a01b03165f8181525f5160206134825f395f51905f5260205260408120805460ff191660011790553391907f44fd81364fc929d1e5a0ef36db116c957488aef7fe7f3ac142da66917dbb49cd905f5160206134025f395f51905f529080a4600190565b6001600160a01b0381165f9081525f5160206134625f395f51905f52602052604090205460ff16610147576001600160a01b03165f8181525f5160206134625f395f51905f5260205260408120805460ff191660011790553391907fdbd6a3306bfba250a39cf004dd09508598e4ebc232a88e008ffbcf123d86b699905f5160206134025f395f51905f529080a460019056fe6080806040526004361015610012575f80fd5b5f3560e01c90816301ffc9a714612874575080630545dff81461277c57806305709bff1461263b5780630dd480af1461261e578063171c4f11146124f5578063198596b5146124bb578063248a9ca3146124895780632865a434146120425780632f2ff15d1461201357806336568abe14611fdd5780633f4ba83a14611f775780634823fc5214611dde5780634b25172114611ca457806358ddd0da14611b335780635c975abb14611b115780636048574214611af4578063620597c414611a4a57806365d312ba1461191f578063664aaa7e1461167d578063672e43641461164357806371d77f351461159957806379fb75c7146114c15780637bcbe96614611487578063817a1ee91461135557806383414955146113375780638456cb59146112df5780638da68ecc14610e6f57806391d1485414610e34578063966aa3f814610e19578063a217fddf14610dff578063aa2d1c0514610d6e578063b00eba4f14610d51578063bcdb0dce14610d2e578063d547741f14610cf8578063e103a8b114610c8d578063e947b61614610c53578063eaea8a1914610996578063eb68a7d31461095c578063f3a01bcb14610582578063f4cdebe91461037e5763fa557124146101df575f80fd5b3461037a57602036600319011261037a575f61012060405161020081612a09565b82815260606020820152606060408201528260608201528260808201528260a08201528260c08201528260e08201528261010082015201526004355f52600260205260405f2060405161025281612a09565b8154815261026260018301612a7e565b916020820192835261027660028201612a7e565b6040830190815260ff60038301541691606084019215158352600481015460808501908152600582015460ff811660a08701906102b2816128c7565b815260ff60c0880192818160081c161515845260101c169260e08801936102d8816128c7565b845261033260076006870154966101008b019788520154966101208a0197885261031f6040519b8c9b60208d525160208d01525161014060408d01526101608c01906128e7565b90518a8203601f190160608c01526128e7565b9651151560808901525160a08801525161034b816128c7565b60c087015251151560e086015251610362816128c7565b61010085015251610120840152516101408301520390f35b5f80fd5b3461037a5760a036600319011261037a57602435600435600582101561037a57335f9081527f3e7423b09180f83624488fcd3d3a860e2a8c37538b4708c8a5566d97d3f4e729602052604090205460443592906084359060ff161561054b576103e5612ebf565b6103ee826128c7565b811561053c5780156104ec577feeb967ef4e407d9b55fa30d6809ce986e5abad51decd48466a61f6e738e8ee4c916104d561042b60409342612b63565b60068451916104398361299b565b878352602083019061044a866128c7565b8582528684018a8152606085016064358152608086019142835260a0870193845260c0870194600186528c5f5260096020528a5f2097518855600188019051610492816128c7565b61049b816128c7565b60ff8019835416911617905551600287015551600386015551600485015551600584015551151591019060ff801983541691151516179055565b8151906104e1816128c7565b8152426020820152a3005b506301e133804201804211610528577feeb967ef4e407d9b55fa30d6809ce986e5abad51decd48466a61f6e738e8ee4c916104d560409261042b565b634e487b7160e01b5f52601160045260245ffd5b636932201160e11b5f5260045ffd5b63e2517d3f60e01b5f52336004527fdbd6a3306bfba250a39cf004dd09508598e4ebc232a88e008ffbcf123d86b69960245260445ffd5b3461037a5760e036600319011261037a57600435602435906044356006811015908161037a5760843591600583101561037a5760a4356001600160401b03811161037a576105d490369060040161296b565b9060c4356105e0612d10565b6105e8612ebf565b6105f0612eda565b875f52600260205260405f2060ff6003820154161561094d57600560ff91610617896128c7565b015416610623816128c7565b60ff87161080610940575b61093157801561092557945b865f52600560205260405f20885f5260205261066160ff600260405f200154169642612b63565b916040519161066f836129d2565b888352602083018a815260408401946106888987612b9e565b606085014281526080860191825260a0860192606435845260c087019533875260e08801956106b6816128c7565b86526106c18a612bf2565b996106cf6040519b8c612a25565b808b5260208b019060051b82019136831161037a57905b8282106109155750505061010087019889528c5f5260056020528d60405f20905f5260205260405f20965187555160018701556002860196519660068810156108b35760079760ff80198354169116179055516003860155516004850155516005840155600683019160018060a01b039060018060a01b03905116166bffffffffffffffffffffffff60a01b83541617825551610782816128c7565b61078b816128c7565b815460ff60a01b191660a09190911b60ff60a01b16179055915180519291909101906001600160401b03831161090157600160401b83116109015781548383558084106108db575b50602001905f5260205f205f5b8381106108c757505050506001600b5401600b5584847fcc8ad72dee99309cd7ff6933cc3dc7ccddf22eaa0c8c409daa3c34e62fea0d3960408051610825818861295e565b426020820152a36108b35760068210156108b35780821415806108aa575b61085b575b60015f516020612f815f395f51905f5255005b7f51fce25da448c4624bc95316e8a4c616e81c851a574c3e02f9eaa0dfc7cd50a59161089a606092610890604051809461295e565b602083019061295e565b426040820152a380808080610848565b50811515610843565b634e487b7160e01b5f52602160045260245ffd5b6001906020845194019381840155016107e0565b825f528360205f2091820191015b8181106108f657506107d3565b5f81556001016108e9565b634e487b7160e01b5f52604160045260245ffd5b81358152602091820191016106e6565b506301e133809461063a565b633d98a22f60e21b5f5260045ffd5b505f93506001851461062e565b63889e808760e01b5f5260045ffd5b3461037a575f36600319011261037a5760206040517f4109d771ea20fe0007a8fc213e9978dd679ee4481b784721ad3249761b602f088152f35b3461037a5760e036600319011261037a57335f9081527fcca4d83eb2df60b72e6990506d17c8603a9599c4eac2ac50441c467e9c0555776020526040902054600435906084359060243590606435906044359060ff1615610c1c576109f9612ebf565b610a01612eda565b805f52600260205260405f2093825f52600260205260405f209460ff600382015416158015610c0d575b610bfe5760060154811094851595610bef575b50610a498287612f12565b90610a548486612f12565b918615928315610bd4575b505060405160208101908882528660408201528260608201524260808201523360601b60a082015260948152610a9660b482612a25565b51902096879260405190610aa982612a09565b8482526020820192835260408201978852606082018681526080830188815260a0840186815260c085019060a435825260e086019260c4358452610100870194428652610120880196159d8e15998a89528c5f52600860205260405f2099518a555160018a01555160028901555160038801555160048701555160058601555160068501555160078401555160088301555115159060090190610b57919060ff801983541691151516179055565b600d54600101600d55604051918252602082015242604082015260607fcf0b0a4ec1b6d1584a2ccac3d990f0db47202f9d3432e49cfd00167e91f05f7191a481610bcc575b50610bbd5760209060015f516020612f815f395f51905f5255604051908152f35b630bf42cc160e11b5f5260045ffd5b905082610b9c565b9192509081610be7575b50908780610a5f565b905087610bde565b60060154811015945086610a3e565b63491ad86760e01b5f5260045ffd5b5060ff60038701541615610a2b565b63e2517d3f60e01b5f52336004527f44fd81364fc929d1e5a0ef36db116c957488aef7fe7f3ac142da66917dbb49cd60245260445ffd5b3461037a575f36600319011261037a5760206040517f44fd81364fc929d1e5a0ef36db116c957488aef7fe7f3ac142da66917dbb49cd8152f35b3461037a57602036600319011261037a576004355f526004602052610cb460405f20612baa565b6040518091602082016020835281518091526020604084019201905f5b818110610cdf575050500390f35b8251845285945060209384019390920191600101610cd1565b3461037a57610d2c610d0936612938565b90610d27610d22825f525f602052600160405f20015490565b612d7f565b612e3f565b005b3461037a575f36600319011261037a576020604051683635c9adc5dea000008152f35b3461037a575f36600319011261037a576020600c54604051908152f35b3461037a57602036600319011261037a575f6060604051610d8e816129ee565b82815282602082015282604082015201526004355f526007602052608060405f20604051610dbb816129ee565b815491828252600181015460208301908152606060036002840154936040860194855201549301928352604051938452516020840152516040830152516060820152f35b3461037a575f36600319011261037a5760206040515f8152f35b3461037a575f36600319011261037a57602060405160328152f35b3461037a57610e4236612938565b905f525f60205260405f209060018060a01b03165f52602052602060ff60405f2054166040519015158152f35b3461037a5760e036600319011261037a576004356024356001600160401b03811161037a57610ea290369060040161290b565b906044356001600160401b03811161037a57610ec290369060040161290b565b606435600581101561037a576084359081151580920361037a5760a435600581101561037a5760c435610ef3612c52565b885f52600260205260ff600360405f200154166112d05780156112bf57925b610f3f60405196610f2288612a09565b8a8852610f30368b8b612b1e565b96602089019788523691612b1e565b604087019081526060870160018152608088019142835260a0890195610f64816128c7565b865260c0890193845260e0890194610f7b816128c7565b855261010089019687526101208901975f89528c5f52600260205260405f2099518a5560018a0190518051906001600160401b038211610901578190610fc18454612a46565b601f811161126f575b50602090601f831160011461120c575f92611201575b50508160011b915f199060031b1c19161790555b51805160028a01916001600160401b038211610901576110148354612a46565b601f81116111bc575b50602090601f8311600114611146579360079a99989693836110bb999794611076946110ab985f9261113b575b50508160011b915f199060031b1c19161790555b51151560038c019060ff801983541691151516179055565b5160048a015561109460058a01945161108e816128c7565b85612c19565b51835461ff00191690151560081b61ff0016178355565b51906110b6826128c7565b612c31565b51600684015551910155600a5491600160401b831015610901576001830180600a5583101561112757837f9dce262b665e9af712864544ce41ea27f2c5325adb2da776fbb11719a62cfdd093600a5f5260205f200155611122604051928392429184612b70565b0390a2005b634e487b7160e01b5f52603260045260245ffd5b015190505f8061104a565b90601f19831691845f52815f20925f5b8181106111a4575084611076946110ab989460079f9e9d9b98946110bb9d9b986001951061118c575b505050811b01905561105e565b01515f1960f88460031b161c191690555f808061117f565b92936020600181928786015181550195019301611156565b835f5260205f20601f840160051c810191602085106111f7575b601f0160051c01905b8181106111ec575061101d565b5f81556001016111df565b90915081906111d6565b015190508f80610fe0565b5f8581528281209350601f198516905b818110611257575090846001959493921061123f575b505050811b019055610ff4565b01515f1960f88460031b161c191690558f8080611232565b9293602060018192878601518155019501930161121c565b909150835f5260205f20601f840160051c810191602085106112b5575b90601f859493920160051c01905b8181106112a75750610fca565b5f815584935060010161129a565b909150819061128c565b50683635c9adc5dea0000092610f12565b63ddc7bbd560e01b5f5260045ffd5b3461037a575f36600319011261037a576112f7612cc1565b6112ff612ebf565b600160ff19815416176001557f62e78cea01bee320cd4e420270b5ea74000d11b0c9f74754ebdbfc544b05a2586020604051338152a1005b3461037a575f36600319011261037a5760206040516301e133808152f35b3461037a57602036600319011261037a575f61012060405161137681612a09565b8281528260208201528260408201528260608201528260808201528260a08201528260c08201528260e08201528261010082015201526004355f52600860205261014060405f206040516113c981612a09565b81549182825260018101546020830190815260028201546040840190815260038301546060850190815260048401546080860190815260058501549160a0870192835260068601549360c0880194855260078701549560e0890196875261012060ff600960088b01549a6101008d019b8c5201541699019815158952604051998a525160208a01525160408901525160608801525160808701525160a08601525160c08501525160e084015251610100830152511515610120820152f35b3461037a575f36600319011261037a5760206040517fb60c3dee89953765ec7f88f8cff07fbf07201fcb471ce2148d9402cdd7591ac68152f35b3461037a5760a036600319011261037a57600435602435600581101561037a5760443590811515820361037a5760643591600583101561037a5760843592611507612c52565b845f52600260205260405f209260ff6003850154161561158a576110b661154c93611536600587019384612c19565b825461ff00191690151560081b61ff0016178255565b8161157f575b827f2b60fec84c2c3062e699f2cbfcf2e1b2fd3f8f0f3e8493b7185eeac43a1ef99b6020604051428152a2005b600601558180611552565b636c3a2ef360e11b5f5260045ffd5b3461037a57604036600319011261037a57602435600581101561037a576040906004355f526009602052815f2060ff6001820154169060ff6006820154169283611621575b50826115fd575b50825191151582526115f6816128c7565b6020820152f35b600591925001548015908115611616575b5090836115e5565b90504211158361160e565b60ff91935061162f836128c7565b611638816128c7565b1681101591846115de565b3461037a575f36600319011261037a5760206040517fdbd6a3306bfba250a39cf004dd09508598e4ebc232a88e008ffbcf123d86b6998152f35b3461037a5760c036600319011261037a576024356004356044356064356001600160401b03811161037a576116b690369060040161290b565b906116bf612d10565b6116c7612ebf565b835f526006602052600460405f20015461191057845f52600260205260ff600360405f200154161561094d5760405191611700836129b6565b84835261171d602084019287845260408501928684523691612b1e565b606084019081526080840142815260a085019133835260c0860193608435855260e087019560a4358752895f52600660205260405f20975188555160018801555160028701556003860190518051906001600160401b038211610901576117848354612a46565b601f81116118cb575b50602090601f831160011461183c579282600796937f57b49ffabfd8c1893a5ac03b8be9d76bb73c8d4787d4e29a5c1c0e3ae2836cbb9b99969360409b99965f92611831575b50508160011b915f199060031b1c19161790555b516004860155516005850180546001600160a01b0319166001600160a01b039290921691909117905551600684015551910155600c805460010190558151908152426020820152a3005b015190508e806117d3565b90601f19831691845f52815f20925f5b8181106118b35750937f57b49ffabfd8c1893a5ac03b8be9d76bb73c8d4787d4e29a5c1c0e3ae2836cbb9b99969360409b9996936001938360079b981061189b575b505050811b0190556117e7565b01515f1960f88460031b161c191690558e808061188e565b9293602060018192878601518155019501930161184c565b835f5260205f20601f840160051c81019160208510611906575b601f0160051c01905b8181106118fb575061178d565b5f81556001016118ee565b90915081906118e5565b63cc0220a960e01b5f5260045ffd5b3461037a57608036600319011261037a57335f9081527f7921888e560456c693659fa2d0c7b2619544565d52ae0c65275d78cd1ac7dac1602052604090205460043590602435906044359060ff1615611a135761197a612ebf565b825f52600260205260ff600360405f200154161561094d577f70ce68b4edd95beff338680abe34c2001202fb6aae27ad1a4d23c3725d92f091916060916040516119c3816129ee565b82815260036020820183815260408301428152868401916064358352895f52600760205260405f2094518555516001850155516002840155519101556040519182526020820152426040820152a2005b63e2517d3f60e01b5f52336004527f4109d771ea20fe0007a8fc213e9978dd679ee4481b784721ad3249761b602f0860245260445ffd5b3461037a57611a58366128d1565b905f52600560205260405f20905f5260205260405f2060ff600282015416600460ff600684015460a01c169201549160068210156108b35760809260018314918215611ae9575b82611ace575b611ab2604051809561295e565b611abb816128c7565b6020840152604083015215156060820152f35b915080158015611adf575b91611aa5565b5080421115611ad9565b600584149250611a9f565b3461037a575f36600319011261037a576020600b54604051908152f35b3461037a575f36600319011261037a57602060ff600154166040519015158152f35b3461037a57604036600319011261037a576004356024356001600160401b03811161037a57611b6690369060040161296b565b5f92611b7182612bf2565b92611b7f6040519485612a25565b828452611b8b83612bf2565b602085019390601f19013685375f5b818110611bf657505050506040519283926040840191845260406020850152518091526060830191905f5b818110611bd3575050500390f35b9193509160208082611be8600194885161295e565b019401910191849392611bc5565b835f9795969752600560205260405f20611c11828486612c09565b355f5260205260405f2060ff60028201541690885183101561112757611c3f8260208560051b8c0101612b9e565b60068210156108b35760018214918215611c99575b5081611c78575b50611c6d575b60010195949395611b9a565b600190940193611c61565b60040154801591508115611c8e575b5088611c5b565b905042111588611c87565b600514915089611c54565b3461037a57606036600319011261037a576004356024356044356001600160401b03811161037a57611cda90369060040161296b565b90611ce3612ebf565b825f52600760205260405f2060028101541561094d57549184915f91905b818310611d595750505014917f7d73078e87d4e3aad9115c98e88cc9c9938221f59663731557dccb7a6e414bd360408051858152426020820152a3611d4a5760206040515f8152f35b633fc9768560e21b5f5260045ffd5b909192600190611d6a858585612c09565b358111611da957611d7c858585612c09565b356040519060208201928352604082015260408152611d9c606082612a25565b519020935b019190611d01565b611db4858585612c09565b35906040519060208201928352604082015260408152611dd5606082612a25565b51902093611da1565b3461037a57611dec366128d1565b906060610100604051611dfe816129d2565b5f81525f60208201525f60408201525f838201525f60808201525f60a08201525f60c08201525f60e082015201525f52600560205260405f20905f5260205260405f20604051611e4d816129d2565b815481526001820154906020810191825260ff60028401541692611e75604083019485612b9e565b60038101549060608301918252600481015460808401908152600582015460a08501908152600683015491611ed2600760ff60c089019560018060a01b038116875260a01c169560e0890196611eca816128c7565b875201612baa565b946101008701958652611f05604051998a9960208b526101408b01995160208c01525160408b01525160608a019061295e565b5160808801525160a08701525160c0860152516001600160a01b031660e085015251611f30816128c7565b6101008401525190610120808401528151809152602061016084019201905f5b818110611f5e575050500390f35b8251845285945060209384019390920191600101611f50565b3461037a575f36600319011261037a57611f8f612cc1565b60015460ff811615611fce5760ff19166001557f5db9ee0a495bf2e6ff9c91a7834c1ba4fdd244a5e8aa4e537bd38aeae4b073aa6020604051338152a1005b638dfc202b60e01b5f5260045ffd5b3461037a57611feb36612938565b336001600160a01b0382160361200457610d2c91612e3f565b63334bd91960e11b5f5260045ffd5b3461037a57610d2c61202436612938565b9061203d610d22825f525f602052600160405f20015490565b612db7565b3461037a5760e036600319011261037a576024356004356044356001600160401b03811161037a5761207890369060040161290b565b906064356001600160401b03811161037a5761209890369060040161290b565b60a435939160c435801515929083900361037a576120b4612c52565b865f52600260205260405f2060ff6003820154161561158a57875f52600360205260405f20895f5260205260ff600660405f20015460081c1661247a576007019560328754101561247a57801561246f575b60405191612113836129b6565b89835261213b60208401948a865261212c36898b612b1e565b92604086019384523691612b1e565b606084019081526080840191608435835260a0850193845260c0850196875260e0850195600187528b5f52600360205260405f208d5f5260205260405f20955186555160018601556002850190518051906001600160401b0382116109015781906121a68454612a46565b601f811161241f575b50602090601f83116001146123bc575f926123b1575b50508160011b915f199060031b1c19161790555b51805160038501916001600160401b038211610901576121f98354612a46565b601f811161236c575b50602090601f83116001146122fb5792826122619693600696936122789b9a99965f926122f0575b50508160011b915f199060031b1c19161790555b5160048301555160058201550192511515839060ff801983541691151516179055565b51815461ff00191690151560081b61ff0016179055565b835f52600460205260405f208054600160401b81101561090157600181018083558110156111275786915f5260205f200155825460018101809111610528577f1e80307a85850f4b70e432492c4b7043ea40c516d49d479b389940e50905bd7693556122eb604051928392429184612b70565b0390a3005b015190505f8061222a565b90601f19831691845f52815f20925f5b818110612354575093600696936122789b9a999693600193836122619b981061233c575b505050811b01905561223e565b01515f1960f88460031b161c191690555f808061232f565b9293602060018192878601518155019501930161230b565b835f5260205f20601f840160051c810191602085106123a7575b601f0160051c01905b81811061239c5750612202565b5f815560010161238f565b9091508190612386565b015190508e806121c5565b5f8581528281209350601f198516905b81811061240757509084600195949392106123ef575b505050811b0190556121d9565b01515f1960f88460031b161c191690558e80806123e2565b929360206001819287860151815501950193016123cc565b909150835f5260205f20601f840160051c81019160208510612465575b90601f859493920160051c01905b81811061245757506121af565b5f815584935060010161244a565b909150819061243c565b506301e13380612106565b6327c6534560e01b5f5260045ffd5b3461037a57602036600319011261037a5760206124b36004355f525f602052600160405f20015490565b604051908152f35b3461037a575f36600319011261037a5760206040517fb6f0283bd1ed00c6aa7e988a7516070240f3610a34d167391359b648eb37cefc8152f35b3461037a57602036600319011261037a575f60e0604051612515816129b6565b8281528260208201528260408201526060808201528260808201528260a08201528260c082015201526004355f52600660205260405f20604051612558816129b6565b815481526001820154916020820192835260028101546040830190815261258160038301612a7e565b9160608401928352600481015492608085019384526125f760018060a01b036005840154169160a08701928352600760068501549460c0890195865201549460e0880195865260405198899860208a525160208a01525160408901525160608801525161010060808801526101208701906128e7565b935160a0860152516001600160a01b031660c08501525160e0840152516101008301520390f35b3461037a575f36600319011261037a576020600d54604051908152f35b3461037a57612649366128d1565b905f60e0604051612659816129b6565b828152826020820152606060408201526060808201528260808201528260a08201528260c082015201525f52600360205260405f20905f5260205260405f206040516126a4816129b6565b81548152600182015491602082019283526126c160028201612a7e565b604083019081526126d460038301612a7e565b90606084019182526004830154926080850193845261275a600660058301549260a0880193845201549361274760c088019460ff87161515865260ff60e08a019760081c1615158752604051998a9960208b525160208b01525160408a01525161010060608a01526101208901906128e7565b9051878203601f190160808901526128e7565b935160a08601525160c085015251151560e08401525115156101008301520390f35b3461037a57602036600319011261037a575f60c060405161279c8161299b565b8281528260208201528260408201528260608201528260808201528260a082015201526004355f52600960205260e060405f20604051906127dc8261299b565b8054825260ff6001820154169060208301916127f7816128c7565b82526002810154604084019081526003820154606085019081526004830154916080860192835260ff600660058601549560a089019687520154169460c087019515158652604051965187525161284d816128c7565b60208701525160408601525160608501525160808401525160a083015251151560c0820152f35b3461037a57602036600319011261037a576004359063ffffffff60e01b821680920361037a57602091637965db0b60e01b81149081156128b6575b5015158152f35b6301ffc9a760e01b149050836128af565b600511156108b357565b604090600319011261037a576004359060243590565b805180835260209291819084018484015e5f828201840152601f01601f1916010190565b9181601f8401121561037a578235916001600160401b03831161037a576020838186019501011161037a57565b604090600319011261037a57600435906024356001600160a01b038116810361037a5790565b9060068210156108b35752565b9181601f8401121561037a578235916001600160401b03831161037a576020808501948460051b01011161037a57565b60e081019081106001600160401b0382111761090157604052565b61010081019081106001600160401b0382111761090157604052565b61012081019081106001600160401b0382111761090157604052565b608081019081106001600160401b0382111761090157604052565b61014081019081106001600160401b0382111761090157604052565b90601f801991011681019081106001600160401b0382111761090157604052565b90600182811c92168015612a74575b6020831014612a6057565b634e487b7160e01b5f52602260045260245ffd5b91607f1691612a55565b9060405191825f825492612a9184612a46565b8084529360018116908115612afc5750600114612ab8575b50612ab692500383612a25565b565b90505f9291925260205f20905f915b818310612ae0575050906020612ab6928201015f612aa9565b6020919350806001915483858901015201910190918492612ac7565b905060209250612ab694915060ff191682840152151560051b8201015f612aa9565b9291926001600160401b0382116109015760405191612b47601f8201601f191660200184612a25565b82948184528183011161037a578281602093845f960137010152565b9190820180921161052857565b9392918060609160209360408852816040890152838801375f828288010152601f8019910116850101930152565b60068210156108b35752565b90604051918281549182825260208201905f5260205f20925f5b818110612bd9575050612ab692500383612a25565b8454835260019485019487945060209093019201612bc4565b6001600160401b0381116109015760051b60200190565b91908110156111275760051b0190565b90612c23816128c7565b60ff80198354169116179055565b90612c3b816128c7565b62ff000082549160101b169062ff00001916179055565b335f9081527fa6b7f2d7ed0c4cc17558284e4fb55c68543f2890b04e31a62fdba4baf0a644d1602052604090205460ff1615612c8a57565b63e2517d3f60e01b5f52336004527fb60c3dee89953765ec7f88f8cff07fbf07201fcb471ce2148d9402cdd7591ac660245260445ffd5b335f9081527fad3228b676f7d3cd4284a5443f17f1962b36e491b30a40b2405849e597ba5fb5602052604090205460ff1615612cf957565b63e2517d3f60e01b5f52336004525f60245260445ffd5b335f9081527f3a23f3a59d99cc05771291f7d14db8dc89910c5edd6302658701a433d05c7fc0602052604090205460ff1615612d4857565b63e2517d3f60e01b5f52336004527fb6f0283bd1ed00c6aa7e988a7516070240f3610a34d167391359b648eb37cefc60245260445ffd5b5f8181526020818152604080832033845290915290205460ff1615612da15750565b63e2517d3f60e01b5f523360045260245260445ffd5b5f818152602081815260408083206001600160a01b038616845290915290205460ff16612e39575f818152602081815260408083206001600160a01b0395909516808452949091528120805460ff19166001179055339291907f2f8788117e7eff1d82e926ec794901d17c78024a50270940304540a733656f0d9080a4600190565b50505f90565b5f818152602081815260408083206001600160a01b038616845290915290205460ff1615612e39575f818152602081815260408083206001600160a01b0395909516808452949091528120805460ff19169055339291907ff6391f5c32d9c69d2a47ea670b442974b53935d1edc7fd64eb21e047a839171b9080a4600190565b60ff60015416612ecb57565b63d93c066560e01b5f5260045ffd5b60025f516020612f815f395f51905f525414612f035760025f516020612f815f395f51905f5255565b633ee5aeb560e01b5f5260045ffd5b5f52600560205260405f20905f5260205260405f2060ff60028201541660068110156108b35760018114159081612f74575b50612f6f57600401548015159081612f65575b50612f6157600190565b5f90565b905042115f612f57565b505f90565b6005915014155f612f4456fe9b779b17422d0df92223018b32b4d1fa46e071723d6817e2486d003becc55f00a26469706673582212207af3b85bbdb24863ecd06e69158ebfc4ceb504c8f6c013137f4d89465bba6c3e64736f6c634300081c00332f8788117e7eff1d82e926ec794901d17c78024a50270940304540a733656f0da6b7f2d7ed0c4cc17558284e4fb55c68543f2890b04e31a62fdba4baf0a644d13a23f3a59d99cc05771291f7d14db8dc89910c5edd6302658701a433d05c7fc03e7423b09180f83624488fcd3d3a860e2a8c37538b4708c8a5566d97d3f4e729cca4d83eb2df60b72e6990506d17c8603a9599c4eac2ac50441c467e9c0555777921888e560456c693659fa2d0c7b2619544565d52ae0c65275d78cd1ac7dac1ad3228b676f7d3cd4284a5443f17f1962b36e491b30a40b2405849e597ba5fb5","linkReferences":{}},"methodIdentifiers":{"COMPLIANCE_OFFICER_ROLE()":"198596b5","DEFAULT_ADMIN_ROLE()":"a217fddf","DEFAULT_ATTESTATION_VALIDITY()":"83414955","EIDAS_AUTHORITY_ROLE()":"672e4364","FATF_TRAVEL_RULE_THRESHOLD()":"bcdb0dce","JURISDICTION_ADMIN_ROLE()":"7bcbe966","MAX_RULES_PER_JURISDICTION()":"966aa3f8","SANCTIONS_ORACLE_ROLE()":"eb68a7d3","TRAVEL_RULE_ROLE()":"e947b616","addComplianceRule(bytes32,bytes32,string,string,bytes32,uint256,bool)":"2865a434","checkCompliance(bytes32,bytes32)":"620597c4","checkEIDAS(bytes32,uint8)":"71d77f35","checkMultiJurisdictionCompliance(bytes32,bytes32[])":"58ddd0da","commitReport(bytes32,bytes32,bytes32,string,uint256,uint256)":"664aaa7e","getAttestation(bytes32,bytes32)":"4823fc52","getEIDASMarker(bytes32)":"0545dff8","getJurisdiction(bytes32)":"fa557124","getJurisdictionRuleIds(bytes32)":"e103a8b1","getReport(bytes32)":"171c4f11","getRoleAdmin(bytes32)":"248a9ca3","getRule(bytes32,bytes32)":"05709bff","getSanctionsList(bytes32)":"aa2d1c05","getTravelRuleTransfer(bytes32)":"817a1ee9","grantRole(bytes32,address)":"2f2ff15d","hasRole(bytes32,address)":"91d14854","issueComplianceAttestation(bytes32,bytes32,uint8,bytes32,uint8,bytes32[],uint256)":"f3a01bcb","markEIDASCredential(bytes32,uint8,bytes32,bytes32,uint256)":"f4cdebe9","pause()":"8456cb59","paused()":"5c975abb","recordTravelRuleTransfer(bytes32,bytes32,bytes32,bytes32,uint256,bytes32,bytes32)":"eaea8a19","registerJurisdiction(bytes32,string,string,uint8,bool,uint8,uint256)":"8da68ecc","renounceRole(bytes32,address)":"36568abe","revokeRole(bytes32,address)":"d547741f","screenSanctions(bytes32,bytes32,bytes32[])":"4b251721","supportsInterface(bytes4)":"01ffc9a7","totalAttestations()":"60485742","totalReports()":"b00eba4f","totalTravelRuleTransfers()":"0dd480af","unpause()":"3f4ba83a","updateJurisdiction(bytes32,uint8,bool,uint8,uint256)":"79fb75c7","updateSanctionsList(bytes32,bytes32,uint256,bytes32)":"65d312ba"},"id":6}