{"abi":[{"type":"constructor","inputs":[{"name":"admin","type":"address","internalType":"address"}],"stateMutability":"nonpayable"},{"type":"receive","stateMutability":"payable"},{"type":"function","name":"ADMIN_ROLE","inputs":[],"outputs":[{"name":"","type":"bytes32","internalType":"bytes32"}],"stateMutability":"view"},{"type":"function","name":"DEFAULT_ADMIN_ROLE","inputs":[],"outputs":[{"name":"","type":"bytes32","internalType":"bytes32"}],"stateMutability":"view"},{"type":"function","name":"GOVERNANCE_ROLE","inputs":[],"outputs":[{"name":"","type":"bytes32","internalType":"bytes32"}],"stateMutability":"view"},{"type":"function","name":"MAX_ATTESTATION_VALIDITY","inputs":[],"outputs":[{"name":"","type":"uint64","internalType":"uint64"}],"stateMutability":"view"},{"type":"function","name":"MIN_ATTESTATION_VALIDITY","inputs":[],"outputs":[{"name":"","type":"uint64","internalType":"uint64"}],"stateMutability":"view"},{"type":"function","name":"MIN_NODE_STAKE","inputs":[],"outputs":[{"name":"","type":"uint256","internalType":"uint256"}],"stateMutability":"view"},{"type":"function","name":"SLASHER_ROLE","inputs":[],"outputs":[{"name":"","type":"bytes32","internalType":"bytes32"}],"stateMutability":"view"},{"type":"function","name":"TEE_NODE_ROLE","inputs":[],"outputs":[{"name":"","type":"bytes32","internalType":"bytes32"}],"stateMutability":"view"},{"type":"function","name":"addStake","inputs":[],"outputs":[],"stateMutability":"payable"},{"type":"function","name":"allowMeasurement","inputs":[{"name":"measurementHash","type":"bytes32","internalType":"bytes32"},{"name":"platform","type":"uint8","internalType":"enum TEEPlatform"}],"outputs":[],"stateMutability":"nonpayable"},{"type":"function","name":"disablePlatform","inputs":[{"name":"platform","type":"uint8","internalType":"enum TEEPlatform"}],"outputs":[],"stateMutability":"nonpayable"},{"type":"function","name":"getAttestation","inputs":[{"name":"enclaveHash","type":"bytes32","internalType":"bytes32"}],"outputs":[{"name":"","type":"tuple","internalType":"struct AttestationReport","components":[{"name":"enclaveHash","type":"bytes32","internalType":"bytes32"},{"name":"platform","type":"uint8","internalType":"enum TEEPlatform"},{"name":"attestedAt","type":"uint64","internalType":"uint64"},{"name":"expiresAt","type":"uint64","internalType":"uint64"},{"name":"reportDataHash","type":"bytes32","internalType":"bytes32"},{"name":"nodeOperator","type":"address","internalType":"address"},{"name":"isValid","type":"bool","internalType":"bool"}]}],"stateMutability":"view"},{"type":"function","name":"getAttestationHistoryLength","inputs":[{"name":"enclaveHash","type":"bytes32","internalType":"bytes32"}],"outputs":[{"name":"","type":"uint256","internalType":"uint256"}],"stateMutability":"view"},{"type":"function","name":"getNodeOperator","inputs":[{"name":"operator","type":"address","internalType":"address"}],"outputs":[{"name":"","type":"tuple","internalType":"struct TEEAttestationRegistry.NodeOperator","components":[{"name":"operator","type":"address","internalType":"address"},{"name":"stakedAmount","type":"uint256","internalType":"uint256"},{"name":"registeredAt","type":"uint64","internalType":"uint64"},{"name":"attestationCount","type":"uint32","internalType":"uint32"},{"name":"slashCount","type":"uint32","internalType":"uint32"},{"name":"isActive","type":"bool","internalType":"bool"}]}],"stateMutability":"view"},{"type":"function","name":"getPlatformPolicy","inputs":[{"name":"platform","type":"uint8","internalType":"enum TEEPlatform"}],"outputs":[{"name":"","type":"tuple","internalType":"struct TEEAttestationRegistry.PlatformPolicy","components":[{"name":"minFreshness","type":"uint64","internalType":"uint64"},{"name":"maxValidityDuration","type":"uint64","internalType":"uint64"},{"name":"isEnabled","type":"bool","internalType":"bool"},{"name":"signingKey","type":"address","internalType":"address"}]}],"stateMutability":"view"},{"type":"function","name":"getRoleAdmin","inputs":[{"name":"role","type":"bytes32","internalType":"bytes32"}],"outputs":[{"name":"","type":"bytes32","internalType":"bytes32"}],"stateMutability":"view"},{"type":"function","name":"grantRole","inputs":[{"name":"role","type":"bytes32","internalType":"bytes32"},{"name":"account","type":"address","internalType":"address"}],"outputs":[],"stateMutability":"nonpayable"},{"type":"function","name":"hasRole","inputs":[{"name":"role","type":"bytes32","internalType":"bytes32"},{"name":"account","type":"address","internalType":"address"}],"outputs":[{"name":"","type":"bool","internalType":"bool"}],"stateMutability":"view"},{"type":"function","name":"isAttestationFresh","inputs":[{"name":"enclaveHash","type":"bytes32","internalType":"bytes32"}],"outputs":[{"name":"fresh","type":"bool","internalType":"bool"}],"stateMutability":"view"},{"type":"function","name":"isAttestationValid","inputs":[{"name":"enclaveHash","type":"bytes32","internalType":"bytes32"}],"outputs":[{"name":"","type":"bool","internalType":"bool"}],"stateMutability":"view"},{"type":"function","name":"isMeasurementAllowed","inputs":[{"name":"measurementHash","type":"bytes32","internalType":"bytes32"}],"outputs":[{"name":"","type":"bool","internalType":"bool"}],"stateMutability":"view"},{"type":"function","name":"pause","inputs":[],"outputs":[],"stateMutability":"nonpayable"},{"type":"function","name":"paused","inputs":[],"outputs":[{"name":"","type":"bool","internalType":"bool"}],"stateMutability":"view"},{"type":"function","name":"registerNodeOperator","inputs":[],"outputs":[],"stateMutability":"payable"},{"type":"function","name":"renounceRole","inputs":[{"name":"role","type":"bytes32","internalType":"bytes32"},{"name":"callerConfirmation","type":"address","internalType":"address"}],"outputs":[],"stateMutability":"nonpayable"},{"type":"function","name":"revokeAttestation","inputs":[{"name":"enclaveHash","type":"bytes32","internalType":"bytes32"}],"outputs":[],"stateMutability":"nonpayable"},{"type":"function","name":"revokeMeasurement","inputs":[{"name":"measurementHash","type":"bytes32","internalType":"bytes32"}],"outputs":[],"stateMutability":"nonpayable"},{"type":"function","name":"revokeRole","inputs":[{"name":"role","type":"bytes32","internalType":"bytes32"},{"name":"account","type":"address","internalType":"address"}],"outputs":[],"stateMutability":"nonpayable"},{"type":"function","name":"setPlatformPolicy","inputs":[{"name":"platform","type":"uint8","internalType":"enum TEEPlatform"},{"name":"minFreshness","type":"uint64","internalType":"uint64"},{"name":"maxValidityDuration","type":"uint64","internalType":"uint64"},{"name":"signingKey","type":"address","internalType":"address"}],"outputs":[],"stateMutability":"nonpayable"},{"type":"function","name":"slashOperator","inputs":[{"name":"operator","type":"address","internalType":"address"},{"name":"amount","type":"uint256","internalType":"uint256"},{"name":"reason","type":"bytes32","internalType":"bytes32"}],"outputs":[],"stateMutability":"nonpayable"},{"type":"function","name":"submitAttestation","inputs":[{"name":"enclaveHash","type":"bytes32","internalType":"bytes32"},{"name":"platform","type":"uint8","internalType":"enum TEEPlatform"},{"name":"reportDataHash","type":"bytes32","internalType":"bytes32"},{"name":"attestationSignature","type":"bytes","internalType":"bytes"},{"name":"validityDuration","type":"uint64","internalType":"uint64"}],"outputs":[],"stateMutability":"nonpayable"},{"type":"function","name":"supportsInterface","inputs":[{"name":"interfaceId","type":"bytes4","internalType":"bytes4"}],"outputs":[{"name":"","type":"bool","internalType":"bool"}],"stateMutability":"view"},{"type":"function","name":"totalActiveAttestations","inputs":[],"outputs":[{"name":"","type":"uint256","internalType":"uint256"}],"stateMutability":"view"},{"type":"function","name":"totalStaked","inputs":[],"outputs":[{"name":"","type":"uint256","internalType":"uint256"}],"stateMutability":"view"},{"type":"function","name":"unpause","inputs":[],"outputs":[],"stateMutability":"nonpayable"},{"type":"function","name":"withdrawStake","inputs":[],"outputs":[],"stateMutability":"nonpayable"},{"type":"event","name":"AttestationRevoked","inputs":[{"name":"enclaveHash","type":"bytes32","indexed":true,"internalType":"bytes32"},{"name":"timestamp","type":"uint64","indexed":false,"internalType":"uint64"}],"anonymous":false},{"type":"event","name":"AttestationSubmitted","inputs":[{"name":"enclaveHash","type":"bytes32","indexed":true,"internalType":"bytes32"},{"name":"platform","type":"uint8","indexed":false,"internalType":"enum TEEPlatform"},{"name":"nodeOperator","type":"address","indexed":true,"internalType":"address"}],"anonymous":false},{"type":"event","name":"MeasurementAllowed","inputs":[{"name":"measurementHash","type":"bytes32","indexed":true,"internalType":"bytes32"},{"name":"platform","type":"uint8","indexed":false,"internalType":"enum TEEPlatform"}],"anonymous":false},{"type":"event","name":"MeasurementRevoked","inputs":[{"name":"measurementHash","type":"bytes32","indexed":true,"internalType":"bytes32"}],"anonymous":false},{"type":"event","name":"NodeOperatorDeactivated","inputs":[{"name":"operator","type":"address","indexed":true,"internalType":"address"}],"anonymous":false},{"type":"event","name":"NodeOperatorRegistered","inputs":[{"name":"operator","type":"address","indexed":true,"internalType":"address"},{"name":"stakeAmount","type":"uint256","indexed":false,"internalType":"uint256"}],"anonymous":false},{"type":"event","name":"NodeOperatorSlashed","inputs":[{"name":"operator","type":"address","indexed":true,"internalType":"address"},{"name":"slashAmount","type":"uint256","indexed":false,"internalType":"uint256"},{"name":"reason","type":"bytes32","indexed":false,"internalType":"bytes32"}],"anonymous":false},{"type":"event","name":"Paused","inputs":[{"name":"account","type":"address","indexed":false,"internalType":"address"}],"anonymous":false},{"type":"event","name":"PlatformPolicyUpdated","inputs":[{"name":"platform","type":"uint8","indexed":false,"internalType":"enum TEEPlatform"},{"name":"minFreshness","type":"uint64","indexed":false,"internalType":"uint64"}],"anonymous":false},{"type":"event","name":"RoleAdminChanged","inputs":[{"name":"role","type":"bytes32","indexed":true,"internalType":"bytes32"},{"name":"previousAdminRole","type":"bytes32","indexed":true,"internalType":"bytes32"},{"name":"newAdminRole","type":"bytes32","indexed":true,"internalType":"bytes32"}],"anonymous":false},{"type":"event","name":"RoleGranted","inputs":[{"name":"role","type":"bytes32","indexed":true,"internalType":"bytes32"},{"name":"account","type":"address","indexed":true,"internalType":"address"},{"name":"sender","type":"address","indexed":true,"internalType":"address"}],"anonymous":false},{"type":"event","name":"RoleRevoked","inputs":[{"name":"role","type":"bytes32","indexed":true,"internalType":"bytes32"},{"name":"account","type":"address","indexed":true,"internalType":"address"},{"name":"sender","type":"address","indexed":true,"internalType":"address"}],"anonymous":false},{"type":"event","name":"StakeWithdrawn","inputs":[{"name":"operator","type":"address","indexed":true,"internalType":"address"},{"name":"amount","type":"uint256","indexed":false,"internalType":"uint256"}],"anonymous":false},{"type":"event","name":"Unpaused","inputs":[{"name":"account","type":"address","indexed":false,"internalType":"address"}],"anonymous":false},{"type":"error","name":"AccessControlBadConfirmation","inputs":[]},{"type":"error","name":"AccessControlUnauthorizedAccount","inputs":[{"name":"account","type":"address","internalType":"address"},{"name":"neededRole","type":"bytes32","internalType":"bytes32"}]},{"type":"error","name":"AttestationAlreadyExists","inputs":[{"name":"enclaveHash","type":"bytes32","internalType":"bytes32"}]},{"type":"error","name":"AttestationExpired","inputs":[{"name":"enclaveHash","type":"bytes32","internalType":"bytes32"}]},{"type":"error","name":"AttestationNotFound","inputs":[{"name":"enclaveHash","type":"bytes32","internalType":"bytes32"}]},{"type":"error","name":"ECDSAInvalidSignature","inputs":[]},{"type":"error","name":"ECDSAInvalidSignatureLength","inputs":[{"name":"length","type":"uint256","internalType":"uint256"}]},{"type":"error","name":"ECDSAInvalidSignatureS","inputs":[{"name":"s","type":"bytes32","internalType":"bytes32"}]},{"type":"error","name":"EnforcedPause","inputs":[]},{"type":"error","name":"ExpectedPause","inputs":[]},{"type":"error","name":"InsufficientStake","inputs":[{"name":"required","type":"uint256","internalType":"uint256"},{"name":"provided","type":"uint256","internalType":"uint256"}]},{"type":"error","name":"InvalidAttestationSignature","inputs":[]},{"type":"error","name":"InvalidValidityDuration","inputs":[{"name":"duration","type":"uint64","internalType":"uint64"}]},{"type":"error","name":"MeasurementNotAllowed","inputs":[{"name":"measurementHash","type":"bytes32","internalType":"bytes32"}]},{"type":"error","name":"NodeAlreadyRegistered","inputs":[{"name":"operator","type":"address","internalType":"address"}]},{"type":"error","name":"NodeNotActive","inputs":[{"name":"operator","type":"address","internalType":"address"}]},{"type":"error","name":"NodeNotRegistered","inputs":[{"name":"operator","type":"address","internalType":"address"}]},{"type":"error","name":"NothingToWithdraw","inputs":[]},{"type":"error","name":"PlatformNotEnabled","inputs":[{"name":"platform","type":"uint8","internalType":"enum TEEPlatform"}]},{"type":"error","name":"ReentrancyGuardReentrantCall","inputs":[]},{"type":"error","name":"StaleAttestation","inputs":[{"name":"lastAttestation","type":"uint64","internalType":"uint64"},{"name":"minFreshness","type":"uint64","internalType":"uint64"}]}],"bytecode":{"object":"0x6080346100e257601f61237438819003918201601f19168301916001600160401b038311848410176100e6578084926020946040528339810103126100e257516001600160a01b0381168082036100e25760017f9b779b17422d0df92223018b32b4d1fa46e071723d6817e2486d003becc55f0055156100b057806100866100a0926100fa565b5061009081610170565b5061009a81610203565b50610296565b50604051611faa908161032a8239f35b60405162461bcd60e51b815260206004820152600a6024820152692d32b9379030b236b4b760b11b6044820152606490fd5b5f80fd5b634e487b7160e01b5f52604160045260245ffd5b6001600160a01b0381165f9081525f5160206123545f395f51905f52602052604090205460ff1661016b576001600160a01b03165f8181525f5160206123545f395f51905f5260205260408120805460ff191660011790553391905f5160206122d45f395f51905f528180a4600190565b505f90565b6001600160a01b0381165f9081525f5160206122f45f395f51905f52602052604090205460ff1661016b576001600160a01b03165f8181525f5160206122f45f395f51905f5260205260408120805460ff191660011790553391907fa49807205ce4d355092ef5a8a18f56e8913cf4a201fbe287825b095693c21775905f5160206122d45f395f51905f529080a4600190565b6001600160a01b0381165f9081525f5160206123345f395f51905f52602052604090205460ff1661016b576001600160a01b03165f8181525f5160206123345f395f51905f5260205260408120805460ff191660011790553391907f71840dc4906352362b0cdaf79870196c8e42acafade72d5d5a6d59291253ceb1905f5160206122d45f395f51905f529080a4600190565b6001600160a01b0381165f9081525f5160206123145f395f51905f52602052604090205460ff1661016b576001600160a01b03165f8181525f5160206123145f395f51905f5260205260408120805460ff191660011790553391907f12b42e8a160f6064dc959c6f251e3af0750ad213dbecf573b4710d67d6c28e39905f5160206122d45f395f51905f529080a460019056fe608080604052600436101561001c575b50361561001a575f80fd5b005b5f3560e01c90816301ffc9a714611861575080630e2c0b10146117705780631f1573ef14611753578063200d0d901461153a57806322d545ec14611051578063248a9ca31461101f5780632cc14de514610e485780632f2ff15d14610e0b57806335dd336c14610d5957806336568abe14610d155780633f4ba83a14610caf578063474b288614610c875780634c15aa7314610c605780634d5e1da614610ae45780635095af6414610aaa5780635a627dbc14610a1c5780635c975abb146109fa578063721857ea146109dd57806375b238fc146109a3578063807dc34714610981578063809f2d8714610965578063817b1cd2146109485780638456cb59146108f057806391d14854146108a857806393942385146107e45780639a1c1f3b146107ba578063a217fddf146107a0578063a2955ff7146105ea578063a3112a64146104d6578063bed9d86114610391578063c9b4030b14610311578063cfcc75c5146102bb578063d547741f14610279578063e30bb56314610221578063f36c8f5c146101e75763fb1bcd88146101b4575f61000f565b346101e35760203660031901126101e3576004355f526004602052602060ff60405f2054166040519015158152f35b5f80fd5b346101e3575f3660031901126101e35760206040517f71840dc4906352362b0cdaf79870196c8e42acafade72d5d5a6d59291253ceb18152f35b346101e35760203660031901126101e3576004355f526002602052602060405f2060ff600382015460a01c16908161025f575b506040519015158152f35b6001600160401b0391506001015460481c16421082610254565b346101e35760403660031901126101e35761001a6004356102986118ca565b906102b66102b1825f525f602052600160405f20015490565b611b1a565b611d51565b346101e35760203660031901126101e3576004356102d7611a3c565b805f52600460205260405f2060ff1981541690557fd647711c0ef13ba6fb306e9195aed8a5d15d9cfd22b0ac0c2058f0bdc49363115f80a2005b346101e35760203660031901126101e35760043560048110156101e35760407f0ea2931ea23f87395669f5a810d2b87fda3900e7281c7e72ccaa7056ff7d5da29161035a611a3c565b610363816118e0565b5f8181526003602052829020805460ff60801b19169055815190610386816118e0565b81525f6020820152a1005b346101e3575f3660031901126101e3576103a9611b6d565b335f52600560205260405f2060028101546001600160401b038116156104c35760801c60ff166104b05760010180549081156104a1575f90556103ee81600854611a2f565b6008555f80808084335af13d1561049c573d61040981611970565b90610417604051928361194f565b81525f60203d92013e5b15610465576040519081527f8108595eb6bad3acefa9da467d90cc2217686d5c5ac85460f8b7849c840645fc60203392a260015f516020611f555f395f51905f5255005b60405162461bcd60e51b815260206004820152600f60248201526e151c985b9cd9995c8819985a5b1959608a1b6044820152606490fd5b610421565b630686827b60e51b5f5260045ffd5b6303398f4160e51b5f523360045260245ffd5b639c3baaed60e01b5f523360045260245ffd5b346101e35760203660031901126101e3575f60c06040516104f681611934565b8281528260208201528260408201528260608201528260808201528260a082015201526004355f52600260205260e060405f206040519061053682611934565b80548252600181015490602083019060ff8316610552816118e0565b82526001600160401b036040850193818160081c16855281606087019160481c1681528160036002850154946080890195865201549560a088019560018060a01b038816875260ff60c08a019860a01c161515885260405198518952516105b8816118e0565b60208901525116604087015251166060850152516080840152516001600160a01b031660a083015251151560c0820152f35b346101e35760603660031901126101e3576106036118b4565b335f9081527fab95ee8443670cc2f20498fec769f3646c2375509362f6df15e28d91d33951186020526040902054602435919060ff1615610769576001600160a01b0381165f818152600560205260409020600281018054929491926001600160401b031615610756577f631f19bdb09fa933a7fc0cca53d370cdf9eaef235d4cbcf5659e9ef8cf102af193670de0b6b3a76400006001604095018054948581115f1461074b57506106b58580611a2f565b81556106c385600854611a2f565b600855835463ffffffff60601b198116606091821c63ffffffff1660010190911b63ffffffff60601b161784555410610709575b505081519081526044356020820152a2005b815460ff60801b191690915561071e90611cc0565b50837f611bac8c254006e215e1718a4988f271370b6e40ab7edf3a387f00a471dbb78b5f80a284806106f7565b6106b5908096611a2f565b84639c3baaed60e01b5f5260045260245ffd5b63e2517d3f60e01b5f52336004527f12b42e8a160f6064dc959c6f251e3af0750ad213dbecf573b4710d67d6c28e3960245260445ffd5b346101e3575f3660031901126101e35760206040515f8152f35b346101e35760203660031901126101e3576004355f526006602052602060405f2054604051908152f35b346101e35760203660031901126101e35760043560048110156101e3575f606060405161081081611919565b828152826020820152826040820152015261082a816118e0565b5f526003602052608060405f2060405161084381611919565b81546001600160401b038082169384845260606020850191838560401c16835260ff6040870195891c16151585526001808060a01b0391015416940193845260405194855251166020840152511515604083015260018060a01b039051166060820152f35b346101e35760403660031901126101e3576108c16118ca565b6004355f525f60205260405f209060018060a01b03165f52602052602060ff60405f2054166040519015158152f35b346101e3575f3660031901126101e357610908611aab565b610910611b52565b600160ff19815416176001557f62e78cea01bee320cd4e420270b5ea74000d11b0c9f74754ebdbfc544b05a2586020604051338152a1005b346101e3575f3660031901126101e3576020600854604051908152f35b346101e3575f3660031901126101e3576020604051610e108152f35b346101e3575f3660031901126101e3576020604051670de0b6b3a76400008152f35b346101e3575f3660031901126101e35760206040517fa49807205ce4d355092ef5a8a18f56e8913cf4a201fbe287825b095693c217758152f35b346101e3575f3660031901126101e357602060405162278d008152f35b346101e3575f3660031901126101e357602060ff600154166040519015158152f35b5f3660031901126101e357335f5260056020526001600160401b03600260405f20015416156104c3573415610a7857335f526005602052600160405f2001610a6534825461198b565b9055610a733460085461198b565b600855005b60405162461bcd60e51b815260206004820152600a6024820152695a65726f207374616b6560b01b6044820152606490fd5b346101e3575f3660031901126101e35760206040517f12b42e8a160f6064dc959c6f251e3af0750ad213dbecf573b4710d67d6c28e398152f35b346101e35760203660031901126101e357600435805f52600260205260405f206001600160401b03600182015460081c1615610c4d5760030180546001600160a01b03811633148015610c16575b15610bd15760ff8160a01c1615610b8c5760ff60a01b19169055600780545f19019055604051426001600160401b031681527f9803778cf33ecc086c6fa4306bcee0c126e9f3858b050549b11eef44c38ca20290602090a2005b60405162461bcd60e51b815260206004820152601b60248201527f4174746573746174696f6e20616c7265616479207265766f6b656400000000006044820152606490fd5b60405162461bcd60e51b815260206004820152601860248201527f4e6f7420617574686f72697a656420746f207265766f6b6500000000000000006044820152606490fd5b50335f9081527f316a51056d8b2401ab04c48d9973add294eadde229c785c6d19cde93785467ef602052604090205460ff16610b32565b506301fb6dd160e01b5f5260045260245ffd5b346101e3575f3660031901126101e35760206040515f516020611f155f395f51905f528152f35b346101e35760203660031901126101e3576020610ca5600435611998565b6040519015158152f35b346101e3575f3660031901126101e357610cc7611aab565b60015460ff811615610d065760ff19166001557f5db9ee0a495bf2e6ff9c91a7834c1ba4fdd244a5e8aa4e537bd38aeae4b073aa6020604051338152a1005b638dfc202b60e01b5f5260045ffd5b346101e35760403660031901126101e357610d2e6118ca565b336001600160a01b03821603610d4a5761001a90600435611d51565b63334bd91960e11b5f5260045ffd5b346101e35760403660031901126101e35760043560243560048110156101e357610d81611a3c565b8115610dd35760207f25b790a615883cd3edcc1677d486efb838dd31be6249f15f00274fcdb9dd23df91835f526004825260405f20600160ff1982541617905560405190610dce816118e0565b8152a2005b60405162461bcd60e51b815260206004820152601060248201526f16995c9bc81b59585cdd5c995b595b9d60821b6044820152606490fd5b346101e35760403660031901126101e35761001a600435610e2a6118ca565b90610e436102b1825f525f602052600160405f20015490565b611c38565b5f3660031901126101e357610e5b611b52565b610e63611b6d565b335f5260056020526001600160401b03600260405f2001541661100c57670de0b6b3a76400003410610fed57610f96604051610e9e816118fe565b33815260208101348152610f7b63ffffffff60408401936001600160401b0342168552610f5b82606083015f81526001600160401b0380600260808701965f885260a081019a60018c52335f52600560205260405f209160018060a01b039060018060a01b03905116166bffffffffffffffffffffffff60a01b83541617825551600182015501995116166001600160401b03198954161788555116869063ffffffff60401b82549160401b169063ffffffff60401b1916179055565b51845463ffffffff60601b1916911660601b63ffffffff60601b16178355565b51815460ff60801b191690151560801b60ff60801b16179055565b610fa23460085461198b565b600855610fae33611ba5565b506040513481527e954abadd7a66dbadbd00f67ba3f2ef9430180dfd496028541b8272e435612c60203392a260015f516020611f555f395f51905f5255005b6322df051360e11b5f52670de0b6b3a76400006004523460245260445ffd5b63295548e560e01b5f523360045260245ffd5b346101e35760203660031901126101e35760206110496004355f525f602052600160405f20015490565b604051908152f35b346101e35760a03660031901126101e3576004356024359060048210156101e3576064356044356001600160401b0382116101e357366023830112156101e3578160040135916001600160401b0383116101e35736602484830101116101e357608435906001600160401b038216938483036101e357335f9081525f516020611f355f395f51905f52602052604090205460ff1615611516576110f2611b52565b6110fa611b6d565b611103876118e0565b865f52600360205260405f2092835460ff8160801c16156114fa57610e1087109081156114e4575b506114d157865f52600460205260ff60405f205416156114be57916111fa91611203949360405160208101918a83526111638c6118e0565b60f88c901b6040830152604182018990523360601b606183015260c01b6001600160c01b0319166075820152605d815261119e607d8261194f565b5190207f19457468657265756d205369676e6564204d6573736167653a0a3332000000005f52601c525f6020603c8220928060246111db82611970565b966111e9604051988961194f565b828852018387013784010152611dd1565b90939193611e0b565b600101546001600160a01b039081169116036114af57825f52600260205260405f206001600160401b03600182015460081c16159081158061149e575b1561148a57600301805460ff60a01b19169055505b6001600160401b0342169182016001600160401b03811161147657600360405161127e81611934565b858152602081019361128f886118e0565b87855260408201948686526001600160401b0360608401951685526080830191825260a083019533875260c084019560018752895f52600260205260405f2094518555600185019251916112e2836118e0565b6112eb836118e0565b8354905191516001600160881b031990911660ff939093169290921760089190911b68ffffffffffffffff00161760489190911b70ffffffffffffffff0000000000000000001617905551600282015592519201805491516001600160a81b03199092166001600160a01b03939093169290921790151560a01b60ff60a01b161790555f8281526006602052604090208054919068010000000000000000831015611462576001830180825583101561144e575f5260205f208260021c01916001600160401b0360c084549260061b1692831b921b1916179055335f526005602052611406600260405f200163ffffffff600181835460401c16011663ffffffff60401b82549160401b169063ffffffff60401b1916179055565b60405191611413816118e0565b82527fe527acd15c2dd785d31f80b6abaf8903db5c88d012b55d9ada8d4fff27af430e60203393a360015f516020611f555f395f51905f5255005b634e487b7160e01b5f52603260045260245ffd5b634e487b7160e01b5f52604160045260245ffd5b634e487b7160e01b5f52601160045260245ffd5b501561125557600160075401600755611255565b5060ff600382015460a01c16611240565b63159c4a1360e01b5f5260045ffd5b86634dedfabb60e11b5f5260045260245ffd5b8563071c02bd60e01b5f5260045260245ffd5b6001600160401b03915060401c1686118961112b565b63c6f24c5760e01b5f528861150e816118e0565b60045260245ffd5b63e2517d3f60e01b5f52336004525f516020611f155f395f51905f5260245260445ffd5b346101e35760803660031901126101e35760043560048110156101e3576024356001600160401b0381168091036101e357604435916001600160401b0383168093036101e3576064356001600160a01b03811692908390036101e35761159e611a3c565b6115a7826118e0565b811561171b5782156116e3578084106116a8577f0ea2931ea23f87395669f5a810d2b87fda3900e7281c7e72ccaa7056ff7d5da29360016040946116688651936115f085611919565b858552602085019081528785019084825260608601938452611611886118e0565b5f888152600360205289902095518654915192516001600160881b03199092166001600160401b03919091161791891b6fffffffffffffffff0000000000000000169190911790151560801b60ff60801b16178455565b818060a01b0390511691019060018060a01b03166bffffffffffffffffffffffff60a01b82541617905582519161169e816118e0565b82526020820152a1005b60405162461bcd60e51b81526020600482015260136024820152724d6178203c206d696e2066726573686e65737360681b6044820152606490fd5b60405162461bcd60e51b815260206004820152601060248201526f5a65726f207369676e696e67206b657960801b6044820152606490fd5b60405162461bcd60e51b815260206004820152601060248201526f496e76616c696420706c6174666f726d60801b6044820152606490fd5b346101e3575f3660031901126101e3576020600754604051908152f35b346101e35760203660031901126101e3576117896118b4565b5f60a0604051611798816118fe565b828152826020820152826040820152826060820152826080820152015260018060a01b03165f52600560205260c060405f20604051906117d7826118fe565b63ffffffff60018060a01b0382541692838152816002600185015494602084019586520154936001600160401b036040840181871681526060850192848860401c16845260ff60a06080880197878b60601c168952019860801c161515885260405198895251602089015251166040870152511660608501525116608083015251151560a0820152f35b346101e35760203660031901126101e3576004359063ffffffff60e01b82168092036101e357602091637965db0b60e01b81149081156118a3575b5015158152f35b6301ffc9a760e01b1490508361189c565b600435906001600160a01b03821682036101e357565b602435906001600160a01b03821682036101e357565b600411156118ea57565b634e487b7160e01b5f52602160045260245ffd5b60c081019081106001600160401b0382111761146257604052565b608081019081106001600160401b0382111761146257604052565b60e081019081106001600160401b0382111761146257604052565b90601f801991011681019081106001600160401b0382111761146257604052565b6001600160401b03811161146257601f01601f191660200190565b9190820180921161147657565b5f52600260205260405f2060ff600382015460a01c16158015611a15575b611a10576001015460ff81166119cb816118e0565b5f5260036020526001600160401b0360405f209160081c166001600160401b03421603906001600160401b038211611476576001600160401b03809154169116111590565b505f90565b506001600160401b03600182015460481c164210156119b6565b9190820391821161147657565b335f9081527f316a51056d8b2401ab04c48d9973add294eadde229c785c6d19cde93785467ef602052604090205460ff1615611a7457565b63e2517d3f60e01b5f52336004527f71840dc4906352362b0cdaf79870196c8e42acafade72d5d5a6d59291253ceb160245260445ffd5b335f9081527f7d7ffb7a348e1c6a02869081a26547b49160dd3df72d1d75a570eb9b698292ec602052604090205460ff1615611ae357565b63e2517d3f60e01b5f52336004527fa49807205ce4d355092ef5a8a18f56e8913cf4a201fbe287825b095693c2177560245260445ffd5b5f8181526020818152604080832033845290915290205460ff1615611b3c5750565b63e2517d3f60e01b5f523360045260245260445ffd5b60ff60015416611b5e57565b63d93c066560e01b5f5260045ffd5b60025f516020611f555f395f51905f525414611b965760025f516020611f555f395f51905f5255565b633ee5aeb560e01b5f5260045ffd5b6001600160a01b0381165f9081525f516020611f355f395f51905f52602052604090205460ff16611a10576001600160a01b03165f8181525f516020611f355f395f51905f5260205260408120805460ff191660011790553391905f516020611f155f395f51905f52907f2f8788117e7eff1d82e926ec794901d17c78024a50270940304540a733656f0d9080a4600190565b5f818152602081815260408083206001600160a01b038616845290915290205460ff16611cba575f818152602081815260408083206001600160a01b0395909516808452949091528120805460ff19166001179055339291907f2f8788117e7eff1d82e926ec794901d17c78024a50270940304540a733656f0d9080a4600190565b50505f90565b6001600160a01b0381165f9081525f516020611f355f395f51905f52602052604090205460ff1615611a10576001600160a01b03165f8181525f516020611f355f395f51905f5260205260408120805460ff191690553391905f516020611f155f395f51905f52907ff6391f5c32d9c69d2a47ea670b442974b53935d1edc7fd64eb21e047a839171b9080a4600190565b5f818152602081815260408083206001600160a01b038616845290915290205460ff1615611cba575f818152602081815260408083206001600160a01b0395909516808452949091528120805460ff19169055339291907ff6391f5c32d9c69d2a47ea670b442974b53935d1edc7fd64eb21e047a839171b9080a4600190565b8151919060418303611e0157611dfa9250602082015190606060408401519301515f1a90611e87565b9192909190565b50505f9160029190565b611e14816118e0565b80611e1d575050565b611e26816118e0565b60018103611e3d5763f645eedf60e01b5f5260045ffd5b611e46816118e0565b60028103611e61575063fce698f760e01b5f5260045260245ffd5b600390611e6d816118e0565b14611e755750565b6335e2f38360e21b5f5260045260245ffd5b91907f7fffffffffffffffffffffffffffffff5d576e7357a4501ddfe92f46681b20a08411611f09579160209360809260ff5f9560405194855216868401526040830152606082015282805260015afa15611efe575f516001600160a01b03811615611ef457905f905f90565b505f906001905f90565b6040513d5f823e3d90fd5b5050505f916003919056fe8afe619008caa94d998158991ee54511e5059bcccca3d3b478569410d3f4f9db5c5aa4ce47aa0197f4a818693e66d92fb17e0e378c20258546593d7163a269bf9b779b17422d0df92223018b32b4d1fa46e071723d6817e2486d003becc55f00a264697066735822122049be2d5d481a7874e98caf63257edfe016c853f825c851407a53c0b2581850cf64736f6c634300081c00332f8788117e7eff1d82e926ec794901d17c78024a50270940304540a733656f0d7d7ffb7a348e1c6a02869081a26547b49160dd3df72d1d75a570eb9b698292ecab95ee8443670cc2f20498fec769f3646c2375509362f6df15e28d91d3395118316a51056d8b2401ab04c48d9973add294eadde229c785c6d19cde93785467efad3228b676f7d3cd4284a5443f17f1962b36e491b30a40b2405849e597ba5fb5","linkReferences":{}},"methodIdentifiers":{"ADMIN_ROLE()":"75b238fc","DEFAULT_ADMIN_ROLE()":"a217fddf","GOVERNANCE_ROLE()":"f36c8f5c","MAX_ATTESTATION_VALIDITY()":"721857ea","MIN_ATTESTATION_VALIDITY()":"809f2d87","MIN_NODE_STAKE()":"807dc347","SLASHER_ROLE()":"5095af64","TEE_NODE_ROLE()":"4c15aa73","addStake()":"5a627dbc","allowMeasurement(bytes32,uint8)":"35dd336c","disablePlatform(uint8)":"c9b4030b","getAttestation(bytes32)":"a3112a64","getAttestationHistoryLength(bytes32)":"9a1c1f3b","getNodeOperator(address)":"0e2c0b10","getPlatformPolicy(uint8)":"93942385","getRoleAdmin(bytes32)":"248a9ca3","grantRole(bytes32,address)":"2f2ff15d","hasRole(bytes32,address)":"91d14854","isAttestationFresh(bytes32)":"474b2886","isAttestationValid(bytes32)":"e30bb563","isMeasurementAllowed(bytes32)":"fb1bcd88","pause()":"8456cb59","paused()":"5c975abb","registerNodeOperator()":"2cc14de5","renounceRole(bytes32,address)":"36568abe","revokeAttestation(bytes32)":"4d5e1da6","revokeMeasurement(bytes32)":"cfcc75c5","revokeRole(bytes32,address)":"d547741f","setPlatformPolicy(uint8,uint64,uint64,address)":"200d0d90","slashOperator(address,uint256,bytes32)":"a2955ff7","submitAttestation(bytes32,uint8,bytes32,bytes,uint64)":"22d545ec","supportsInterface(bytes4)":"01ffc9a7","totalActiveAttestations()":"1f1573ef","totalStaked()":"817b1cd2","unpause()":"3f4ba83a","withdrawStake()":"bed9d861"},"id":8}